:100000000C9463000C941B080C94F4070C948B0064
:100010000C948B000C948B000C948B000C948B0034
:100020000C948B000C948B000C948B000C948B0024
:100030000C948B000C948B000C948B000C948B0014
:100040000C94AA070C948B000C9468080C9442083A
:100050000C948B000C948B000C948B000C948B00F4
:100060000C948B000C948B00727400927400489472
:100070000078C40000000000240027002A000000CF
:100080000000250028002B000404040404040404D8
:100090000202020202020303030303030102040833
:1000A00010204080010204081020010204081020E2
:1000B0000000000800020100000304070000000027
:1000C000000000009A0811241FBECFEFD8E0DEBF69
:1000D000CDBF11E0A0E0B1E0EEEAF7E102C005908B
:1000E0000D92AC38B107D9F723E0ACE8B1E001C01C
:1000F0001D92AF35B207E1F710E0C3E6D0E004C0CF
:100100002197FE010E94C10BC236D107C9F70E9498
:10011000F9080C94D50B0C9400008230B8F4E82F49
:10012000F0E0EE0FFF1FE050FF4F718360838130DE
:1001300039F080916900836080936900E89A08959E
:10014000809169008C6080936900E99A0895FC01B0
:10015000738362830895FC01778366830895FC01AD
:100160007583648308950895089590E0FC01E05537
:10017000FF4F3491FC01E456FF4F2491FC01E857F6
:10018000FF4FE491EE2309F43BC0332339F13330C0
:1001900091F038F43130A9F0323001F584B58F7D1B
:1001A00012C0373091F03830A1F03430B9F480917A
:1001B00080008F7D03C0809180008F7780938000C6
:1001C0000DC084B58F7784BD09C08091B0008F7752
:1001D00003C08091B0008F7D8093B000F0E0EE0FFF
:1001E000FF1FE258FF4FA591B4918FB7F894EC919F
:1001F000611103C020952E2301C02E2B2C938FBF9D
:100200000895CF93DF9390E0FC01E456FF4F2491D3
:10021000FC01E857FF4F8491882361F190E0880F3B
:10022000991FFC01EC58FF4FC591D491FC01E25895
:10023000FF4FA591B491611109C09FB7F8948881CF
:10024000209582238883EC912E230BC0623061F4C9
:100250009FB7F8943881822F809583238883EC910F
:100260002E2B2C939FBF06C08FB7F894E8812E2BBE
:1002700028838FBFDF91CF9108953FB7F894809185
:10028000980190919901A0919A01B0919B0126B596
:10029000A89B05C02F3F19F00196A11DB11D3FBFBE
:1002A000BA2FA92F982F8827820F911DA11DB11D4C
:1002B000BC01CD0142E0660F771F881F991F4A9548
:1002C000D1F708958F929F92AF92BF92CF92DF9213
:1002D000EF92FF926B017C010E943D014B015C019A
:1002E000C114D104E104F104F1F00E943D01DC01EC
:1002F000CB0188199909AA09BB09883E9340A10539
:10030000B10570F321E0C21AD108E108F10888EEC6
:10031000880E83E0981EA11CB11CC114D104E10415
:10032000F10419F7DDCFFF90EF90DF90CF90BF90F1
:10033000AF909F908F9008952FB7F894609194019B
:100340007091950180919601909197012FBF08952A
:100350000895CF92DF92EF92FF920F931F93CF9366
:10036000DF936C017A018B01C0E0D0E0CE15DF0590
:1003700089F0D8016D918D01D601ED91FC9101902C
:10038000F081E02DC6010995892B11F47E0102C090
:100390002196ECCFC701DF91CF911F910F91FF9074
:1003A000EF90DF90CF900895089580E090E0089559
:1003B000FC01538D448D252F30E0842F90E0821B6B
:1003C000930B541710F0CF96089501970895FC01F0
:1003D000918D828D981761F0828DDF01A80FB11D7C
:1003E0005D968C91928D9F5F9F73928F90E00895A0
:1003F0008FEF9FEF0895FC01918D828D981731F05A
:10040000828DE80FF11D858D90E008958FEF9FEFAD
:100410000895FC01918D228D892F90E0805C9F4F83
:10042000821B91098F73992708958CE991E00E94AE
:10043000090221E0892B09F420E0822F0895FC01B4
:10044000848DDF01A80FB11DA35ABF4F2C91848D5D
:1004500090E001968F739927848FA689B7892C9392
:10046000A089B1898C9180648C93938D848D98132D
:1004700006C00288F389E02D80818F7D80830895F6
:10048000EF92FF920F931F93CF93DF93EC0181E0E4
:10049000888F9B8D8C8D981305C0E889F9898081A0
:1004A00085FD24C0F62E0B8D10E00F5F1F4F0F73DC
:1004B0001127E02E8C8DE8120CC00FB607FCFACF86
:1004C000E889F989808185FFF5CFCE010E941F025E
:1004D000F1CF8B8DFE01E80FF11DE35AFF4FF08243
:1004E0000B8FEA89FB898081806207C0EE89FF89D2
:1004F0006083E889F98980818064808381E090E06D
:10050000DF91CF911F910F91FF90EF900895CF93BE
:10051000DF93EC01888D8823C9F0EA89FB8980810B
:1005200085FD05C0A889B9898C9186FD0FC00FB6DD
:1005300007FCF5CF808185FFF2CFA889B9898C911E
:1005400085FFEDCFCE010E941F02E7CFDF91CF9153
:10055000089580E090E0892B29F00E941502811116
:100560000C9400000895EF92FF920F931F93CF9386
:10057000DF931F92CDB7DEB77C01162F0FB7F8942B
:1005800060E0DC015A968C9149830E94B500F70126
:10059000808D918DDC01ED91FC91612F606801905F
:1005A000F081E02D0995182FF701808D918DDC01E8
:1005B000ED91FC910190F081E02D4981642F099526
:1005C00061E0F701828D0E94B5000FBF812F0F906F
:1005D000DF91CF911F910F91FF90EF900895CF93EE
:1005E000DF93EC0144E06DE40E94B30248E869E067
:1005F000CE01DF91CF910C94B3020F931F93CF9351
:10060000DF93EC01162F0FB7F89460E08A8D0E94FB
:10061000B500888D998DDC01ED91FC91612F6F778C
:100620000190F081E02D0995888D998DDC01ED9187
:10063000FC910190F081E02D60E00995182F61E0B8
:100640008A8D0E94B5000FBF812FDF91CF911F913E
:100650000F910895CF93DF93EC01888D998DDC0184
:10066000ED91FC910680F781E02D099561E08A8D7E
:100670000E94010161E08A8D0E94B50064E670E08D
:1006800080E090E00E94620181E0DF91CF910895C7
:100690008CB58F7B8CBD08958CB58F778CBD0895FC
:1006A0008CB580688CBD08956EBD00000DB407FE4A
:1006B000FDCF8EB508959CB5282F23709C7F922B7B
:1006C0009CBD2DB582FB992790F9822F8E7F892BB7
:1006D0008DBD0895CF93FC01268137812115310509
:1006E00049F02130310541F02230310539F0233015
:1006F000310531F020E005C024E003C028E001C04E
:100700002CE09CB5937F922B9CBD848195810197B1
:1007100061F58CB580628CBD8281938101978430B4
:10072000910528F4FC01E85FFE4FC08101C0C1E0E3
:100730008C2F0E945B0361E08AE00E94B50061E0BB
:100740008AE00E9401018CB580618CBD8CB580640B
:100750008CBD61E08DE00E94010161E08BE00E94B0
:1007600001018C2FCF910C945B039CB59F7D9CBDA8
:10077000D3CF80E00895FC0181850895FC01808538
:100780000895FC0187810895FC0186810895FC018C
:10079000409595854923642B65870895FC016487FE
:1007A0000895FC0163870895FC0162870895FC01A8
:1007B00064830895FC016583089580E008958F9215
:1007C0009F92AF92BF92CF92DF92EF92FF92CF9320
:1007D000DF93EC016B010E949C014B015C01E12C59
:1007E000F12C0E949C01DC01CB0188199909AA090E
:1007F000BB098C159D05AE05BF0530F48A819B8130
:10080000039779F381E001C080E0DF91CF91FF9001
:10081000EF90DF90CF90BF90AF909F908F90089512
:10082000FC012281338123303105D1F381E0089529
:100830008F929F92AF92BF92CF92DF92EF92FF92F0
:10084000CF93DF93EC016B010E949C014B015C0193
:10085000E12CF12C0E949C01DC01CB018819990943
:10086000AA09BB098C159D05AE05BF0550F4E881AA
:10087000F9810280F381E02DCE010995882351F39F
:1008800001C080E0DF91CF91FF90EF90DF90CF909B
:10089000BF90AF909F908F900895CF93DF93EC011E
:1008A000E881F9810280F381E02DCE01099588234A
:1008B000B9F3DF91CF91089581E00895CF93DF934D
:1008C000EC018A819B81059771F047E061E0CE01E0
:1008D0000E94B30240E860E4CE010E94B30285E0CA
:1008E00090E09B838A838A819B810597E1F38D89C0
:1008F000DF91CF910895CF93DF93FC012281338163
:100900002130310549F0EC0140E061E00E94B30282
:1009100081E090E09B838A8381E0DF91CF9108950D
:10092000CF93DF93FC01228133812230310549F0DE
:10093000EC0141E061E00E94B30282E090E09B8321
:100940008A83DF91CF910895CF92DF92EF92FF9249
:10095000CF93DF93EC01CB01BA0120E034E244E70E
:1009600059E40E94540B20E034E244E752E40E9430
:10097000620A0E94D40A6B017C01A70166277727CF
:1009800066E0CE010E94B30277276F2D5E2D4D2DBC
:1009900067E0CE010E94B3024C2D68E0CE010E94B8
:1009A000B30281E0DF91CF91FF90EF90DF90CF9085
:1009B00008958BEF0895BF92CF92DF92EF92FF924E
:1009C0000F931F93CF93DF934C3F10F0E12C6FC038
:1009D000142F072FF62EEC01E881F9810484F585A8
:1009E000E02D0995CE010E949004E881F9810288EA
:1009F000F389E02DCE010995E82E882339F340E0F4
:100A00006DE0CE010E94B3024A8560E0CE010E94F3
:100A1000B3024B8560E0CE010E94B3024C8560E0DA
:100A2000CE010E94B3024D8560E0CE010E94B30268
:100A3000BFB6F89460E08A8D0E94B500888D998DCC
:100A4000DC01ED91FC910190F081E02D60E80995C9
:100A5000CF2CD02E012F015068F0888D998DF60192
:100A600061916F01DC01ED91FC910190F081E02D2D
:100A70000995F1CF61E08A8D0E94B500BFBE44E0C8
:100A8000410F62E2CE010E94B3028A819B810397EB
:100A900071F043E061E0CE010E94B30240E460E403
:100AA000CE010E94B30283E090E09B838A838E2D67
:100AB000DF91CF911F910F91FF90EF90DF90CF903A
:100AC000BF900895CF93DF93FC01228133812330BF
:100AD0003105B9F0EC0182819381049771F045E012
:100AE00061E0CF010E94B30240E060E4CE010E94C9
:100AF000B30284E090E09B838A83C35EDE4F8881EB
:100B000001C080E0DF91CF910895DF92EF92FF92D4
:100B10000F931F93CF93DF93EC0162E10E94FD02DC
:100B20002A813B812430310521F4982F907A09F0F5
:100B300068C02A813B812430310509F073C086FFEB
:100B400071C063E1CE010E94FD02F82E60E1CE018A
:100B50000E94FD02482F6DE0CE010E94B302DFB675
:100B6000F89460E08A8D0E94B500888D998DDC0133
:100B7000ED91FC910190F081E02D60E009958E01EE
:100B8000025E1F4FEF2CE00EE01671F0888D998DFC
:100B9000DC01ED91FC910190F081E02D60E0099580
:100BA000F80181938F01F0CF61E08A8D0E94B5003A
:100BB000DFBEFD8E4FEF62E1CE010E94B3026AE11B
:100BC000CE010E94FD0289588E878D8DFE01E35E65
:100BD000FE4F843090F08E8D8E838F8D8F8388A111
:100BE000888789A189878D81811129C09E818C8107
:100BF000981729F18E818F3F11F18081882331F080
:100C00002FC08F8598890196988B8F874FEF62E16F
:100C1000CE01DF91CF911F910F91FF90EF90DF9068
:100C20000C94B3022A813B812330310581F483FF88
:100C30000EC08B899C8901969C8B8B8B11C08989F6
:100C40009A8901969A8B898B81E08083D6CF2A81FD
:100C50003B8125303105D1F682FFD8CF81708D8B55
:100C6000CE010E949004D2CF809191019091920187
:100C7000009711F00C948505089580918F01909153
:100C80009001009711F00C948505089580918D01D5
:100C900090918E01009711F00C9485050895CF93E3
:100CA000DF93009779F0FC0101900020E9F731977C
:100CB000AF01481B590BBC018CE991E00E94A901CE
:100CC000EC0102C0C0E0D0E042E050E062E671E03A
:100CD0008CE991E00E94A9018C0F9D1FDF91CF91BB
:100CE00008950E94C70B8F929F92AF92BF92CF92AE
:100CF000DF92EF92FF92CF93DF93FC012689378931
:100D0000232B11F481E038C0EC010E949C016B019F
:100D10007C0189E0882E912CA12CB12CE881F981ED
:100D20000488F589E02DCE010995882359F30E94A6
:100D30009C01AB01BC014C195D096E097F098E89CC
:100D40009F89A0E0B0E084179507A607B70798F041
:100D50000E94E809A50194010E94FF099B01AC01D2
:100D60002F5F3F4F4F4F5F4FA4E6B0E00E941E0A37
:100D70000E946201D3CF80E0DF91CF91FF90EF908E
:100D8000DF90CF90BF90AF909F908F900895CF92BB
:100D9000DF92EF92FF920F931F93CF93DF93EC01BB
:100DA0007B018A01E881F9810280F381E02D0995B8
:100DB000D82E882339F1E114F104E1F00115110571
:100DC000C9F0CFB6F8942D8D30E023503109F801E9
:100DD000808190E0821793071CF09D8D9450908342
:100DE000F801408150E0BE016E5D7F4FC7010E9457
:100DF000CC0BCFBE8FB7F894FE01E35EFE4F10829E
:100E00001D8E8FBF8D2DDF91CF911F910F91FF9080
:100E1000EF90DF90CF900895EF92FF920F931F9382
:100E2000CF93DF9300D01F92CDB7DEB78C010E9425
:100E30002A03E82E811102C0E12C81C0F801838DC4
:100E4000823029F08330C1F7FF24F39401C0F12CE4
:100E500040E861E0C8010E94B3026AE070E080E00F
:100E600090E00E94620161E0C8010E94FD028038AA
:100E700019F760E0F801838D0E940101F801848D6B
:100E80008F3F49F480918C018430B0F691E0980F47
:100E900090938C01848FF801948DE92FF0E0EE0F90
:100EA000FF1FE357FE4F11830083911103C066E4D7
:100EB00076E00AC0913019F46DE376E005C0923017
:100EC00009F0BACF64E376E08F2D0E948D0040E0F8
:100ED0006EE0C8010E94B30240E06FE0C8010E94CA
:100EE000B302C8010E94900443E050E068E670E05D
:100EF000CE0101960E94F60949816DE1C8010E9468
:100F0000B3024A816EE1C8010E94B3024B8166E2DE
:100F1000C8010E94B30240E060E2C8010E94B3022F
:100F200048E061E2C8010E94B30240E050E069ED90
:100F300073E4C8010E94A404C8010E94EF028E2D30
:100F40000F900F900F90DF91CF911F910F91FF9015
:100F5000EF9008951F920F920FB60F9211242F93C6
:100F60003F938F939F93AF93BF9380919401909100
:100F70009501A0919601B09197013091930123E0E2
:100F8000230F2D3720F40196A11DB11D05C026E8C1
:100F9000230F0296A11DB11D20939301809394010C
:100FA00090939501A0939601B09397018091980139
:100FB00090919901A0919A01B0919B010196A11D78
:100FC000B11D8093980190939901A0939A01B093D9
:100FD0009B01BF91AF919F918F913F912F910F9066
:100FE0000FBE0F901F9018951F920F920FB60F9281
:100FF00011242F933F934F935F936F937F938F931E
:101000009F93AF93BF93EF93FF93E0910201F09111
:1010100003010995FF91EF91BF91AF919F918F913E
:101020007F916F915F914F913F912F910F900FBEE4
:101030000F901F9018951F920F920FB60F921124C8
:101040002F933F934F935F936F937F938F939F93D0
:10105000AF93BF93EF93FF93E0910001F0910101F3
:101060000995FF91EF91BF91AF919F918F917F91E2
:101070006F915F914F913F912F910F900FBE0F9005
:101080001F9018951F920F920FB60F9211242F9355
:101090003F934F935F936F937F938F939F93AF9300
:1010A000BF93EF93FF938CE991E00E941F02FF91A1
:1010B000EF91BF91AF919F918F917F916F915F91D0
:1010C0004F913F912F910F900FBE0F901F90189549
:1010D0001F920F920FB60F9211242F938F939F930D
:1010E000EF93FF93E091AC01F091AD018081E0912D
:1010F000B201F091B30182FD12C090818091B501DF
:101100008F5F8F732091B601821751F0E091B50186
:10111000F0E0E456FE4F958F8093B50101C08081C9
:10112000FF91EF919F918F912F910F900FBE0F9094
:101130001F901895ECE9F1E01382128288EE93E09B
:10114000A0E0B0E084839583A683B78380E191E03B
:101150009183808385EC90E09587848784EC90E090
:101160009787868780EC90E0918B808B81EC90E074
:10117000938B828B82EC90E0958B848B86EC90E055
:10118000978B868B118E128E138E148EA9E3B2E08C
:1011900013961C921E92129715961C921E921497EB
:1011A00017961C921E92169782E291E011969C93DC
:1011B0008E93E1E4F2E0138212828FEF84838287C0
:1011C000838714861586108A1786128A118A148AD4
:1011D000138A178A168AB18FA08F9AE0928F26E31E
:1011E00031E03183208310925E0392E0938F848FED
:1011F0000895789484B5826084BD84B5816084BD8F
:1012000085B5826085BD85B5816085BD80916E00A4
:10121000816080936E0010928100809181008260D5
:101220008093810080918100816080938100809112
:1012300080008160809380008091B1008460809301
:10124000B1008091B00081608093B00080917A00FD
:10125000846080937A0080917A00826080937A0023
:1012600080917A00816080937A0080917A00806812
:1012700080937A001092C10061E080E10E94010138
:10128000E091AC01F091AD0182E08083E091A80192
:10129000F091A9011082E091AA01F091AB018FECCD
:1012A00080831092B401E091B001F091B10186E029
:1012B0008083E091AE01F091AF01808180618083F5
:1012C000E091AE01F091AF01808188608083E09170
:1012D000AE01F091AF01808180688083E091AE0122
:1012E000F091AF0180818F7D808385E691E00E943F
:1012F0004F0681E492E00E940C07811104C082E74E
:1013000091E00E944F0640E050E868ED73E481E40C
:1013100092E00E94A40481E492E00E94EF028EE732
:1013200091E00E944F0685E891E00E944F060E94DE
:10133000A902F5CF8F929F92AF92BF92CF92DF9288
:10134000EF92FF92CF93DF93EC01688179818A81DC
:101350009B81611571058105910521F464E279EDA8
:101360008BE597E02DE133EF41E050E00E94FF096B
:1013700049015A019B01AC01A7EAB1E40E941E0A8F
:101380006B017C01ACEEB4EFA50194010E942C0A24
:10139000DC01CB018C0D9D1DAE1DBF1DB7FF03C031
:1013A0000197A109B04888839983AA83BB83BC01B4
:1013B000CD019F77DF91CF91FF90EF90DF90CF909D
:1013C000BF90AF909F908F9008950E949A090895C2
:1013D00084E091E00E949A0908956093040170935B
:1013E000050180930601909307010895FB01DC013C
:1013F00002C005900D9241505040D8F70895052E37
:1014000097FB1EF400940E94160A57FD07D00E9415
:10141000310A07FC03D04EF40C94160A50954095FF
:10142000309521953F4F4F4F5F4F08959095809590
:10143000709561957F4F8F4F9F4F08950E94530A7B
:10144000A59F900DB49F900DA49F800D911D112418
:101450000895B7FF0C941E0A0E941E0A821B930B6C
:101460000895A1E21A2EAA1BBB1BFD010DC0AA1FE5
:10147000BB1FEE1FFF1FA217B307E407F50720F0FD
:10148000A21BB30BE40BF50B661F771F881F991F78
:101490001A9469F760957095809590959B01AC01C1
:1014A000BD01CF010895A29FB001B39FC001A39FCA
:1014B000700D811D1124911DB29F700D811D11248D
:1014C000911D08950E94760A0C941A0B0E94130B2A
:1014D00058F00E940C0B40F029F45F3F29F00C9467
:1014E000030B51110C944E0B0C94090B0E942B0B07
:1014F00068F39923B1F3552391F3951B550BBB2743
:10150000AA2762177307840738F09F5F5F4F220F87
:10151000331F441FAA1FA9F335D00E2E3AF0E0E87E
:1015200032D091505040E695001CCAF72BD0FE2FC8
:1015300029D0660F771F881FBB1F2617370748075C
:10154000AB07B0E809F0BB0B802DBF01FF27935814
:101550005F4F3AF09E3F510578F00C94030B0C94CA
:101560004E0B5F3FE4F3983ED4F3869577956795ED
:10157000B795F7959F5FC9F7880F911D9695879549
:1015800097F90895E1E0660F771F881FBB1F621768
:1015900073078407BA0720F0621B730B840BBA0B26
:1015A000EE1F88F7E09508950E94330B88F09F574F
:1015B00098F0B92F9927B751B0F0E1F0660F771F77
:1015C000881F991F1AF0BA95C9F714C0B13091F06D
:1015D0000E944D0BB1E008950C944D0B672F782FAE
:1015E0008827B85F39F0B93FCCF386957795679532
:1015F000B395D9F73EF490958095709561957F4F9E
:101600008F4F9F4F089597F99F6780E870E060E0E3
:1016100008959FEF80EC089500240A94161617068B
:1016200018060906089500240A94121613061406D3
:1016300005060895092E0394000C11F4882352F036
:10164000BB0F40F4BF2B11F460FF04C06F5F7F4FEE
:101650008F4F9F4F089557FD9058440F551F59F0D5
:101660005F3F71F04795880F97FB991F61F09F3F8F
:1016700079F087950895121613061406551FF2CFB8
:101680004695F1DF08C0161617061806991FF1CF08
:1016900086957105610508940895E894BB2766272F
:1016A0007727CB0197F908950E94670B0C941A0BCA
:1016B0000E940C0B38F00E94130B20F0952311F0C0
:1016C0000C94030B0C94090B11240C944E0B0E94E8
:1016D0002B0B70F3959FC1F3950F50E0551F629F40
:1016E000F001729FBB27F00DB11D639FAA27F00D7B
:1016F000B11DAA1F649F6627B00DA11D661F829FA2
:101700002227B00DA11D621F739FB00DA11D621F86
:10171000839FA00D611D221F749F3327A00D611DA3
:10172000231F849F600D211D822F762F6A2F112485
:101730009F5750409AF0F1F088234AF0EE0FFF1FB8
:10174000BB1F661F771F881F91505040A9F79E3F0F
:10175000510580F00C94030B0C944E0B5F3FE4F3A7
:10176000983ED4F3869577956795B795F795E79565
:101770009F5FC1F7FE2B880F911D9695879597F96E
:101780000895EE0FFF1F0590F491E02D099481E07C
:1017900090E0F8940C94D50BFB01DC0102C00190A1
:0E17A0000D9241505040D8F70895F894FFCFB5
:1017AE00A801A801010000000500040400000000CB
:1017BE004002A901D80187020902E701FB010000DE
:1017CE000000540350034C036A034803AF00AB0000
:1017DE00A700000000000C076205C706DB04D90451
:1017EE004D041004DF03180473065E04D703D403FC
:1017FE00D103CE03C703DA03C403C103BE03BB0385
:10180E007B040D0A00537461727420536B6574630C
:10181E006800696E6974206661696C656400636F47
:0C182E0075636F7500706F7565740000C5
:00000001FF
