:100000000C946C000C947F0D0C94580D0C9494007F
:100010000C9494000C9494000C9494000C94940010
:100020000C9494000C9494000C9494000C94940000
:100030000C9494000C9494000C9494000C949400F0
:100040000C940E0D0C9494000C94E9100C94C310B5
:100050000C9494000C9494000C9494000C949400D0
:100060000C9494000C94940072756E2D6272696405
:1000700067650A000A000A007274009274004894CE
:100080000078C40000000000240027002A000000BF
:100090000000250028002B000404040404040404C8
:1000A0000202020202020303030303030102040823
:1000B00010204080010204081020010204081020D2
:1000C0000000000800020100000304070000000017
:1000D000000000000912FF1111241FBECFEFD8E06D
:1000E000DEBFCDBF11E0A0E0B1E0ECEBFFE202C06B
:1000F00005900D92A43DB107D9F723E0A4EDB1E03E
:1001000001C01D92A53EB207E1F710E0CBE6D0E0BA
:1001100004C02197FE010E94A715CA36D107C9F76E
:100120000E9497120C94D1170C940000089580E05F
:1001300090E00895FC0126813781620F731F84814E
:1001400095818617970738F082819381778366833C
:10015000820F931F089580E090E00895CF93DF937E
:10016000FC012281338123303105B9F0EC01828119
:100170009381049771F045E061E0CF010E941B116B
:1001800040E060E4CE010E941B1184E090E09B837C
:100190008A83C35EDE4F888101C080E0DF91CF910A
:1001A0000895BF92CF92DF92EF92FF920F931F9329
:1001B000CF93DF934C3F10F0E12C6FC0142F072F2B
:1001C000F62EEC01E881F9810484F585E02D09958E
:1001D000CE010E94B611E881F9810288F389E02DF1
:1001E000CE010995E82E882339F340E06DE0CE0179
:1001F0000E941B114A8560E0CE010E941B114B85B5
:1002000060E0CE010E941B114C8560E0CE010E948F
:100210001B114D8560E0CE010E941B11BFB6F89402
:1002200060E08A8D0E947C0A888D998DDC01ED91B9
:10023000FC910190F081E02D60E80995CF2CD02E43
:10024000012F015068F0888D998DF60161916F0141
:10025000DC01ED91FC910190F081E02D0995F1CF49
:1002600061E08A8D0E947C0ABFBE44E0410F62E2D9
:10027000CE010E941B118A819B81039771F043E09C
:1002800061E0CE010E941B1140E460E4CE010E94B7
:100290001B1183E090E09B838A838E2DDF91CF91A9
:1002A0001F910F91FF90EF90DF90CF90BF90089536
:1002B000CF92DF92EF92FF920F931F93CF93DF9332
:1002C000EC017B018A01E881F9810280F381E02D54
:1002D0000995D82E882339F1E114F104E1F00115D4
:1002E0001105C9F0CFB6F8942D8D30E023503109B7
:1002F000F801808190E0821793071CF09D8D945047
:100300009083F801408150E0BE016E5D7F4FC701D0
:100310000E94A917CFBE8FB7F894FE01E35EFE4F8F
:1003200010821D8E8FBF8D2DDF91CF911F910F9168
:10033000FF90EF90DF90CF900895DF92EF92FF92C1
:100340000F931F93CF93DF93EC0162E10E94891119
:100350002A813B812430310521F4982F907A09F0CD
:1003600068C02A813B812430310509F073C086FFC3
:1003700071C063E1CE010E948911F82E60E1CE01C7
:100380000E948911482F6DE0CE010E941B11DFB63B
:10039000F89460E08A8D0E947C0A888D998DDC013A
:1003A000ED91FC910190F081E02D60E009958E01C6
:1003B000025E1F4FEF2CE00EE01671F0888D998DD4
:1003C000DC01ED91FC910190F081E02D60E0099558
:1003D000F80181938F01F0CF61E08A8D0E947C0A41
:1003E000DFBEFD8E4FEF62E1CE010E941B116AE17C
:1003F000CE010E94891189588E878D8DFE01E35EA2
:10040000FE4F843090F08E8D8E838F8D8F8388A1E8
:10041000888789A189878D81811129C09E818C81DE
:10042000981729F18E818F3F11F18081882331F057
:100430002FC08F8598890196988B8F874FEF62E147
:10044000CE01DF91CF911F910F91FF90EF90DF9040
:100450000C941B112A813B812330310581F483FFE9
:100460000EC08B899C8901969C8B8B8B11C08989CE
:100470009A8901969A8B898B81E08083D6CF2A81D5
:100480003B8125303105D1F682FFD8CF81708D8B2D
:10049000CE010E94B611D2CF8091E5019091E60184
:1004A000009711F00C949D0108958091E3019091C3
:1004B000E401009711F00C949D0108958091E101F1
:1004C0009091E201009711F00C949D010895EF9234
:1004D000FF920F931F93CF93DF9300D01F92CDB75E
:1004E000DEB78C010E94C70FE82E811102C0E12CFB
:1004F00081C0F801838D823029F08330C1F7FF2459
:10050000F39401C0F12C40E861E0C8010E941B1186
:100510006AE070E080E090E00E94040B61E0C801B6
:100520000E948911803819F760E0F801838D0E94DC
:10053000C80AF801848D8F3F49F48091E00184302E
:10054000B0F691E0980F9093E001848FF801948DBC
:10055000E92FF0E0EE0FFF1FEF51FE4F11830083F4
:10056000911103C06EE572E00AC0913019F465E59F
:1005700072E005C0923009F0BACF6CE472E08F2DC2
:100580000E94620A40E06EE0C8010E941B1140E038
:100590006FE0C8010E941B11C8010E94B61143E020
:1005A00050E068E770E0CE0101960E94A5134981F2
:1005B0006DE1C8010E941B114A816EE1C8010E94D1
:1005C0001B114B8166E2C8010E941B1140E060E2F2
:1005D000C8010E941B1148E061E2C8010E941B1182
:1005E00040E050E069ED73E4C8010E94CA11C801FF
:1005F0000E942E0A8E2D0F900F900F90DF91CF91B9
:100600001F910F91FF90EF9008958F929F92AF925C
:10061000BF92CF92DF92EF92FF920F931F93CF93EF
:10062000DF931F92CDB7DEB75C019B014A01DC016D
:1006300052968C91811105C07B018B01040F151F0F
:1006400031C080E58983C12CD12CE12CF12C8A01A9
:1006500041E050E0BE016F5F7F4FF50184859585D5
:100660000E943E0B22C0D5015596ED91FC91569704
:1006700053968C91539791E0980F53969C93D70182
:100680009D917D01E80FF11D9083F5019389848987
:10069000981308C00190F081E02D0680F781E02DCD
:1006A000C5010995E016F106F1F6C4010F90DF913E
:1006B000CF911F910F91FF90EF90DF90CF90BF905F
:1006C000AF909F908F900895CF92DF92EF92FF921C
:1006D0000F931F93CF93DF93FC012289211113C045
:1006E000EC01438950E065897689C12CD12CE12C3D
:1006F000F12C00E010E020E030E0848595850E9438
:100700003E0B81E08B8BDF91CF911F910F91FF907A
:10071000EF90DF90CF900895AF92BF92CF92DF928B
:10072000EF92FF920F931F93CF93DF9300D0CDB73B
:10073000DEB7FC01268521111AC05C01178680E70F
:10074000898380E28A83E088F18880E2C82ED12CF8
:1007500000E010E020E030E042E050E0BE016F5FDA
:100760007F4F848595850E943E0BF50186870F900B
:100770000F90DF91CF911F910F91FF90EF90DF903D
:10078000CF90BF90AF900895CF93DF93EC010E947C
:100790008C038E85882341F08F85E889F989E80FDD
:1007A000F11D808190E002C08FEF9FEFDF91CF912C
:1007B0000895CF93DF93EC010E948C038E858823EC
:1007C00069F081508E87E889F9898F8591E0980FCB
:1007D0009F87E80FF11D808190E002C08FEF9FEFAF
:1007E000DF91CF910895CF93DF93EC010E948C03AA
:1007F0008E8590E0DF91CF910895CF92DF92EF92B6
:10080000FF920F931F93CF93DF9300D0CDB7DEB746
:10081000DC0152968C9152978823B9F080E5898348
:100820006A83C12CD12CE12CF12C00E010E020E0F7
:1008300030E042E050E0BE016F5F7F4F1C968D912B
:100840009C911D970E943E0B1FC05596ED91FC9107
:10085000569753968C91539791E0980F53969C938B
:100860005397E80FF11D608353969C9153975496CC
:100870008C915497981308C0ED91FC9111970680C4
:10088000F781E02DCD01099581E090E00F900F9068
:10089000DF91CF911F910F91FF90EF90DF90CF905C
:1008A00008950F931F93CF93DF938B01FC01C281B7
:1008B000D381209759F06A817B81C8010E94B217C9
:1008C000892B21F00990D881C02DF3CFCE01DF9183
:1008D000CF911F910F910895CF93DF93EC018A89F7
:1008E000811108C08D899E89009711F00E944216DF
:1008F00081E08A8B88899989009721F00E944216AD
:10090000198A188ADF91CF910895CF93DF93EC0174
:100910008D819E81DC01ED91FC910084F185E02DBB
:1009200009951816190654F48D819E81DC01ED910C
:10093000FC910284F385E02D0995EACFDF91CF91F8
:1009400008957F928F929F92AF92BF92CF92DF9243
:10095000EF92FF920F931F93CF93DF93CDB7DEB744
:100960002E970FB6F894DEBF0FBECDBF5C01C50158
:100970000E94850468EE73E080E090E00E94040B22
:10098000D50115968D919C911697DC01ED91FC9106
:100990000084F185E02D09951816190644F395E0B9
:1009A000992E8824839422E3722EEEE0F1E0DE019A
:1009B0001196892D01900D928A95E1F7F5018086B7
:1009C000C12CD12CE12CF12C00E010E020E030E033
:1009D00045E050E0BE016F5F7F4FC5010E943E0BB6
:1009E000D50115968D919C911697DC01ED91FC91A6
:1009F0000190F081E02D63E009956AEF70E080E0FE
:100A000090E00E94040B66E770E0F5018581968115
:100A10000E949F106AEF70E080E090E00E94040B5B
:100A200064E770E0D50115968D919C9116970E9410
:100A30009F1064EF71E080E090E00E94040B68E694
:100A400070E0F501858196810E949F1064EF71E04E
:100A500080E090E00E94040BC5010E948504E3E160
:100A6000F1E0DE011696892D01900D928A95E1F74D
:100A7000D50118967C9284E0C82ED12CFE013B96BD
:100A80007F0120E030E045E050E0BE016A5F7F4F2B
:100A9000C5010E943E0B8F3FFFEF9F0739F468EEC0
:100AA00073E080E090E00E94040B7FCF2B85211142
:100AB000FFCF049711F52C8530E02053310984E6EF
:100AC000829FA001839F500D11242D8530E020537B
:100AD00031096AE0629FC001639F900D1124840F69
:100AE000951F2E8530E020533109820F931FD501C9
:100AF00012969C938E93119705C084E690E0F501C1
:100B00009283818382E3D50118968C932E960FB63B
:100B1000F894DEBF0FBECDBFDF91CF911F910F9133
:100B2000FF90EF90DF90CF90BF90AF909F908F900D
:100B30007F9008958F929F92AF92BF92CF92DF9253
:100B4000EF92FF92CF93DF93EC016B010E94C80CF0
:100B50004B015C01E12CF12C8D819E81DC01ED913A
:100B6000FC910284F385E02D099597FF0FC00E9448
:100B7000C80CDC01CB0188199909AA09BB098C159D
:100B80009D05AE05BF0540F38FEF9FEFDF91CF913D
:100B9000FF90EF90DF90CF90BF90AF909F908F909D
:100BA0000895FC01238134812627022E2295207F7F
:100BB0002025032E322F22952F70022626953227CC
:100BC0002327220F220F220F202534832383089509
:100BD000FC01A081B1818C918D3051F024F48950B9
:100BE0008230B8F505C0803219F08F3219F00895BF
:100BF00011962CC011968C9111978A3219F08F3270
:100C0000D1F008951196B183A083A081B181CD0167
:100C100001969183808311968C9111978823C9F056
:100C20008A3299F712968C9112978F3271F7139638
:100C30000DC08A3071F2A081B181CD0101969183FE
:100C4000808311968C918111F4CF03C0B183A0836E
:100C5000C0CF08950F931F93CF93DF931F92CDB70B
:100C6000DEB78C0169830E94E805D801ED91FC9103
:100C7000119780816981861305C03196ED93FC93AD
:100C800081E001C080E00F90DF91CF911F910F9123
:100C900008950F931F93CF93DF93EC010C811D8177
:100CA00002960E94E805EA81FB819081973219F152
:100CB000923209F180ED890F8A3058F0892F8F7DAB
:100CC00081548A3130F09B3221F083ED890F8230DC
:100CD000F0F52A813B812F5F3F4F3B832A83EC81D4
:100CE000FD819F012F5F3F4F3D832C839083EA81DD
:100CF000FB819081DFCF3196FB83EA83EA81FB8120
:100D00002081222321F1AF014F5F5F4F5B834A8334
:100D10002917E9F02C3591F42181A0E9B1E08C91FB
:100D2000882339F0821303C011962C9102C01296C9
:100D3000F6CF222361F03296FB83EA83EC81FD81BA
:100D4000AF014F5F5F4F5D834C832083D7CFEC8132
:100D5000FD81CF0101969D838C831082C801DF91B4
:100D6000CF911F910F910895DB01109749F0ED91FC
:100D7000FC9111970190F081E02DBC01CD01099407
:100D800080E090E008959F92AF92BF92CF92DF9261
:100D9000EF92FF920F931F93CF93DF9300D000D079
:100DA00000D0CDB7DEB76C01FC0100811181B80124
:100DB00084E090E00E94B406009739F0FC011183B2
:100DC0000083138212828C0111C08091D80181119D
:100DD0000BC01092D5011092D4011092D70110923D
:100DE000D60181E08093D80104ED11E07601F2E0B4
:100DF000EF0EF11C6BE7C7010E942A06882309F455
:100E000066C06DE7C7010E942A06811171C086E0A5
:100E1000982EC6010E9449065C01892B09F457C02F
:100E20006AE3C7010E942A06882309F450C01A8287
:100E30001982BE016F5F7F4FC6010E94230988237C
:100E400009F445C0B501C8010E945104DC01892B99
:100E500051F5F801608171818AE090E00E94B4064A
:100E6000DC01892B39F011961C921E9215961C926A
:100E70001E921497F801228133812115310551F01A
:100E8000F90180819181009711F09C01F9CFB18324
:100E9000A08303C0F801B383A2831097C1F0139617
:100EA000BC92AE921297FE0131961496892D019054
:100EB0000D928A95E1F76DE7C7010E942A0681111C
:100EC00017C06CE2C7010E942A068111A2CF80914F
:100ED000D80181110BC01092D5011092D40110924B
:100EE000D7011092D60181E08093D80104ED11E082
:100EF000C80126960FB6F894DEBF0FBECDBFDF91B6
:100F0000CF911F910F91FF90EF90DF90CF90BF9006
:100F1000AF909F900895EF92FF920F931F93CF93FE
:100F2000DF93CDB7DEB7C85CD3400FB6F894DEBF11
:100F30000FBECDBF8E010E501D4FC8010896F8019F
:100F40009383828388EC90E0958384831782168252
:100F50008CE191E0918380838BEFC853DC4F8883D1
:100F6000C85CD3406AE971E0CE018E539C4F0E9469
:100F7000CD0D86EA92E00E94AE00882309F418C1E4
:100F80007E01F9E0EF1AFEEFFF0AAE0148535C4F15
:100F9000B70186EA92E00E945801882309F450C004
:100FA00061E080E10E947C0AC7010E94540A1A8312
:100FB0000983FC82EB82FE82ED828AE08F83CE0180
:100FC00001960E94C3066BE971E00E9451048C01F6
:100FD0000097F1F0FC01E480F580F1E0EF16F104F8
:100FE00061F4FC01668177816115710531F08EE94C
:100FF00091E00E94B217892B59F0F1E0EF1AF10845
:1010000082E0E816F10420F4F8016681778102C0DD
:1010100060E070E0CE0184509F4F0E94BB174BEF01
:10102000BE0164507F4F86EA92E00E94D10086EABA
:1010300092E00E945B0F60E080E10E947C0AB8C0F1
:1010400087EE91E00E948C038091F501882309F4DA
:10105000ABC06AE971E0CE0101960E94CD0D0E94FD
:10106000D40C97FD23C0C450DF4F8883CC5FD040A1
:10107000C350DF4F1882CD5FD0400D811E810F5FBE
:101080001F4FB801CE0101960E94A60D882339F3A7
:1010900029813A818D819E81BE0164507F4F820FEC
:1010A000931F0E94BB171E830D83D9CFCE53DC4FF5
:1010B00088819981C25CD3400097E9F069817A8187
:1010C00061157105B1F0CC53DC4F48815981C45C86
:1010D000D3402D813E814217530758F00E94BB1721
:1010E0008D819E81CA53DC4F99838883C65CD3402F
:1010F0001EC00E94421689819A81CE53DC4F99838B
:101100008883C25CD3408B819C81CC53DC4F998314
:101110008883C45CD3408D819E81CA53DC4F998300
:101120008883C65CD3401A8219821C821B821E826D
:101130001D8289819A810E944216CA53DC4F088120
:101140001981C65CD3400115110511F4198217C02D
:101150000A3F110510F00AEF10E0CE53DC4F688112
:101160007981C25CD340A801CE0101960E94C217CA
:10117000E1E0F0E0EC0FFD1FE00FF11F108283EAC9
:1011800091E00E943C0ACE0101960E94540A4BEF66
:10119000BE016F5F7F4F86EA92E00E94D10086EA2F
:1011A00092E00E945B0F04C08CEA91E00E94540A16
:1011B000CE53DC4F88819981C25CD3400E94421695
:1011C000C853DC4F0FB6F894DEBF0FBECDBFDF9122
:1011D000CF911F910F91FF90EF900895FC017383C1
:1011E00062830895FC01778366830895FC0175830B
:1011F00064830895089508953FB7F8948091C903D2
:101200009091CA03A091CB03B091CC0326B5A89BC3
:1012100005C02F3F19F00196A11DB11D3FBFBA2F88
:10122000A92F982F8827820F911DA11DB11DBC01E8
:10123000CD0142E0660F771F881F991F4A95D1F7AD
:101240000895089508959F92AF92BF92CF92DF9232
:10125000EF92FF920F931F93CF93DF9300D000D0B4
:1012600000D0CDB7DEB7FC019681992309F4E2C026
:101270006B017F01915096835F0182E0A80EB11C43
:10128000C5010E94E805D7011296ED91FC911397D4
:1012900080818B3521F08B3709F499C0A3C0F70109
:1012A00000811181B80184E090E00E94B4060097AB
:1012B00051F0DC0111961C930E9313961C921E9212
:1012C00012978C0111C08091D10381110BC0109233
:1012D000CE031092CD031092D0031092CF0381E081
:1012E0008093D1030DEC13E06BE5C5010E942A0643
:1012F000882309F44CC06DE5C5010E942A068111BE
:1013000057C086E0982E1A821982BE016F5F7F4F08
:10131000C7010E9423098823D1F1F80160817181FE
:1013200088E090E00E94B406DC01892B39F0119628
:101330001C921E9213961C921E921297F801228103
:1013400033812115310551F0F90180819181009798
:1013500011F09C01F9CFB183A08303C0F801B383DE
:10136000A2831097A1F0FE0131961296892D01906B
:101370000D928A95E1F76DE5C5010E942A0681115B
:1013800017C06CE2C5010E942A068111BCCF809172
:10139000D10381110BC01092CE031092CD03109295
:1013A000D0031092CF0381E08093D1030DEC13E0C2
:1013B000D8018D919C91892B11F410E033C086E007
:1013C00090E0F60191838083138302832AC0C701D2
:1013D0000E94C306DC012D913C91232B71F327E081
:1013E00030E01AC011E0873219F0823209F010E0C3
:1013F000C7010E944906009701F3112359F022E02A
:1014000030E0D60111963C932E9313969C938E93C5
:10141000129708C021E030E0F601318320839383E6
:10142000828311E0D70116968C9116978F5F1696DE
:101430008C9301C010E0812F26960FB6F894DEBF82
:101440000FBECDBFDF91CF911F910F91FF90EF9015
:10145000DF90CF90BF90AF909F900895CF93DF9390
:10146000EC0144E06DE40E941B1148E869E0CE0104
:10147000DF91CF910C941B11BC01009791F0FC01FE
:1014800001900020E9F73197AF01481B590BE0911B
:10149000E701F091E8010280F381E02D87EE91E011
:1014A000099480E090E00895CF93DF930E943C0A76
:1014B000EC0188EB91E00E943C0A8C0F9D1FDF91AC
:1014C000CF9108958230B8F4E82FF0E0EE0FFF1FBF
:1014D000E050FF4F71836083813039F08091690063
:1014E000836080936900E89A0895809169008C6018
:1014F00080936900E99A089590E0FC01E054FF4F61
:101500003491FC01E455FF4F2491FC01E856FF4F54
:10151000E491EE2309F43BC0332339F1333091F0E9
:1015200038F43130A9F0323001F584B58F7D12C026
:10153000373091F03830A1F03430B9F48091800028
:101540008F7D03C0809180008F77809380000DC0D5
:1015500084B58F7784BD09C08091B0008F7703C0B8
:101560008091B0008F7D8093B000F0E0EE0FFF1F00
:10157000E257FF4FA591B4918FB7F894EC916111A8
:1015800003C020952E2301C02E2B2C938FBF0895CE
:10159000CF93DF9390E0FC01E455FF4F2491FC01D1
:1015A000E856FF4F8491882361F190E0880F991FDE
:1015B000FC01EC57FF4FC591D491FC01E257FF4F5E
:1015C000A591B491611109C09FB7F89488812095C5
:1015D00082238883EC912E230BC0623061F49FB785
:1015E000F8943881822F809583238883EC912E2B69
:1015F0002C939FBF06C08FB7F894E8812E2B2883C9
:101600008FBFDF91CF9108958F929F92AF92BF923B
:10161000CF92DF92EF92FF926B017C010E94FC0857
:101620004B015C01C114D104E104F104F1F00E940A
:10163000FC08DC01CB0188199909AA09BB09883E7D
:101640009340A105B10570F321E0C21AD108E10869
:10165000F10888EE880E83E0981EA11CB11CC1140D
:10166000D104E104F10419F7DDCFFF90EF90DF9092
:10167000CF90BF90AF909F908F9008952F923F9200
:101680004F925F926F927F928F929F92AF92BF9292
:10169000CF92DF92EF92FF920F931F93CF93DF933E
:1016A000CDB7DEB72B970FB6F894DEBF0FBECDBF18
:1016B0009B878A875B011901FD82EC823A01600EEB
:1016C000711E872C7B82912C44244A94542C9B01BC
:1016D000240F351F3F832E839101200F311F39873F
:1016E0002887EA85FB858085981608F036C1AA858B
:1016F000BB8514965C924E92139715968D919C9192
:101700001697DC01ED91FC910190F081E02D6FEFD7
:1017100009956FEF8A859B850E94D105EA85FB8537
:1017200085819681DC01ED91FC910190F081E02DA5
:10173000AA85BB856C910995EA85FB856081CF01FF
:101740000E94D105AA85BB8515968D919C9116970F
:10175000DC01ED91FC910190F081E02D682D09955F
:101760006B818A859B850E94D105EA85FB858581F1
:101770009681DC01ED91FC910190F081E02D662DC8
:101780000995662D8A859B850E94D10575012E815C
:101790003F81E216F306B1F0EA85FB8585819681EB
:1017A0008701DC01ED91FC910190F081E02DD701E2
:1017B0006D917D010995F80160818A859B850E9464
:1017C000D105E5CF7101AA85BB8515968D919C91B8
:1017D000169728853985E216F30691F08701DC011A
:1017E000ED91FC910190F081E02DD7016D917D018B
:1017F0000995F80160818A859B850E94D105E3CF18
:10180000DC01ED91FC91AA85BB8514966C91019049
:10181000F081E02D0995EA85FB8585819681DC01C3
:10182000ED91FC910190F081E02DAA85BB85139686
:101830006C91099564E670E08A859B850E949A0503
:101840008F3F910509F07DC0EA85FB855482438274
:101850006FEFCF010E94D10565E070E08A859B851E
:101860000E949A05AA85BB856C91262F30E08217CD
:10187000930709F066C0CD010E94D1056AE070E0CF
:101880008A859B850E949A057C0197FD5AC0682F26
:101890008A859B850E94D1056AE070E08A859B85D8
:1018A0000E949A058C0197FD4CC0682F8A859B8504
:1018B0000E94D105EA821982E981FA810E0F1F1F69
:1018C000E12CF12C65E070E08A859B85E016F1063D
:1018D000A9F0EC14FD0491F00E949A0597FD0AC04E
:1018E000EC81FD81EE0DFF1D8083682F8A859B852D
:1018F0000E94D105FFEFEF1AFF0AE4CF0E949A057C
:101900007C0197FD1EC065E070E08A859B850E9482
:101910009A0597FD16C0FE2CEE248E0D9F1DAA85FC
:10192000BB8513962D913C9114972817390749F4DC
:101930008C918F5F8C93C801C016D10680F4C601CC
:101940000EC0939464E670E080E090E00E94040B87
:101950008A859B850E948504C4CE8FEF9FEF2B96CE
:101960000FB6F894DEBF0FBECDBFDF91CF911F91B0
:101970000F91FF90EF90DF90CF90BF90AF909F902E
:101980008F907F906F905F904F903F902F90089531
:101990002FB7F8946091C5037091C6038091C70377
:1019A0009091C8032FBF08950F931F930E94C80CF6
:1019B00060930602709307028093080290930902D5
:1019C000E091FE01F091FF010284F385E02D8EEF9E
:1019D00091E0099597FF1FC00E94C80C0091060274
:1019E000109107022091080230910902DC01CB011D
:1019F000801B910BA20BB30B00910202109103020A
:101A0000209104023091050280179107A207B307C5
:101A1000B8F28FEF9FEF1F910F9108951F920F92D1
:101A20000FB60F9211242F933F938F939F93AF93F1
:101A3000BF938091C5039091C603A091C703B09155
:101A4000C8033091C40323E0230F2D3720F40196FF
:101A5000A11DB11D05C026E8230F0296A11DB11DD1
:101A60002093C4038093C5039093C603A093C70338
:101A7000B093C8038091C9039091CA03A091CB038E
:101A8000B091CC030196A11DB11D8093C903909321
:101A9000CA03A093CB03B093CC03BF91AF919F91A6
:101AA0008F913F912F910F900FBE0F901F9018951F
:101AB0001F920F920FB60F9211242F933F934F93C3
:101AC0005F936F937F938F939F93AF93BF93EF93A6
:101AD000FF93E0910201F09103010995FF91EF91CD
:101AE000BF91AF919F918F917F916F915F914F9136
:101AF0003F912F910F900FBE0F901F9018951F923E
:101B00000F920FB60F9211242F933F934F935F9331
:101B10006F937F938F939F93AF93BF93EF93FF93B5
:101B2000E0910001F09101010995FF91EF91BF91C2
:101B3000AF919F918F917F916F915F914F913F9165
:101B40002F910F900FBE0F901F9018950F931F931A
:101B5000CF93DF93EC0188819981009729F02A8146
:101B60003B812617370788F48B016F5F7F4F0E94F8
:101B7000DA16009761F0998388831B830A832C818E
:101B80003D81232B11F4FC01108281E001C080E033
:101B9000DF91CF911F910F910895EF92FF920F93D4
:101BA0001F93CF93DF93EC01198218821B821A8254
:101BB0001D821C826115710549F18B01FB010190A9
:101BC0000020E9F731977F01E61AF70AB7010E9472
:101BD000A60D2881398181110DC02115310519F01B
:101BE000C9010E944216198218821D821C821B8222
:101BF0001A820CC0FD82EC82B801C901DF91CF913D
:101C00001F910F91FF90EF900C94BB17DF91CF9134
:101C10001F910F91FF90EF900895CF92DF92EF9276
:101C2000FF920F931F93CF93DF936C017A018B0187
:101C3000C0E0D0E0CE15DF0589F0D8016D918D01AF
:101C4000D601ED91FC910190F081E02DC60109953E
:101C5000892B11F47E0102C02196ECCFC701DF91E0
:101C6000CF911F910F91FF90EF90DF90CF9008954B
:101C7000FC01538D448D252F30E0842F90E0821B92
:101C8000930B541710F0CF96089501970895FC0117
:101C9000918D828D981761F0828DDF01A80FB11DA3
:101CA0005D968C91928D9F5F9F73928F90E00895C7
:101CB0008FEF9FEF0895FC01918D828D981731F081
:101CC000828DE80FF11D858D90E008958FEF9FEFD5
:101CD0000895FC01918D228D892F90E0805C9F4FAB
:101CE000821B91098F73992708958EEF91E00E94CE
:101CF000690E21E0892B09F420E0822F0895FC0170
:101D0000848DDF01A80FB11DA35ABF4F2C91848D84
:101D100090E001968F739927848FA689B7892C93B9
:101D2000A089B1898C9180648C93938D848D981354
:101D300006C00288F389E02D80818F7D808308951D
:101D4000EF92FF920F931F93CF93DF93EC0181E00B
:101D5000888F9B8D8C8D981305C0E889F9898081C7
:101D600085FD24C0F62E0B8D10E00F5F1F4F0F7303
:101D70001127E02E8C8DE8120CC00FB607FCFACFAD
:101D8000E889F989808185FFF5CFCE010E947F0E19
:101D9000F1CF8B8DFE01E80FF11DE35AFF4FF0826A
:101DA0000B8FEA89FB898081806207C0EE89FF89F9
:101DB0006083E889F98980818064808381E090E094
:101DC000DF91CF911F910F91FF90EF900895CF93E6
:101DD000DF93EC01888D8823C9F0EA89FB89808133
:101DE00085FD05C0A889B9898C9186FD0FC00FB605
:101DF00007FCF5CF808185FFF2CFA889B9898C9146
:101E000085FFEDCFCE010E947F0EE7CFDF91CF910E
:101E1000089580E090E0892B29F00E94750E8111D1
:101E20000C94000008958CB58F7B8CBD08958CB503
:101E30008F778CBD08958CB580688CBD08956EBD7C
:101E400000000DB407FEFDCF8EB508959CB5282F78
:101E500023709C7F922B9CBD2DB582FB992790F916
:101E6000822F8E7F892B8DBD089580E00895FC011F
:101E700081850895FC0180850895FC01878108957E
:101E8000FC0186810895FC01409595854923642BCA
:101E900065870895FC0164870895FC0163870895B0
:101EA000FC0162870895FC0164830895FC01658349
:101EB000089580E00895FC012281338123303105AB
:101EC000D1F381E00895CF93DF93EC01E881F981AC
:101ED0000280F381E02DCE0109958823B9F3DF91CB
:101EE000CF91089581E008958BEF08950E94A41783
:101EF000CF93FC01268137812115310549F021302E
:101F0000310541F02230310539F02330310531F00F
:101F100020E005C024E003C028E001C02CE09CB50F
:101F2000937F922B9CBD84819581019761F58CB53F
:101F300080628CBD8281938101978430910528F461
:101F4000FC01EA57FE4FC08101C0C1E08C2F0E9406
:101F5000260F61E08AE00E947C0A61E08AE00E942C
:101F6000C80A8CB580618CBD8CB580648CBD61E085
:101F70008DE00E94C80A61E08BE00E94C80A8C2FA5
:101F8000CF910C94260F9CB59F7D9CBDD3CFCF9352
:101F9000DF93EC01888D998DDC01ED91FC91068039
:101FA000F781E02D099561E08A8D0E94C80A61E001
:101FB0008A8D0E947C0A64E670E080E090E00E94D6
:101FC000040B81E0DF91CF9108958F929F92AF92A1
:101FD000BF92CF92DF92EF92FF92CF93DF93EC010B
:101FE0006B010E94C80C4B015C01E12CF12C0E949A
:101FF000C80CDC01CB0188199909AA09BB098C1509
:102000009D05AE05BF0530F48A819B81039779F366
:1020100081E001C080E0DF91CF91FF90EF90DF90F1
:10202000CF90BF90AF909F908F9008958F929F9286
:10203000AF92BF92CF92DF92EF92FF92CF93DF9356
:10204000EC016B010E94C80C4B015C01E12CF12CEE
:102050000E94C80CDC01CB0188199909AA09BB09A7
:102060008C159D05AE05BF0550F4E881F98102800D
:10207000F381E02DCE010995882351F301C080E062
:10208000DF91CF91FF90EF90DF90CF90BF90AF9016
:102090009F908F9008958F929F92AF92BF92CF9210
:1020A000DF92EF92FF92CF93DF93FC01268937896D
:1020B000232B11F481E038C0EC010E94C80C6B01A5
:1020C0007C0189E0882E912CA12CB12CE881F9812A
:1020D0000488F589E02DCE010995882359F30E94E3
:1020E000C80CAB01BC014C195D096E097F098E89D2
:1020F0009F89A0E0B0E084179507A607B70798F07E
:102100000E949713A50194010E946C149B01AC01DD
:102110002F5F3F4F4F4F5F4FA4E6B0E00E948B14FC
:102120000E94040BD3CF80E0DF91CF91FF90EF901E
:10213000DF90CF90BF90AF909F908F900895EF92D7
:10214000FF920F931F93CF93DF938C017B01C0E02D
:10215000D0E0F701EC0FFD1F6491662361F0D80118
:10216000ED91FC910190F081E02DC8010995892B3A
:1021700011F02196EECFCE01DF91CF911F910F91FB
:10218000FF90EF9008951F920F920FB60F921124B7
:102190002F933F934F935F936F937F938F939F936F
:1021A000AF93BF93EF93FF938EEF91E00E947F0E6A
:1021B000FF91EF91BF91AF919F918F917F916F911F
:1021C0005F914F913F912F910F900FBE0F901F90F5
:1021D00018951F920F920FB60F9211242F938F9381
:1021E0009F93EF93FF93E0910E02F0910F02808195
:1021F000E0911402F091150282FD12C0908180914D
:1022000017028F5F8F7320911802821751F0E091AF
:102210001702F0E0E250FE4F958F8093170201C045
:102220008081FF91EF919F918F912F910F900FBE21
:102230000F901F901895EF92FF920F931F93CF93DB
:10224000DF931F92CDB7DEB77C01162F0FB7F8943E
:1022500060E0DC015A968C9149830E947C0AF70168
:10226000808D918DDC01ED91FC91612F6068019072
:10227000F081E02D0995182FF701808D918DDC01FB
:10228000ED91FC910190F081E02D4981642F099539
:1022900061E0F701828D0E947C0A0FBF812F0F90B1
:1022A000DF91CF911F910F91FF90EF900895CF9301
:1022B000DF93EC018A819B81059771F047E061E033
:1022C000CE010E941B1140E860E4CE010E941B1168
:1022D00085E090E09B838A838A819B810597E1F367
:1022E0008D89DF91CF910895CF93DF93FC012281F7
:1022F00033812130310549F0EC0140E061E00E947A
:102300001B1181E090E09B838A8381E0DF91CF9174
:1023100008950F931F93CF93DF93EC01162F0FB700
:10232000F89460E08A8D0E947C0A888D998DDC018A
:10233000ED91FC91612F6F770190F081E02D09956F
:10234000888D998DDC01ED91FC910190F081E02D5B
:1023500060E00995182F61E08A8D0E947C0A0FBF0A
:10236000812FDF91CF911F910F910895CF93DF932C
:10237000FC01228133812230310549F0EC0141E03A
:1023800061E00E941B1182E090E09B838A83DF91D1
:10239000CF910895CF92DF92EF92FF92CF93DF9388
:1023A000EC01CB01BA0120E034E244E759E40E9499
:1023B000AE1320E034E244E752E40E9406150E9486
:1023C00078156B017C01A7016627772766E0CE01AF
:1023D0000E941B1177276F2D5E2D4D2D67E0CE01DA
:1023E0000E941B114C2D68E0CE010E941B1181E060
:1023F000DF91CF91FF90EF90DF90CF90089588E428
:1024000091E09093E8018093E70187EE91E00C94CE
:102410006C04CF93DF93EEEFF1E01382128248EE6B
:1024200053E060E070E0448355836683778382E203
:1024300091E09183808385EC90E09587848784EC9C
:1024400090E09787868780EC90E0918B808B81EC81
:1024500090E0938B828B82EC90E0958B848B86EC62
:1024600090E0978B868B118E128E138E148E89EDD1
:1024700093E0DC0113961C921E92129715961C9203
:102480001E92149717961C921E92169724E331E021
:102490002D933C93A7EEB1E013961C921E921297D7
:1024A00014964D935D936D937C93179728E431E0D8
:1024B00011963C932E93CBE9D2E01D96DC93CE93FC
:1024C0001C971E961C921E971F961C921F97519642
:1024D0001C921E92509721E052962C931882FE83F4
:1024E000ED831F821886FA87E987E6EAF2E0138215
:1024F00012822FEF24832287238714861586108A61
:102500001786128A118A148A138A178A168A918F5B
:10251000808F8AE0828F8AE591E091838083109298
:10252000C30382E0838F248FDF91CF910895789445
:1025300084B5826084BD84B5816084BD85B58260C8
:1025400085BD85B5816085BD80916E008160809379
:102550006E001092810080918100826080938100E2
:1025600080918100816080938100809180008160F2
:10257000809380008091B10084608093B10080914D
:10258000B00081608093B00080917A008460809375
:102590007A0080917A00826080937A0080917A003C
:1025A000816080937A0080917A00806880937A00BD
:1025B0001092C10061E080E10E94C80AE091A4028B
:1025C000F091A502A089B18982E08C93A485B5859C
:1025D0001C92A685B78580E18C93108EA489B5895D
:1025E00086E08C93A289B3898C9180618C93A289B7
:1025F000B3898C9188608C93A289B3898C9180680F
:102600008C930288F389E02D80818F7D8083809177
:10261000A202811107C081E08093A2028BE992E0BF
:102620000E94A1048091F3019091F401FC012781A3
:10263000211104C021E027830E94A10487EE91E0CC
:102640000E946C0480E290E00E94AD159093F80126
:102650008093F7018BEB91E00E94540A86EA92E0A6
:102660000E946702811104C088EC91E00E94540A24
:1026700040E050E868ED73E486EA92E00E94CA11F7
:1026800086EA92E00E942E0A0E948B070E94090FA0
:10269000FBCF8F929F92AF92BF92CF92DF92EF9239
:1026A000FF92CF93DF93EC01688179818A819B81CE
:1026B000611571058105910521F464E279ED8BE5E1
:1026C00097E02DE133EF41E050E00E946C144901A6
:1026D0005A019B01AC01A7EAB1E40E948B146B0183
:1026E0007C01ACEEB4EFA50194010E949914DC01C9
:1026F000CB018C0D9D1DAE1DBF1DB7FF03C0019703
:10270000A109B04888839983AA83BB83BC01CD010A
:102710009F77DF91CF91FF90EF90DF90CF90BF90A8
:10272000AF909F908F9008950E944913089584E080
:1027300091E00E944913089560930401709305018C
:1027400080930601909307010895FB01DC0102C00C
:1027500005900D9241505040D8F708950E94C11342
:102760000C9432140E94241438F00E942B1420F090
:10277000952311F00C941B140C94211411240C9427
:1027800066140E94431470F3959FC1F3950F50E0B7
:10279000551F629FF001729FBB27F00DB11D639F13
:1027A000AA27F00DB11DAA1F649F6627B00DA11DB9
:1027B000661F829F2227B00DA11D621F739FB00D5F
:1027C000A11D621F839FA00D611D221F749F3327CF
:1027D000A00D611D231F849F600D211D822F762F68
:1027E0006A2F11249F5750409AF0F1F088234AF045
:1027F000EE0FFF1FBB1F661F771F881F91505040B1
:10280000A9F79E3F510580F00C941B140C9466149C
:102810005F3FE4F3983ED4F3869577956795B79537
:10282000F795E7959F5FC1F7FE2B880F911D969551
:10283000879597F9089597F99F6780E870E060E0C1
:1028400008959FEF80EC089500240A941616170649
:1028500018060906089500240A9412161306140691
:1028600005060895092E0394000C11F4882352F0F4
:10287000BB0F40F4BF2B11F460FF04C06F5F7F4FAC
:102880008F4F9F4F089557FD9058440F551F59F093
:102890005F3F71F04795880F97FB991F61F09F3F4D
:1028A00079F087950895121613061406551FF2CF76
:1028B0004695F1DF08C0161617061806991FF1CFC6
:1028C00086957105610508940895E894BB276627ED
:1028D0007727CB0197F90895052E97FB1EF40094F6
:1028E0000E94831457FD07D00E94D51407FC03D023
:1028F0004EF40C94831450954095309521953F4F9C
:102900004F4F5F4F089590958095709561957F4FDB
:102910008F4F9F4F08950E94F714A59F900DB49F6D
:10292000900DA49F800D911D11240895B7FF0C9464
:102930008B140E948B14821B930B08952F923F924D
:102940004F925F926F927F928F929F92AF92BF92BF
:10295000CF92DF92EF92FF920F931F93CF93DF936B
:10296000CDB7DEB7CA1BDB0B0FB6F894DEBF0FBEC8
:10297000CDBF09942A88398848885F846E847D8415
:102980008C849B84AA84B984C884DF80EE80FD8017
:102990000C811B81AA81B981CE0FD11D0FB6F8948D
:1029A000DEBF0FBECDBFED010895A1E21A2EAA1B16
:1029B000BB1BFD010DC0AA1FBB1FEE1FFF1FA217EF
:1029C000B307E407F50720F0A21BB30BE40BF50BEC
:1029D000661F771F881F991F1A9469F76095709575
:1029E000809590959B01AC01BD01CF010895A29FF8
:1029F000B001B39FC001A39F700D811D1124911DD3
:102A0000B29F700D811D1124911D08950E941A1509
:102A10000C9432140E942B1458F00E94241440F09D
:102A200029F45F3F29F00C941B1451110C94661487
:102A30000C9421140E94431468F39923B1F3552395
:102A400091F3951B550BBB27AA27621773078407C1
:102A500038F09F5F5F4F220F331F441FAA1FA9F357
:102A600035D00E2E3AF0E0E832D091505040E69545
:102A7000001CCAF72BD0FE2F29D0660F771F881FA6
:102A8000BB1F261737074807AB07B0E809F0BB0B99
:102A9000802DBF01FF2793585F4F3AF09E3F5105AD
:102AA00078F00C941B140C9466145F3FE4F3983E8A
:102AB000D4F3869577956795B795F7959F5FC9F796
:102AC000880F911D9695879597F90895E1E0660F17
:102AD000771F881FBB1F621773078407BA0720F090
:102AE000621B730B840BBA0BEE1F88F7E0950895F9
:102AF0000E944B1488F09F5798F0B92F9927B7512F
:102B0000B0F0E1F0660F771F881F991F1AF0BA9591
:102B1000C9F714C0B13091F00E946514B1E0089576
:102B20000C946514672F782F8827B85F39F0B93F68
:102B3000CCF3869577956795B395D9F73EF4909544
:102B40008095709561957F4F8F4F9F4F0895EE0F41
:102B5000FF1F0590F491E02D0994CF93DF9382300D
:102B6000910510F482E090E0E091E303F091E4033A
:102B700020E030E0C0E0D0E0309711F14081518199
:102B800048175907C0F04817590761F482819381AB
:102B9000209719F09B838A832BC09093E403809342
:102BA000E30326C02115310519F04217530718F425
:102BB0009A01BE01DF01EF010280F381E02DDCCF3D
:102BC0002115310509F1281B390B2430310590F40A
:102BD00012968D919C9113976115710521F0FB015F
:102BE0009383828304C09093E4038093E303FD0105
:102BF000329644C0FD01E20FF31F8193919322505E
:102C000031092D933C933AC02091E1033091E203C6
:102C1000232B41F420910A0130910B013093E20300
:102C20002093E1032091080130910901211531051C
:102C300041F42DB73EB740910C0150910D01241B7A
:102C4000350BE091E103F091E203E217F307A0F402
:102C50002E1B3F0B2817390778F0AC014E5F5F4FF2
:102C60002417350748F04E0F5F1F5093E20340933F
:102C7000E1038193919302C0E0E0F0E0CF01DF91A6
:102C8000CF9108950F931F93CF93DF93009709F48B
:102C90008CC0FC013297138212820091E3031091E1
:102CA000E4030115110581F420813181820F931F06
:102CB0002091E1033091E2032817390779F5F09369
:102CC000E203E093E10371C0D80140E050E0AE17A9
:102CD000BF0750F412962D913C911397AD01211529
:102CE000310509F1D901F3CF9D01DA013383228344
:102CF00060817181860F971F8217930769F4EC0139
:102D000028813981260F371F2E5F3F4F3183208363
:102D10008A819B8193838283452B29F4F093E4037A
:102D2000E093E30342C01396FC93EE931297ED01F8
:102D3000499159919E01240F351FE217F30771F451
:102D400080819181840F951F029611969C938E939A
:102D50008281938113969C938E931297E0E0F0E02A
:102D6000D80112968D919C911397009719F0F80154
:102D70008C01F6CF8D919C9198012E5F3F4F820F71
:102D8000931F2091E1033091E2032817390769F47A
:102D9000309729F41092E4031092E30302C01382E7
:102DA00012821093E2030093E103DF91CF911F9110
:102DB0000F910895A0E0B0E0E0EEF6E10C94A214CB
:102DC000EC01009721F4CB010E94AD15B8C0FC01C5
:102DD000E60FF71F9C0122503109E217F30708F4B0
:102DE000ACC0D9010D911C91119706171707B0F0CF
:102DF0000530110508F49FC0C8010497861797078E
:102E000008F499C002501109061B170B0193119386
:102E10006D937C93CF010E9442168DC05B01A01A76
:102E2000B10A4C01800E911EA091E303B091E4031E
:102E300040E050E0E12CF12C109709F44AC0A815AD
:102E4000B905D1F56D907C901197630182E0C80EB1
:102E5000D11CCA14DB0480F1A3014A195B096A0181
:102E600082E0C80ED11C1296BC9012971396AC91BA
:102E7000B5E0CB16D10440F0B282A38351834083E6
:102E8000D9016D937C930AC00E5F1F4FC301800F61
:102E9000911FF90191838083EB2DFA2FE114F10446
:102EA00031F0D7011396FC93EE93129744C0F09340
:102EB000E403E093E3033FC08D919C911197481781
:102EC000590708F4AC017D0112960D90BC91A02D1C
:102ED000B3CF8091E1039091E20388159905E1F465
:102EE00046175707C8F4809108019091090100978F
:102EF00041F48DB79EB740910C0150910D01841B98
:102F0000950BE817F907C8F4F093E203E093E103A7
:102F1000F901718360830FC0CB010E94AD157C0164
:102F2000009759F0A801BE010E94A917CE010E9486
:102F30004216C70104C0CE0102C080E090E0CDB7C8
:102F4000DEB7EEE00C94BE1481E090E0F8940C94AF
:102F5000D117FB01DC0102C001900D92415050409D
:102F6000D8F70895FB01DC018D91019080190110C3
:102F7000D9F3990B0895FB01DC0101900D9200201B
:102F8000E1F70895FB01DC014150504048F0019009
:102F90000D920020C9F701C01D9241505040E0F74A
:102FA000089510E0CBE6D0E004C0FE010E94A71512
:0C2FB0002196CC36D107C9F7F894FFCF6A
:102FBC0021092109010000000000E5038000585898
:102FCC005858585858313030000000009A00000012
:102FDC000000A00E0D0E380EE70E690E470E5B0EAC
:102FEC00000000001F0F1B0F170F780F130FF608B0
:102FFC00F208EE0800000000FD03050397006403CF
:10300C00F303D903C403000000006702AE005801AB
:10301C00D100740F630F5B0FE50F16104B10571197
:10302C00530F500F4D0F4A0F430F560F400F3D0FCC
:10303C003A0F370F741105000404100022225C5C57
:10304C006208660C6E0A720D7409004944006E75B4
:10305C006C6C0073656E64696E673A0072656376BA
:10306C00206661696C6564000D0A005374617274AA
:10307C0020536B6574636800696E697420666169BE
:04308C006C6564000B
:00000001FF
