:100000000C94C0010C94430E0C94180E0C94ED0D3E
:100010000C94C20D0C94970D0C946C0D0C94410D26
:100020000C94160D0C94F1010C94F1010C94F10157
:100030000C94F1010C94F1010C94F1010C94F10178
:100040000C94F1010C94F1010C94F1010C94F10168
:100050000C94F1010C94F1010C94F1010C949C139B
:100060000C94F1010C94980E0C946E0E0C94F1010A
:100070000C94F1010C94F1010C94F1010C94F10138
:100080000C94F1010C94F1010C94F1010C94F10128
:100090000C94F1010C94F1010C94F1010C94F10118
:1000A0000C94F1010C94F1010C94F1010C94F10108
:1000B0000C94F1010C94F1010C94F1010C94F101F8
:1000C0000C94F1010C94F1010C94F1010C94F101E8
:1000D0000C94F1010C94F1010C94F1010C94F101D8
:1000E0000C94F101B203AB03C403BB03B703800359
:1000F000A40346034D112A11311138113F11541137
:100100005B1191119411831187118B11CB119811EF
:100110009C11A211A611AA11B011B411B811CB11E2
:10012000BE11C211C6110C945A0B0C94F1090C9417
:100130009C110C94FC0B0C945B110C946A0B0C94AA
:1001400054110C94B2030C94B60C0C94540B0C94F4
:100150003C0F0C94AE100C94C2110C9487110C94AB
:10016000BE110C94B8110C94620C0C94CF0A0C9430
:1001700031110C940D0D0C944E0B0C94640B0C94DB
:10018000610B0C94A2110C94510A0C9457050C9419
:10019000AE140C94A4030C94430A0C942F0A0C94F0
:1001A0002A110C94880A0C948B0B0C9498110C94C3
:1001B000270F0C94F0090C94AB030C9494110C943D
:1001C000AA100C942D0C0C94040D0C94720B0C942E
:1001D000B7030C94200A0C94B4110C942A0B0C94C1
:1001E000B0110C94B2100C94360B0C94AA110C9410
:1001F0000A0F0C94320B0C94510B0C943F110C947D
:1002000080030C94C4030C9446030C94CB110C94FF
:100210006D0B0C94C6110C94570B0C9483110C9419
:10022000670B0C9443050C94FB0C0C94A6110C94D6
:100230002E0B0C947A0B0C94BB030C948B110C9426
:100240004D110C9491110C948F0B0C9438110C944B
:10025000A00F72740092740048940078C4000000EB
:100260002100240027002A002D0030003300010166
:100270000000040107010A010000220025002800F7
:100280002B002E003100340002010000050108019E
:100290000B0100000A0B02090C0D0E0807030401F4
:1002A000000000000000000000000000000000004E
:1002B000000000000000000000000000000012111B
:1002C000100000000000000000000000000000001E
:1002D00000000000000000000000200023002600B5
:1002E00029002C002F00320000010000030106014C
:1002F00009010505050507050808080802020202AC
:100300000A0A0808040404040101010101010101B1
:100310000303030303030303040707070C0C0C0C7C
:100320000C0C0C0C02020202060606060606060665
:100330000B0B0B0B0B0B0B0B0102102020080810F2
:100340002040102040800201020108040201010245
:10035000040810204080804020100804020180041E
:100360000201804020100804020108040201010279
:100370000408102040800102040810204080AE14C0
:1003800011241FBECFEFD1E2DEBFCDBF00E00CBF16
:1003900013E0A0E0B2E0E0EFF0E300E00BBF02C04A
:1003A00007900D92AA3EB107D9F725E0AAEEB3E077
:1003B00001C01D92AB3DB207E1F711E0C0ECD1E006
:1003C00000E006C021970109802FFE010E9443181A
:1003D000CF3BD10780E00807A9F70E94E6130C94F1
:1003E00076180C940000CF93DF93DC01ED91FC9123
:1003F00042815381DB01C281D38120813181C217C7
:10040000D30778F0188222813381241B350BFC013D
:1004100042815381240F351F33832283DF91CF9193
:1004200008952C91222371F39E012F5F3F4F338358
:1004300022832D912883DFCF0F931F93CF93DF93D8
:10044000CDB7DEB766970FB6F894DEBF0FBECDBF4F
:100450008C01CB011E8AFE0176962AE030E0B901BC
:100460000E942F1890E3980F9293CB010097B9F751
:10047000BF01C8010E94F30166960FB6F894DEBF73
:100480000FBECDBFDF91CF911F910F9108958F9235
:100490009F92AF92BF92EF92FF920F931F93CF93D1
:1004A000DF93CDB7DEB766970FB6F894DEBF0FBE09
:1004B000CDBF7C011E8A8E010A5E1F4F8AE0882E06
:1004C000912CA12CB12CCB01BA01A50194010E9461
:1004D000C215942F852F605DF80162938F01A901E9
:1004E000692F782F411551056105710561F7BF012D
:1004F000C7010E94F30166960FB6F894DEBF0FBEE7
:10050000CDBFDF91CF911F910F91FF90EF90BF90E2
:10051000AF909F908F900895CF93DF93DC01ED9182
:10052000FC911197C281D38180819181C817D9072D
:1005300060F4CE0101969383828368830280F38105
:10054000E02D108221E030E002C020E030E0129681
:100550008D919C911397280F391F13963C932E93DE
:100560001297DF91CF910895FF920F931F93CF932E
:10057000DF936115710549F464ED72E0DF91CF916D
:100580001F910F91FF900C94F3018B01EC0162E23B
:10059000CE010E948C02F80161918F01662351F017
:1005A000E5ECF2E0F080FF2099F39181961759F085
:1005B0003296F8CF62E2CE01DF91CF911F910F9179
:1005C000FF900C948C026CE5CE010E948C026F2D82
:1005D000DFCF0F931F93CF93DF938C01EB016BE77A
:1005E000CE010E948C02F8010281138101151105D0
:1005F000A9F0F80162817381CE010E94B4026AE31E
:10060000CE010E948C02BE01C80104960E941B0309
:10061000F801008111810115110541F46DE7CE014A
:10062000DF91CF911F910F910C948C026CE2CE015F
:100630000E948C02DBCF2F923F924F925F926F927B
:100640007F928F929F92AF92BF92CF92DF92EF9262
:10065000FF920F931F93CF93DF93CDB7DEB76297CF
:100660000FB6F894DEBF0FBECDBFDC01ED91FC915B
:1006700011973197E830F10508F0ECC18B017C014E
:100680008827EE58FF4F8F4F0C944318FD01C2800E
:10069000D380E480F580A7019601C701B6010E94CE
:1006A0006016882319F064EE72E07CC020E030E030
:1006B000A901C701B6010E94601687FF08C06DE25C
:1006C000C8010E948C02F7FAF094F7F8F09420E049
:1006D00030E0A901C701B6010E946016882309F421
:1006E00065C0A7019601C701B6010E94F415A701D4
:1006F00096010E946016811159C06BEE72E052C0E3
:10070000FD01E280F3806BE5C8010E948C02D701F5
:100710001296ED90FC901397E114F10459F0B80192
:10072000C70102960E941B03F701E080F180E114EB
:10073000F10429F46DE5C8010E948C028BC16CE2C2
:10074000C8010E948C02E8CF12968D919C9113975C
:100750000E94E9027FC1FD0162817381C8010E948C
:10076000B40278C112966D917C9113971BC06DE213
:10077000C8010E948C02F701428153816481758116
:10078000C8010E94470266C1FD0182819381A48154
:10079000B581892B8A2B8B2B19F46EED72E002C088
:1007A00069ED72E0C8010E94F30154C120E836E906
:1007B00048E15BE4C701B6010E94B81787FD42C15A
:1007C000A12CB12C70E2872E912C212C312CF5011B
:1007D000ED5AFD4F2489358946895789C701B601ED
:1007E0000E94B81787FD0FC0F501E55CFD4F248915
:1007F000358946895789C701B6010E94BD176B012B
:100800007C01280C391C95948794F4E0AF1AB10848
:1008100088EEA8168FEFB806D1F677247A9420E0F8
:1008200030E0A901C701B6010E94B817181694F567
:100830002CEA35EC47E257E3C701B6010E94601687
:10084000181644F1BFEF7B1629F1972DA4E09A0208
:1008500050011124F501ED5DFD4F20813181428170
:100860005381C701B6010E94601687FF0FC0F501D2
:10087000ED5AFD4F2081318142815381C701B6017C
:100880000E94BD176B017C01281839089594879444
:100890007A94D8CFC701B6010E94D7164B015C01EC
:1008A0000E9406179B01AC01C701B6010E94F31517
:1008B00020E034E244E759E40E94BD172B013C01DB
:1008C0000E94D7166B017C010E9406179B01AC01A8
:1008D000C301B2010E94F3159B01AC010E94F41503
:1008E0000E94D716C60ED71EE81EF91EE0E4CE16EB
:1008F000E2E4DE06EFE0EE06F104E0F0FFEF8F1A2F
:100900009F0AAF0ABF0A2114310489F08AE08816D1
:100910009104A104B10458F09FEF291A390AC12C9F
:10092000D12C7601812C912C5401839403C0C12CCD
:10093000D12C760124013501A6E0AA8BBA89B98BA6
:10094000B150BA8BEAE04E16510461047104A8F06C
:10095000C701B6012AE030E040E050E00E94C21535
:1009600069017A01C301B2012AE030E040E050E0C1
:100970000E94C21529013A01E1CF3AE0432E512CE1
:10098000612C712CC701B601A30192010E94C2150E
:10099000672B682B692BB1F089898A8BB501A4017B
:1009A000C8010E94470299899923A1F1188A5E0122
:1009B000B0E1AB0EB11C45012AE0422E512C612C56
:1009C000712C0BC0A9891A1634F469017A01F989CE
:1009D000F150F98BD7CFAA8BE1CFFA89F150FA8B7E
:1009E000FF3F69F0C701B601A30192010E94C21541
:1009F000605DF50162935F0169017A01EECFB40198
:100A00008989681B71098EE2DB018E93BD01C801E3
:100A10000E94F30137FE0AC068EE72E0C8010E942E
:100A2000F301662777276219730908C0211431047E
:100A300089F065E6C8010E948C02B101C8010E94DC
:100A40001C0208C080E2882E912C95E0792E212C82
:100A5000312CE5CE62960FB6F894DEBF0FBECDBF47
:100A6000DF91CF911F910F91FF90EF90DF90CF908A
:100A7000BF90AF909F908F907F906F905F904F90BE
:100A80003F902F900895FC0126813781620F731FDC
:100A9000848195818617970738F0828193817783C7
:100AA0006683820F931F089580E090E00895DF929F
:100AB000EF92FF920F931F93CF93DF9300D0CDB7A8
:100AC000DEB78C010E94DE0BD82E811102C0D12C22
:100AD0008DC0F801938D923061F0933069F08EEE05
:100AE000890F8430A0F727E130E07901E91AF10895
:100AF00006C0E12CF12C03C0EE24E394F12C40E875
:100B000061E0C8010E94CE0E6AE070E080E090E0F3
:100B10000E945F1261E0C8010E945F0F8038B9F641
:100B200060E0F801838D0E94DF11F801848D8F3F12
:100B300049F48091F603843050F691E0980F909339
:100B4000F603848FF801948DE92FF0E0EE0FFF1F7C
:100B5000E950FC4F11830083911103C06DE07DE0EB
:100B60000AC0913019F464E07DE005C0923009F0CC
:100B7000AECF6BEF7CE08E2D0E94121140E06EE054
:100B8000C8010E94CE0E40E06FE0C8010E94CE0E68
:100B9000C8010E948C0F43E050E062E572E0CE0194
:100BA00001960E94871549816DE1C8010E94CE0E11
:100BB0004A816EE1C8010E94CE0E4B8166E2C801F7
:100BC0000E94CE0E40E060E2C8010E94CE0E48E0D6
:100BD00061E2C8010E94CE0E40E050E069ED73E48E
:100BE000C8010E942710C8010E94E4108D2D0F90AB
:100BF0000F900F90DF91CF911F910F91FF90EF9089
:100C0000DF900895DF92EF92FF920F931F93CF939F
:100C1000DF93EC0162E10E945F0F2A813B81243067
:100C2000310521F4982F907A09F068C02A813B8120
:100C30002430310509F073C086FF71C063E1CE0135
:100C40000E945F0FF82E60E1CE010E945F0F482FD7
:100C50006DE0CE010E94CE0EDFB6F89460E08A8D82
:100C60000E946211888D998DDC01ED91FC910190BB
:100C7000F081E02D60E019958E01025E1F4FEF2C90
:100C8000E00EE01671F0888D998DDC01ED91FC91FC
:100C90000190F081E02D60E01995F80181938F01BA
:100CA000F0CF61E08A8D0E946211DFBEFD8E4FEFB2
:100CB00062E1CE010E94CE0E6AE1CE010E945F0F7A
:100CC00089588E878D8DFE01E35EFE4F843090F053
:100CD0008E8D8E838F8D8F8388A1888789A1898748
:100CE0008D81811129C09E818C81981729F18E8177
:100CF0008F3F11F18081882331F02FC08F85988933
:100D00000196988B8F874FEF62E1CE01DF91CF91F3
:100D10001F910F91FF90EF90DF900C94CE0E2A81DF
:100D20003B812330310581F483FF0EC08B899C8980
:100D300001969C8B8B8B11C089899A8901969A8B1D
:100D4000898B81E08083D6CF2A813B812530310594
:100D5000D1F682FFD8CF81708D8BCE010E948C0F8F
:100D6000D2CFCF93DF93EC0188819981009789F0EE
:100D7000DC01ED91FC910190F081E02D6AE070E0E2
:100D80001995009741F0FC0111821082158214829E
:100D900002C080E090E0EA81FB81309751F0208131
:100DA00031812115310511F0F901F9CF918380834B
:100DB00002C09B838A83DF91CF9108950F931F9385
:100DC000CF93DF938B01FC01C281D381209759F02F
:100DD0006A817B81C8010E946D18892B21F00990DE
:100DE000D881C02DF3CFCE01DF91CF911F910F910C
:100DF0000895EF92FF920F931F93CF93DF938C018F
:100E0000EB017A010E94DE06FC01892B41F4C80146
:100E10000E94B106FC01892B51F0D383C28382E08A
:100E200090E095838483F782E68281E001C080E0D0
:100E3000DF91CF911F910F91FF90EF9008954F9206
:100E40005F926F927F928F929F92AF92BF92CF925A
:100E5000DF92EF92FF920F931F93CF93DF93CDB763
:100E6000DEB7CB5AD3400FB6F894DEBF0FBECDBF6E
:100E70000E94A5128823A1F18091A0048B3041F13A
:100E800078F18551823060F560919A0470E080E0DD
:100E900090E00E94061720E030E040E853E40E9412
:100EA000BD176B017C0180919B04682F70E080E08E
:100EB00090E00E9408179B01AC01C701B6010E9497
:100EC000F4152DEC3CEC4CEC5DE30E94BD170CC01E
:100ED00060919A0470E080E090E00E94061704C0E0
:100EE00060E070E080EC9FE7C955DC4F6883798350
:100EF0008A839B83C75AD3400E94A5128823D1F1CD
:100F00008091A0048B3029F0A8F18551823048F0FF
:100F100031C060919C0470E080E090E00E94061770
:100F20002DC010919C04612F6F7770E080E090E0FD
:100F30000E94081720E030E040E853E40E94BD170B
:100F40006B017C0180919D04682F70E080E090E04F
:100F50000E9408179B01AC01C701B6010E94F4155D
:100F60002DEC3CEC4CEC5DE30E94BD1717FF06C076
:100F7000905804C060E070E080EC9FE7CD55DC4FF6
:100F8000688379838A839B83C35AD34086E30E9414
:100F90001B12BC01990F880B990B0E9408172B019B
:100FA0003C018BE30E941B12BC01990F880B990B2B
:100FB0000E9408172AE038E240EA5BE30E94BD176E
:100FC00020E030E04AE754E40E94BD176B017C0149
:100FD0009B01AC0160E070E48CE995E40E94F3159C
:100FE0009B01AC01C701B6010E94651620E030E408
:100FF0004CE156E40E94BD179B01AC0160E074E235
:1010000084E799E40E94F3152DEC3CEC49EF54E49D
:101010000E946516C156DC4F688379838A839B835F
:10102000CF59D340CD55DC4F688179818A819B812E
:10103000C35AD3409B01AC010E942A188111CBC135
:10104000C955DC4F688179818A819B81C75AD34019
:101050009B01AC010E942A188111BDC18BEFC555BF
:10106000DC4F8883CB5AD3407E0189E3E81A8DEFA9
:10107000F80AC7010896F7019383828388EC90E011
:10108000958384831782168281E292E09183808324
:1010900064E070E0C7010E944305009739F0FC014D
:1010A000F182E082138212828C0111C08091EE03E2
:1010B00081110BC01092EB031092EA031092ED0322
:1010C0001092EC0381E08093EE030AEE13E064EFEC
:1010D00072E0C8010E94DE06009751F4C8010E9428
:1010E000B106009771F024EF32E0FC0133832283D4
:1010F00022E030E0FC013583248320E032E03783B6
:1011000026830E943A126B017C0167EF72E0C801EE
:101110000E94DE06009751F4C8010E94B1060097B4
:1011200071F027EF32E0FC013383228324E030E0CA
:10113000FC0135832483C682D782E086F18687EF5F
:1011400091E08C0F9D1F0896C750DE4F99838883CE
:10115000C95FD14088EC90E0C550DE4F9983888309
:10116000CB5FD140C350DE4F19821882CD5FD14092
:1011700081E292E0C950DE4F99838883C75FD140F6
:10118000E12CF12C5E01F5E6AF1AFCEFBF0A6E010F
:101190008CEFC80ED11C4E01EAE08E1AEEEF9E0ACB
:1011A000F2E0EF16F10409F443C083E0E816F1041D
:1011B00009F45FC0E1E0EE16F104C9F04CEF52E033
:1011C00068E073E0C8010E94F906CD55DC4F6881E4
:1011D00079818A819B81C35AD3409B01AC010E94D3
:1011E0002A18811119C0BE016D557C4F4CC044E1D5
:1011F00053E068E073E0C8010E94F906C955DC4F6E
:10120000688179818A819B81C75AD3409B01AC0157
:101210000E942A18882341F044EE52E06FE073E008
:10122000C8010E94F90632C0BE0169557C4F2BC02F
:101230004DE153E068E073E0C8010E94F90620E048
:1012400030E040EA50E4C301B2010E94BD1720E043
:1012500030E240E854E40E946516C956DC4F6883CA
:1012600079838A839B83C759D340BE0169567C4FDB
:101270000AC043E253E068E073E0C8010E94F90647
:10128000BE0161567C4FC8010E94B810F5019182E1
:101290008082D382C282F6011082C956DC4FB982A5
:1012A000A882C759D340C756DC4F19821882C95942
:1012B000D340BE0169567C4FC8010E94E90289E211
:1012C00093E00E94F210C6010E9404114BEFB60198
:1012D0008CEA94E00E94A00F8CEA94E00E94720BCA
:1012E00068EB7BE08CEA94E00E942D0C882309F4E3
:1012F00048C0AE0145555C4FBE016F5F7F4F8CEA21
:1013000094E00E94B60C8823C9F183E493E00E9424
:101310000411CE0101960E94041160E072E0CE013A
:1013200001960E946D18892B31F18EE493E00E94A2
:10133000041168EB7BE08CEA94E00E942D0C88237A
:1013400079F0AE0145555C4FBE016F5F7F4F8CEA6F
:1013500094E00E94B60C811107C089E593E002C0B9
:1013600085E693E00E94041164EF71E080E090E074
:101370000E945F12D2CF8DE693E005C089E593E02D
:1013800002C08FE893E00E94041168E873E180E0F6
:1013900090E00E945F12FFEFEF1AFF0A84E0E81668
:1013A000F10409F0FDCEC555DC4F0FB6F894DEBF51
:1013B0000FBECDBFDF91CF911F910F91FF90EF90A6
:1013C000DF90CF90BF90AF909F908F907F906F9065
:1013D0005F904F90089581EB93E00E9404113ECE00
:1013E0000895CF92DF92EF92FF920F931F93CF93C6
:1013F000DF936C017A018B01C0E0D0E0CE15DF05F0
:1014000089F0D8016D918D01D601ED91FC9101908B
:10141000F081E02DC6011995892B11F47E0102C0DF
:101420002196ECCFC701DF91CF911F910F91FF90D3
:10143000EF90DF90CF900895089580E090E00895B8
:10144000FC01538D448D252F30E0842F90E0821BCA
:10145000930B541710F0CF96089501970895FC014F
:10146000918D828D981761F0828DDF01A80FB11DDB
:101470005D968C91928D9F5F9F73928F90E00895FF
:101480008FEF9FEF0895FC01918D828D981731F0B9
:10149000828DE80FF11D858D90E008958FEF9FEF0D
:1014A0000895FC01918D228D892F90E0805C9F4FE3
:1014B000821B91098F73992708958DEF93E00E9405
:1014C000510A21E0892B09F420E0822F0895FC01C4
:1014D000848DDF01A80FB11DA35ABF4F2C91848DBD
:1014E00090E001968F739927848FA689B7892C93F2
:1014F000A089B1898C9180648C93938D848D98138D
:1015000006C00288F389E02D80818F7D8083089555
:10151000EF92FF920F931F93CF93DF93EC0181E043
:10152000888F9B8D8C8D981305C0E889F9898081FF
:1015300085FD24C0F62E0B8D10E00F5F1F4F0F733B
:101540001127E02E8C8DE8120CC00FB607FCFACFE5
:10155000E889F989808185FFF5CFCE010E94670A6D
:10156000F1CF8B8DFE01E80FF11DE35AFF4FF082A2
:101570000B8FEA89FB898081806207C0EE89FF8931
:101580006083E889F98980818064808381E090E0CC
:10159000DF91CF911F910F91FF90EF900895CF931E
:1015A000DF93EC01888D8823C9F0EA89FB8980816B
:1015B00085FD05C0A889B9898C9186FD0FC00FB63D
:1015C00007FCF5CF808185FFF2CFA889B9898C917E
:1015D00085FFEDCFCE010E94670AE7CFDF91CF9163
:1015E000089580E090E0892B21F00E945D0A81112E
:1015F00025C080E090E0892B41F080E090E0892BCD
:1016000021F00E94000081111CC080E090E0892B35
:1016100041F080E090E0892B21F00E9400008111D0
:1016200013C080E090E0892BA1F080E090E0892B4E
:1016300081F00E94000081110AC008950E940000FC
:10164000D8CF0E940000E1CF0E940000EACF0C94A6
:10165000000008958CB58F7B8CBD08958CB58F7775
:101660008CBD08958CB580688CBD08956EBD00005A
:101670000DB407FEFDCF8EB508959CB5282F2370BD
:101680009C7F922B9CBD2DB582FB992790F9822FD0
:101690008E7F892B8DBD089580E00895FC018185A2
:1016A0000895FC0180850895FC0187810895FC015F
:1016B00086810895FC01409595854923642B6587B3
:1016C0000895FC0164870895FC0163870895FC0177
:1016D00062870895FC0164830895FC016583089581
:1016E00080E00895FC012281338123303105D1F35C
:1016F00081E00895CF93DF93EC01E881F9810280C6
:10170000F381E02DCE0119958823B9F3DF91CF91B4
:10171000089581E008958BEF08950E945F18CF939C
:10172000FC01268137812115310549F02130310531
:1017300041F02230310539F02330310531F020E01D
:1017400005C024E003C028E001C02CE09CB5937FD5
:10175000922B9CBD84819581019761F58CB5806247
:101760008CBD8281938101978430910528F4FC011E
:10177000E559FD4FC08101C0C1E08C2F0E943D0B97
:1017800061E085E30E94621161E085E30E94DF1160
:101790008CB580618CBD8CB580648CBD61E084E3C8
:1017A0000E94DF1161E083E30E94DF118C2FCF9153
:1017B0000C943D0B9CB59F7D9CBDD3CFCF93DF9305
:1017C000EC01888D998DDC01ED91FC910680F7810B
:1017D000E02D199561E08A8D0E94DF1161E08A8D0C
:1017E0000E94621164E670E080E090E00E945F1267
:1017F00081E0DF91CF9108958F929F92AF92BF9237
:10180000CF92DF92EF92FF92CF93DF93EC016B01C7
:101810000E9499124B015C01E12CF12C0E9499125B
:10182000DC01CB0188199909AA09BB098C159D0512
:10183000AE05BF0530F48A819B81039779F381E07F
:1018400001C080E0DF91CF91FF90EF90DF90CF90CB
:10185000BF90AF909F908F9008958F929F92AF927C
:10186000BF92CF92DF92EF92FF92CF93DF93EC0182
:101870006B010E9499124B015C01E12CF12C0E943A
:101880009912DC01CB0188199909AA09BB098C15A9
:101890009D05AE05BF0550F4E881F9810280F38112
:1018A000E02DCE011995882351F301C080E0DF912E
:1018B000CF91FF90EF90DF90CF90BF90AF909F902F
:1018C0008F9008958F929F92AF92BF92CF92DF92A6
:1018D000EF92FF92CF93DF93FC0126893789232B68
:1018E00011F481E038C0EC010E9499126B017C0177
:1018F00089E0882E912CA12CB12CE881F9810488F3
:10190000F589E02DCE011995882359F30E9499128B
:10191000AB01BC014C195D096E097F098E899F8955
:10192000A0E0B0E084179507A607B70798F00E94DB
:101930007A15A50194010E9490159B01AC012F5FBF
:101940003F4F4F4F5F4FA4E6B0E00E94AF150E949B
:101950005F12D3CF80E0DF91CF91FF90EF90DF90C7
:10196000CF90BF90AF909F908F900895CF92DF92CD
:10197000EF92FF920F931F93CF93DF93EC017B01C4
:101980008A01E881F9810280F381E02D1995D82E32
:10199000882339F1E114F104E1F001151105C9F0D2
:1019A000CFB6F8942D8D30E023503109F8018081B5
:1019B00090E0821793071CF09D8D94509083F8015E
:1019C000408150E0BE016E5D7F4FC7010E946418E8
:1019D000CFBE8FB7F894FE01E35EFE4F10821D8EDE
:1019E0008FBF8D2DDF91CF911F910F91FF90EF90C1
:1019F000DF90CF9008958091FB039091FC030097B6
:101A000011F00C94020608958091F9039091FA0365
:101A1000009711F00C94020608958091F7039091BD
:101A2000F803009711F00C94020608951F920F928C
:101A30000FB60F9211240BB60F922F933F934F9333
:101A40005F936F937F938F939F93AF93BF93EF9326
:101A5000FF93E0911702F09118021995FF91EF9111
:101A6000BF91AF919F918F917F916F915F914F91B6
:101A70003F912F910F900BBE0F900FBE0F901F90B4
:101A800018951F920F920FB60F9211240BB60F925A
:101A90002F933F934F935F936F937F938F939F9376
:101AA000AF93BF93EF93FF93E0911502F09116026D
:101AB0001995FF91EF91BF91AF919F918F917F9178
:101AC0006F915F914F913F912F910F900BBE0F90AF
:101AD0000FBE0F901F9018951F920F920FB60F9286
:101AE00011240BB60F922F933F934F935F936F93F5
:101AF0007F938F939F93AF93BF93EF93FF93E09167
:101B00000B02F0910C021995FF91EF91BF91AF91EB
:101B10009F918F917F916F915F914F913F912F9105
:101B20000F900BBE0F900FBE0F901F9018951F9235
:101B30000F920FB60F9211240BB60F922F933F9373
:101B40004F935F936F937F938F939F93AF93BF93C5
:101B5000EF93FF93E0910902F0910A021995FF912A
:101B6000EF91BF91AF919F918F917F916F915F9115
:101B70004F913F912F910F900BBE0F900FBE0F9082
:101B80001F9018951F920F920FB60F9211240BB64B
:101B90000F922F933F934F935F936F937F938F9306
:101BA0009F93AF93BF93EF93FF93E0911302F09154
:101BB00014021995FF91EF91BF91AF919F918F9171
:101BC0007F916F915F914F913F912F910F900BBE3D
:101BD0000F900FBE0F901F9018951F920F920FB687
:101BE0000F9211240BB60F922F933F934F935F9355
:101BF0006F937F938F939F93AF93BF93EF93FF93D5
:101C0000E0911102F09112021995FF91EF91BF91AD
:101C1000AF919F918F917F916F915F914F913F9184
:101C20002F910F900BBE0F900FBE0F901F90189525
:101C30001F920F920FB60F9211240BB60F922F9393
:101C40003F934F935F936F937F938F939F93AF9344
:101C5000BF93EF93FF93E0910F02F091100219955B
:101C6000FF91EF91BF91AF919F918F917F916F9174
:101C70005F914F913F912F910F900BBE0F900FBE30
:101C80000F901F9018951F920F920FB60F9211246C
:101C90000BB60F922F933F934F935F936F937F9366
:101CA0008F939F93AF93BF93EF93FF93E0910D02B8
:101CB000F0910E021995FF91EF91BF91AF919F9115
:101CC0008F917F916F915F914F913F912F910F90E5
:101CD0000BBE0F900FBE0F901F9018951F920F9282
:101CE0000FB60F9211240BB60F922F933F934F9381
:101CF0005F936F937F938F939F93AF93BF93EF9374
:101D0000FF938DEF93E00E94670AFF91EF91BF91DF
:101D1000AF919F918F917F916F915F914F913F9183
:101D20002F910F900BBE0F900FBE0F901F90189524
:101D30001F920F920FB60F9211240BB60F922F9392
:101D40008F939F93EF93FF93E0910D04F0910E0416
:101D50008081E0911304F091140482FD12C09081FF
:101D6000809116048F5F8F7320911704821751F0B2
:101D7000E0911604F0E0E350FC4F958F8093160439
:101D800001C08081FF91EF919F918F912F910F90D2
:101D90000BBE0F900FBE0F901F901895EF92FF9201
:101DA0000F931F93CF93DF931F92CDB7DEB77C01C4
:101DB000162F0FB7F89460E0DC015A968C91498396
:101DC0000E946211F701808D918DDC01ED91FC91F3
:101DD000612F60680190F081E02D1995182FF701AF
:101DE000808D918DDC01ED91FC910190F081E02DD1
:101DF0004981642F199561E0F701828D0E9462117B
:101E00000FBF812F0F90DF91CF911F910F91FF9006
:101E1000EF900895CF93DF93EC018A819B81059722
:101E200071F047E061E0CE010E94CE0E40E860E430
:101E3000CE010E94CE0E85E090E09B838A838A814A
:101E40009B810597E1F38D89DF91CF910895CF9321
:101E5000DF93FC01228133812130310549F0EC010F
:101E600040E061E00E94CE0E81E090E09B838A8397
:101E700081E0DF91CF910895CF93DF93FC01228120
:101E8000338123303105B9F0EC01828193810497CD
:101E900071F045E061E0CF010E94CE0E40E060E4C9
:101EA000CE010E94CE0E84E090E09B838A83C35EC5
:101EB000DE4F888101C080E0DF91CF9108950F93BC
:101EC0001F93CF93DF93EC01162F0FB7F89460E0C8
:101ED0008A8D0E946211888D998DDC01ED91FC91B3
:101EE000612F6F770190F081E02D1995888D998D84
:101EF000DC01ED91FC910190F081E02D60E01995FD
:101F0000182F61E08A8D0E9462110FBF812FDF912F
:101F1000CF911F910F910895CF93DF93FC01228100
:101F200033812230310549F0EC0141E061E00E944B
:101F3000CE0E82E090E09B838A83DF91CF9108955B
:101F4000BF92CF92DF92EF92FF920F931F93CF93A6
:101F5000DF934C3F10F0E12C6FC0142F072FF62EAB
:101F6000EC01E881F9810484F585E02D1995CE0115
:101F70000E948C0FE881F9810288F389E02DCE015F
:101F80001995E82E882339F340E06DE0CE010E94D8
:101F9000CE0E4A8560E0CE010E94CE0E4B8560E0F9
:101FA000CE010E94CE0E4C8560E0CE010E94CE0E86
:101FB0004D8560E0CE010E94CE0EBFB6F89460E081
:101FC0008A8D0E946211888D998DDC01ED91FC91C2
:101FD0000190F081E02D60E81995CF2CD02E012FD3
:101FE000015068F0888D998DF60161916F01DC01D7
:101FF000ED91FC910190F081E02D1995F1CF61E018
:102000008A8D0E946211BFBE44E0410F62E2CE01A0
:102010000E94CE0E8A819B81039771F043E061E0BC
:10202000CE010E94CE0E40E460E4CE010E94CE0EAE
:1020300083E090E09B838A838E2DDF91CF911F9167
:102040000F91FF90EF90DF90CF90BF900895CF92C7
:10205000DF92EF92FF92CF93DF93EC01CB01BA01B5
:1020600020E034E244E759E40E94BD1720E034E266
:1020700044E752E40E9465160E94D7166B017C016A
:10208000A7016627772766E0CE010E94CE0E77274C
:102090006F2D5E2D4D2D67E0CE010E94CE0E4C2D92
:1020A00068E0CE010E94CE0E81E0DF91CF91FF90DB
:1020B000EF90DF90CF9008958F929F92AF92BF9252
:1020C000CF92DF92EF92FF92CF93DF93A091A10482
:1020D000882311F03A2F01C030E08091A20490E0F3
:1020E000880F991F88529D4FC090A704D090A804D4
:1020F000E090A904F090AA0440E050E0BA01FC018D
:10210000C591D49128812A2323130FC04A015B0172
:102110002FEF821A920AA20AB20A4C155D056E05CB
:102120007F0538F4B501A401EACF342F252FCB0168
:1021300004C030E020E080E090E0632F722FDF9158
:10214000CF91FF90EF90DF90CF90BF90AF909F9096
:102150008F900895FC01738362830895FC01778357
:1021600066830895FC017583648308950895089536
:102170000F931F93CF93DF93EC018B016FE073E01C
:102180000E94DE06FC01892B51F4CE010E94B106AB
:10219000FC01892B99F08FE093E093838283E8011F
:1021A00088819981AA81BB8128E030E0358324832E
:1021B00086839783A087B18781E001C080E0DF91AB
:1021C000CF911F910F910895CF93DF93EC0144E0DD
:1021D0006DE40E94CE0E48E869E0CE01DF91CF9118
:1021E0000C94CE0E009769F0FC0101900020E9F7F5
:1021F0003197AF01481B590BBC018DEF93E00C9454
:10220000F10980E090E00895CF93DF930E94F210EF
:10221000EC0187EE93E00E94F2108C0F9D1FDF917E
:10222000CF910895883008F04CC0A82FB0E0AA0FD5
:10223000BB1FA75FBD4F11967C936E9390E0FC018E
:102240003197E730F10510F58827E658FF4F8F4F9B
:102250000C94431880916900836080936900E89A28
:102260000895809169008C6080936900E99A0895CF
:1022700080916900806380936900EA9A0895809153
:102280006900806C80936900EB9A089580916A00E0
:10229000836080936A00EC9A089580916A008C6054
:1022A00080936A00ED9A089580916A00806380931C
:1022B0006A00EE9A089580916A00806C80936A00AB
:1022C000EF9A0895362F90E0FC01EE56FD4F4491B1
:1022D000FC01E85CFC4F2491FC01EE50FD4F949111
:1022E000992309F46BC0442309F455C050E0FA0166
:1022F0003197E231F10508F04EC08827EF57FF4FC4
:102300008F4F0C944318809180008F7707C0809185
:1023100080008F7D03C080918000877F8093800044
:102320003AC084B58F7702C084B58F7D84BD33C039
:102330008091B0008F7703C08091B0008F7D809333
:10234000B00029C0809190008F7707C080919000E5
:102350008F7D03C080919000877F809390001BC089
:102360008091A0008F7707C08091A0008F7D03C06F
:102370008091A000877F8093A0000DC080912001F4
:102380008F7707C0809120018F7D03C0809120014D
:10239000877F80932001E92FF0E0EE0FFF1FE858C0
:1023A000FD4FA591B4918FB7F894EC91311103C012
:1023B00020952E2301C02E2B2C938FBF0895CF93F1
:1023C000DF9390E0FC01E85CFC4F2491FC01EE50AF
:1023D000FD4F8491882361F190E0880F991FFC01E3
:1023E000E25AFD4FC591D491FC01E858FD4FA591EB
:1023F000B491611109C09FB7F89488812095822318
:102400008883EC912E230BC0623061F49FB7F8945F
:102410003881822F809583238883EC912E2B2C93F7
:102420009FBF06C08FB7F894E8812E2B28838FBFFB
:10243000DF91CF910895863308F0865390917B0009
:10244000282F2870977F922B90937B008770806451
:1024500080937C0080917A00806480937A008091E0
:102460007A0086FDFCCF809178002091790090E081
:10247000922B08953FB7F8948091CF059091D005A5
:10248000A091D105B091D20526B5A89B05C02F3FDC
:1024900019F00196A11DB11D3FBFBA2FA92F982F8A
:1024A0008827820F911DA11DB11DBC01CD0142E005
:1024B000660F771F881F991F4A95D1F708958F924D
:1024C0009F92AF92BF92CF92DF92EF92FF926B01F9
:1024D0007C010E943A124B015C01C114D104E10459
:1024E000F104F1F00E943A12DC01CB01881999093C
:1024F000AA09BB09883E9340A105B10570F321E00C
:10250000C21AD108E108F10888EE880E83E0981E0F
:10251000A11CB11CC114D104E104F10419F7DDCFF1
:10252000FF90EF90DF90CF90BF90AF909F908F90F3
:1025300008952FB7F8946091CB057091CC058091E8
:10254000CD059091CE052FBF0895CF92DF92EF92E7
:10255000FF920F931F93CF93DF93CDB7DEB7C05495
:10256000D1400FB6F894DEBF0FBECDBF0E949912C6
:102570000091A3041091A4042091A5043091A60415
:102580006B017C01C01AD10AE20AF30A40EDC416BD
:1025900047E0D406E104F10418F48091AB04BCC018
:1025A0006093A3047093A4048093A5049093A6045D
:1025B00010929E0410929D0410929C0410929B0411
:1025C00010929A0461E080919F040E9462116AEF68
:1025D00070E080E090E00E945F1261E080919F04D3
:1025E0000E94DF1160E080919F040E94621164E10B
:1025F00070E080E090E00E945F12F89461E08091CA
:102600009F040E9462118BE990E00197F1F762E06C
:1026100080919F040E94DF1183E290E00197F1F71F
:1026200080E00E945C10672B682B692B21F41092CC
:10263000AB0478943EC081E00E945C10672B682B4D
:10264000692BA9F38E010F5F1F4F6E018FEBC81A24
:102650008EEFD80A780180E00E945C10F701608359
:1026600071838283938381E00E945C10F70164830D
:10267000758386839783F8E0EF0EF11CEC14FD045C
:1026800051F7789420E030E0F80140815181628177
:102690007381C480D580E680F780411551056105BE
:1026A000710529F0C114D104E104F10421F4109260
:1026B000AB0480E031C0F90183E0F595E7958A9598
:1026C000E1F7E656FB4F8081880F4C155D056E05DE
:1026D0007F0508F4816080832F5F3F4F085F1F4FA5
:1026E0002832310589F620919E0430E040919A0409
:1026F00080919B0490E0840F911D40919C04840F75
:10270000911D40919D04840F911D99272817390729
:1027100071F681E08093AB04C05CDE4F0FB6F89495
:10272000DEBF0FBECDBFDF91CF911F910F91FF9004
:10273000EF90DF90CF9008951F920F920FB60F92F7
:1027400011242F933F938F939F93AF93BF938091C7
:10275000CB059091CC05A091CD05B091CE053091DF
:10276000CA0523E0230F2D3720F40196A11DB11DCA
:1027700005C026E8230F0296A11DB11D2093CA05AE
:102780008093CB059093CC05A093CD05B093CE0557
:102790008091CF059091D005A091D105B091D2053F
:1027A0000196A11DB11D8093CF059093D005A093F4
:1027B000D105B093D205BF91AF919F918F913F9179
:1027C0002F910F900FBE0F901F901895789484B59D
:1027D000826084BD84B5816084BD85B5826085BD1D
:1027E00085B5816085BD80916E00816080936E00AB
:1027F000109281008091810082608093810080919D
:10280000810081608093810080918000816080934D
:1028100080008091B10084608093B1008091B0000D
:1028200081608093B00080919100826080939100DC
:1028300080919100816080939100809190008160EF
:10284000809390008091A10082608093A10080918C
:10285000A10081608093A1008091A000816080939D
:10286000A00080912101826080932101809121014B
:1028700081608093210180912001816080932001FB
:1028800080917A00846080937A0080917A008260DF
:1028900080937A0080917A00816080937A008091A1
:1028A0007A00806880937A001092C100E0910D0454
:1028B000F0910E0482E08083E0910904F0910A0413
:1028C0001082E0910B04F0910C048FEC8083109245
:1028D0001504E0911104F091120486E08083E091E8
:1028E0000F04F0911004808180618083E0910F04D7
:1028F000F0911004808188608083E0910F04F09152
:102900001004808180688083E0910F04F0911004AE
:1029100080818F7D808389EC93E00E9404118CEA92
:1029200094E00E945705811104C08BED93E00E9452
:10293000041140E050E868ED73E48CEA94E00E94F2
:1029400027108CEA94E00E94E41061E087E00E9486
:10295000DF110E941F070E94F10AFBCFEDEFF3E0A9
:102960001382128288EE93E0A0E0B0E08483958326
:10297000A683B78383E792E09183808385EC90E020
:102980009587848784EC90E09787868780EC90E039
:10299000918B808B81EC90E0938B828B82EC90E02A
:1029A000958B848B86EC90E0978B868B118E128EA4
:1029B000138E148EA3EDB5E013961C921E921297FF
:1029C00015961C921E92149717961C921E9216979B
:1029D00085E892E011969C938E93ECEAF4E01382E2
:1029E00012828FEF84838287838714861586108AEC
:1029F0001786128A118A148A138A178A168AB18F47
:102A0000A08F9AE0928F29E932E0318320831092DF
:102A1000C90592E0938F848FAAE9B4E087E3159605
:102A20008C9315978BE016968C931697EFE6F3E050
:102A3000E4911796EC931797E9E2F3E0E491189686
:102A4000EC93189740E85EE360E070E01D964D93CC
:102A50005D936D937C93509708958F929F92AF9260
:102A6000BF92CF92DF92EF92FF92CF93DF93EC0170
:102A7000688179818A819B81611571058105910544
:102A800021F464E279ED8BE597E02DE133EF41E04D
:102A900050E00E94901549015A019B01AC01A7EA40
:102AA000B1E40E94AF156B017C01ACEEB4EFA5015F
:102AB00094010E94BD15DC01CB018C0D9D1DAE1D46
:102AC000BF1DB7FF03C00197A109B0488883998350
:102AD000AA83BB83BC01CD019F77DF91CF91FF908B
:102AE000EF90DF90CF90BF90AF909F908F90089520
:102AF0000C942D1589E192E00C942D156093190228
:102B000070931A0280931B0290931C020895FB019C
:102B1000DC0102C005900D9241505040D8F7089555
:102B2000052E97FB1EF400940E94A71557FD07D0B1
:102B30000E94C21507FC03D04EF40C94A7155095C3
:102B40004095309521953F4F4F4F5F4F0895909599
:102B50008095709561957F4F8F4F9F4F08950E948C
:102B6000E415A59F900DB49F900DA49F800D911D1D
:102B700011240895B7FF0C94AF150E94AF15821B66
:102B8000930B0895A1E21A2EAA1BBB1BFD010DC0D9
:102B9000AA1FBB1FEE1FFF1FA217B307E407F5070D
:102BA00020F0A21BB30BE40BF50B661F771F881FE9
:102BB000991F1A9469F760957095809590959B017F
:102BC000AC01BD01CF010895A29FB001B39FC00128
:102BD000A39F700D811D1124911DB29F700D811D49
:102BE0001124911D08955058BB27AA270E940B1647
:102BF0000C947E170E94701738F00E94771720F00F
:102C000039F49F3F19F426F40C946D170EF4E095F7
:102C1000E7FB0C946717E92F0E948F1758F3BA1738
:102C2000620773078407950720F079F4A6F50C94E2
:102C3000B1170EF4E0950B2EBA2FA02D0B01B901A0
:102C400090010C01CA01A0011124FF27591B99F022
:102C5000593F50F4503E68F11A16F040A22F232F2E
:102C6000342F4427585FF3CF469537952795A7957E
:102C7000F0405395C9F77EF41F16BA0B620B730B25
:102C8000840BBAF09150A1F0FF0FBB1F661F771F96
:102C9000881FC2F70EC0BA0F621F731F841F48F44B
:102CA000879577956795B795F7959E3F08F0B0CFD4
:102CB0009395880F08F09927EE0F979587950895BB
:102CC0000E94431708F481E008950E9479160C943D
:102CD0007E170E94771758F00E94701740F029F471
:102CE0005F3F29F00C94671751110C94B2170C94A4
:102CF0006D170E948F1768F39923B1F3552391F351
:102D0000951B550BBB27AA2762177307840738F05A
:102D10009F5F5F4F220F331F441FAA1FA9F335D0B7
:102D20000E2E3AF0E0E832D091505040E695001C6B
:102D3000CAF72BD0FE2F29D0660F771F881FBB1F25
:102D4000261737074807AB07B0E809F0BB0B802D03
:102D5000BF01FF2793585F4F3AF09E3F510578F02F
:102D60000C9467170C94B2175F3FE4F3983ED4F3CA
:102D7000869577956795B795F7959F5FC9F7880F03
:102D8000911D9695879597F90895E1E0660F771F55
:102D9000881FBB1F621773078407BA0720F0621BE6
:102DA000730B840BBA0BEE1F88F7E09508950E9411
:102DB000971788F09F5798F0B92F9927B751B0F01F
:102DC000E1F0660F771F881F991F1AF0BA95C9F7AF
:102DD00014C0B13091F00E94B117B1E008950C9485
:102DE000B117672F782F8827B85F39F0B93FCCF338
:102DF000869577956795B395D9F73EF4909580952C
:102E0000709561957F4F8F4F9F4F0895E89409C04B
:102E100097FB3EF490958095709561957F4F8F4F0D
:102E20009F4F9923A9F0F92F96E9BB279395F69523
:102E3000879577956795B795F111F8CFFAF4BB0FA1
:102E400011F460FF1BC06F5F7F4F8F4F9F4F16C005
:102E5000882311F096E911C0772321F09EE8872F8F
:102E6000762F05C0662371F096E8862F70E060E04B
:102E70002AF09A95660F771F881FDAF7880F9695C4
:102E8000879597F90895990F0008550FAA0BE0E868
:102E9000FEEF16161706E807F907C0F0121613061C
:102EA000E407F50798F0621B730B840B950B39F45C
:102EB0000A2661F0232B242B252B21F408950A26C2
:102EC00009F4A140A6958FEF811D811D089597F902
:102ED0009F6780E870E060E008959FEF80EC0895C0
:102EE00000240A94161617061806090608950024E9
:102EF0000A9412161306140605060895092E039463
:102F0000000C11F4882352F0BB0F40F4BF2B11F4D6
:102F100060FF04C06F5F7F4F8F4F9F4F089557FD35
:102F20009058440F551F59F05F3F71F04795880F37
:102F300097FB991F61F09F3F79F0879508951216CE
:102F400013061406551FF2CF4695F1DF08C016167A
:102F500017061806991FF1CF86957105610508942B
:102F60000895E894BB2766277727CB0197F9089542
:102F70000E94431708F48FEF08950E94D0170C9415
:102F80007E170E94701738F00E94771720F0952363
:102F900011F00C9467170C946D1711240C94B21750
:102FA0000E948F1770F3959FC1F3950F50E0551F46
:102FB000629FF001729FBB27F00DB11D639FAA278E
:102FC000F00DB11DAA1F649F6627B00DA11D661FDD
:102FD000829F2227B00DA11D621F739FB00DA11DFE
:102FE000621F839FA00D611D221F749F3327A00DB8
:102FF000611D231F849F600D211D822F762F6A2F54
:1030000011249F5750409AF0F1F088234AF0EE0FB8
:10301000FF1FBB1F661F771F881F91505040A9F7E5
:103020009E3F510580F00C9467170C94B2175F3FD8
:10303000E4F3983ED4F3869577956795B795F79521
:10304000E7959F5FC1F7FE2B880F911D9695879599
:1030500097F908950E944317880B990B089597FBE1
:10306000072E16F4009407D077FD09D00E944B1864
:1030700007FC05D03EF4909581959F4F089570957B
:1030800061957F4F0895EE0FFF1F881F8BBF07903C
:10309000F691E02D1994AA1BBB1B51E107C0AA1F92
:1030A000BB1FA617B70710F0A61BB70B881F991FE9
:1030B0005A95A9F780959095BC01CD01089581E0BE
:1030C00090E0F8940C947618FB01DC0102C00190AA
:1030D0000D9241505040D8F70895FB01DC018D91CD
:1030E000019080190110D9F3990B0895F894FFCF3E
:1030F00061726475696E6F3200F009F009F009F0D1
:1031000009F009F009F009F00901000000000000D1
:103110000043050000803FCDCCCC3D6F12833A9533
:10312000BFD6337D1D9026B3CE010CCDCCCC3D0A4D
:10313000D7233C17B7D13877CC2B329595E6241F8F
:10314000B14F0A000020410000C84200401C462048
:10315000BCBE4CCA1B0E5AAEC59D740500040400CB
:10316000000000880AF109200ACF0A510A2F0A43F9
:103170000A00000000360B320B2E0B8F0B2A0BB20D
:1031800010AE10AA100000000057053C0FB60CA0AE
:103190000F8B0B7A0B720BFC0B2D0C620C0A0F6A57
:1031A0000B670B640B610B5A0B6D0B570B540B51D8
:1031B0000B4E0B270F22225C5C6208660C6E0A72B3
:1031C0000D7409006E756C6C007472756500666133
:1031D0006C7365004E614E00652D00496E66696E28
:1031E0006974790049440074696D650054656D70B7
:1031F000657261747572650073656E736F720064D9
:103200006174610048796D696469747900536F7500
:103210006E64004C696768740053656E64696E671C
:1032200020746F204C6F5261205365727665722056
:103230003A20007265636569766564203A005761DB
:103240006974696E672E2E2E007265637620666142
:10325000696C65640054696D656F7574004F4B202F
:1032600072656365697665642061636B2021204C1B
:1032700065742773206361727279206F6E2E004E21
:103280006F207265706C792C206973204C6F5261CD
:10329000207365727665722072756E6E696E673F17
:1032A000004661696C656420746F207265616420FA
:1032B00066726F6D20444854005374617274204CE0
:1032C0006F526120436C69656E7400696E69742089
:0A32D0006661696C6564000D0A0078
:00000001FF
