:100000000C9470000C94D10F0C94AA0F0C949800CF
:100010000C9498000C9498000C9498000C94980000
:100020000C9498000C9498000C9498000C949800F0
:100030000C9498000C9498000C9498000C949800E0
:100040000C94600F0C9498000C941E100C94F80FF4
:100050000C9498000C9498000C9498000C949800C0
:100060000C9498000C949800BA02B302CD02C4021A
:10007000C0028702AB024D02727400927400489471
:100080000078C40000000000240027002A000000BF
:100090000000250028002B000000000800020100DD
:1000A0000003040700000000000000000000000042
:1000B00023002600290004040404040404040202AA
:1000C00002020202030303030303010204081020D7
:1000D0004080010204081020010204081020C7100B
:1000E00011241FBECFEFD8E0DEBFCDBF12E0A0E0ED
:1000F000B1E0E8E5FAE202C005900D92A63DB10735
:10010000D9F724E0A6EDB2E001C01D92A73CB207EA
:10011000E1F710E0C0E7D0E004C02197FE010E94A3
:10012000F914CF36D107C9F70E9446110C942A154D
:100130000C9400008CB58F7B8CBD08958CB58F77A7
:100140008CBD08958CB580688CBD08956EBD00008F
:100150000DB407FEFDCF8EB508959CB5282F2370F2
:100160009C7F922B9CBD2DB582FB992790F9822F05
:100170008E7F892B8DBD089580E00895FC018185D7
:100180000895FC0180850895FC0187810895FC0194
:1001900086810895FC01409595854923642B6587E8
:1001A0000895FC0164870895FC0163870895FC01AC
:1001B00062870895FC0164830895FC0165830895B6
:1001C00080E00895FC012281338123303105D1F391
:1001D00081E00895CF93DF93EC01E881F9810280FB
:1001E000F381E02DCE0109958823B9F3DF91CF91FA
:1001F000089581E008958BEF0895CF93DF93DC019C
:10020000ED91FC9142815381DB01C281D381208138
:100210003181C217D30778F0188222813381241BE1
:10022000350BFC0142815381240F351F3383228318
:10023000DF91CF9108952C91222371F39E012F5FBE
:100240003F4F338322832D912883DFCF0F931F935A
:10025000CF93DF93CDB7DEB766970FB6F894DEBFC6
:100260000FBECDBF8C01CB011E8AFE0176962AE01F
:1002700030E0B9010E94E51490E3980F9293CB010E
:100280000097B9F7BF01C8010E94FD0066960FB63E
:10029000F894DEBF0FBECDBFDF91CF911F910F91BC
:1002A00008958F929F92AF92BF92EF92FF920F9319
:1002B0001F93CF93DF93CDB7DEB766970FB6F89451
:1002C000DEBF0FBECDBF7C011E8A8E010A5E1F4FAE
:1002D0008AE0882E912CA12CB12CCB01BA01A5016A
:1002E00094010E947812942F852F605DF80162932B
:1002F0008F01A901692F782F4115510561057105FD
:1003000061F7BF01C7010E94FD0066960FB6F89421
:10031000DEBF0FBECDBFDF91CF911F910F91FF9038
:10032000EF90BF90AF909F908F900895CF93DF9301
:10033000DC01ED91FC911197C281D3818081918183
:10034000C817D90760F4CE0101969383828368832E
:100350000280F381E02D108221E030E002C020E035
:1003600030E012968D919C911397280F391F1396A8
:100370003C932E931297DF91CF910895FF920F93A4
:100380001F93CF93DF936115710549F468EC71E019
:10039000DF91CF911F910F91FF900C94FD008B0185
:1003A000EC0162E2CE010E949601F80161918F0199
:1003B000662351F0E9EBF1E0F080FF2099F39181A1
:1003C000961759F03296F8CF62E2CE01DF91CF91C5
:1003D0001F910F91FF900C9496016CE5CE010E9445
:1003E00096016F2DDFCF0F931F93CF93DF938C0177
:1003F000EB016BE7CE010E949601F80102811381A7
:1004000001151105A9F0F80162817381CE010E94E6
:10041000BE016AE3CE010E949601BE01C8010496A6
:100420000E942502F801008111810115110541F496
:100430006DE7CE01DF91CF911F910F910C94960142
:100440006CE2CE010E949601DBCF2F923F924F9239
:100450005F926F927F928F929F92AF92BF92CF9254
:10046000DF92EF92FF920F931F93CF93DF93CDB75D
:10047000DEB762970FB6F894DEBF0FBECDBFDC01CA
:10048000ED91FC913197E830F10508F0ECC18B015A
:100490007C01EC5CFF4F0C94F914FC01C280D3800A
:1004A000E480F580A7019601C701B6010E941613EA
:1004B000882319F068ED71E07EC020E030E0A901EA
:1004C000C701B6010E94161387FF08C06DE2C8017C
:1004D0000E949601F7FAF094F7F8F09420E030E0EB
:1004E000A901C701B6010E941613882309F467C049
:1004F000A7019601C701B6010E94AA12A7019601A1
:100500000E94161381115BC06FED71E054C0FC01B5
:10051000E280F3806BE5C8010E949601D701129634
:10052000ED90FC901397E114F10459F0B801C70164
:1005300002960E942502F701E080F180E114F104A7
:1005400029F46DE5C8010E9496018DC16CE2C801D5
:100550000E949601E8CFDC0112968D919C91139731
:100560000E94F30180C1FC0162817381C8010E9475
:10057000BE0179C1DC0112966D917C9113971BC06D
:100580006DE2C8010E949601F701428153816481A6
:100590007581C8010E94510166C1FC01828193816D
:1005A000A481B581892B8A2B8B2B19F462ED71E024
:1005B00002C06DEC71E0C8010E94FD0054C120E84A
:1005C00036E948E15BE4C701B6010E946E1487FD7D
:1005D00042C1A12CB12C70E2872E912C212C312C00
:1005E000F501E95BFE4F2489358946895789C701A2
:1005F000B6010E946E1487FD0FC0F501E15DFE4F4C
:100600002489358946895789C701B6010E94731428
:100610006B017C01280C391C95948794F4E0AF1A87
:10062000B10888EEA8168FEFB806D1F677247A9431
:1006300020E030E0A901C701B6010E946E1418162F
:1006400094F52CEA35EC47E257E3C701B6010E9466
:100650001613181644F1BFEF7B1629F1972DA4E06D
:100660009A0250011124F501E95EFE4F208131818B
:1006700042815381C701B6010E94161387FF0FC044
:10068000F501E95BFE4F2081318142815381C70131
:10069000B6010E9473146B017C01281839089594E7
:1006A00087947A94D8CFC701B6010E948D134B016D
:1006B0005C010E94BC139B01AC01C701B6010E9402
:1006C000A91220E034E244E759E40E9473142B019C
:1006D0003C010E948D136B017C010E94BC139B01A5
:1006E000AC01C301B2010E94A9129B01AC010E949E
:1006F000AA120E948D13C60ED71EE81EF91EE0E452
:10070000CE16E2E4DE06EFE0EE06F104E0F0FFEFE5
:100710008F1A9F0AAF0ABF0A2114310489F08AE0B8
:1007200088169104A104B10458F09FEF291A390AE0
:10073000C12CD12C7601812C912C5401839403C0BF
:10074000C12CD12C760124013501A6E0AA8BBA89EF
:10075000B98BB150BA8BEAE04E16510461047104B2
:10076000A8F0C701B6012AE030E040E050E00E9466
:10077000781269017A01C301B2012AE030E040E059
:1007800050E00E94781229013A01E1CF3AE0432E6D
:10079000512C612C712CC701B601A30192010E945A
:1007A0007812672B682B692BB1F089898A8BB50188
:1007B000A401C8010E94510199899923A1F1188AC5
:1007C0005E01B0E1AB0EB11C45012AE0422E512C76
:1007D000612C712C0BC0A9891A1634F469017A01B5
:1007E000F989F150F98BD7CFAA8BE1CFFA89F15073
:1007F000FA8BFF3F69F0C701B601A30192010E9485
:100800007812605DF50162935F0169017A01EECFB4
:10081000B4018989681B71098EE2DB018E93BD01E9
:10082000C8010E94FD0037FE0AC06CED71E0C801EE
:100830000E94FD00662777276219730908C02114FA
:10084000310489F065E6C8010E949601B101C80132
:100850000E94260108C080E2882E912C95E0792E16
:10086000212C312CE5CE62960FB6F894DEBF0FBE78
:10087000CDBFDF91CF911F910F91FF90EF90DF904F
:10088000CF90BF90AF909F908F907F906F905F9030
:100890004F903F902F900895FC0126813781620F81
:1008A000731F848195818617970738F08281938121
:1008B00077836683820F931F089580E090E0089508
:1008C000CF93FC01268137812115310549F0213074
:1008D000310541F02230310539F02330310531F056
:1008E00020E005C024E003C028E001C02CE09CB556
:1008F000937F922B9CBD84819581019761F58CB586
:1009000080628CBD8281938101978430910528F4A7
:10091000FC01E15AFE4FC08101C0C1E08C2F0E9452
:10092000AD0061E08AE00E94410D61E08AE00E9432
:100930008D0D8CB580618CBD8CB580648CBD61E003
:100940008DE00E948D0D61E08BE00E948D0D8C2F5B
:10095000CF910C94AD009CB59F7D9CBDD3CF8F9261
:100960009F92AF92BF92CF92DF92EF92FF92CF937E
:10097000DF93EC016B010E945D0E4B015C01E12CE9
:10098000F12C0E945D0EDC01CB0188199909AA099E
:10099000BB098C159D05AE05BF0530F48A819B818E
:1009A000039779F381E001C080E0DF91CF91FF9060
:1009B000EF90DF90CF90BF90AF909F908F90089571
:1009C0008F929F92AF92BF92CF92DF92EF92FF925F
:1009D000CF93DF93EC016B010E945D0E4B015C0134
:1009E000E12CF12C0E945D0EDC01CB0188199909E4
:1009F000AA09BB098C159D05AE05BF0550F4E88119
:100A0000F9810280F381E02DCE010995882351F30D
:100A100001C080E0DF91CF91FF90EF90DF90CF9009
:100A2000BF90AF909F908F9008958F929F92AF92BA
:100A3000BF92CF92DF92EF92FF92CF93DF93FC01B0
:100A400026893789232B11F481E038C0EC010E94FC
:100A50005D0E6B017C0189E0882E912CA12CB12CBC
:100A6000E881F9810488F589E02DCE010995882374
:100A700059F30E945D0EAB01BC014C195D096E0972
:100A80007F098E899F89A0E0B0E084179507A607AB
:100A9000B70798F00E942F12A50194010E944612F8
:100AA0009B01AC012F5F3F4F4F4F5F4FA4E6B0E07B
:100AB0000E9465120E94050ED3CF80E0DF91CF9196
:100AC000FF90EF90DF90CF90BF90AF909F908F906E
:100AD0000895CF93DF93EC018A819B81059771F094
:100AE00047E061E0CE010E94501040E860E4CE0192
:100AF0000E94501085E090E09B838A838A819B81CD
:100B00000597E1F38D89DF91CF910895CF93DF931E
:100B1000FC01228133812130310549F0EC0140E0B4
:100B200061E00E94501081E090E09B838A8381E025
:100B3000DF91CF910895CF93DF93FC012281338120
:100B40002230310549F0EC0141E061E00E94501093
:100B500082E090E09B838A83DF91CF910895BF92DA
:100B6000CF92DF92EF92FF920F931F93CF93DF9379
:100B70004C3F10F0E12C6FC0142F072FF62EEC0124
:100B8000E881F9810484F585E02D0995CE010E9464
:100B90009B05E881F9810288F389E02DCE01099552
:100BA000E82E882339F340E06DE0CE010E9450101A
:100BB0004A8560E0CE010E9450104B8560E0CE0176
:100BC0000E9450104C8560E0CE010E9450104D856F
:100BD00060E0CE010E945010BFB6F89460E08A8DAC
:100BE0000E94410D888D998DDC01ED91FC91019061
:100BF000F081E02D60E80995CF2CD02E012F015017
:100C000068F0888D998DF60161916F01DC01ED919D
:100C1000FC910190F081E02D0995F1CF61E08A8D82
:100C20000E94410DBFBE44E0410F62E2CE010E942E
:100C300050108A819B81039771F043E061E0CE01FF
:100C40000E94501040E460E4CE010E94501083E006
:100C500090E09B838A838E2DDF91CF911F910F911E
:100C6000FF90EF90DF90CF90BF900895CF93DF93E8
:100C7000FC012281338123303105B9F0EC018281FE
:100C80009381049771F045E061E0CF010E9450101C
:100C900040E060E4CE010E94501084E090E09B832D
:100CA0008A83C35EDE4F888101C080E0DF91CF91EF
:100CB0000895CF92DF92EF92FF920F931F93CF93FD
:100CC000DF93EC017B018A01E881F9810280F381E5
:100CD000E02D0995D82E882339F1E114F104E1F0D3
:100CE00001151105C9F0CFB6F8942D8D30E02350D1
:100CF0003109F801808190E0821793071CF09D8DE7
:100D000094509083F801408150E0BE016E5D7F4FAA
:100D1000C7010E941815CFBE8FB7F894FE01E35E9D
:100D2000FE4F10821D8E8FBF8D2DDF91CF911F91B1
:100D30000F91FF90EF90DF90CF900895DF92EF92A8
:100D4000FF920F931F93CF93DF93EC0162E10E9418
:100D50009A102A813B812430310521F4982F907A12
:100D600009F068C02A813B812430310509F073C045
:100D700086FF71C063E1CE010E949A10F82E60E1F7
:100D8000CE010E949A10482F6DE0CE010E945010B3
:100D9000DFB6F89460E08A8D0E94410D888D998DB0
:100DA000DC01ED91FC910190F081E02D60E009956E
:100DB0008E01025E1F4FEF2CE00EE01671F0888D61
:100DC000998DDC01ED91FC910190F081E02D60E0C6
:100DD0000995F80181938F01F0CF61E08A8D0E941F
:100DE000410DDFBEFD8E4FEF62E1CE010E9450103B
:100DF0006AE1CE010E949A1089588E878D8DFE017E
:100E0000E35EFE4F843090F08E8D8E838F8D8F83C6
:100E100088A1888789A189878D81811129C09E81B8
:100E20008C81981729F18E818F3F11F18081882361
:100E300031F02FC08F8598890196988B8F874FEF5F
:100E400062E1CE01DF91CF911F910F91FF90EF9062
:100E5000DF900C9450102A813B812330310581F4BE
:100E600083FF0EC08B899C8901969C8B8B8B11C054
:100E700089899A8901969A8B898B81E08083D6CF64
:100E80002A813B8125303105D1F682FFD8CF817090
:100E90008D8BCE010E949B05D2CF8091E70290916D
:100EA000E802009711F00C949E0608958091E502E7
:100EB0009091E602009711F00C949E06089580919F
:100EC000E3029091E402009711F00C949E060895BD
:100ED000CF92DF92EF92FF92CF93DF93EC01CB01A1
:100EE000BA0120E034E244E759E40E94731420E0A0
:100EF00034E244E752E40E941B130E948D136B01FD
:100F00007C01A7016627772766E0CE010E9450107A
:100F100077276F2D5E2D4D2D67E0CE010E9450107A
:100F20004C2D68E0CE010E94501081E0DF91CF91FE
:100F3000FF90EF90DF90CF900895EF92FF920F9384
:100F40001F93CF93DF9300D01F92CDB7DEB78C01F4
:100F50000E943F0EE82E811102C0E12C81C0F801F1
:100F6000838D823029F08330C1F7FF24F39401C0D0
:100F7000F12C40E861E0C8010E9450106AE070E086
:100F800080E090E00E94050E61E0C8010E949A1086
:100F9000803819F760E0F801838D0E948D0DF8010B
:100FA000848D8F3F49F48091E2028430B0F691E065
:100FB000980F9093E202848FF801948DE92FF0E06E
:100FC000EE0FFF1FED51FD4F11830083911103C000
:100FD0006FE577E00AC0913019F466E577E005C067
:100FE000923009F0BACF6DE477E08F2D0E94270D83
:100FF00040E06EE0C8010E94501040E06FE0C80180
:101000000E945010C8010E949B0543E050E068E731
:1010100070E0CE0101960E943D1249816DE1C80148
:101020000E9450104A816EE1C8010E9450104B810D
:1010300066E2C8010E94501040E060E2C8010E94D0
:10104000501048E061E2C8010E94501040E050E0BA
:1010500069ED73E4C8010E946807C8010E948C1002
:101060008E2D0F900F900F90DF91CF911F910F91C8
:10107000FF90EF900895CF93DF93EC0188819981E1
:10108000009789F0DC01ED91FC910190F081E02D59
:101090006AE070E00995009741F0FC01118210822E
:1010A0001582148202C080E090E0EA81FB813097D3
:1010B00051F0208131812115310511F0F901F9CF6D
:1010C0009183808302C09B838A83DF91CF910895AF
:1010D0000F931F93CF93DF938B01FC01C281D381C8
:1010E000209759F06A817B81C8010E942115892BC4
:1010F00021F00990D881C02DF3CFCE01DF91CF919F
:101100001F910F910895EF92FF920F931F93CF932A
:10111000DF938C01EB017A010E946808FC01892BA6
:1011200041F4C8010E943B08FC01892B51F0D38394
:10113000C28382E090E095838483F782E68281E037
:1011400001C080E0DF91CF911F910F91FF90EF9050
:1011500008954F925F926F927F928F929F92AF927B
:10116000BF92CF92DF92EF92FF920F931F93CF9394
:10117000DF93CDB7DEB7CB5AD3400FB6F894DEBFBE
:101180000FBECDBF0E94690E8823A1F180918C0310
:101190008B3041F178F18551823060F560918603A2
:1011A00070E080E090E00E94BC1320E030E040E876
:1011B00053E40E9473146B017C0180918703682FB4
:1011C00070E080E090E00E94BE139B01AC01C7017B
:1011D000B6010E94AA122DEC3CEC4CEC5DE30E949F
:1011E00073140CC06091860370E080E090E00E9470
:1011F000BC1304C060E070E080EC9FE7C955DC4F91
:10120000688379838A839B83C75AD3400E94690E7F
:101210008823D1F180918C038B3029F0A8F185517E
:10122000823048F031C06091880370E080E090E047
:101230000E94BC132DC010918803612F6F7770E05E
:1012400080E090E00E94BE1320E030E040E853E4EC
:101250000E9473146B017C0180918903682F70E0F8
:1012600080E090E00E94BE139B01AC01C701B60173
:101270000E94AA122DEC3CEC4CEC5DE30E9473142E
:1012800017FF06C0905804C060E070E080EC9FE754
:10129000CD55DC4F688379838A839B83C35AD340BF
:1012A0008EE00E94C90DBC01990F880B990B0E941A
:1012B000BE132B013C0183E10E94C90DBC01990FB3
:1012C000880B990B0E94BE132AE038E240EA5BE3E8
:1012D0000E94731420E030E04AE754E40E94731443
:1012E0006B017C019B01AC0160E070E48CE995E44A
:1012F0000E94A9129B01AC01C701B6010E941B13F9
:1013000020E030E44CE156E40E9473149B01AC01F0
:1013100060E074E284E799E40E94A9122DEC3CECB1
:1013200049EF54E40E941B13C156DC4F6883798354
:101330008A839B83CF59D340CD55DC4F6881798117
:101340008A819B81C35AD3409B01AC010E94E01467
:101350008111C3C1C955DC4F688179818A819B8124
:10136000C75AD3409B01AC010E94E0148111B5C162
:101370008BEFC555DC4F8883CB5AD3407E0189E380
:10138000E81A8DEFF80AC7010896F7019383828364
:1013900088EC90E0958384831782168285E191E042
:1013A0009183808364E070E0C7010E944C04009741
:1013B00039F0FC01F182E082138212828C0111C0AB
:1013C0008091DA0281110BC01092D7021092D602DE
:1013D0001092D9021092D80281E08093DA0206EDD1
:1013E00012E068EE71E0C8010E946808009751F4AD
:1013F000C8010E943B08009771F028EE31E0FC0123
:101400003383228322E030E0FC013583248320E013
:1014100031E0378326830E94E00D6B017C016BEE87
:1014200071E0C8010E946808009751F4C8010E9449
:101430003B08009771F02BEE31E0FC0133832283EF
:1014400024E030E0FC0135832483C682D782E08625
:10145000F18687EF91E08C0F9D1F0896C750DE4FF5
:1014600099838883C95FD14088EC90E0C550DE4FF6
:1014700099838883CB5FD140C350DE4F1982188295
:10148000CD5FD14085E191E0C950DE4F99838883DB
:10149000C75FD140E12CF12C5E01F5E6AF1AFCEFFD
:1014A000BF0A6E018CEFC80ED11C4E01EAE08E1A05
:1014B000EEEF9E0AF2E0EF16F104E1F183E0E816A8
:1014C000F10409F458C0E1E0EE16F104C9F040EF70
:1014D00051E06CEF71E0C8010E948308CD55DC4FEC
:1014E000688179818A819B81C35AD3409B01AC0179
:1014F0000E94E014811112C0BE016D557C4F45C0A1
:10150000C955DC4F688179818A819B81C75AD34054
:101510009B01AC010E94E014882341F048ED51E0AA
:1015200063E072E0C8010E94830832C0BE016955C1
:101530007C4F2BC048E052E06CEF71E0C8010E9484
:10154000830820E030E040EA50E4C301B2010E9489
:10155000731420E030E240E854E40E941B13C956A3
:10156000DC4F688379838A839B83C759D340BE014C
:1015700069567C4F0AC04EE052E06CEF71E0C80142
:101580000E948308BE0161567C4FC8010E94DB0C9B
:10159000F50191828082D382C282F6011082C956FF
:1015A000DC4FB982A882C759D340C756DC4F198295
:1015B0001882C959D340BE0169567C4FC8010E94A8
:1015C000F30184E192E00E94070DC6010E94190D0B
:1015D0004BEFB60188E993E00E94AF0588E993E0FC
:1015E0000E94E20068EB7BE088E993E00E94E0045F
:1015F000882309F448C0AE0145555C4FBE016F5FBA
:101600007F4F88E993E00E9459068823C9F18EE252
:1016100092E00E94190DCE0101960E94190D60E022
:1016200071E0CE0101960E942115892B31F189E3E9
:1016300092E00E94190D68EB7BE088E993E00E943C
:10164000E004882379F0AE0145555C4FBE016F5F21
:101650007F4F88E993E00E945906811107C084E416
:1016600092E002C080E592E00E94190D64EF71E003
:1016700080E090E00E94050ED2CF88E592E005C0A0
:1016800084E492E002C08AE792E00E94190D68E8C3
:1016900073E180E090E00E94050EFFEFEF1AFF0A71
:1016A00084E0E816F10409F005CFC555DC4F0FB60C
:1016B000F894DEBF0FBECDBFDF91CF911F910F9188
:1016C000FF90EF90DF90CF90BF90AF909F908F9062
:1016D0007F906F905F904F9008958CE992E00E9408
:1016E000190D46CE8F929F92AF92BF92CF92DF920A
:1016F000EF92FF92CF93DF93A0918D03882311F097
:101700003A2F01C030E080918E0390E0880F991F3E
:1017100084559F4FC0909303D0909403E09095031D
:10172000F090960340E050E0BA01FC01C591D491DD
:1017300028812A2323130FC04A015B012FEF821A4D
:10174000920AA20AB20A4C155D056E057F0538F4AF
:10175000B501A401EACF342F252FCB0104C030E01E
:1017600020E080E090E0632F722FDF91CF91FF9017
:10177000EF90DF90CF90BF90AF909F908F900895A3
:10178000FC01738362830895FC0177836683089567
:10179000FC01758364830895089508950895CF9298
:1017A000DF92EF92FF920F931F93CF93DF936C0121
:1017B0007A018B01C0E0D0E0CE15DF0589F0D801B9
:1017C0006D918D01D601ED91FC910190F081E02D9C
:1017D000C6010995892B11F47E0102C02196ECCF38
:1017E000C701DF91CF911F910F91FF90EF90DF9094
:1017F000CF900895089580E090E00895FC01538D06
:10180000448D252F30E0842F90E0821B930B5417DA
:1018100010F0CF96089501970895FC01918D828D67
:10182000981761F0828DDF01A80FB11D5D968C9134
:10183000928D9F5F9F73928F90E008958FEF9FEF3F
:101840000895FC01918D828D981731F0828DE80FFB
:10185000F11D858D90E008958FEF9FEF0895FC01B5
:10186000918D228D892F90E0805C9F4F821B910982
:101870008F739927089589EE92E00E942F0C21E042
:10188000892B09F420E0822F0895FC01848DDF016B
:10189000A80FB11DA35ABF4F2C91848D90E00196E3
:1018A0008F739927848FA689B7892C93A089B189D2
:1018B0008C9180648C93938D848D981306C00288DC
:1018C000F389E02D80818F7D80830895EF92FF92D0
:1018D0000F931F93CF93DF93EC0181E0888F9B8D53
:1018E0008C8D981305C0E889F989808185FD24C015
:1018F000F62E0B8D10E00F5F1F4F0F731127E02E98
:101900008C8DE8120CC00FB607FCFACFE889F98974
:10191000808185FFF5CFCE010E94450CF1CF8B8DE4
:10192000FE01E80FF11DE35AFF4FF0820B8FEA89A9
:10193000FB898081806207C0EE89FF896083E88926
:10194000F98980818064808381E090E0DF91CF918C
:101950001F910F91FF90EF900895CF93DF93EC01CB
:10196000888D8823C9F0EA89FB89808185FD05C0BF
:10197000A889B9898C9186FD0FC00FB607FCF5CFF9
:10198000808185FFF2CFA889B9898C9185FFEDCF41
:10199000CE010E94450CE7CFDF91CF91089580E002
:1019A00090E0892B29F00E943B0C81110C940000DF
:1019B00008950E9413150F931F93CF93DF93EC01AB
:1019C0008B0163E072E00E946808FC01892B51F4EE
:1019D000CE010E943B08FC01892B99F083E092E044
:1019E00093838283E80188819981AA81BB8128E061
:1019F00030E03583248386839783A087B18781E095
:101A000001C080E0DF91CF911F910F910895009761
:101A100069F0FC0101900020E9F73197AF01481B04
:101A2000590BBC0189EE92E00C94CF0B80E090E062
:101A30000895CF93DF930E94070DEC0184EB92E0B1
:101A40000E94070D8C0F9D1FDF91CF91089582306A
:101A5000B8F4E82FF0E0EE0FFF1FE75FFE4F718351
:101A60006083813039F080916900836080936900E0
:101A7000E89A0895809169008C6080936900E99AE2
:101A8000089590E0FC01E856FF4F3491FC01E653C5
:101A9000FF4F2491FC01EA54FF4FE491EE2309F437
:101AA0003BC0332339F1333091F038F43130A9F0B1
:101AB000323001F584B58F7D12C0373091F0383067
:101AC000A1F03430B9F4809180008F7D03C0809103
:101AD00080008F77809380000DC084B58F7784BDA0
:101AE00009C08091B0008F7703C08091B0008F7DD6
:101AF0008093B000F0E0EE0FFF1FE257FF4FA5917B
:101B0000B4918FB7F894EC91611103C020952E2306
:101B100001C02E2B2C938FBF0895CF93DF9390E0BD
:101B2000FC01E653FF4F2491FC01EA54FF4F8491DE
:101B3000882361F190E0880F991FFC01EC57FF4F5B
:101B4000C591D491FC01E257FF4FA591B491611169
:101B500009C09FB7F8948881209582238883EC91EF
:101B60002E230BC0623061F49FB7F8943881822F26
:101B7000809583238883EC912E2B2C939FBF06C0E6
:101B80008FB7F894E8812E2B28838FBFDF91CF91F8
:101B900008958E3008F08E508770806480937C00AA
:101BA00080917A00806480937A0080917A0086FD2B
:101BB000FCCF809178002091790090E0922B0895DD
:101BC0003FB7F8948091BB049091BC04A091BD04F0
:101BD000B091BE0426B5A89B05C02F3F19F0019611
:101BE000A11DB11D3FBFBA2FA92F982F8827820FA3
:101BF000911DA11DB11DBC01CD0142E0660F771FF3
:101C0000881F991F4A95D1F708958F929F92AF929E
:101C1000BF92CF92DF92EF92FF926B017C010E9404
:101C2000E00D4B015C01C114D104E104F104F1F0B9
:101C30000E94E00DDC01CB0188199909AA09BB09B2
:101C4000883E9340A105B10570F321E0C21AD10886
:101C5000E108F10888EE880E83E0981EA11CB11CF3
:101C6000C114D104E104F10419F7DDCFFF90EF9026
:101C7000DF90CF90BF90AF909F908F900895CF93BB
:101C8000DF93EC01888D998DDC01ED91FC9106804C
:101C9000F781E02D099561E08A8D0E948D0D61E04C
:101CA0008A8D0E94410D64E670E080E090E00E9421
:101CB000050E81E0DF91CF9108952FB7F8946091E0
:101CC000B7047091B8048091B9049091BA042FBF01
:101CD0000895CF92DF92EF92FF920F931F93CF93CD
:101CE000DF93CDB7DEB7C054D1400FB6F894DEBF56
:101CF0000FBECDBF0E945D0E00918F031091900327
:101D000020919103309192036B017C01C01AD10A9A
:101D1000E20AF30A40EDC41647E0D406E104F104F8
:101D200018F480919703BCC060938F037093900365
:101D3000809391039093920310928A0310928903E7
:101D400010928803109287031092860361E08091BD
:101D50008B030E94410D6AEF70E080E090E00E94EA
:101D6000050E61E080918B030E948D0D60E08091F3
:101D70008B030E94410D64E170E080E090E00E94DE
:101D8000050EF89461E080918B030E94410D8BE970
:101D900090E00197F1F762E080918B030E948D0D36
:101DA00083E290E00197F1F780E00E94720B672BCD
:101DB000682B692B21F41092970378943EC081E040
:101DC0000E94720B672B682B692BA9F38E010F5FA2
:101DD0001F4F6E018FEBC81A8EEFD80A780180E092
:101DE0000E94720BF701608371838283938381E089
:101DF0000E94720BF7016483758386839783F8E0F2
:101E0000EF0EF11CEC14FD0451F7789420E030E063
:101E1000F8014081518162817381C480D580E68060
:101E2000F780411551056105710529F0C114D104F0
:101E3000E104F10421F41092970380E031C0F9012C
:101E400083E0F595E7958A95E1F7EA57FC4F8081A5
:101E5000880F4C155D056E057F0508F48160808351
:101E60002F5F3F4F085F1F4F2832310589F62091C1
:101E70008A0330E0409186038091870390E0840FCD
:101E8000911D40918803840F911D40918903840F17
:101E9000911D99272817390771F681E080939703E0
:101EA000C05CDE4F0FB6F894DEBF0FBECDBFDF9132
:101EB000CF911F910F91FF90EF90DF90CF900895F9
:101EC0001F920F920FB60F9211242F933F938F936F
:101ED0009F93AF93BF938091B7049091B804A09162
:101EE000B904B091BA043091B60423E0230F2D3722
:101EF00020F40196A11DB11D05C026E8230F02960E
:101F0000A11DB11D2093B6048093B7049093B8042B
:101F1000A093B904B093BA048091BB049091BC041F
:101F2000A091BD04B091BE040196A11DB11D809386
:101F3000BB049093BC04A093BD04B093BE04BF91B6
:101F4000AF919F918F913F912F910F900FBE0F9066
:101F50001F9018951F920F920FB60F9211242F9376
:101F60003F934F935F936F937F938F939F93AF9321
:101F7000BF93EF93FF93E0910B01F0910C01099552
:101F8000FF91EF91BF91AF919F918F917F916F9151
:101F90005F914F913F912F910F900FBE0F901F9027
:101FA00018951F920F920FB60F9211242F933F9303
:101FB0004F935F936F937F938F939F93AF93BF9351
:101FC000EF93FF93E0910901F0910A010995FF91C8
:101FD000EF91BF91AF919F918F917F916F915F91A1
:101FE0004F913F912F910F900FBE0F901F9018951A
:101FF0001F920F920FB60F9211242F933F934F937E
:102000005F936F937F938F939F93AF93BF93EF9360
:10201000FF9389EE92E00E94450CFF91EF91BF91F2
:10202000AF919F918F917F916F915F914F913F9170
:102030002F910F900FBE0F901F9018951F920F9227
:102040000FB60F9211242F938F939F93EF93FF93CB
:10205000E091F902F091FA028081E091FF02F091A3
:10206000000382FD12C09081809102038F5F8F7305
:1020700020910303821751F0E0910203F0E0E75151
:10208000FD4F958F8093020301C08081FF91EF91F6
:102090009F918F912F910F900FBE0F901F901895C9
:1020A000EF92FF920F931F93CF93DF931F92CDB7C1
:1020B000DEB77C01162F0FB7F89460E0DC015A966A
:1020C0008C9149830E94410DF701808D918DDC0137
:1020D000ED91FC91612F60680190F081E02D0995F0
:1020E000182FF701808D918DDC01ED91FC9101900D
:1020F000F081E02D4981642F099561E0F701828D1F
:102100000E94410D0FBF812F0F90DF91CF911F9142
:102110000F91FF90EF900895CF93DF93EC0144E08F
:102120006DE40E94501048E869E0CE01DF91CF9144
:102130000C9450100F931F93CF93DF93EC01162F45
:102140000FB7F89460E08A8D0E94410D888D998DBB
:10215000DC01ED91FC91612F6F770190F081E02D12
:102160000995888D998DDC01ED91FC910190F081AC
:10217000E02D60E00995182F61E08A8D0E94410DE5
:102180000FBF812FDF91CF911F910F910895E9EE3D
:10219000F2E01382128288EE93E0A0E0B0E0848344
:1021A0009583A683B78387E691E09183808385EC4E
:1021B00090E09587848784EC90E09787868780EC11
:1021C00090E0918B808B81EC90E0938B828B82EC02
:1021D00090E0958B848B86EC90E0978B868B118EAC
:1021E000128E138E148EAFEBB4E013961C921E92D7
:1021F000129715961C921E92149717961C921E9277
:10220000169789E791E011969C938E93E8E9F3E0A5
:10221000138212828FEF84838287838714861586C8
:10222000108A1786128A118A148A138A178A168AC4
:10223000B18FA08F9AE0928F2DE831E03183208317
:102240001092B50492E0938F848FA6E8B3E080E10A
:1022500015968C9315978BE016968C931697EAED4E
:10226000F0E0E4911796EC931797E6ECF0E0E49138
:102270001896EC93189740E85EE360E070E01D96D6
:102280004D935D936D937C9350970895789484B5A6
:10229000826084BD84B5816084BD85B5826085BD62
:1022A00085B5816085BD80916E00816080936E00F0
:1022B00010928100809181008260809381008091E2
:1022C0008100816080938100809180008160809393
:1022D00080008091B10084608093B1008091B00053
:1022E00081608093B00080917A00846080937A004E
:1022F00080917A00826080937A0080917A00816078
:1023000080937A0080917A00806880937A0010929E
:10231000C100E091F902F091FA0282E08083E0913D
:10232000F502F091F6021082E091F702F091F802C6
:102330008FEC808310920103E091FD02F091FE0288
:1023400086E08083E091FB02F091FC028081806155
:102350008083E091FB02F091FC02808188608083A1
:10236000E091FB02F091FC02808180688083E09123
:10237000FB02F091FC0280818F7D808387EB92E0ED
:102380000E94190D88E993E00E949D07811104C005
:1023900089EC92E00E94190D40E050E868ED73E48A
:1023A00088E993E00E94680788E993E00E948C1016
:1023B00061E087E00E948D0D0E94A9080E94CF0C69
:1023C000FBCF8F929F92AF92BF92CF92DF92EF920C
:1023D000FF92CF93DF93EC01688179818A819B81A1
:1023E000611571058105910521F464E279ED8BE5B4
:1023F00097E02DE133EF41E050E00E9446124901A1
:102400005A019B01AC01A7EAB1E40E9465126B017D
:102410007C01ACEEB4EFA50194010E947312DC01C3
:10242000CB018C0D9D1DAE1DBF1DB7FF03C00197D5
:10243000A109B04888839983AA83BB83BC01CD01DD
:102440009F77DF91CF91FF90EF90DF90CF90BF907B
:10245000AF909F908F9008950E94E11108958DE0B4
:1024600091E00E94E111089560930D0170930E01B7
:1024700080930F01909310010895FB01DC0102C0CD
:1024800005900D9241505040D8F70895052E97FBC6
:102490001EF400940E945D1257FD07D00E9478122E
:1024A00007FC03D04EF40C945D1250954095309586
:1024B00021953F4F4F4F5F4F0895909580957095B0
:1024C00061957F4F8F4F9F4F08950E949A12A59F4D
:1024D000900DB49F900DA49F800D911D112408951F
:1024E000B7FF0C9465120E946512821B930B08952E
:1024F000A1E21A2EAA1BBB1BFD010DC0AA1FBB1F08
:10250000EE1FFF1FA217B307E407F50720F0A21B79
:10251000B30BE40BF50B661F771F881F991F1A94E6
:1025200069F760957095809590959B01AC01BD0110
:10253000CF010895A29FB001B39FC001A39F700D6A
:10254000811D1124911DB29F700D811D1124911DBB
:1025500008955058BB27AA270E94C1120C94341426
:102560000E94261438F00E942D1420F039F49F3F69
:1025700019F426F40C9423140EF4E095E7FB0C9464
:102580001D14E92F0E94451458F3BA176207730708
:102590008407950720F079F4A6F50C9467140EF4DF
:1025A000E0950B2EBA2FA02D0B01B90190010C0163
:1025B000CA01A0011124FF27591B99F0593F50F47B
:1025C000503E68F11A16F040A22F232F342F4427D3
:1025D000585FF3CF469537952795A795F0405395CB
:1025E000C9F77EF41F16BA0B620B730B840BBAF09B
:1025F0009150A1F0FF0FBB1F661F771F881FC2F706
:102600000EC0BA0F621F731F841F48F48795779519
:102610006795B795F7959E3F08F0B0CF9395880FD3
:1026200008F09927EE0F9795879508950E94F91362
:1026300008F481E008950E942F130C9434140E9432
:102640002D1458F00E94261440F029F45F3F29F021
:102650000C941D1451110C9468140C9423140E94B2
:10266000451468F39923B1F3552391F3951B550B4A
:10267000BB27AA2762177307840738F09F5F5F4F55
:10268000220F331F441FAA1FA9F335D00E2E3AF094
:10269000E0E832D091505040E695001CCAF72BD0AC
:1026A000FE2F29D0660F771F881FBB1F26173707FD
:1026B0004807AB07B0E809F0BB0B802DBF01FF272F
:1026C00093585F4F3AF09E3F510578F00C941D14DB
:1026D0000C9468145F3FE4F3983ED4F386957795A5
:1026E0006795B795F7959F5FC9F7880F911D9695E8
:1026F000879597F90895E1E0660F771F881FBB1F44
:10270000621773078407BA0720F0621B730B840BF0
:10271000BA0BEE1F88F7E09508950E944D1488F0DB
:102720009F5798F0B92F9927B751B0F0E1F0660F95
:10273000771F881F991F1AF0BA95C9F714C0B130D6
:1027400091F00E946714B1E008950C946714672F0C
:10275000782F8827B85F39F0B93FCCF38695779505
:102760006795B395D9F73EF49095809570956195EE
:102770007F4F8F4F9F4F0895E89409C097FB3EF419
:1027800090958095709561957F4F8F4F9F4F9923BE
:10279000A9F0F92F96E9BB279395F695879577953C
:1027A0006795B795F111F8CFFAF4BB0F11F460FFFC
:1027B0001BC06F5F7F4F8F4F9F4F16C0882311F054
:1027C00096E911C0772321F09EE8872F762F05C068
:1027D000662371F096E8862F70E060E02AF09A9503
:1027E000660F771F881FDAF7880F9695879597F9F8
:1027F0000895990F0008550FAA0BE0E8FEEF161692
:102800001706E807F907C0F012161306E407F507E4
:1028100098F0621B730B840B950B39F40A2661F058
:10282000232B242B252B21F408950A2609F4A140FB
:10283000A6958FEF811D811D089597F99F6780E808
:1028400070E060E008959FEF80EC089500240A9402
:102850001616170618060906089500240A9412167B
:102860001306140605060895092E0394000C11F4AE
:10287000882352F0BB0F40F4BF2B11F460FF04C05B
:102880006F5F7F4F8F4F9F4F089557FD9058440FB4
:10289000551F59F05F3F71F04795880F97FB991FBF
:1028A00061F09F3F79F0879508951216130614067C
:1028B000551FF2CF4695F1DF08C016161706180609
:1028C000991FF1CF86957105610508940895E894E4
:1028D000BB2766277727CB0197F908950E94F91344
:1028E00008F48FEF08950E9486140C9434140E940B
:1028F000261438F00E942D1420F0952311F00C942A
:102900001D140C94231411240C9468140E94451473
:1029100070F3959FC1F3950F50E0551F629FF00132
:10292000729FBB27F00DB11D639FAA27F00DB11D4B
:10293000AA1F649F6627B00DA11D661F829F2227D4
:10294000B00DA11D621F739FB00DA11D621F839F5B
:10295000A00D611D221F749F3327A00D611D231F31
:10296000849F600D211D822F762F6A2F11249F577F
:1029700050409AF0F1F088234AF0EE0FFF1FBB1F82
:10298000661F771F881F91505040A9F79E3F510541
:1029900080F00C941D140C9468145F3FE4F3983E8F
:1029A000D4F3869577956795B795F795E7959F5FEB
:1029B000C1F7FE2B880F911D9695879597F908957D
:1029C0000E94F913880B990B089597FB072E16F4B4
:1029D000009407D077FD09D00E94FF1407FC05D0B2
:1029E0003EF4909581959F4F0895709561957F4F26
:1029F0000895EE0FFF1F0590F491E02D0994AA1B96
:102A0000BB1B51E107C0AA1FBB1FA617B70710F0D9
:102A1000A61BB70B881F991F5A95A9F7809590950B
:102A2000BC01CD01089581E090E0F8940C942A1542
:102A3000FB01DC0102C001900D9241505040D8F7DB
:102A40000895FB01DC018D91019080190110D9F3EB
:082A5000990B0895F894FFCFE3
:102A580061726475696E6F3200CE0BCE0B01000097
:102A680000000000004C040000803FCDCCCC3D6F3E
:102A780012833A95BFD6337D1D9026B3CE010CCD77
:102A8800CCCC3D0AD7233C17B7D13877CC2B32951D
:102A980095E6241FB14F0A000020410000C84200FB
:102AA800401C4620BCBE4CCA1B0E5AAEC59D7405C0
:102AB80000040400000000660CCF0BFE0BAD0C2FC9
:102AC8000C0D0C210C00000000A600A2009E006066
:102AD800049A00C80BC40BC00B000000009D073609
:102AE800065906AF05FB00EA00E200AF04E0041552
:102AF800056905DA00D700D400D100CA00DD00C797
:102B080000C400C100BE00860522225C5C62086623
:102B18000C6E0A720D7409006E756C6C0074727517
:102B2800650066616C7365004E614E00652D004955
:102B38006E66696E6974790049440074696D650050
:102B480054656D70657261747572650073656E7336
:102B58006F72006461746100536F756E64004C6934
:102B68006768740053656E64696E6720746F204CE3
:102B78006F526120536572766572203A2000726543
:102B8800636569766564203A0057616974696E67A0
:102B98002E2E2E0072656376206661696C6564006E
:102BA80054696D656F7574004F4B20726563656974
:102BB8007665642061636B2021204C65742773203F
:102BC8006361727279206F6E2E004E6F207265708D
:102BD8006C792C206973204C6F5261207365727672
:102BE80065722072756E6E696E673F004661696C2A
:102BF800656420746F20726561642066726F6D2051
:102C0800444854000D0A005374617274204C6F528A
:102C18006120436C69656E7400696E697420666131
:062C2800696C6564000008
:00000001FF
