:100000000C9470000C949A0C0C94730C0C94980043
:100010000C9498000C9498000C9498000C94980000
:100020000C9498000C9498000C9498000C949800F0
:100030000C9498000C9498000C9498000C949800E0
:100040000C94290C0C9498000C94E70C0C94C10CA3
:100050000C9498000C9498000C9498000C949800C0
:100060000C9498000C94980082037B0395038C03F6
:1000700088034F03730315030000000024002700CA
:100080002A0000000000250028002B0000000008C6
:10009000000201000003040700000000000000004F
:1000A00000000000230026002900040404040404C6
:1000B0000404020202020202030303030303010217
:1000C00004081020408001020408102001020408E6
:1000D000102072740092740048940078C400FB11E0
:1000E00011241FBECFEFD8E0DEBFCDBF12E0A0E0ED
:1000F000B1E0EAE5FCE202C005900D92A83DB1072F
:10010000D9F724E0A8EDB2E001C01D92A93CB207E6
:10011000E1F710E0C0E7D0E004C02197FE010E94A3
:10012000FA15CF36D107C9F70E947A120C942B1614
:100130000C940000FC0126813781620F731F8481BB
:1001400095818617970738F082819381778366833C
:10015000820F931F089580E090E00895FC01908144
:100160009F7D9B35A1F40180F281E02D3281932F98
:100170009F709F3039F09F5F292F2F70932F907FB2
:10018000922B92836DEB71E0CF010C94DE1180E035
:1001900090E00895CF93DF93FC01828187FD03C037
:1001A00020E030E032C040E050E020E030E070E29B
:1001B0009281892F8F7092959770899FC001112429
:1001C0004817590714F5A081B1811296CD91DC91A1
:1001D00013978D919C911197C817D90778F4CE0188
:1001E000019613969C938E931297788312960D9096
:1001F000BC91A02D1C9281E090E002C080E090E0D4
:10020000280F391F4F5F5F4FD3CFA081B181129666
:10021000CD91DC9113978D919C911197C817D907B7
:1002200078F4CE01019613969C938E93129768836F
:1002300012960D90BC91A02D1C9281E090E002C01E
:1002400080E090E051E06A3009F050E0428150FBDC
:1002500047F94283820F931FDF91CF910895EF9268
:10026000FF920F931F93CF93DF931F92CDB7DEB70B
:100270008C01262F6B35D1F08CF46C3209F441C01F
:100280006A33C9F1623209F052C081E0F801838318
:10029000C8010E94AE007C0162E243C06B3731F0BE
:1002A0006D3749F06D3509F042C005C0C80129839A
:1002B0000E94AE001CC0F80180818F7D8B3519F43F
:1002C000E12CF12C16C00180F281E02D4281942FA7
:1002D0009F7039F0915F392F3F70942F907F932B4F
:1002E00092836DEB71E0CF0129830E94DE117C01C6
:1002F0002981622F16C069EB71E0FC018181928136
:1003000007C06CEB71E0DC0111968D919C91129706
:100310000F90DF91CF911F910F91FF90EF900C9470
:10032000DE11D80111968D919C9112970AC0C801D7
:1003300029830E94AE007C012981622FF80181810E
:1003400092810E94CA008E0D9F1D0F90DF91CF9168
:100350001F910F91FF90EF900895EF92FF921F93DE
:10036000CF93DF937C01162FFC01C081D1818B815B
:10037000882359F0623219F488818C35B9F4612FE1
:1003800089819A810E94CA0003C0CE010E942F0178
:100390001883F70122813381280F391F3383228389
:1003A000DF91CF911F91FF90EF9008951B82E7CFCF
:1003B000AF92BF92CF92DF92EF92FF921F93CF93B3
:1003C000DF935C01FC01C081D1817B01C12CD12C68
:1003D000F70111917F011123B1F08B81882359F02E
:1003E000123219F488818C35F9F4612F89819A8150
:1003F0000E94CA0004C0612FCE010E942F01188301
:10040000C80ED91EE5CFF50182819381C80ED91E91
:10041000D382C282DF91CF911F91FF90EF90DF9046
:10042000CF90BF90AF9008951B82DFCF0F931F93A3
:10043000CF93DF93CDB7DEB766970FB6F894DEBFE4
:100440000FBECDBF8C01CB011E8AFE0176962AE03D
:1004500030E0B9010E94E61590E3980F9293CB012A
:100460000097B9F7BF01C8010E94D80166960FB680
:10047000F894DEBF0FBECDBFDF91CF911F910F91DA
:1004800008958F929F92AF92BF92EF92FF920F9337
:100490001F93CF93DF93CDB7DEB766970FB6F8946F
:1004A000DEBF0FBECDBF7C011E8A8E010A5E1F4FCC
:1004B0008AE0882E912CA12CB12CCB01BA01A50188
:1004C00094010E947913942F852F605DF801629347
:1004D0008F01A901692F782F41155105610571051B
:1004E00061F7BF01C7010E94D80166960FB6F89464
:1004F000DEBF0FBECDBFDF91CF911F910F91FF9057
:10050000EF90BF90AF909F908F900895FF920F93C0
:100510001F93CF93DF936115710549F46FEC71E080
:10052000DF91CF911F910F91FF900C94D8018B0117
:10053000EC0162E2CE010E94AD01F80161918F01F0
:10054000662351F0E0ECF1E0F080FF2099F3918117
:10055000961759F03296F8CF62E2CE01DF91CF9133
:100560001F910F91FF900C94AD016CE5CE010E949C
:10057000AD016F2DDFCF0F931F93CF93DF938C01CE
:10058000EB016BE7CE010E94AD01F80102811381FE
:1005900001151105A9F0F80162817381CE010E9455
:1005A00086026AE3CE010E94AD01BE01C801049635
:1005B0000E94ED02F801008111810115110541F43D
:1005C0006DE7CE01DF91CF911F910F910C94AD019A
:1005D0006CE2CE010E94AD01DBCF2F923F924F9291
:1005E0005F926F927F928F929F92AF92BF92CF92C3
:1005F000DF92EF92FF920F931F93CF93DF93CDB7CC
:10060000DEB762970FB6F894DEBF0FBECDBFDC0138
:10061000ED91FC913197E830F10508F0ECC18B01C8
:100620007C01EC5CFF4F0C94FA15FC01C280D38076
:10063000E480F580A7019601C701B6010E94171456
:10064000882319F06FED71E07EC020E030E0A90151
:10065000C701B6010E94171487FF08C06DE2C801E8
:100660000E94AD01F7FAF094F7F8F09420E030E042
:10067000A901C701B6010E941714882309F467C0B5
:10068000A7019601C701B6010E94AB13A70196010D
:100690000E94171481115BC066EE71E054C0FC012A
:1006A000E280F3806BE5C8010E94AD01D70112968C
:1006B000ED90FC901397E114F10459F0B801C701D3
:1006C00002960E94ED02F701E080F180E114F1044E
:1006D00029F46DE5C8010E94AD018DC16CE2C8012D
:1006E0000E94AD01E8CFDC0112968D919C91139789
:1006F0000E94BB0280C1FC0162817381C8010E941B
:10070000860279C1DC0112966D917C9113971BC012
:100710006DE2C8010E94AD01F701428153816481FD
:100720007581C8010E94410266C1FC0182819381EA
:10073000A481B581892B8A2B8B2B19F469ED71E08B
:1007400002C064ED71E0C8010E94D80154C120E8E4
:1007500036E948E15BE4C701B6010E946F1587FDE9
:1007600042C1A12CB12C70E2872E912C212C312C6E
:10077000F501E95BFE4F2489358946895789C70110
:10078000B6010E946F1587FD0FC0F501E15DFE4FB8
:100790002489358946895789C701B6010E94741595
:1007A0006B017C01280C391C95948794F4E0AF1AF6
:1007B000B10888EEA8168FEFB806D1F677247A94A0
:1007C00020E030E0A901C701B6010E946F1518169C
:1007D00094F52CEA35EC47E257E3C701B6010E94D5
:1007E0001714181644F1BFEF7B1629F1972DA4E0DA
:1007F0009A0250011124F501E95EFE4F20813181FA
:1008000042815381C701B6010E94171487FF0FC0B0
:10081000F501E95BFE4F2081318142815381C7019F
:10082000B6010E9474156B017C0128183908959453
:1008300087947A94D8CFC701B6010E948E144B01D9
:100840005C010E94BD149B01AC01C701B6010E946E
:10085000AA1320E034E244E759E40E9474152B0106
:100860003C010E948E146B017C010E94BD149B010F
:10087000AC01C301B2010E94AA139B01AC010E940A
:10088000AB130E948E14C60ED71EE81EF91EE0E4BC
:10089000CE16E2E4DE06EFE0EE06F104E0F0FFEF54
:1008A0008F1A9F0AAF0ABF0A2114310489F08AE027
:1008B00088169104A104B10458F09FEF291A390A4F
:1008C000C12CD12C7601812C912C5401839403C02E
:1008D000C12CD12C760124013501A6E0AA8BBA895E
:1008E000B98BB150BA8BEAE04E1651046104710421
:1008F000A8F0C701B6012AE030E040E050E00E94D5
:10090000791369017A01C301B2012AE030E040E0C5
:1009100050E00E94791329013A01E1CF3AE0432ED9
:10092000512C612C712CC701B601A30192010E94C8
:100930007913672B682B692BB1F089898A8BB501F4
:10094000A401C8010E94410299899923A1F1188A42
:100950005E01B0E1AB0EB11C45012AE0422E512CE4
:10096000612C712C0BC0A9891A1634F469017A0123
:10097000F989F150F98BD7CFAA8BE1CFFA89F150E1
:10098000FA8BFF3F69F0C701B601A30192010E94F3
:100990007913605DF50162935F0169017A01EECF21
:1009A000B4018989681B71098EE2DB018E93BD0158
:1009B000C8010E94D80137FE0AC063EE71E0C80189
:1009C0000E94D801662777276219730908C021148D
:1009D000310489F065E6C8010E94AD01B101C8018A
:1009E0000E94160208C080E2882E912C95E0792E94
:1009F000212C312CE5CE62960FB6F894DEBF0FBEE7
:100A0000CDBFDF91CF911F910F91FF90EF90DF90BD
:100A1000CF90BF90AF909F908F907F906F905F909E
:100A20004F903F902F900895CF93DF93EC018881F2
:100A30009981009789F0DC01ED91FC910190F081A2
:100A4000E02D6AE070E00995009741F0FC01118209
:100A500010821582148202C080E090E0EA81FB815E
:100A6000309751F0208131812115310511F0F901C4
:100A7000F9CF9183808302C09B838A83DF91CF91DA
:100A800008950F931F93CF93DF938B01FC01C281D5
:100A9000D381209759F06A817B81C8010E94221678
:100AA000892B21F00990D881C02DF3CFCE01DF91A1
:100AB000CF911F910F9108952F923F924F925F9285
:100AC0006F927F928F929F92AF92BF92CF92DF925E
:100AD000EF92FF920F931F93CF93DF93CDB7DEB7C3
:100AE000C25BD3400FB6F894DEBF0FBECDBF0E94ED
:100AF00065090E94320B8823A1F1809187038B3016
:100B000041F178F18551823060F56091810370E0A8
:100B100080E090E00E94BD1420E030E040E853E423
:100B20000E9474156B017C0180918203682F70E034
:100B300080E090E00E94BF149B01AC01C701B601A8
:100B40000E94AB132DEC3CEC4CEC5DE30E94741561
:100B50000CC06091810370E080E090E00E94BD14C1
:100B600004C060E070E080EC9FE7C555DC4F68830F
:100B700079838A839B83CB5AD3400E94320B88238C
:100B8000D1F1809187038B3029F0A8F18551823013
:100B900048F031C06091830370E080E090E00E94F3
:100BA000BD142DC010918303612F6F7770E080E03A
:100BB00090E00E94BF1420E030E040E853E40E943F
:100BC00074156B017C0180918403682F70E080E0D4
:100BD00090E00E94BF149B01AC01C701B6010E94C6
:100BE000AB132DEC3CEC4CEC5DE30E94741517FF4D
:100BF00006C0905804C060E070E080EC9FE7C955E3
:100C0000DC4F688379838A839B83C75AD3408EE005
:100C10000E94B00ABC01990F880B990B0E94BF1467
:100C20002B013C0183E10E94B00ABC01990F880BA3
:100C3000990B0E94BF142AE038E240EA5BE30E946D
:100C4000741520E030E04AE754E40E9474156B010B
:100C50007C019B01AC0160E070E48CE995E40E94AA
:100C6000AA139B01AC01C701B6010E941C1420E02D
:100C700030E44CE156E40E9474159B01AC0160E045
:100C800074E284E799E40E94AA132DEC3CEC49EF4E
:100C900054E40E941C14CD55DC4F688379838A8309
:100CA0009B83C35AD340C955DC4F688179818A81BF
:100CB0009B81C75AD3409B01AC010E94E115811171
:100CC00096C1C555DC4F688179818A819B81CB5A59
:100CD000D3409B01AC010E94E115811188C18BEFCB
:100CE000CE54DC4F8883C25BD3407E0189E3E81A8F
:100CF0008DEFF80AC7010896F7019383828388EC89
:100D000090E0958384831782168285E191E0918338
:100D1000808364E070E0C7010E949A00009739F078
:100D2000FC01F182E082138212828C0111C0809159
:100D3000DC0281110BC01092D9021092D8021092DD
:100D4000DB021092DA0281E08093DC0208ED12E00F
:100D50006FEE71E0C8010E944105009751F4C8018F
:100D60000E941405009771F02FEE31E0FC013383EF
:100D7000228322E030E0FC013583248320E031E04F
:100D8000378326830E94C70A6B017C0162EF71E002
:100D9000C8010E944105009751F4C8010E94140542
:100DA000009771F022EF31E0FC013383228324E0CD
:100DB00030E0FC0135832483C682D782E086F18649
:100DC00087EF91E08C0F9D1F0896C750DE4F9983E7
:100DD0008883C95FD14088EC90E0C550DE4F99838D
:100DE0008883CB5FD140C350DE4F19821882CD5F1C
:100DF000D14085E191E0C950DE4F99838883C75F78
:100E0000D140E12CF12C1E01F1E62F1AFCEF3F0A34
:100E10004E018CEF880E911C6E0191E5C91A9CEF72
:100E2000D90A5E01E5E6AE1AECEFBE0AF2E0EF1673
:100E3000F104D1F083E0E816F104A9F191E0E9169C
:100E4000F10449F067EF71E0C8010E94B909BE01E1
:100E500069557C4F30C063E072E0C8010E94B90957
:100E6000BE0165557C4F27C06CE072E0C8010E944E
:100E7000B90920E030E040EA50E4C301B2010E9429
:100E8000741520E030E240E854E40E941C14C95676
:100E9000DC4F688379838A839B83C759D340BE0123
:100EA00069567C4F08C062E172E0C8010E94B9092E
:100EB000BE016D557C4FC8010E948D0986EF91E0FF
:100EC0008C0F9D1FF1019183808393828282F401B4
:100ED0001082F6013182208282818078806280686F
:100EE0008283F501D282C18210821382C956DC4FFF
:100EF000B982A882C759D340C756DC4F19821882DD
:100F0000C959D340BE0169567C4FC8010E94BB023B
:100F100088E192E00E94EC094BEFB40183E993E091
:100F20000E94970F83E993E00E94610D68EB7BE0DC
:100F300083E993E00E94470E882369F1AE014E5485
:100F40005C4FBE016F5F7F4F83E993E00E94D00E3C
:100F50008823F1F08FE292E00E94EC09CE01019625
:100F60000E94EC0960E071E0CE0101960E94221619
:100F7000892B59F08AE392E00E94EC0964EF71E05A
:100F800080E090E00E94EC0AEDCF85E492E005C09D
:100F900087E692E002C083E792E00E94EC0968E8ED
:100FA00073E180E090E00E94EC0AFFEFEF1AFF0A85
:100FB00084E0E816F10409F039CFCE54DC4F0FB6C7
:100FC000F894DEBF0FBECDBFDF91CF911F910F917F
:100FD000FF90EF90DF90CF90BF90AF909F908F9059
:100FE0007F906F905F904F903F902F90089585E98C
:100FF00092E00E94EC0973CE8F929F92AF92BF92C3
:10100000CF92DF92EF92FF92CF93DF93A09188036C
:10101000882311F03A2F01C030E08091890390E0DD
:10102000880F991F80569F4FC0908E03D0908F03DA
:10103000E0909003F090910340E050E0BA01FC0191
:10104000C591D49128812A2323130FC04A015B0143
:101050002FEF821A920AA20AB20A4C155D056E059C
:101060007F0538F4B501A401EACF342F252FCB0139
:1010700004C030E020E080E090E0632F722FDF9129
:10108000CF91FF90EF90DF90CF90BF90AF909F9067
:101090008F900895FC01738362830895FC01778328
:1010A00066830895FC017583648308950895089507
:1010B0000895CF92DF92EF92FF920F931F93CF93F9
:1010C000DF936C017A018B01C0E0D0E0CE15DF0523
:1010D00089F0D8016D918D01D601ED91FC910190BF
:1010E000F081E02DC6010995892B11F47E0102C023
:1010F0002196ECCFC701DF91CF911F910F91FF9007
:10110000EF90DF90CF900895089580E090E00895EB
:10111000FC01538D448D252F30E0842F90E0821BFD
:10112000930B541710F0CF96089501970895FC0182
:10113000918D828D981761F0828DDF01A80FB11D0E
:101140005D968C91928D9F5F9F73928F90E0089532
:101150008FEF9FEF0895FC01918D828D981731F0EC
:10116000828DE80FF11D858D90E008958FEF9FEF40
:101170000895FC01918D228D892F90E0805C9F4F16
:10118000821B91098F739927089584EE92E00E9443
:10119000B90821E0892B09F420E0822F0895FC0191
:1011A000848DDF01A80FB11DA35ABF4F2C91848DF0
:1011B00090E001968F739927848FA689B7892C9325
:1011C000A089B1898C9180648C93938D848D9813C0
:1011D00006C00288F389E02D80818F7D8083089589
:1011E000EF92FF920F931F93CF93DF93EC0181E077
:1011F000888F9B8D8C8D981305C0E889F989808133
:1012000085FD24C0F62E0B8D10E00F5F1F4F0F736E
:101210001127E02E8C8DE8120CC00FB607FCFACF18
:10122000E889F989808185FFF5CFCE010E94CF083A
:10123000F1CF8B8DFE01E80FF11DE35AFF4FF082D5
:101240000B8FEA89FB898081806207C0EE89FF8964
:101250006083E889F98980818064808381E090E0FF
:10126000DF91CF911F910F91FF90EF900895CF9351
:10127000DF93EC01888D8823C9F0EA89FB8980819E
:1012800085FD05C0A889B9898C9186FD0FC00FB670
:1012900007FCF5CF808185FFF2CFA889B9898C91B1
:1012A00085FFEDCFCE010E94CF08E7CFDF91CF9130
:1012B000089580E090E0892B29F00E94C5088111F3
:1012C0000C94000008950E941416E4EEF2E0A08948
:1012D000B18982E08C93A485B5851C92A685B785DB
:1012E0008FEC8C93108EA489B58986E08C93A289AB
:1012F000B3898C9180618C93A289B3898C91886029
:101300008C93A289B3898C9180688C930288F3892D
:10131000E02D80818F7D808308950F931F93CF935D
:10132000DF93EC018B016DEA72E00E944105FC0144
:10133000892B51F4CE010E941405FC01892B99F0F0
:101340008DEA92E093838283E80188819981AA8162
:10135000BB8128E030E03583248386839783A08790
:10136000B18781E001C080E0DF91CF911F910F91A3
:1013700008950F931F93CF93DF93EC018B0162EBE2
:1013800072E00E944105FC01892B51F4CE010E94BC
:101390001405FC01892B61F082EB92E09383828338
:1013A00082E090E0958384831783068381E001C007
:1013B00080E0DF91CF911F910F910895CF93DF933C
:1013C000EC0144E06DE40E94150F48E869E0CE01AD
:1013D000DF91CF910C94150FCF93DF93009779F0A5
:1013E000FC0101900020E9F73197AF01481B590B30
:1013F000BC0184EE92E00E945908EC0102C0C0E0FA
:10140000D0E042E050E06DEB71E084EE92E00E94AB
:1014100059088C0F9D1FDF91CF9108958230B8F449
:10142000E82FF0E0EE0FFF1FE75FFE4F7183608350
:10143000813039F080916900836080936900E89A77
:101440000895809169008C6080936900E99A0895FD
:1014500090E0FC01E457FF4F3491FC01E254FF4F50
:101460002491FC01E655FF4FE491EE2309F43BC0C3
:10147000332339F1333091F038F43130A9F0323080
:1014800001F584B58F7D12C0373091F03830A1F06E
:101490003430B9F4809180008F7D03C0809180004A
:1014A0008F77809380000DC084B58F7784BD09C08D
:1014B0008091B0008F7703C08091B0008F7D8093C2
:1014C000B000F0E0EE0FFF1FEE57FF4FA591B49173
:1014D0008FB7F894EC91611103C020952E2301C0C1
:1014E0002E2B2C938FBF0895CF93DF9390E0FC01B8
:1014F000E254FF4F2491FC01E655FF4F849188236D
:1015000061F190E0880F991FFC01E858FF4FC591E9
:10151000D491FC01EE57FF4FA591B491611109C020
:101520009FB7F8948881209582238883EC912E239D
:101530000BC0623061F49FB7F8943881822F809598
:1015400083238883EC912E2B2C939FBF06C08FB7EB
:10155000F894E8812E2B28838FBFDF91CF910895D7
:101560008E3008F08E508770806480937C0080916C
:101570007A00806480937A0080917A0086FDFCCFA7
:10158000809178002091790090E0922B08953FB7E8
:10159000F8948091B6049091B704A091B804B091EA
:1015A000B90426B5A89B05C02F3F19F00196A11DCF
:1015B000B11D3FBFBA2FA92F982F8827820F911DE9
:1015C000A11DB11DBC01CD0142E0660F771F881F30
:1015D000991F4A95D1F708958F929F92AF92BF922B
:1015E000CF92DF92EF92FF926B017C010E94C70ABB
:1015F0004B015C01C114D104E104F104F1F00E943B
:10160000C70ADC01CB0188199909AA09BB09883EE0
:101610009340A105B10570F321E0C21AD108E10899
:10162000F10888EE880E83E0981EA11CB11CC1143D
:10163000D104E104F10419F7DDCFFF90EF90DF90C2
:10164000CF90BF90AF909F908F9008952FB7F89450
:101650006091B2047091B3048091B4049091B50488
:101660002FBF0895CF92DF92EF92FF920F931F93B7
:10167000CF93DF93CDB7DEB7C054D1400FB6F89407
:10168000DEBF0FBECDBF0E94260B00918A031091D2
:101690008B0320918C0330918D036B017C01C01A68
:1016A000D10AE20AF30A40EDC41647E0D406E10489
:1016B000F10418F480919203BCC060938A03709384
:1016C0008B0380938C0390938D031092850310926B
:1016D000840310928303109282031092810361E0CD
:1016E000809186030E94280A6AEF70E080E090E013
:1016F0000E94EC0A61E0809186030E94740A60E017
:10170000809186030E94280A64E170E080E090E006
:101710000E94EC0AF89461E0809186030E94280AF6
:101720008BE990E00197F1F762E0809186030E94D7
:10173000740A83E290E00197F1F780E00E94FC07D1
:10174000672B682B692B21F41092920378943EC08A
:1017500081E00E94FC07672B682B692BA9F38E019F
:101760000F5F1F4F6E018FEBC81A8EEFD80A7801FA
:1017700080E00E94FC07F70160837183828393837A
:1017800081E00E94FC07F701648375838683978359
:10179000F8E0EF0EF11CEC14FD0451F7789420E012
:1017A00030E0F8014081518162817381C480D5802D
:1017B000E680F780411551056105710529F0C114D6
:1017C000D104E104F10421F41092920380E031C0CD
:1017D000F90183E0F595E7958A95E1F7EF57FC4F1E
:1017E0008081880F4C155D056E057F0508F48160CA
:1017F00080832F5F3F4F085F1F4F2832310589F6E6
:101800002091850330E0409181038091820390E034
:10181000840F911D40918303840F911D4091840397
:10182000840F911D99272817390771F681E080935D
:101830009203C05CDE4F0FB6F894DEBF0FBECDBF83
:10184000DF91CF911F910F91FF90EF90DF90CF909C
:1018500008951F920F920FB60F9211242F933F936A
:101860008F939F93AF93BF938091B2049091B304F1
:10187000A091B404B091B5043091B10423E0230FDA
:101880002D3720F40196A11DB11D05C026E8230FB8
:101890000296A11DB11D2093B1048093B2049093D0
:1018A000B304A093B404B093B5048091B6049091AE
:1018B000B704A091B804B091B9040196A11DB11D5F
:1018C0008093B6049093B704A093B804B093B9047E
:1018D000BF91AF919F918F913F912F910F900FBE2C
:1018E0000F901F9018951F920F920FB60F92112410
:1018F0002F933F934F935F936F937F938F939F9318
:10190000AF93BF93EF93FF93E0910B01F0910C0124
:101910000995FF91EF91BF91AF919F918F917F9129
:101920006F915F914F913F912F910F900FBE0F904C
:101930001F9018951F920F920FB60F9211242F939C
:101940003F934F935F936F937F938F939F93AF9347
:10195000BF93EF93FF93E0910901F0910A0109957C
:10196000FF91EF91BF91AF919F918F917F916F9177
:101970005F914F913F912F910F900FBE0F901F904D
:1019800018951F920F920FB60F9211242F933F9329
:101990004F935F936F937F938F939F93AF93BF9377
:1019A000EF93FF9384EE92E00E94CF08FF91EF91B6
:1019B000BF91AF919F918F917F916F915F914F9167
:1019C0003F912F910F900FBE0F901F9018951F926F
:1019D0000F920FB60F9211242F938F939F93EF9333
:1019E000FF93E091F402F091F5028081E091FA0218
:1019F000F091FB0282FD12C090818091FD028F5F09
:101A00008F732091FE02821751F0E091FD02F0E009
:101A1000EC51FD4F958F8093FD0201C08081FF91B5
:101A2000EF919F918F912F910F900FBE0F901F906C
:101A300018958CB58F7B8CBD08958CB58F778CBD38
:101A400008958CB580688CBD08956EBD00000DB4FE
:101A500007FEFDCF8EB508959CB5282F23709C7F7F
:101A6000922B9CBD2DB582FB992790F9822F8E7FFA
:101A7000892B8DBD089580E00895FC01818508952E
:101A8000FC0180850895FC0187810895FC01868111
:101A90000895FC01409595854923642B6587089539
:101AA000FC0164870895FC0163870895FC01628747
:101AB0000895FC0164830895FC016583089580E026
:101AC0000895FC012281338123303105D1F381E077
:101AD0000895CF93DF93EC01E881F9810280F381CF
:101AE000E02DCE0109958823B9F3DF91CF910895B8
:101AF00081E008958BEF08950F931F93CF93DF93A9
:101B0000EC01162F0FB7F89460E08A8D0E94280A26
:101B1000888D998DDC01ED91FC91612F6F7701909B
:101B2000F081E02D0995888D998DDC01ED91FC9176
:101B30000190F081E02D60E00995182F61E08A8D19
:101B40000E94280A0FBF812FDF91CF911F910F9123
:101B50000895CF93DF93EC01888D998DDC01ED9191
:101B6000FC910680F781E02D099561E08A8D0E9445
:101B7000740A61E08A8D0E94280A64E670E080E0C1
:101B800090E00E94EC0A81E0DF91CF910895CF931D
:101B9000FC01268137812115310549F021303105BD
:101BA00041F02230310539F02330310531F020E0A9
:101BB00005C024E003C028E001C02CE09CB5937F61
:101BC000922B9CBD84819581019761F58CB58062D3
:101BD0008CBD8281938101978430910528F4FC01AA
:101BE000EB54FE4FC08101C0C1E08C2F0E942C0D30
:101BF00061E08AE00E94280A61E08AE00E94740A9B
:101C00008CB580618CBD8CB580648CBD61E08DE04D
:101C10000E94740A61E08BE00E94740A8C2FCF91BD
:101C20000C942C0D9CB59F7D9CBDD3CF8F929F9221
:101C3000AF92BF92CF92DF92EF92FF92CF93DF935A
:101C4000EC016B010E94260B4B015C01E12CF12C95
:101C50000E94260BDC01CB0188199909AA09BB094E
:101C60008C159D05AE05BF0530F48A819B810397D5
:101C700079F381E001C080E0DF91CF91FF90EF9098
:101C8000DF90CF90BF90AF909F908F9008958F92EC
:101C90009F92AF92BF92CF92DF92EF92FF92CF933B
:101CA000DF93EC016B010E94260B4B015C01E12CE0
:101CB000F12C0E94260BDC01CB0188199909AA0995
:101CC000BB098C159D05AE05BF0550F4E881F9816F
:101CD0000280F381E02DCE010995882351F301C0E4
:101CE00080E0DF91CF91FF90EF90DF90CF90BF9099
:101CF000AF909F908F9008958F929F92AF92BF92D6
:101D0000CF92DF92EF92FF92CF93DF93FC0126896F
:101D10003789232B11F481E038C0EC010E94260B97
:101D20006B017C0189E0882E912CA12CB12CE881DB
:101D3000F9810488F589E02DCE010995882359F3AE
:101D40000E94260BAB01BC014C195D096E097F098D
:101D50008E899F89A0E0B0E084179507A607B70792
:101D600098F00E943013A50194010E9447139B0133
:101D7000AC012F5F3F4F4F4F5F4FA4E6B0E00E9492
:101D800066130E94EC0AD3CF80E0DF91CF91FF90E1
:101D9000EF90DF90CF90BF90AF909F908F9008957D
:101DA000CF92DF92EF92FF920F931F93CF93DF9327
:101DB000EC017B018A01E881F9810280F381E02D49
:101DC0000995D82E882339F1E114F104E1F00115C9
:101DD0001105C9F0CFB6F8942D8D30E023503109AC
:101DE000F801808190E0821793071CF09D8D94503C
:101DF0009083F801408150E0BE016E5D7F4FC701C6
:101E00000E941916CFBE8FB7F894FE01E35EFE4F15
:101E100010821D8E8FBF8D2DDF91CF911F910F915D
:101E2000FF90EF90DF90CF900895EF92FF920F9385
:101E30001F93CF93DF931F92CDB7DEB77C01162F90
:101E40000FB7F89460E0DC015A968C9149830E94A8
:101E5000280AF701808D918DDC01ED91FC91612FB5
:101E600060680190F081E02D0995182FF701808DB1
:101E7000918DDC01ED91FC910190F081E02D498183
:101E8000642F099561E0F701828D0E94280A0FBF37
:101E9000812F0F90DF91CF911F910F91FF90EF90C5
:101EA0000895CF93DF93EC018A819B81059771F0B0
:101EB00047E061E0CE010E94150F40E860E4CE01EA
:101EC0000E94150F85E090E09B838A838A819B8125
:101ED0000597E1F38D89DF91CF910895CF93DF933B
:101EE000FC01228133812130310549F0EC0140E0D1
:101EF00061E00E94150F81E090E09B838A8381E07E
:101F0000DF91CF910895CF93DF93FC01228133813C
:101F10002230310549F0EC0141E061E00E94150FEB
:101F200082E090E09B838A83DF91CF910895BF92F6
:101F3000CF92DF92EF92FF920F931F93CF93DF9395
:101F40004C3F10F0E12C6FC0142F072FF62EEC0140
:101F5000E881F9810484F585E02D0995CE010E9480
:101F6000830FE881F9810288F389E02DCE0109957C
:101F7000E82E882339F340E06DE0CE010E94150F72
:101F80004A8560E0CE010E94150F4B8560E0CE01CE
:101F90000E94150F4C8560E0CE010E94150F4D8503
:101FA00060E0CE010E94150FBFB6F89460E08A8D04
:101FB0000E94280A888D998DDC01ED91FC91019099
:101FC000F081E02D60E80995CF2CD02E012F015033
:101FD00068F0888D998DF60161916F01DC01ED91BA
:101FE000FC910190F081E02D0995F1CF61E08A8D9F
:101FF0000E94280ABFBE44E0410F62E2CE010E9467
:10200000150F8A819B81039771F043E061E0CE0157
:102010000E94150F40E460E4CE010E94150F83E09A
:1020200090E09B838A838E2DDF91CF911F910F913A
:10203000FF90EF90DF90CF90BF900895CF93DF9304
:10204000FC012281338123303105B9F0EC0182811A
:102050009381049771F045E061E0CF010E94150F74
:1020600040E060E4CE010E94150F84E090E09B8385
:102070008A83C35EDE4F888101C080E0DF91CF910B
:102080000895DF92EF92FF920F931F93CF93DF9308
:10209000EC0162E10E947C0D2A813B8124303105F4
:1020A00021F4982F907A09F068C02A813B8124306E
:1020B000310509F073C086FF71C063E1CE010E9453
:1020C0007C0DF82E60E1CE010E947C0D482F6DE062
:1020D000CE010E94150FDFB6F89460E08A8D0E9451
:1020E000280A888D998DDC01ED91FC910190F08199
:1020F000E02D60E009958E01025E1F4FEF2CE00E8F
:10210000E01671F0888D998DDC01ED91FC910190C4
:10211000F081E02D60E00995F80181938F01F0CF07
:1021200061E08A8D0E94280ADFBEFD8E4FEF62E1DA
:10213000CE010E94150F6AE1CE010E947C0D8958E4
:102140008E878D8DFE01E35EFE4F843090F08E8D84
:102150008E838F8D8F8388A1888789A189878D81C0
:10216000811129C09E818C81981729F18E818F3F22
:1021700011F18081882331F02FC08F8598890196D5
:10218000988B8F874FEF62E1CE01DF91CF911F9146
:102190000F91FF90EF90DF900C94150F2A813B81F7
:1021A0002330310581F483FF0EC08B899C89019611
:1021B0009C8B8B8B11C089899A8901969A8B898B0C
:1021C00081E08083D6CF2A813B8125303105D1F64D
:1021D00082FFD8CF81708D8BCE010E94830FD2CF2A
:1021E0008091C7049091C804009711F00C9441109D
:1021F00008958091C5049091C604009711F00C9445
:10220000411008958091C3049091C404009711F087
:102210000C9441100895CF92DF92EF92FF92CF93EA
:10222000DF93EC01CB01BA0120E034E244E759E44A
:102230000E94741520E034E244E752E40E941C142A
:102240000E948E146B017C01A7016627772766E048
:10225000CE010E94150F77276F2D5E2D4D2D67E063
:10226000CE010E94150F4C2D68E0CE010E94150F83
:1022700081E0DF91CF91FF90EF90DF90CF900895B4
:10228000EF92FF920F931F93CF93DF9300D01F9293
:10229000CDB7DEB78C010E94A90DE82E811102C0D6
:1022A000E12C81C0F801838D823029F08330C1F7A1
:1022B000FF24F39401C0F12C40E861E0C8010E94C2
:1022C000150F6AE070E080E090E00E94EC0A61E0A7
:1022D000C8010E947C0D803819F760E0F801838DF9
:1022E0000E94740AF801848D8F3F49F48091C204E2
:1022F0008430B0F691E0980F9093C204848FF80177
:10230000948DE92FF0E0EE0FFF1FED53FB4F11838B
:102310000083911103C062E071E10AC0913019F4A9
:1023200069EF70E105C0923009F0BACF60EF70E15B
:102330008F2D0E940E0A40E06EE0C8010E94150F2A
:1023400040E06FE0C8010E94150FC8010E94830F92
:1023500043E050E062ED70E0CE0101960E943E1332
:1023600049816DE1C8010E94150F4A816EE1C801E3
:102370000E94150F4B8166E2C8010E94150F40E0D4
:1023800060E2C8010E94150F48E061E2C8010E94A6
:10239000150F40E050E069ED73E4C8010E940B1195
:1023A000C8010E94DE098E2D0F900F900F90DF91D3
:1023B000CF911F910F91FF90EF900895EF92FF92B0
:1023C0000F931F93CF93DF937C018B01C0E0D0E08C
:1023D000F80161918F01662331F0C7010E94CA00A4
:1023E000C80FD91FF5CFCE01DF91CF911F910F916B
:1023F000FF90EF900895E4EEF2E01382128288EEEF
:1024000093E0A0E0B0E084839583A683B78383E65E
:1024100091E09183808385EC90E09587848784ECBC
:1024200090E09787868780EC90E0918B808B81ECA1
:1024300090E0938B828B82EC90E0958B848B86EC82
:1024400090E0978B868B118E128E138E148EAAEBD2
:10245000B4E013961C921E92129715961C921E922F
:10246000149717961C921E92169785E791E0119685
:102470009C938E93E3E9F3E0138212828FEF8483BF
:102480008287838714861586108A1786128A118A96
:10249000148A138A178A168AB18FA08F9AE0928FB6
:1024A00029E831E0318320831092B00492E0938FC9
:1024B000848FA1E8B3E08FE015968C9315978BE09D
:1024C00016968C931697EDECF0E0E4911796EC934A
:1024D0001797E9EBF0E0E4911896EC93189740E831
:1024E0005EE360E070E01D964D935D936D937C9389
:1024F00050970895789484B5826084BD84B58160D6
:1025000084BD85B5826085BD85B5816085BD8091BE
:102510006E00816080936E00109281008091810036
:10252000826080938100809181008160809381002E
:10253000809180008160809380008091B1008460F0
:102540008093B1008091B00081608093B000809151
:102550007A00846080937A0080917A008260809310
:102560007A0080917A00816080937A0080917A006D
:10257000806880937A001092C1000E94650989EBFF
:1025800092E00E94EC0983E993E00E9440118111DE
:1025900004C08BEC92E00E94EC0940E050E868ED4A
:1025A00073E483E993E00E940B1183E993E00E94B6
:1025B000DE0961E087E00E94740A0E945C050E94C7
:1025C0005909FBCF8F929F92AF92BF92CF92DF9229
:1025D000EF92FF92CF93DF93EC01688179818A813A
:1025E0009B81611571058105910521F464E279ED06
:1025F0008BE597E02DE133EF41E050E00E94471377
:1026000049015A019B01AC01A7EAB1E40E9466139B
:102610006B017C01ACEEB4EFA50194010E94741330
:10262000DC01CB018C0D9D1DAE1DBF1DB7FF03C08E
:102630000197A109B04888839983AA83BB83BC0111
:10264000CD019F77DF91CF91FF90EF90DF90CF90FA
:10265000BF90AF909F908F9008950E94E2120895CE
:102660008DE091E00E94E212089560930D01709355
:102670000E0180930F01909310010895FB01DC017E
:1026800002C005900D9241505040D8F70895052E94
:1026900097FB1EF400940E945E1357FD07D00E9422
:1026A000791307FC03D04EF40C945E1350954095BB
:1026B000309521953F4F4F4F5F4F089590958095EE
:1026C000709561957F4F8F4F9F4F08950E949B1388
:1026D000A59F900DB49F900DA49F800D911D112476
:1026E0000895B7FF0C9466130E946613821B930B28
:1026F0000895A1E21A2EAA1BBB1BFD010DC0AA1F43
:10270000BB1FEE1FFF1FA217B307E407F50720F05A
:10271000A21BB30BE40BF50B661F771F881F991FD5
:102720001A9469F760957095809590959B01AC011E
:10273000BD01CF010895A29FB001B39FC001A39F27
:10274000700D811D1124911DB29F700D811D1124EA
:10275000911D08955058BB27AA270E94C2130C94BC
:1027600035150E94271538F00E942E1520F039F4F7
:102770009F3F19F426F40C9424150EF4E095E7FB22
:102780000C941E15E92F0E94461558F3BA176207DC
:1027900073078407950720F079F4A6F50C94681563
:1027A0000EF4E0950B2EBA2FA02D0B01B90190016C
:1027B0000C01CA01A0011124FF27591B99F0593FB0
:1027C00050F4503E68F11A16F040A22F232F342FF8
:1027D0004427585FF3CF469537952795A795F04046
:1027E0005395C9F77EF41F16BA0B620B730B840B5B
:1027F000BAF09150A1F0FF0FBB1F661F771F881F13
:10280000C2F70EC0BA0F621F731F841F48F487956A
:1028100077956795B795F7959E3F08F0B0CF93955C
:10282000880F08F09927EE0F9795879508950E94D5
:10283000FA1408F481E008950E9430140C943515C0
:102840000E942E1558F00E94271540F029F45F3F92
:1028500029F00C941E1551110C9469150C94241533
:102860000E94461568F39923B1F3552391F3951B04
:10287000550BBB27AA2762177307840738F09F5FA1
:102880005F4F220F331F441FAA1FA9F335D00E2E0E
:102890003AF0E0E832D091505040E695001CCAF77B
:1028A0002BD0FE2F29D0660F771F881FBB1F26173E
:1028B00037074807AB07B0E809F0BB0B802DBF0115
:1028C000FF2793585F4F3AF09E3F510578F00C94E4
:1028D0001E150C9469155F3FE4F3983ED4F386957A
:1028E00077956795B795F7959F5FC9F7880F911D05
:1028F0009695879597F90895E1E0660F771F881FF1
:10290000BB1F621773078407BA0720F0621B730BA3
:10291000840BBA0BEE1F88F7E09508950E944E15C0
:1029200088F09F5798F0B92F9927B751B0F0E1F090
:10293000660F771F881F991F1AF0BA95C9F714C040
:10294000B13091F00E946815B1E008950C946815BB
:10295000672F782F8827B85F39F0B93FCCF3869579
:1029600077956795B395D9F73EF4909580957095D6
:1029700061957F4F8F4F9F4F0895E89409C097FB53
:102980003EF490958095709561957F4F8F4F9F4F46
:102990009923A9F0F92F96E9BB279395F69587958A
:1029A00077956795B795F111F8CFFAF4BB0F11F44D
:1029B00060FF1BC06F5F7F4F8F4F9F4F16C08823F4
:1029C00011F096E911C0772321F09EE8872F762F2A
:1029D00005C0662371F096E8862F70E060E02AF06B
:1029E0009A95660F771F881FDAF7880F9695879557
:1029F00097F90895990F0008550FAA0BE0E8FEEF2C
:102A000016161706E807F907C0F012161306E407B2
:102A1000F50798F0621B730B840B950B39F40A26AB
:102A200061F0232B242B252B21F408950A2609F489
:102A3000A140A6958FEF811D811D089597F99F678D
:102A400080E870E060E008959FEF80EC0895002436
:102A50000A941616170618060906089500240A9403
:102A600012161306140605060895092E0394000C89
:102A700011F4882352F0BB0F40F4BF2B11F460FF18
:102A800004C06F5F7F4F8F4F9F4F089557FD905841
:102A9000440F551F59F05F3F71F04795880F97FB22
:102AA000991F61F09F3F79F08795089512161306DC
:102AB0001406551FF2CF4695F1DF08C0161617060B
:102AC0001806991FF1CF8695710561050894089540
:102AD000E894BB2766277727CB0197F908950E94D2
:102AE000FA1408F48FEF08950E9487150C94351599
:102AF0000E94271538F00E942E1520F0952311F022
:102B00000C941E150C94241511240C9469150E9424
:102B1000461570F3959FC1F3950F50E0551F629FC6
:102B2000F001729FBB27F00DB11D639FAA27F00D26
:102B3000B11DAA1F649F6627B00DA11D661F829F4D
:102B40002227B00DA11D621F739FB00DA11D621F32
:102B5000839FA00D611D221F749F3327A00D611D4F
:102B6000231F849F600D211D822F762F6A2F112431
:102B70009F5750409AF0F1F088234AF0EE0FFF1F64
:102B8000BB1F661F771F881F91505040A9F79E3FBB
:102B9000510580F00C941E150C9469155F3FE4F309
:102BA000983ED4F3869577956795B795F795E79511
:102BB0009F5FC1F7FE2B880F911D9695879597F91A
:102BC00008950E94FA14880B990B089597FB072E1D
:102BD00016F4009407D077FD09D00E94001607FC78
:102BE00005D03EF4909581959F4F0895709561951D
:102BF0007F4F0895EE0FFF1F0590F491E02D09948B
:102C0000AA1BBB1B51E107C0AA1FBB1FA617B70712
:102C100010F0A61BB70B881F991F5A95A9F780952E
:102C20009095BC01CD01089581E090E0F8940C945A
:102C30002B16FB01DC0102C001900D924150504067
:102C4000D8F70895FB01DC018D91019080190110E6
:0A2C5000D9F3990B0895F894FFCF13
:102C5A0061726475696E6F32005808580801000085
:102C6A0000000000009A000000803FCDCCCC3D6FF0
:102C7A0012833A95BFD6337D1D9026B3CE010CCD73
:102C8A00CCCC3D0AD7233C17B7D13877CC2B329519
:102C9A0095E6241FB14F0A000020410000C84200F7
:102CAA00401C4620BCBE4CCA1B0E5AAEC59D7400C1
:102CBA00000000F008590888083709B9089708ABD6
:102CCA000800000000250D210D1D0DC70D190D521C
:102CDA00084E084A080000000040111E10D00E9746
:102CEA000F7A0D690D610D160E470E7C0E510F59A4
:102CFA000D560D530D500D490D5C0D460D430D40FB
:102D0A000D3D0D6E0F050004043A20002C0D0A003B
:102D1A0022225C5C6208660C6E0A720D7409006EEF
:102D2A00756C6C00747275650066616C7365004E33
:102D3A00614E00652D00496E66696E6974790049B5
:102D4A00440074696D650054656D706572617475CF
:102D5A0072650048756D696469747900536F756EA0
:102D6A0064004C696768740053656E64696E672015
:102D7A00746F204C6F5261205365727665720072CF
:102D8A0065636569766564203A0057616974696E9E
:102D9A00672E2E2E004F4B20726563656976656437
:102DAA002061636B2021204C657427732063617254
:102DBA007279206F6E2E0072656376206661696C87
:102DCA006564004E6F207265706C792C20697320DF
:102DDA004C6F5261207365727665722072756E6EE1
:102DEA00696E673F004661696C656420746F207282
:102DFA006561642066726F6D204448540064617492
:102E0A00610073656E736F72005374617274204C43
:102E1A006F526120436C69656E7400696E69742033
:082E2A006661696C656400003B
:00000001FF
