:100000000C9470000C9452100C942B100C949800CB
:100010000C9498000C9498000C9498000C94980000
:100020000C9498000C9498000C9498000C949800F0
:100030000C9498000C9498000C9498000C949800E0
:100040000C94E10F0C9498000C949F100C94791070
:100050000C9498000C9498000C9498000C949800C0
:100060000C9498000C949800BA02B302CD02C4021A
:10007000C0028702AB024D02727400927400489471
:100080000078C40000000000240027002A000000BF
:100090000000250028002B000000000800020100DD
:1000A0000003040700000000000000000000000042
:1000B00023002600290004040404040404040202AA
:1000C00002020202030303030303010204081020D7
:1000D0004080010204081020010204081020481189
:1000E00011241FBECFEFD8E0DEBFCDBF12E0A0E0ED
:1000F000B1E0EAE5FBE202C005900D92AE3FB10728
:10010000D9F724E0AEEFB2E001C01D92AF3EB207D6
:10011000E1F710E0C0E7D0E004C02197FE010E94A3
:100120007A15CF36D107C9F70E94C7110C94AB15C9
:100130000C9400008CB58F7B8CBD08958CB58F77A7
:100140008CBD08958CB580688CBD08956EBD00008F
:100150000DB407FEFDCF8EB508959CB5282F2370F2
:100160009C7F922B9CBD2DB582FB992790F9822F05
:100170008E7F892B8DBD089580E00895FC018185D7
:100180000895FC0180850895FC0187810895FC0194
:1001900086810895FC01409595854923642B6587E8
:1001A0000895FC0164870895FC0163870895FC01AC
:1001B00062870895FC0164830895FC0165830895B6
:1001C00080E00895FC012281338123303105D1F391
:1001D00081E00895CF93DF93EC01E881F9810280FB
:1001E000F381E02DCE0109958823B9F3DF91CF91FA
:1001F000089581E008958BEF0895CF93DF93DC019C
:10020000ED91FC9142815381DB01C281D381208138
:100210003181C217D30778F0188222813381241BE1
:10022000350BFC0142815381240F351F3383228318
:10023000DF91CF9108952C91222371F39E012F5FBE
:100240003F4F338322832D912883DFCF0F931F935A
:10025000CF93DF93CDB7DEB766970FB6F894DEBFC6
:100260000FBECDBF8C01CB011E8AFE0176962AE01F
:1002700030E0B9010E94661590E3980F9293CB018C
:100280000097B9F7BF01C8010E94FD0066960FB63E
:10029000F894DEBF0FBECDBFDF91CF911F910F91BC
:1002A00008958F929F92AF92BF92EF92FF920F9319
:1002B0001F93CF93DF93CDB7DEB766970FB6F89451
:1002C000DEBF0FBECDBF7C011E8A8E010A5E1F4FAE
:1002D0008AE0882E912CA12CB12CCB01BA01A5016A
:1002E00094010E94F912942F852F605DF8016293AA
:1002F0008F01A901692F782F4115510561057105FD
:1003000061F7BF01C7010E94FD0066960FB6F89421
:10031000DEBF0FBECDBFDF91CF911F910F91FF9038
:10032000EF90BF90AF909F908F900895CF93DF9301
:10033000DC01ED91FC911197C281D3818081918183
:10034000C817D90760F4CE0101969383828368832E
:100350000280F381E02D108221E030E002C020E035
:1003600030E012968D919C911397280F391F1396A8
:100370003C932E931297DF91CF910895FF920F93A4
:100380001F93CF93DF936115710549F468EC71E019
:10039000DF91CF911F910F91FF900C94FD008B0185
:1003A000EC0162E2CE010E949601F80161918F0199
:1003B000662351F0E9EBF1E0F080FF2099F39181A1
:1003C000961759F03296F8CF62E2CE01DF91CF91C5
:1003D0001F910F91FF900C9496016CE5CE010E9445
:1003E00096016F2DDFCF0F931F93CF93DF938C0177
:1003F000EB016BE7CE010E949601F80102811381A7
:1004000001151105A9F0F80162817381CE010E94E6
:10041000BE016AE3CE010E949601BE01C8010496A6
:100420000E942502F801008111810115110541F496
:100430006DE7CE01DF91CF911F910F910C94960142
:100440006CE2CE010E949601DBCF2F923F924F9239
:100450005F926F927F928F929F92AF92BF92CF9254
:10046000DF92EF92FF920F931F93CF93DF93CDB75D
:10047000DEB762970FB6F894DEBF0FBECDBFDC01CA
:10048000ED91FC913197E830F10508F0ECC18B015A
:100490007C01EC5CFF4F0C947A15FC01C280D38088
:1004A000E480F580A7019601C701B6010E94971369
:1004B000882319F068ED71E07EC020E030E0A901EA
:1004C000C701B6010E94971387FF08C06DE2C801FB
:1004D0000E949601F7FAF094F7F8F09420E030E0EB
:1004E000A901C701B6010E949713882309F467C0C8
:1004F000A7019601C701B6010E942B13A70196011F
:100500000E94971381115BC06FED71E054C0FC0134
:10051000E280F3806BE5C8010E949601D701129634
:10052000ED90FC901397E114F10459F0B801C70164
:1005300002960E942502F701E080F180E114F104A7
:1005400029F46DE5C8010E9496018DC16CE2C801D5
:100550000E949601E8CFDC0112968D919C91139731
:100560000E94F30180C1FC0162817381C8010E9475
:10057000BE0179C1DC0112966D917C9113971BC06D
:100580006DE2C8010E949601F701428153816481A6
:100590007581C8010E94510166C1FC01828193816D
:1005A000A481B581892B8A2B8B2B19F462ED71E024
:1005B00002C06DEC71E0C8010E94FD0054C120E84A
:1005C00036E948E15BE4C701B6010E94EF1487FDFC
:1005D00042C1A12CB12C70E2872E912C212C312C00
:1005E000F501E95BFE4F2489358946895789C701A2
:1005F000B6010E94EF1487FD0FC0F501E15DFE4FCB
:100600002489358946895789C701B6010E94F414A7
:100610006B017C01280C391C95948794F4E0AF1A87
:10062000B10888EEA8168FEFB806D1F677247A9431
:1006300020E030E0A901C701B6010E94EF141816AE
:1006400094F52CEA35EC47E257E3C701B6010E9466
:100650009713181644F1BFEF7B1629F1972DA4E0EC
:100660009A0250011124F501E95EFE4F208131818B
:1006700042815381C701B6010E94971387FF0FC0C3
:10068000F501E95BFE4F2081318142815381C70131
:10069000B6010E94F4146B017C0128183908959466
:1006A00087947A94D8CFC701B6010E940E144B01EB
:1006B0005C010E943D149B01AC01C701B6010E9480
:1006C0002A1320E034E244E759E40E94F4142B0199
:1006D0003C010E940E146B017C010E943D149B01A1
:1006E000AC01C301B2010E942A139B01AC010E941C
:1006F0002B130E940E14C60ED71EE81EF91EE0E44E
:10070000CE16E2E4DE06EFE0EE06F104E0F0FFEFE5
:100710008F1A9F0AAF0ABF0A2114310489F08AE0B8
:1007200088169104A104B10458F09FEF291A390AE0
:10073000C12CD12C7601812C912C5401839403C0BF
:10074000C12CD12C760124013501A6E0AA8BBA89EF
:10075000B98BB150BA8BEAE04E16510461047104B2
:10076000A8F0C701B6012AE030E040E050E00E9466
:10077000F91269017A01C301B2012AE030E040E0D8
:1007800050E00E94F91229013A01E1CF3AE0432EEC
:10079000512C612C712CC701B601A30192010E945A
:1007A000F912672B682B692BB1F089898A8BB50107
:1007B000A401C8010E94510199899923A1F1188AC5
:1007C0005E01B0E1AB0EB11C45012AE0422E512C76
:1007D000612C712C0BC0A9891A1634F469017A01B5
:1007E000F989F150F98BD7CFAA8BE1CFFA89F15073
:1007F000FA8BFF3F69F0C701B601A30192010E9485
:10080000F912605DF50162935F0169017A01EECF33
:10081000B4018989681B71098EE2DB018E93BD01E9
:10082000C8010E94FD0037FE0AC06CED71E0C801EE
:100830000E94FD00662777276219730908C02114FA
:10084000310489F065E6C8010E949601B101C80132
:100850000E94260108C080E2882E912C95E0792E16
:10086000212C312CE5CE62960FB6F894DEBF0FBE78
:10087000CDBFDF91CF911F910F91FF90EF90DF904F
:10088000CF90BF90AF909F908F907F906F905F9030
:100890004F903F902F900895FC0126813781620F81
:1008A000731F848195818617970738F08281938121
:1008B00077836683820F931F089580E090E0089508
:1008C000CF93DF93EC01888D998DDC01ED91FC9144
:1008D0000680F781E02D099561E08A8D0E942C0E3B
:1008E00061E08A8D0E94E00D64E670E080E090E0B7
:1008F0000E94A40E81E0DF91CF910895CF93FC0177
:10090000268137812115310549F02130310541F02B
:100910002230310539F02330310531F020E005C0B7
:1009200024E003C028E001C02CE09CB5937F922B0B
:100930009CBD84819581019761F58CB580628CBDE9
:100940008281938101978430910528F4FC01E15A5A
:10095000FE4FC08101C0C1E08C2F0E94AD0061E05C
:100960008AE00E94E00D61E08AE00E942C0E8CB5C6
:1009700080618CBD8CB580648CBD61E08DE00E948F
:100980002C0E61E08BE00E942C0E8C2FCF910C94EA
:10099000AD009CB59F7D9CBDD3CF8F929F92AF92AF
:1009A000BF92CF92DF92EF92FF92CF93DF93EC0151
:1009B0006B010E94DE0E4B015C01E12CF12C0E94C8
:1009C000DE0EDC01CB0188199909AA09BB098C1537
:1009D0009D05AE05BF0530F48A819B81039779F3AD
:1009E00081E001C080E0DF91CF91FF90EF90DF9038
:1009F000CF90BF90AF909F908F9008958F929F92CD
:100A0000AF92BF92CF92DF92EF92FF92CF93DF939C
:100A1000EC016B010E94DE0E4B015C01E12CF12C1C
:100A20000E94DE0EDC01CB0188199909AA09BB09D5
:100A30008C159D05AE05BF0550F4E881F981028053
:100A4000F381E02DCE010995882351F301C080E0A8
:100A5000DF91CF91FF90EF90DF90CF90BF90AF905C
:100A60009F908F9008958F929F92AF92BF92CF9256
:100A7000DF92EF92FF92CF93DF93FC0126893789B3
:100A8000232B11F481E038C0EC010E94DE0E6B01D3
:100A90007C0189E0882E912CA12CB12CE881F98170
:100AA0000488F589E02DCE010995882359F30E9429
:100AB000DE0EAB01BC014C195D096E097F098E8900
:100AC0009F89A0E0B0E084179507A607B70798F0C4
:100AD0000E94B012A50194010E94C7129B01AC01B3
:100AE0002F5F3F4F4F4F5F4FA4E6B0E00E94E612EA
:100AF0000E94A40ED3CF80E0DF91CF91FF90EF90C2
:100B0000DF90CF90BF90AF909F908F900895CF933C
:100B1000DF93EC018A819B81059771F047E061E0EA
:100B2000CE010E94D11040E860E4CE010E94D110B5
:100B300085E090E09B838A838A819B810597E1F31E
:100B40008D89DF91CF910895CF93DF93FC012281AE
:100B500033812130310549F0EC0140E061E00E9431
:100B6000D11081E090E09B838A8381E0DF91CF9177
:100B70000895CF93DF93FC01228133812230310528
:100B800049F0EC0141E061E00E94D11082E090E088
:100B90009B838A83DF91CF910895BF92CF92DF929A
:100BA000EF92FF920F931F93CF93DF934C3F10F080
:100BB000E12C6FC0142F072FF62EEC01E881F9818C
:100BC0000484F585E02D0995CE010E94B905E881E0
:100BD000F9810288F389E02DCE010995E82E88235A
:100BE00039F340E06DE0CE010E94D1104A8560E00B
:100BF000CE010E94D1104B8560E0CE010E94D11041
:100C00004C8560E0CE010E94D1104D8560E0CE01A0
:100C10000E94D110BFB6F89460E08A8D0E94E00D6A
:100C2000888D998DDC01ED91FC910190F081E02D92
:100C300060E80995CF2CD02E012F015068F0888DE7
:100C4000998DF60161916F01DC01ED91FC910190AC
:100C5000F081E02D0995F1CF61E08A8D0E94E00DD1
:100C6000BFBE44E0410F62E2CE010E94D1108A81F2
:100C70009B81039771F043E061E0CE010E94D110A7
:100C800040E460E4CE010E94D11083E090E09B83B9
:100C90008A838E2DDF91CF911F910F91FF90EF905E
:100CA000DF90CF90BF900895CF93DF93FC01228116
:100CB000338123303105B9F0EC01828193810497AF
:100CC00071F045E061E0CF010E94D11040E060E4A6
:100CD000CE010E94D11084E090E09B838A83C35EA2
:100CE000DE4F888101C080E0DF91CF910895CF92DF
:100CF000DF92EF92FF920F931F93CF93DF93EC015C
:100D00007B018A01E881F9810280F381E02D099558
:100D1000D82E882339F1E114F104E1F00115110511
:100D2000C9F0CFB6F8942D8D30E023503109F80189
:100D3000808190E0821793071CF09D8D94509083E2
:100D4000F801408150E0BE016E5D7F4FC7010E94F7
:100D50009915CFBE8FB7F894FE01E35EFE4F108267
:100D60001D8E8FBF8D2DDF91CF911F910F91FF9021
:100D7000EF90DF90CF900895DF92EF92FF920F9364
:100D80001F93CF93DF93EC0162E10E941B112A8134
:100D90003B812430310521F4982F907A09F068C006
:100DA0002A813B812430310509F073C086FF71C070
:100DB00063E1CE010E941B11F82E60E1CE010E947A
:100DC0001B11482F6DE0CE010E94D110DFB6F894C0
:100DD00060E08A8D0E94E00D888D998DDC01ED9197
:100DE000FC910190F081E02D60E009958E01025E9A
:100DF0001F4FEF2CE00EE01671F0888D998DDC010D
:100E0000ED91FC910190F081E02D60E00995F801F1
:100E100081938F01F0CF61E08A8D0E94E00DDFBEEB
:100E2000FD8E4FEF62E1CE010E94D1106AE1CE014A
:100E30000E941B1189588E878D8DFE01E35EFE4F47
:100E4000843090F08E8D8E838F8D8F8388A18887DC
:100E500089A189878D81811129C09E818C819817F4
:100E600029F18E818F3F11F18081882331F02FC0CD
:100E70008F8598890196988B8F874FEF62E1CE011D
:100E8000DF91CF911F910F91FF90EF90DF900C9425
:100E9000D1102A813B812330310581F483FF0EC0BC
:100EA0008B899C8901969C8B8B8B11C089899A892F
:100EB00001969A8B898B81E08083D6CF2A813B81F2
:100EC00025303105D1F682FFD8CF81708D8BCE01D0
:100ED0000E94B905D2CF80910F0390911003009723
:100EE00011F00C94BC06089580910D0390910E03AF
:100EF000009711F00C94BC06089580910B0390911B
:100F00000C03009711F00C94BC060895CF92DF9269
:100F1000EF92FF92CF93DF93EC01CB01BA0120E077
:100F200034E244E759E40E94F41420E034E244E758
:100F300052E40E949C130E940E146B017C01A701D5
:100F40006627772766E0CE010E94D11077276F2DA4
:100F50005E2D4D2D67E0CE010E94D1104C2D68E032
:100F6000CE010E94D11081E0DF91CF91FF90EF90F0
:100F7000DF90CF900895EF92FF920F931F93CF933E
:100F8000DF9300D01F92CDB7DEB78C010E946004C2
:100F9000E82E811102C0E12C81C0F801838D8230DE
:100FA00029F08330C1F7FF24F39401C0F12C40E80D
:100FB00061E0C8010E94D1106AE070E080E090E03A
:100FC0000E94A40E61E0C8010E941B11803819F72D
:100FD00060E0F801838D0E942C0EF801848D8F3F14
:100FE00049F480910A038430B0F691E0980F909311
:100FF0000A03848FF801948DE92FF0E0EE0FFF1FB4
:10100000E55FFC4F11830083911103C06DE777E02A
:101010000AC0913019F464E777E005C0923009F016
:10102000BACF6BE677E08F2D0E94440D40E06EE072
:10103000C8010E94D11040E06FE0C8010E94D110A9
:10104000C8010E94B90543E050E068E770E0CE01B6
:1010500001960E94BE1249816DE1C8010E94D11023
:101060004A816EE1C8010E94D1104B8166E2C8013D
:101070000E94D11040E060E2C8010E94D11048E017
:1010800061E2C8010E94D11040E050E069ED73E4D4
:10109000C8010E948607C8010E940D118E2D0F9075
:1010A0000F900F90DF91CF911F910F91FF90EF90D4
:1010B0000895CF93DF93EC0188819981009789F09F
:1010C000DC01ED91FC910190F081E02D6AE070E08F
:1010D0000995009741F0FC0111821082158214825B
:1010E00002C080E090E0EA81FB81309751F02081DE
:1010F00031812115310511F0F901F9CF91838083F8
:1011000002C09B838A83DF91CF9108950F931F9331
:10111000CF93DF938B01FC01C281D381209759F0DB
:101120006A817B81C8010E94A215892B21F0099058
:10113000D881C02DF3CFCE01DF91CF911F910F91B8
:1011400008952F923F924F925F926F927F928F926B
:101150009F92AF92BF92CF92DF92EF92FF920F9346
:101160001F93CF93DF93CDB7DEB7CD5AD3400FB6E1
:10117000F894DEBF0FBECDBF8BEFC555DC4F888323
:10118000CB5AD34087EC92E08C0F9D1F0896C75333
:10119000DD4F99838883C95CD24088EC90E0C553C9
:1011A000DD4F99838883CB5CD240C353DD4F1982D6
:1011B0001882CD5CD24085E191E0C953DD4F99831F
:1011C0008883C75CD240E12CF12C6E0189E0C81AFB
:1011D0008EEFD80AF6013896C455DC4FF983E883C0
:1011E000CC5AD3404E01F5E68F1AFCEF9F0A87ECEC
:1011F00091E00E94360D88EE91E00E94240DC70117
:101200000E945E0D8DEE91E00E94240DC7010E94A8
:101210005E0D87EC91E00E94360D0E94EA0E882355
:1012200099F18091B4038B3039F170F1855182309E
:1012300058F56091AE0370E080E090E00E943D14AC
:1012400020E030E040E853E40E94F4142B013C011C
:101250006091AF0370E080E090E00E943F149B013A
:10126000AC01C301B2010E942B132DEC3CEC4CEC01
:101270005DE30E94F4140CC06091AE0370E080E066
:1012800090E00E943D1404C060E070E080EC9FE7B5
:10129000C955DC4F688379838A839B83C75AD340BF
:1012A0000E94EA0E8823C9F18091B4038B3029F0A3
:1012B000A0F18551823048F030C06091B00370E0F9
:1012C00080E090E00E943D142CC01091B003612F8B
:1012D0006F7770E080E090E00E943F1420E030E003
:1012E00040E853E40E94F4142B013C016091B103E7
:1012F00070E080E090E00E943F149B01AC01C301CC
:10130000B2010E942B132DEC3CEC4CEC5DE30E94EF
:10131000F41417FF06C0905804C060E070E080EC41
:101320009FE7CD55DC4F688379838A839B83C35ABB
:10133000D3408EE00E94680E3C0183E10E94680E5B
:10134000BC01990F880B990B0E943F142AE038E2E8
:1013500040EA5BE30E94F41420E030E04AE754E402
:101360000E94F4141B012C019B01AC0160E070E4AD
:101370008CE995E40E942A139B01AC01C201B101E2
:101380000E949C1320E030E44CE156E40E94F414E7
:101390009B01AC0160E074E284E799E40E942A13A7
:1013A0002DEC3CEC49EF54E40E949C13C156DC4FF9
:1013B000688379838A839B83CF59D340CD55DC4F93
:1013C000688179818A819B81C35AD3409B01AC019A
:1013D0000E946115811179C1C955DC4F68817981FD
:1013E0008A819B81C75AD3409B01AC010E94611541
:1013F00081116BC1C455DC4F88819981CC5AD3408F
:10140000F6019383828388EC90E09583848317822E
:10141000168285E191E09183808364E070E0C601EB
:101420000E944C04009739F0FC01D182C0821382E3
:1014300012828C0111C08091020381110BC01092A5
:10144000FF021092FE02109201031092000381E04D
:10145000809302030EEF12E06AEF71E0C8010E9470
:101460008608009751F4C8010E945908009771F04E
:101470002AEF31E0FC013383228322E030E0FC01DB
:101480003583248320E031E0378326830E947F0E5A
:101490001B012C016DEF71E0C8010E9486080097C6
:1014A00051F4C8010E945908009771F02DEF31E006
:1014B000FC013383228324E030E0FC013583248364
:1014C0002682378240865186CE0101965C0192E0E9
:1014D000E916F104D1F0E3E0EE16F10499F1F1E040
:1014E000EF16F10449F062E072E0C8010E94FF0CBF
:1014F000BE016D557C4F2EC06EE072E0C8010E94A7
:10150000FF0CBE0169557C4F25C067E172E0C80140
:101510000E94FF0CB301770C880B990B0E943F14BB
:1015200020E030E040EA50E40E94F41420E030E291
:1015300040E854E40E949C1369837A838B839C83E4
:10154000B50108C06DE172E0C8010E94FF0CBE0148
:1015500061567C4FC8010E94D30C8BEF90E08C0F3A
:101560009D1FF40191838083B382A2821982C956A0
:10157000DC4F99828882C759D340C756DC4F198205
:101580001882C959D340BE0169567C4FC8010E94D8
:10159000F30183E292E00E94360D89E292E00E941C
:1015A000240DC5010E94360D4BEFB50180EC93E090
:1015B0000E94CD05882321F083E492E00E94360D3D
:1015C0008091C2039091C3030397D1F368EB7BE052
:1015D00080EC93E00E94FE04882309F44AC0AE0127
:1015E00045555C4FBE0164507F4F80EC93E00E94F4
:1015F00077068823D9F18BE492E00E94360DCE0164
:1016000084509F4F0E94360D60E071E0CE018450FF
:101610009F4F0E94A215892B31F186E592E00E942E
:10162000360D68EB7BE080EC93E00E94FE0488239B
:1016300079F0AE0145555C4FBE0164507F4F80ECA0
:1016400093E00E947706811107C081E692E002C014
:101650008DE692E00E94360D64EF71E080E090E04C
:101660000E94A40ED1CF85E792E005C081E692E00A
:1016700002C087E992E00E94360D68E873E180E0DD
:1016800090E00E94A40E9FEFE91AF90AE4E0EE163A
:10169000F10409F0ACCDC355DC4F0FB6F894DEBFB2
:1016A0000FBECDBFDF91CF911F910F91FF90EF90B3
:1016B000DF90CF90BF90AF909F908F907F906F9072
:1016C0005F904F903F902F90089589EB92E00E9499
:1016D000360D90CE8F929F92AF92BF92CF92DF92B3
:1016E000EF92FF92CF93DF93A091B503882311F07F
:1016F0003A2F01C030E08091B60390E0880F991F27
:1017000084559F4FC090BB03D090BC03E090BD03B5
:10171000F090BE0340E050E0BA01FC01C591D491C5
:1017200028812A2323130FC04A015B012FEF821A5D
:10173000920AA20AB20A4C155D056E057F0538F4BF
:10174000B501A401EACF342F252FCB0104C030E02E
:1017500020E080E090E0632F722FDF91CF91FF9027
:10176000EF90DF90CF90BF90AF909F908F900895B3
:10177000FC01738362830895FC0177836683089577
:10178000FC01758364830895089508950895CF92A8
:10179000DF92EF92FF920F931F93CF93DF936C0131
:1017A0007A018B01C0E0D0E0CE15DF0589F0D801C9
:1017B0006D918D01D601ED91FC910190F081E02DAC
:1017C000C6010995892B11F47E0102C02196ECCF48
:1017D000C701DF91CF911F910F91FF90EF90DF90A4
:1017E000CF900895089580E090E00895FC01538D16
:1017F000448D252F30E0842F90E0821B930B5417EB
:1018000010F0CF96089501970895FC01918D828D77
:10181000981761F0828DDF01A80FB11D5D968C9144
:10182000928D9F5F9F73928F90E008958FEF9FEF4F
:101830000895FC01918D828D981731F0828DE80F0B
:10184000F11D858D90E008958FEF9FEF0895FC01C5
:10185000918D228D892F90E0805C9F4F821B910992
:101860008F739927089581E193E00E94270C21E06E
:10187000892B09F420E0822F0895FC01848DDF017B
:10188000A80FB11DA35ABF4F2C91848D90E00196F3
:101890008F739927848FA689B7892C93A089B189E2
:1018A0008C9180648C93938D848D981306C00288EC
:1018B000F389E02D80818F7D80830895EF92FF92E0
:1018C0000F931F93CF93DF93EC0181E0888F9B8D63
:1018D0008C8D981305C0E889F989808185FD24C025
:1018E000F62E0B8D10E00F5F1F4F0F731127E02EA8
:1018F0008C8DE8120CC00FB607FCFACFE889F98985
:10190000808185FFF5CFCE010E943D0CF1CF8B8DFC
:10191000FE01E80FF11DE35AFF4FF0820B8FEA89B9
:10192000FB898081806207C0EE89FF896083E88936
:10193000F98980818064808381E090E0DF91CF919C
:101940001F910F91FF90EF900895CF93DF93EC01DB
:10195000888D8823C9F0EA89FB89808185FD05C0CF
:10196000A889B9898C9186FD0FC00FB607FCF5CF09
:10197000808185FFF2CFA889B9898C9185FFEDCF51
:10198000CE010E943D0CE7CFDF91CF91089580E01A
:1019900090E0892B29F00E94330C81110C940000F7
:1019A00008950E9494150F931F93CF93DF93EC013A
:1019B0008B0161ED72E00E948608FC01892B51F4D5
:1019C000CE010E945908FC01892B99F081ED92E02B
:1019D00093838283E80188819981AA81BB8128E071
:1019E00030E03583248386839783A087B18781E0A5
:1019F00001C080E0DF91CF911F910F9108950F9367
:101A00001F93CF93DF93EC018B0166ED72E00E9490
:101A10008608FC01892B51F4CE010E945908FC0173
:101A2000892B61F086ED92E09383828382E090E0DF
:101A3000958384831783068381E001C080E0DF9172
:101A4000CF911F910F910895009769F0FC010190CB
:101A50000020E9F73197AF01481B590BBC0181E128
:101A600093E00C94C70B80E090E00895CF93DF9350
:101A70000E94240DEC018DED92E00E94240D8C0F4C
:101A80009D1FDF91CF9108958230B8F4E82FF0E0E8
:101A9000EE0FFF1FE75FFE4F71836083813039F0E7
:101AA00080916900836080936900E89A089580912D
:101AB00069008C6080936900E99A08958F929F92E3
:101AC000AF92BF92CF92DF92EF92FF920F931F934C
:101AD000CF93DF93CDB7DEB7A1970FB6F894DEBFF3
:101AE0000FBECDBF6C01990FEE08FF08F7FE31C0A5
:101AF000E0911103F09112030190F081E02D6DE26D
:101B000081E193E009958C0122273327A9012C1943
:101B10003D094E095F0919A2CE0181967C019AE028
:101B2000892E912CA12CB12CCA01B901A5019401D7
:101B30000E94F912605DF70162937F012115310562
:101B40004105510589F7CF010E94240D080F191F87
:101B50001EC0A701960119A28E010F5D1F4F8AE0DA
:101B6000C82ED12CE12CF12CCA01B901A701960194
:101B70000E94F912605DF80162938F012115310511
:101B80004105510589F7CF010E94240D8C018DED8F
:101B900092E00E94240D800F911FA1960FB6F89439
:101BA000DEBF0FBECDBFDF91CF911F910F91FF9090
:101BB000EF90DF90CF90BF90AF909F908F9008955F
:101BC00090E0FC01E856FF4F3491FC01E653FF4FD3
:101BD0002491FC01EA54FF4FE491EE2309F43BC049
:101BE000332339F1333091F038F43130A9F0323009
:101BF00001F584B58F7D12C0373091F03830A1F0F7
:101C00003430B9F4809180008F7D03C080918000D2
:101C10008F77809380000DC084B58F7784BD09C015
:101C20008091B0008F7703C08091B0008F7D80934A
:101C3000B000F0E0EE0FFF1FE257FF4FA591B49107
:101C40008FB7F894EC91611103C020952E2301C049
:101C50002E2B2C938FBF0895CF93DF9390E0FC0140
:101C6000E653FF4F2491FC01EA54FF4F84918823EF
:101C700061F190E0880F991FFC01EC57FF4FC5916F
:101C8000D491FC01E257FF4FA591B491611109C0B5
:101C90009FB7F8948881209582238883EC912E2326
:101CA0000BC0623061F49FB7F8943881822F809521
:101CB00083238883EC912E2B2C939FBF06C08FB774
:101CC000F894E8812E2B28838FBFDF91CF91089560
:101CD0008E3008F08E508770806480937C008091F5
:101CE0007A00806480937A0080917A0086FDFCCF30
:101CF000809178002091790090E0922B08953FB771
:101D0000F8948091E3049091E404A091E504B091EB
:101D1000E60426B5A89B05C02F3F19F00196A11D2A
:101D2000B11D3FBFBA2FA92F982F8827820F911D71
:101D3000A11DB11DBC01CD0142E0660F771F881FB8
:101D4000991F4A95D1F708958F929F92AF92BF92B3
:101D5000CF92DF92EF92FF926B017C010E947F0E87
:101D60004B015C01C114D104E104F104F1F00E94C3
:101D70007F0EDC01CB0188199909AA09BB09883EAD
:101D80009340A105B10570F321E0C21AD108E10822
:101D9000F10888EE880E83E0981EA11CB11CC114C6
:101DA000D104E104F10419F7DDCFFF90EF90DF904B
:101DB000CF90BF90AF909F908F9008952FB7F894D9
:101DC0006091DF047091E0048091E1049091E2045D
:101DD0002FBF0895CF92DF92EF92FF920F931F9340
:101DE000CF93DF93CDB7DEB7C054D1400FB6F89490
:101DF000DEBF0FBECDBF0E94DE0E0091B703109173
:101E0000B8032091B9033091BA036B017C01C01A69
:101E1000D10AE20AF30A40EDC41647E0D406E10411
:101E2000F10418F48091BF03BCC06093B7037093B2
:101E3000B8038093B9039093BA031092B20310923F
:101E4000B1031092B0031092AF031092AE0361E0A1
:101E50008091B3030E94E00D6AEF70E080E090E0B3
:101E60000E94A40E61E08091B3030E942C0E60E0FA
:101E70008091B3030E94E00D64E170E080E090E0A7
:101E80000E94A40EF89461E08091B3030E94E00DDB
:101E90008BE990E00197F1F762E08091B3030E9433
:101EA0002C0E83E290E00197F1F780E00E946A0B2C
:101EB000672B682B692B21F41092BF0378943EC0E6
:101EC00081E00E946A0B672B682B692BA9F38E01B6
:101ED0000F5F1F4F6E018FEBC81A8EEFD80A780183
:101EE00080E00E946A0BF701608371838283938391
:101EF00081E00E946A0BF701648375838683978370
:101F0000F8E0EF0EF11CEC14FD0451F7789420E09A
:101F100030E0F8014081518162817381C480D580B5
:101F2000E680F780411551056105710529F0C1145E
:101F3000D104E104F10421F41092BF0380E031C028
:101F4000F90183E0F595E7958A95E1F7E255FC4FB5
:101F50008081880F4C155D056E057F0508F4816052
:101F600080832F5F3F4F085F1F4F2832310589F66E
:101F70002091B20330E04091AE038091AF0390E036
:101F8000840F911D4091B003840F911D4091B103C6
:101F9000840F911D99272817390771F681E08093E6
:101FA000BF03C05CDE4F0FB6F894DEBF0FBECDBFDF
:101FB000DF91CF911F910F91FF90EF90DF90CF9025
:101FC00008951F920F920FB60F9211242F933F93F3
:101FD0008F939F93AF93BF938091DF049091E00420
:101FE000A091E104B091E2043091DE0423E0230FDC
:101FF0002D3720F40196A11DB11D05C026E8230F41
:102000000296A11DB11D2093DE048093DF049093FE
:10201000E004A093E104B093E2048091E304909182
:10202000E404A091E504B091E6040196A11DB11D60
:102030008093E3049093E404A093E504B093E60452
:10204000BF91AF919F918F913F912F910F900FBEB4
:102050000F901F9018951F920F920FB60F92112498
:102060002F933F934F935F936F937F938F939F93A0
:10207000AF93BF93EF93FF93E0910B01F0910C01AD
:102080000995FF91EF91BF91AF919F918F917F91B2
:102090006F915F914F913F912F910F900FBE0F90D5
:1020A0001F9018951F920F920FB60F9211242F9325
:1020B0003F934F935F936F937F938F939F93AF93D0
:1020C000BF93EF93FF93E0910901F0910A01099505
:1020D000FF91EF91BF91AF919F918F917F916F9100
:1020E0005F914F913F912F910F900FBE0F901F90D6
:1020F00018951F920F920FB60F9211242F933F93B2
:102100004F935F936F937F938F939F93AF93BF93FF
:10211000EF93FF9381E193E00E943D0CFF91EF91DB
:10212000BF91AF919F918F917F916F915F914F91EF
:102130003F912F910F900FBE0F901F9018951F92F7
:102140000F920FB60F9211242F938F939F93EF93BB
:10215000FF93E0912103F09122038081E091270316
:10216000F091280382FD12C0908180912A038F5F35
:102170008F7320912B03821751F0E0912A03F0E036
:10218000EF5EFC4F958F80932A0301C08081FF9101
:10219000EF919F918F912F910F900FBE0F901F90F5
:1021A0001895EF92FF920F931F93CF93DF931F9297
:1021B000CDB7DEB77C01162F0FB7F89460E0DC01D5
:1021C0005A968C9149830E94E00DF701808D918D84
:1021D000DC01ED91FC91612F60680190F081E02DB0
:1021E0000995182FF701808D918DDC01ED91FC91FF
:1021F0000190F081E02D4981642F099561E0F7019C
:10220000828D0E94E00D0FBF812F0F90DF91CF9143
:102210001F910F91FF90EF900895CF93DF93EC0102
:1022200044E06DE40E94D11048E869E0CE01DF91FE
:10223000CF910C94D1100F931F93CF93DF93EC01A8
:10224000162F0FB7F89460E08A8D0E94E00D888DFC
:10225000998DDC01ED91FC91612F6F770190F081F8
:10226000E02D0995888D998DDC01ED91FC9101900F
:10227000F081E02D60E00995182F61E08A8D0E94C1
:10228000E00D0FBF812FDF91CF911F910F91089526
:10229000E1E1F3E01382128288EE93E0A0E0B0E087
:1022A00084839583A683B78387E691E091838083B7
:1022B00085EC90E09587848784EC90E0978786870B
:1022C00080EC90E0918B808B81EC90E0938B828B03
:1022D00082EC90E0958B848B86EC90E0978B868BDC
:1022E000118E128E138E148EA7EEB4E013961C92EC
:1022F0001E92129715961C921E92149717961C9276
:102300001E92169789E791E011969C938E93E0ECCC
:10231000F3E0138212828FEF84838287838714868F
:102320001586108A1786128A118A148A138A178AC8
:10233000168AB18FA08F9AE0928F2DE831E0318319
:1023400020831092DD0492E0938F848FAEEAB3E095
:102350008FE015968C9315978BE016968C931697B5
:10236000E9EDF0E0E4911796EC931797E5ECF0E0D7
:10237000E4911896EC93189740E85EE360E070E013
:102380001D964D935D936D937C935097089578942B
:1023900084B5826084BD84B5816084BD85B582606A
:1023A00085BD85B5816085BD80916E00816080931B
:1023B0006E00109281008091810082608093810084
:1023C0008091810081608093810080918000816094
:1023D000809380008091B10084608093B1008091EF
:1023E000B00081608093B00080917A008460809317
:1023F0007A0080917A00826080937A0080917A00DE
:10240000816080937A0080917A00806880937A005E
:102410001092C100E0912103F091220382E08083B9
:10242000E0911D03F0911E031082E0911F03F091D3
:1024300020038FEC808310922903E0912503F09113
:10244000260386E08083E0912303F09124038081BA
:1024500080618083E0912303F09124038081886070
:102460008083E0912303F09124038081806880833E
:10247000E0912303F091240380818F7D808380EE9F
:1024800092E00E94360D80EC93E00E94BB07811120
:1024900004C082EF92E00E94360D40E050E868ED03
:1024A00073E480EC93E00E94860780EC93E00E9446
:1024B0000D1161E087E00E942C0E0E94A1080E948D
:1024C000C70CFBCF8F929F92AF92BF92CF92DF92B9
:1024D000EF92FF92CF93DF93EC01688179818A813B
:1024E0009B81611571058105910521F464E279ED07
:1024F0008BE597E02DE133EF41E050E00E94C712F9
:1025000049015A019B01AC01A7EAB1E40E94E6121D
:102510006B017C01ACEEB4EFA50194010E94F412B2
:10252000DC01CB018C0D9D1DAE1DBF1DB7FF03C08F
:102530000197A109B04888839983AA83BB83BC0112
:10254000CD019F77DF91CF91FF90EF90DF90CF90FB
:10255000BF90AF909F908F9008950E94621208954F
:102560008DE091E00E946212089560930D017093D6
:102570000E0180930F01909310010895FB01DC017F
:1025800002C005900D9241505040D8F70895052E95
:1025900097FB1EF400940E94DE1257FD07D00E94A4
:1025A000F91207FC03D04EF40C94DE1250954095BE
:1025B000309521953F4F4F4F5F4F089590958095EF
:1025C000709561957F4F8F4F9F4F08950E941B1309
:1025D000A59F900DB49F900DA49F800D911D112477
:1025E0000895B7FF0C94E6120E94E612821B930B2B
:1025F0000895A1E21A2EAA1BBB1BFD010DC0AA1F44
:10260000BB1FEE1FFF1FA217B307E407F50720F05B
:10261000A21BB30BE40BF50B661F771F881F991FD6
:102620001A9469F760957095809590959B01AC011F
:10263000BD01CF010895A29FB001B39FC001A39F28
:10264000700D811D1124911DB29F700D811D1124EB
:10265000911D08955058BB27AA270E9442130C943D
:10266000B5140E94A71438F00E94AE1420F039F47B
:102670009F3F19F426F40C94A4140EF4E095E7FBA4
:102680000C949E14E92F0E94C61458F3BA176207DF
:1026900073078407950720F079F4A6F50C94E814E5
:1026A0000EF4E0950B2EBA2FA02D0B01B90190016D
:1026B0000C01CA01A0011124FF27591B99F0593FB1
:1026C00050F4503E68F11A16F040A22F232F342FF9
:1026D0004427585FF3CF469537952795A795F04047
:1026E0005395C9F77EF41F16BA0B620B730B840B5C
:1026F000BAF09150A1F0FF0FBB1F661F771F881F14
:10270000C2F70EC0BA0F621F731F841F48F487956B
:1027100077956795B795F7959E3F08F0B0CF93955D
:10272000880F08F09927EE0F9795879508950E94D6
:102730007A1408F481E008950E94B0130C94B51443
:102740000E94AE1458F00E94A71440F029F45F3F95
:1027500029F00C949E1451110C94E9140C94A414B7
:102760000E94C61468F39923B1F3552391F3951B86
:10277000550BBB27AA2762177307840738F09F5FA2
:102780005F4F220F331F441FAA1FA9F335D00E2E0F
:102790003AF0E0E832D091505040E695001CCAF77C
:1027A0002BD0FE2F29D0660F771F881FBB1F26173F
:1027B00037074807AB07B0E809F0BB0B802DBF0116
:1027C000FF2793585F4F3AF09E3F510578F00C94E5
:1027D0009E140C94E9145F3FE4F3983ED4F386957D
:1027E00077956795B795F7959F5FC9F7880F911D06
:1027F0009695879597F90895E1E0660F771F881FF2
:10280000BB1F621773078407BA0720F0621B730BA4
:10281000840BBA0BEE1F88F7E09508950E94CE1442
:1028200088F09F5798F0B92F9927B751B0F0E1F091
:10283000660F771F881F991F1AF0BA95C9F714C041
:10284000B13091F00E94E814B1E008950C94E814BE
:10285000672F782F8827B85F39F0B93FCCF386957A
:1028600077956795B395D9F73EF4909580957095D7
:1028700061957F4F8F4F9F4F0895E89409C097FB54
:102880003EF490958095709561957F4F8F4F9F4F47
:102890009923A9F0F92F96E9BB279395F69587958B
:1028A00077956795B795F111F8CFFAF4BB0F11F44E
:1028B00060FF1BC06F5F7F4F8F4F9F4F16C08823F5
:1028C00011F096E911C0772321F09EE8872F762F2B
:1028D00005C0662371F096E8862F70E060E02AF06C
:1028E0009A95660F771F881FDAF7880F9695879558
:1028F00097F90895990F0008550FAA0BE0E8FEEF2D
:1029000016161706E807F907C0F012161306E407B3
:10291000F50798F0621B730B840B950B39F40A26AC
:1029200061F0232B242B252B21F408950A2609F48A
:10293000A140A6958FEF811D811D089597F99F678E
:1029400080E870E060E008959FEF80EC0895002437
:102950000A941616170618060906089500240A9404
:1029600012161306140605060895092E0394000C8A
:1029700011F4882352F0BB0F40F4BF2B11F460FF19
:1029800004C06F5F7F4F8F4F9F4F089557FD905842
:10299000440F551F59F05F3F71F04795880F97FB23
:1029A000991F61F09F3F79F08795089512161306DD
:1029B0001406551FF2CF4695F1DF08C0161617060C
:1029C0001806991FF1CF8695710561050894089541
:1029D000E894BB2766277727CB0197F908950E94D3
:1029E0007A1408F48FEF08950E9407150C94B5141B
:1029F0000E94A71438F00E94AE1420F0952311F025
:102A00000C949E140C94A41411240C94E9140E94A8
:102A1000C61470F3959FC1F3950F50E0551F629F48
:102A2000F001729FBB27F00DB11D639FAA27F00D27
:102A3000B11DAA1F649F6627B00DA11D661F829F4E
:102A40002227B00DA11D621F739FB00DA11D621F33
:102A5000839FA00D611D221F749F3327A00D611D50
:102A6000231F849F600D211D822F762F6A2F112432
:102A70009F5750409AF0F1F088234AF0EE0FFF1F65
:102A8000BB1F661F771F881F91505040A9F79E3FBC
:102A9000510580F00C949E140C94E9145F3FE4F30C
:102AA000983ED4F3869577956795B795F795E79512
:102AB0009F5FC1F7FE2B880F911D9695879597F91B
:102AC00008950E947A14880B990B089597FB072E9E
:102AD00016F4009407D077FD09D00E94801507FCFA
:102AE00005D03EF4909581959F4F0895709561951E
:102AF0007F4F0895EE0FFF1F0590F491E02D09948C
:102B0000AA1BBB1B51E107C0AA1FBB1FA617B70713
:102B100010F0A61BB70B881F991F5A95A9F780952F
:102B20009095BC01CD01089581E090E0F8940C945B
:102B3000AB15FB01DC0102C001900D9241505040E9
:102B4000D8F70895FB01DC018D91019080190110E7
:0A2B5000D9F3990B0895F894FFCF14
:102B5A0061726475696E6F3200C60BC60B010000A4
:102B6A0000000000004C040000803FCDCCCC3D6F3B
:102B7A0012833A95BFD6337D1D9026B3CE010CCD74
:102B8A00CCCC3D0AD7233C17B7D13877CC2B32951A
:102B9A0095E6241FB14F0A000020410000C84200F8
:102BAA00401C4620BCBE4CCA1B0E5AAEC59D7405BD
:102BBA00000404000000005E0CC70BF60BA50C27EE
:102BCA000C050C190C00000000A600A2009E007E55
:102BDA00049A00C00BBC0BB80B00000000BB0754E2
:102BEA00067706CD05FB00EA00E200CD04FE0433B9
:102BFA00058705DA00D700D400D100CA00DD00C776
:102C0A0000C400C100BE00A40522225C5C62086602
:102C1A000C6E0A720D7409006E756C6C0074727514
:102C2A00650066616C7365004E614E00652D004952
:102C3A006E66696E6974790069203D2000692069B1
:102C4A006E2073656E64203D200049440074696DEE
:102C5A00650054656D7065726174757265004875BA
:102C6A006D696469747900536F756E64004C6967A5
:102C7A00687400706F7565740053656E64696E6779
:102C8A0020746F204C6F52612053657276657220F2
:102C9A003A200073656E64204F4B00726563656964
:102CAA00766564203A0057616974696E672E2E2E24
:102CBA000072656376206661696C65640054696DAB
:102CCA00656F7574004F4B2072656365697665643C
:102CDA002061636B2021204C657427732063617225
:102CEA007279206F6E2E004E6F207265706C792C8F
:102CFA00206973204C6F5261207365727665722069
:102D0A0072756E6E696E673F004661696C65642014
:102D1A00746F20726561642066726F6D2044485436
:102D2A0000646174610073656E736F72000D0A004E
:102D3A005374617274204C6F526120436C69656EE2
:0E2D4A007400696E6974206661696C656400CE
:00000001FF
