:100000000C945D000C9485000C9485000C94850084
:100010000C9485000C9485000C9485000C9485004C
:100020000C9485000C9485000C9485000C9485003C
:100030000C9485000C9485000C9485000C9485002C
:100040000C9421060C9485000C9491060C946B067C
:100050000C9485000C9485000C9485000C9485000C
:100060000C9485000C9485000000000024002700FB
:100070002A0000000000250028002B0004040404CE
:100080000404040402020202020203030303030342
:10009000010204081020408001020408102001021F
:1000A00004081020000000080002010000030407FB
:1000B00000000000000000001B0911241FBECFEF4C
:1000C000D8E0DEBFCDBF22E0A2E6B1E001C01D92C4
:1000D000A432B207E1F711E0A0E0B1E0EAE3F8E111
:1000E00002C005900D92A236B107D9F710E0CDE518
:1000F000D0E004C02197FE010E94000ACC35D10750
:10010000C9F70E94C3060C941B0C0C940000EBEA88
:10011000F0E02491E7E9F0E09491E3E8F0E0E49185
:10012000EE2309F43BC0222339F1233091F038F457
:100130002130A9F0223001F524B52F7D12C02730DF
:1001400091F02830A1F02430B9F4209180002F7D67
:1001500003C0209180002F77209380000DC024B52C
:100160002F7724BD09C02091B0002F7703C02091C4
:10017000B0002F7D2093B000F0E0EE0FFF1FEE588F
:10018000FF4FA591B4912FB7F894EC91811103C062
:1001900090959E2301C09E2B9C932FBF08952FB74F
:1001A000F8948091730190917401A0917501B091C0
:1001B00076012FBF80937F0190938001A0938101EE
:1001C000B0938201E0917701F09178010284F38588
:1001D000E02D87E791E0099597FF26C02FB7F894A7
:1001E0008091730190917401A0917501B091760195
:1001F0002FBF40917F0150918001609181017091EA
:100200008201841B950BA60BB70B40917B0150918B
:100210007C0160917D0170917E0184179507A6078E
:10022000B70780F28FEF9FEF08950895CF92DF9286
:10023000EF92FF920F931F93CF93DF936C017A019C
:100240008B01C0E0D0E0CE15DF0589F0D8016D91BB
:100250008D01D601ED91FC910190F081E02DC60158
:100260000995892B11F47E0102C02196ECCFC701BC
:10027000DF91CF911F910F91FF90EF90DF90CF9082
:100280000895089580E090E00895FC01538D448D19
:10029000252F30E0842F90E0821B930B541710F031
:1002A000CF96089501970895FC01918D828D98173E
:1002B00061F0828DDF01A80FB11D5D968C91928D4A
:1002C0009F5F9F73928F90E008958FEF9FEF089547
:1002D000FC01918D828D981731F0828DE80FF11D10
:1002E000858D90E008958FEF9FEF0895FC01918D2B
:1002F000228D892F90E0805C9F4F821B91098F7324
:100300009927089587E791E00E94760121E0892BE3
:1003100009F420E0822F0895FC01848DDF01A80FED
:10032000B11DA35ABF4F2C91848D90E001968F731D
:100330009927848FA689B7892C93A089B1898C913C
:1003400080648C93938D848D981306C00288F38902
:10035000E02D80818F7D80830895EF92FF920F932F
:100360001F93CF93DF93EC0181E0888F9B8D8C8D61
:10037000981305C0E889F989808185FD24C0F62E8F
:100380000B8D10E00F5F1F4F0F731127E02E8C8D28
:10039000E8120CC00FB607FCFACFE889F989808112
:1003A00085FFF5CFCE010E948C01F1CF8B8DFE0130
:1003B000E80FF11DE35AFF4FF0820B8FEA89FB89AA
:1003C0008081806207C0EE89FF896083E889F989AE
:1003D00080818064808381E090E0DF91CF911F91E4
:1003E0000F91FF90EF900895CF93DF93EC01888DEC
:1003F0008823C9F0EA89FB89808185FD05C0A88929
:10040000B9898C9186FD0FC00FB607FCF5CF8081AE
:1004100085FFF2CFA889B9898C9185FFEDCFCE01F8
:100420000E948C01E7CFDF91CF91089580E090E0AA
:10043000892B29F00E94820181110C9400000895FB
:10044000FC01A081B1818C918D3051F024F4895050
:100450008230B8F505C0803219F08F3219F0089556
:1004600011962CC011968C9111978A3219F08F3207
:10047000D1F008951196B183A083A081B181CD01FF
:1004800001969183808311968C9111978823C9F0EE
:100490008A3299F712968C9112978F3271F71396D0
:1004A0000DC08A3071F2A081B181CD010196918396
:1004B000808311968C918111F4CF03C0B183A08306
:1004C000C0CF08950F931F93CF93DF931F92CDB7A3
:1004D000DEB78C0169830E942002D801ED91FC9166
:1004E000119780816981861305C03196ED93FC9345
:1004F00081E001C080E00F90DF91CF911F910F91BB
:100500000895EF92FF920F931F93CF93DF938C0187
:10051000DC011496CD91DC911597EA80FB808E81E9
:100520009F81E80EF91EC80102960E942002D801A0
:100530001296ED91FC9113979081973291F192323E
:1005400081F180ED890F8A3060F0892F8F7D815491
:100550008A3138F09B3229F083ED890F823008F020
:1005600060C0F801228133812F5F3F4F33832283A4
:100570002E813F81A9014F5F5F4F6C817D816417A0
:10058000750740F06A817B81FB01E20FF31F5F83F7
:100590004E839083D8011296ED91FC911397908130
:1005A000D0CF3196D8011396FC93EE931297D801D1
:1005B0001296ED91FC9113972081222391F1AF01C6
:1005C0004F5F5F4F13965C934E931297291749F133
:1005D0002C35A9F42181A2E2B1E08C91882339F075
:1005E000821303C011962C9102C01296F6CF2223DB
:1005F000C1F03296D8011396FC93EE9312974E8178
:100600005F81BA016F5F7F4FEC81FD81E617F707CD
:1006100070F2EA81FB81E40FF51F7F836E832083F4
:10062000C6CF8E819F819C012F5F3F4F4C815D81A2
:100630004217530748F04A815B81FA01E80FF91F1E
:100640003F832E83108202C0E12CF12CC701DF9181
:10065000CF911F910F91FF90EF900895FC0126819B
:100660003781620F731F848195818617970738F051
:100670008281938177836683820F931F089580E040
:1006800090E00895DB01109749F0ED91FC911197EE
:100690000190F081E02DBC01CD01099480E090E053
:1006A0000895009769F0FC0101900020E9F7319767
:1006B000AF01481B590BBC0187E791E00C94160170
:1006C00080E090E00895CF93DF930E945103EC0106
:1006D0008DE291E00E9451038C0F9D1FDF91CF911D
:1006E00008950F931F93CF93DF93EC018881998135
:1006F000009729F02A813B812617370788F48B0160
:100700006F5F7F4F0E94330B009761F0998388835E
:100710001B830A832C813D81232B11F4FC01108261
:1007200081E001C080E0DF91CF911F910F9108958A
:10073000EF92FF920F931F93CF93DF93EC011982F7
:1007400018821B821A821D821C826115710549F173
:100750008B01FB0101900020E9F731977F01E61A38
:10076000F70AB7010E9471032881398181110DC0F8
:100770002115310519F0C9010E949B0A19821882BE
:100780001D821C821B821A820CC0FD82EC82B80181
:10079000C901DF91CF911F910F91FF90EF900C94C1
:1007A000140CDF91CF911F910F91FF90EF9008955E
:1007B0000E94FD0B0F931F93CF93DF938B01FC01DE
:1007C000C281D381209759F06A817B81C8010E9440
:1007D0000B0C892B21F00990D881C02DF3CFCE01CD
:1007E000DF91CF911F910F9108950E94DA03FC01D0
:1007F000892B09F44BC084819581833091053CF4A9
:10080000813091057CF4009709F447C038C08530E9
:1008100091052CF0059799F5668177812BC086812B
:10082000978108950680F781E02D309779F18081D6
:10083000843779F18B3229F08D3221F4319691E0B1
:1008400002C0319690E060E070E03AE0819120EDE6
:10085000280F2A3068F4369FA001379F500D1124CD
:10086000682F880F770B60537109640F751FEECFE7
:10087000992391F088279927861B970B0895668105
:100880007781808591850E94A80906C080E090E06C
:10089000089581E090E00895CB0108959F92AF9272
:1008A000BF92CF92DF92EF92FF920F931F93CF935D
:1008B000DF9300D000D000D0CDB7DEB76C01FC01D3
:1008C00000811181B80184E090E00E94420300970A
:1008D00039F0FC0111830083138212828C0111C054
:1008E0008091660181110BC0109263011092620128
:1008F000109265011092640181E08093660102E626
:1009000011E07601F2E0EF0EF11C6BE7C7010E94E7
:100910006202882309F466C06DE7C7010E94620283
:10092000811171C086E0982EC6010E9481025C018F
:10093000892B09F457C06AE3C7010E946202882329
:1009400009F450C01A821982BE016F5F7F4FC60141
:100950000E941605882309F445C0B501C8010E940C
:10096000DA03DC01892B51F5F801608171818AE09D
:1009700090E00E944203DC01892B39F011961C9211
:100980001E9215961C921E921497F80122813381B3
:100990002115310551F0F90180819181009711F005
:1009A0009C01F9CFB183A08303C0F801B383A28374
:1009B0001097C1F01396BC92AE921297FE01319639
:1009C0001496892D01900D928A95E1F76DE7C70184
:1009D0000E946202811117C06CE2C7010E9462028C
:1009E0008111A2CF8091660181110BC01092630129
:1009F00010926201109265011092640181E080936F
:100A0000660102E611E0C80126960FB6F894DEBF33
:100A10000FBECDBFDF91CF911F910F91FF90EF904F
:100A2000DF90CF90BF90AF909F9008959F92AF922C
:100A3000BF92CF92DF92EF92FF920F931F93CF93CB
:100A4000DF9300D000D000D0CDB7DEB7FC01968197
:100A5000992309F4E2C06B017F01915096835F01F5
:100A600082E0A80EB11CC5010E942002D701129697
:100A7000ED91FC91139780818B3521F08B3709F430
:100A800099C0A3C0F70100811181B80184E090E012
:100A90000E944203009751F0DC0111961C930E93C3
:100AA00013961C921E9212978C0111C0809118020D
:100AB00081110BC0109215021092140210921702AD
:100AC0001092160281E08093180204E112E06BE5B7
:100AD000C5010E946202882309F44CC06DE5C5017E
:100AE0000E946202811157C086E0982E1A821982F4
:100AF000BE016F5F7F4FC7010E9416058823D1F1A9
:100B0000F8016081718188E090E00E944203DC017D
:100B1000892B39F011961C921E9213961C921E92EC
:100B20001297F801228133812115310551F0F90125
:100B300080819181009711F09C01F9CFB183A0834E
:100B400003C0F801B383A2831097A1F0FE01319690
:100B50001296892D01900D928A95E1F76DE5C501F8
:100B60000E946202811117C06CE2C5010E946202FC
:100B70008111BCCF8091180281110BC01092150217
:100B800010921402109217021092160281E08093C4
:100B9000180204E112E0D8018D919C91892B11F487
:100BA00010E033C086E090E0F601918380831383E8
:100BB00002832AC0C7010E944E04DC012D913C91A2
:100BC000232B71F327E030E01AC011E0873219F0CF
:100BD000823209F010E0C7010E948102009701F300
:100BE000112359F022E030E0D60111963C932E9368
:100BF00013969C938E93129708C021E030E0F60183
:100C0000318320839383828311E0D70116968C91E0
:100C100016978F5F16968C9301C010E0812F269651
:100C20000FB6F894DEBF0FBECDBFDF91CF911F91FD
:100C30000F91FF90EF90DF90CF90BF90AF909F907B
:100C400008951F920F920FB60F9211242F933F9386
:100C50008F939F93AF93BF93809173019091740191
:100C6000A0917501B09176013091720123E0230FBC
:100C70002D3720F40196A11DB11D05C026E8230FD4
:100C80000296A11DB11D2093720180937301909370
:100C90007401A0937501B093760180916E019091DB
:100CA0006F01A0917001B09171010196A11DB11D5C
:100CB00080936E0190936F01A0937001B0937101C6
:100CC000BF91AF919F918F913F912F910F900FBE48
:100CD0000F901F9018951F920F920FB60F9211242C
:100CE0002F933F934F935F936F937F938F939F9334
:100CF000AF93BF93EF93FF9387E791E00E948C013E
:100D0000FF91EF91BF91AF919F918F917F916F91E3
:100D10005F914F913F912F910F900FBE0F901F90B9
:100D200018951F920F920FB60F9211242F938F9345
:100D30009F93EF93FF93E0918701F0918801808169
:100D4000E0918D01F0918E0182FD12C09081809121
:100D500090018F5F8F7320919101821751F0E09184
:100D60009001F0E0E958FE4F958F8093900101C00B
:100D70008081FF91EF919F918F912F910F900FBEE6
:100D80000F901F901895CF93DF93CDB7DEB7CD5F4F
:100D9000D1090FB6F894DEBF0FBECDBF789484B5ED
:100DA000826084BD84B5816084BD85B5826085BD67
:100DB00085B5816085BD80916E00816080936E00F5
:100DC00010928100809181008260809381008091E7
:100DD0008100816080938100809180008160809398
:100DE00080008091B10084608093B1008091B00058
:100DF00081608093B00080917A00846080937A0053
:100E000080917A00826080937A0080917A0081607C
:100E100080937A0080917A00806880937A001092A3
:100E2000C100E0918701F091880182E08083E09128
:100E30008301F09184011082E0918501F091860197
:100E40008FEC808310928F01E0918B01F0918C01E7
:100E500086E08083E0918901F0918A018081806140
:100E60008083E0918901F0918A018081886080838C
:100E7000E0918901F0918A01808180688083E0910E
:100E80008901F0918A0180818F7D8083E7E9F0E01C
:100E90002491E3E8F0E08491882399F090E0880FB2
:100EA000991FFC01E859FF4FA591B491FC01EE5840
:100EB000FF4F859194918FB7F894EC91E22BEC93CE
:100EC0008FBF4E0189E0880E911C88EC282E312CB2
:100ED000FE0131967F0181ED90E08C0F9D1F809681
:100EE0006C019AE0492E512C612C712C6CE271E05E
:100EF000CE018E509F4F0E9498039C828B823E822F
:100F00002D8218861F82ECE1F1E0FA83E98387E7FE
:100F100091E00E947601892B09F482C16CE271E0B4
:100F2000CE018F529F4F0E9498030E94CF0097FDE1
:100F300034C0C850DF4F8883C85FD040C750DF4FF0
:100F40001882C95FD040CB52DF4F08811981C55D3F
:100F5000D0400F5F1F4FB801CE018F529F4F0E94AC
:100F60007103882311F3CF52DF4F28813981C15D8E
:100F7000D040CB52DF4F88819981C55DD040BE0102
:100F800068507F4F820F931F0E94140CCB52DF4F8B
:100F900019830883C55DD040C8CFCE50DF4F88810C
:100FA0009981C25FD040009749F1CF52DF4F6881ED
:100FB0007981C15DD04061157105F1F0CC50DF4FF2
:100FC00048815981C45FD040CB52DF4F288139819D
:100FD000C55DD0404217530778F00E94140CCB52E5
:100FE000DF4F88819981C55DD040CA50DF4F99831A
:100FF0008883C65FD04032C00E949B0ACF52DF4F29
:1010000088819981C15DD040CE50DF4F998388831C
:10101000C25FD040CD52DF4F88819981C35DD040FF
:10102000CC50DF4F99838883C45FD040CB52DF4FD1
:1010300088819981C55DD040CA50DF4F99838883EC
:10104000C65FD040CF52DF4F19821882C15DD040B9
:10105000CD52DF4F19821882C35DD040CB52DF4F93
:1010600019821882C55DD040CF52DF4F88819981A7
:10107000C15DD0400E949B0ACE50DF4F888199818C
:10108000C25FD040009711F48CE291E0CF52DF4F65
:10109000F982E882C15DD040CD52DF4F99838883C9
:1010A000C35DD040CB52DF4FF982E882C55DD040AE
:1010B0008AE0C952DF4F8883C75DD040CE018F528E
:1010C0009F4F0E944E045C0180E391E00E94510317
:1010D000CA50DF4F48815981C65FD040CE50DF4FA4
:1010E00068817981C25FD04087E791E00E94160154
:1010F0008DE291E00E9451038DE391E00E94510343
:1011000065E471E0C5010E94F5039C01990F440B51
:10111000550B57FF50C0E0917701F0917801019095
:10112000F081E02D6DE287E791E0C650DF4F288324
:10113000CA5FD040C550DF4F3883CB5FD040C4502A
:10114000DF4F4883CC5FD040C350DF4F5883CD5F23
:10115000D0400995C650DF4F2881CA5FD040C550A6
:10116000DF4F3881CB5FD040C450DF4F4881CC5F28
:10117000D040C350DF4F5881CD5FD040509540954F
:10118000309521953F4F4F4F5F4FCF50DF4F188223
:10119000C15FD0408601CA01B901A30192010E943A
:1011A000DE09605DF80162938F012115310541056B
:1011B000510589F715C0CF50DF4F1882C15FD0406D
:1011C0008601CA01B901A30192010E94DE09605D96
:1011D000F80162938F01211531054105510589F709
:1011E000C8010E9451038DE291E00E94510365E421
:1011F00071E0C5010E94F503009741F0019761F489
:1012000081E00E9487008AE491E008C080E00E94AB
:1012100087008DE491E002C081E591E00E946303C4
:10122000CE50DF4F88819981C25FD0400E949B0AD7
:101230000E9416025BCEE7E7F1E01382128288EE8D
:1012400093E0A0E0B0E084839583A683B7838AE02F
:1012500091E09183808385EC90E09587848784EC8E
:1012600090E09787868780EC90E0918B808B81EC73
:1012700090E0938B828B82EC90E0958B848B86EC54
:1012800090E0978B868B118E128E138E148E08959C
:1012900057FD9058440F551F59F05F3F71F0479527
:1012A000880F97FB991F61F09F3F79F0879508950C
:1012B000121613061406551FF2CF4695F1DF08C02B
:1012C000161617061806991FF1CF86957105610548
:1012D00008940895E894BB2766277727CB0197F9F0
:1012E00008952F923F924F925F926F927F928F92CA
:1012F0009F92AF92BF92CF92DF92EF92FF920F93A5
:101300001F93CF93DF93CDB7DEB7CA1BDB0B0FB6AE
:10131000F894DEBF0FBECDBF09942A88398848886B
:101320005F846E847D848C849B84AA84B984C88401
:10133000DF80EE80FD800C811B81AA81B981CE0FF8
:10134000D11D0FB6F894DEBF0FBECDBFED010895DD
:101350000E94AF096894B1110C946B0908950E9422
:10136000500988F09F5798F0B92F9927B751B0F0DE
:10137000E1F0660F771F881F991F1AF0BA95C9F719
:1013800014C0B13091F00E946A09B1E008950C9444
:101390006A09672F782F8827B85F39F0B93FCCF3F7
:1013A000869577956795B395D9F73EF49095809596
:1013B000709561957F4F8F4F9F4F0895A1E21A2E30
:1013C000AA1BBB1BFD010DC0AA1FBB1FEE1FFF1FE9
:1013D000A217B307E407F50720F0A21BB30BE40B39
:1013E000F50B661F771F881F991F1A9469F7609580
:1013F0007095809590959B01AC01BD01CF0108953A
:10140000EE0FFF1F0590F491E02D0994CF93DF9329
:101410008230910510F482E090E0E0912202F09198
:10142000230220E030E0C0E0D0E0309711F14081AD
:10143000518148175907C0F04817590761F4828154
:101440009381209719F09B838A832BC0909323026A
:101450008093220226C02115310519F04217530747
:1014600018F49A01BE01DF01EF010280F381E02D43
:10147000DCCF2115310509F1281B390B243031054A
:1014800090F412968D919C9113976115710521F03E
:10149000FB019383828304C09093230280932202F2
:1014A000FD01329644C0FD01E20FF31F8193919339
:1014B000225031092D933C933AC020912002309163
:1014C0002102232B41F4209102013091030130933A
:1014D0002102209320022091000130910101211569
:1014E000310541F42DB73EB74091040150910501FB
:1014F000241B350BE0912002F0912102E217F30743
:10150000A0F42E1B3F0B2817390778F0AC014E5F73
:101510005F4F2417350748F04E0F5F1F509321028D
:10152000409320028193919302C0E0E0F0E0CF016C
:10153000DF91CF9108950F931F93CF93DF9300977F
:1015400009F48CC0FC0132971382128200912202AE
:10155000109123020115110581F420813181820F40
:10156000931F20912002309121022817390779F525
:10157000F0932102E093200271C0D80140E050E0D6
:10158000AE17BF0750F412962D913C911397AD0101
:101590002115310509F1D901F3CF9D01DA0133831A
:1015A000228360817181860F971F8217930769F4E8
:1015B000EC0128813981260F371F2E5F3F4F318381
:1015C00020838A819B8193838283452B29F4F09326
:1015D0002302E093220242C01396FC93EE931297EB
:1015E000ED01499159919E01240F351FE217F30730
:1015F00071F480819181840F951F029611969C93BE
:101600008E938281938113969C938E931297E0E040
:10161000F0E0D80112968D919C911397009719F0E4
:10162000F8018C01F6CF8D919C9198012E5F3F4F70
:10163000820F931F20912002309121022817390731
:1016400069F4309729F4109223021092220202C00A
:10165000138212821093210200932002DF91CF9116
:101660001F910F910895A0E0B0E0E9E3FBE00C9436
:101670007509EC01009721F4CB010E94060AB8C05D
:10168000FC01E60FF71F9C0122503109E217F30716
:1016900008F4ACC0D9010D911C91119706171707DA
:1016A000B0F00530110508F49FC0C80104978617F3
:1016B000970708F499C002501109061B170B0193F4
:1016C00011936D937C93CF010E949B0A8DC05B01A7
:1016D000A01AB10A4C01800E911EA0912202B09175
:1016E000230240E050E0E12CF12C109709F44AC0AD
:1016F000A815B905D1F56D907C901197630182E032
:10170000C80ED11CCA14DB0480F1A3014A195B097D
:101710006A0182E0C80ED11C1296BC9012971396F3
:10172000AC91B5E0CB16D10440F0B282A3835183D3
:101730004083D9016D937C930AC00E5F1F4FC30194
:10174000800F911FF90191838083EB2DFA2FE11413
:10175000F10431F0D7011396FC93EE93129744C035
:10176000F0932302E09322023FC08D919C91119748
:101770004817590708F4AC017D0112960D90BC91F1
:10178000A02DB3CF80912002909121028815990558
:10179000E1F446175707C8F48091000190910101C8
:1017A000009741F48DB79EB7409104015091050117
:1017B000841B950BE817F907C8F4F0932102E09316
:1017C0002002F901718360830FC0CB010E94060AD9
:1017D0007C01009759F0A801BE010E94020CCE01C5
:1017E0000E949B0AC70104C0CE0102C080E090E0C5
:1017F000CDB7DEB7EEE00C94910981E090E0F8946B
:101800000C941B0CFB01DC0102C001900D924150B5
:101810005040D8F70895FB01DC018D9101908019AB
:101820000110D9F3990B0895FB01DC0101900D9291
:0A1830000020E1F70895F894FFCFBF
:10183A0000002402800000000000AD0116014501ED
:10184A00F401760154016801000000002E032222EF
:10185A005C5C6208660C6E0A720D7409000D0A005F
:10186A00492072656365697665643A200056616C41
:10187A0075653A200064617461004F4E004F464618
:10188A00006D6175766169736520656E7472C3A9AE
:02189A006500E7
:00000001FF
