:100000000C94C0010C94E20E0C94B70E0C948C0E60
:100010000C94610E0C94360E0C940B0E0C94E00DA7
:100020000C94B50D0C94F1010C94F1010C94F101B8
:100030000C94F1010C94F1010C94F1010C94F10178
:100040000C94F1010C94F1010C94F1010C94F10168
:100050000C94F1010C94F1010C94F1010C946B0DD2
:100060000C94F1010C94370F0C940D0F0C94F101CA
:100070000C94F1010C94F1010C94F1010C94F10138
:100080000C94F1010C94F1010C94F1010C94F10128
:100090000C94F1010C94F1010C94F1010C94F10118
:1000A0000C94F1010C94F1010C94F1010C94F10108
:1000B0000C94F1010C94F1010C94F1010C94F101F8
:1000C0000C94F1010C94F1010C94F1010C94F101E8
:1000D0000C94F1010C94F1010C94F1010C94F101D8
:1000E0000C94F101B203AB03C403BB03B703800359
:1000F000A4034603481225122C1233123A124F124F
:1001000056128C128F127E1282128612C61293120F
:1001100097129D12A112A512AB12AF12B312C61202
:10012000B912BD12C1120C94DD0A0C94240B0C946C
:10013000450A0C94B2030C94B70C0C94AF120C94B7
:10014000C60F0C94590D0C94510C0C94A5120C94E0
:10015000980A0C9493120C9425120C948B0B0C940B
:10016000BC0B0C9451110C94A90B0C9482120C949E
:1001700043050C947F0B0C945F150C9456120C9451
:10018000C4030C94B3120C94460A0C94AB120C9456
:100190003A120C94750A0C94CF0B0C94620D0C94CB
:1001A000B90B0C94A4030C9480030C947E120C9451
:1001B00046030C9449110C94A30B0C948C120C94D0
:1001C000A60B0C944D110C94870B0C9497120C9465
:1001D000C70B0C94840A0C9433120C94A60A0C944A
:1001E0008F120C94C20B0C9448120C94AB030C9419
:1001F000C1120C94830B0C94B60B0C94A1120C94AA
:10020000820C0C94E00B0C94DB0F0C94BF0B0C9441
:10021000B7030C94AF0B0C94BB030C948A050C949D
:100220000B0D0C94A90F0C94500D0C9486120C9489
:100230003F100C949D120C94AC0B0C94BD120C94BA
:10024000B9120C942C120C944F120C94E40B0C94D5
:10025000C61272740092740048940078C4000000C2
:100260002100240027002A002D0030003300010166
:100270000000040107010A010000220025002800F7
:100280002B002E003100340002010000050108019E
:100290000B0100000A0B02090C0D0E0807030401F4
:1002A000000000000000000000000000000000004E
:1002B000000000000000000000000000000012111B
:1002C000100000000000000000000000000000001E
:1002D00000000000000000000000200023002600B5
:1002E00029002C002F00320000010000030106014C
:1002F00009010505050507050808080802020202AC
:100300000A0A0808040404040101010101010101B1
:100310000303030303030303040707070C0C0C0C7C
:100320000C0C0C0C02020202060606060606060665
:100330000B0B0B0B0B0B0B0B0102102020080810F2
:100340002040102040800201020108040201010245
:10035000040810204080804020100804020180041E
:100360000201804020100804020108040201010279
:1003700004081020408001020408102040805F150E
:1003800011241FBECFEFD1E2DEBFCDBF00E00CBF16
:1003900013E0A0E0B2E0E2E5F2E300E00BBF02C050
:1003A00007900D92A63DB107D9F725E0A6EDB3E081
:1003B00001C01D92A33DB207E1F711E0C0ECD1E00E
:1003C00000E006C021970109802FFE010E94F41869
:1003D000CF3BD10780E00807A9F70E9497140C943F
:1003E00027190C940000CF93DF93DC01ED91FC9171
:1003F00042815381DB01C281D38120813181C217C7
:10040000D30778F0188222813381241B350BFC013D
:1004100042815381240F351F33832283DF91CF9193
:1004200008952C91222371F39E012F5F3F4F338358
:1004300022832D912883DFCF0F931F93CF93DF93D8
:10044000CDB7DEB766970FB6F894DEBF0FBECDBF4F
:100450008C01CB011E8AFE0176962AE030E0B901BC
:100460000E94E01890E3980F9293CB010097B9F7A0
:10047000BF01C8010E94F30166960FB6F894DEBF73
:100480000FBECDBFDF91CF911F910F9108958F9235
:100490009F92AF92BF92EF92FF920F931F93CF93D1
:1004A000DF93CDB7DEB766970FB6F894DEBF0FBE09
:1004B000CDBF7C011E8A8E010A5E1F4F8AE0882E06
:1004C000912CA12CB12CCB01BA01A50194010E9461
:1004D0007316942F852F605DF80162938F01A90137
:1004E000692F782F411551056105710561F7BF012D
:1004F000C7010E94F30166960FB6F894DEBF0FBEE7
:10050000CDBFDF91CF911F910F91FF90EF90BF90E2
:10051000AF909F908F900895CF93DF93DC01ED9182
:10052000FC911197C281D38180819181C817D9072D
:1005300060F4CE0101969383828368830280F38105
:10054000E02D108221E030E002C020E030E0129681
:100550008D919C911397280F391F13963C932E93DE
:100560001297DF91CF910895FF920F931F93CF932E
:10057000DF936115710549F464ED72E0DF91CF916D
:100580001F910F91FF900C94F3018B01EC0162E23B
:10059000CE010E948C02F80161918F01662351F017
:1005A000E5ECF2E0F080FF2099F39181961759F085
:1005B0003296F8CF62E2CE01DF91CF911F910F9179
:1005C000FF900C948C026CE5CE010E948C026F2D82
:1005D000DFCF0F931F93CF93DF938C01EB016BE77A
:1005E000CE010E948C02F8010281138101151105D0
:1005F000A9F0F80162817381CE010E94B4026AE31E
:10060000CE010E948C02BE01C80104960E941B0309
:10061000F801008111810115110541F46DE7CE014A
:10062000DF91CF911F910F910C948C026CE2CE015F
:100630000E948C02DBCF2F923F924F925F926F927B
:100640007F928F929F92AF92BF92CF92DF92EF9262
:10065000FF920F931F93CF93DF93CDB7DEB76297CF
:100660000FB6F894DEBF0FBECDBFDC01ED91FC915B
:1006700011973197E830F10508F0ECC18B017C014E
:100680008827EE58FF4F8F4F0C94F418FD01C2805D
:10069000D380E480F580A7019601C701B6010E94CE
:1006A0001117882319F064EE72E07CC020E030E07E
:1006B000A901C701B6010E94111787FF08C06DE2AA
:1006C000C8010E948C02F7FAF094F7F8F09420E049
:1006D00030E0A901C701B6010E941117882309F46F
:1006E00065C0A7019601C701B6010E94A516A70122
:1006F00096010E941117811159C06BEE72E052C031
:10070000FD01E280F3806BE5C8010E948C02D701F5
:100710001296ED90FC901397E114F10459F0B80192
:10072000C70102960E941B03F701E080F180E114EB
:10073000F10429F46DE5C8010E948C028BC16CE2C2
:10074000C8010E948C02E8CF12968D919C9113975C
:100750000E94E9027FC1FD0162817381C8010E948C
:10076000B40278C112966D917C9113971BC06DE213
:10077000C8010E948C02F701428153816481758116
:10078000C8010E94470266C1FD0182819381A48154
:10079000B581892B8A2B8B2B19F46EED72E002C088
:1007A00069ED72E0C8010E94F30154C120E836E906
:1007B00048E15BE4C701B6010E94691887FD42C1A8
:1007C000A12CB12C70E2872E912C212C312CF5011B
:1007D000ED5AFD4F2489358946895789C701B601ED
:1007E0000E94691887FD0FC0F501E55CFD4F248963
:1007F000358946895789C701B6010E946E186B0179
:100800007C01280C391C95948794F4E0AF1AB10848
:1008100088EEA8168FEFB806D1F677247A9420E0F8
:1008200030E0A901C701B6010E946918181694F5B5
:100830002CEA35EC47E257E3C701B6010E941117D5
:10084000181644F1BFEF7B1629F1972DA4E09A0208
:1008500050011124F501ED5DFD4F20813181428170
:100860005381C701B6010E94111787FF0FC0F50120
:10087000ED5AFD4F2081318142815381C701B6017C
:100880000E946E186B017C01281839089594879492
:100890007A94D8CFC701B6010E9488174B015C013A
:1008A0000E94B7179B01AC01C701B6010E94A416B4
:1008B00020E034E244E759E40E946E182B013C0129
:1008C0000E9488176B017C010E94B7179B01AC0145
:1008D000C301B2010E94A4169B01AC010E94A5169F
:1008E0000E948817C60ED71EE81EF91EE0E4CE1639
:1008F000E2E4DE06EFE0EE06F104E0F0FFEF8F1A2F
:100900009F0AAF0ABF0A2114310489F08AE08816D1
:100910009104A104B10458F09FEF291A390AC12C9F
:10092000D12C7601812C912C5401839403C0C12CCD
:10093000D12C760124013501A6E0AA8BBA89B98BA6
:10094000B150BA8BEAE04E16510461047104A8F06C
:10095000C701B6012AE030E040E050E00E94731683
:1009600069017A01C301B2012AE030E040E050E0C1
:100970000E94731629013A01E1CF3AE0432E512C2F
:10098000612C712CC701B601A30192010E9473165C
:10099000672B682B692BB1F089898A8BB501A4017B
:1009A000C8010E94470299899923A1F1188A5E0122
:1009B000B0E1AB0EB11C45012AE0422E512C612C56
:1009C000712C0BC0A9891A1634F469017A01F989CE
:1009D000F150F98BD7CFAA8BE1CFFA89F150FA8B7E
:1009E000FF3F69F0C701B601A30192010E9473168F
:1009F000605DF50162935F0169017A01EECFB40198
:100A00008989681B71098EE2DB018E93BD01C801E3
:100A10000E94F30137FE0AC068EE72E0C8010E942E
:100A2000F301662777276219730908C0211431047E
:100A300089F065E6C8010E948C02B101C8010E94DC
:100A40001C0208C080E2882E912C95E0792E212C82
:100A5000312CE5CE62960FB6F894DEBF0FBECDBF47
:100A6000DF91CF911F910F91FF90EF90DF90CF908A
:100A7000BF90AF909F908F907F906F905F904F90BE
:100A80003F902F900895FC0126813781620F731FDC
:100A9000848195818617970738F0828193817783C7
:100AA0006683820F931F089580E090E00895DB0134
:100AB000109749F0ED91FC9111970190F081E02D94
:100AC000BC01CD01199480E090E00895CF93DF93AD
:100AD000EC01BC0184E090E00E945705FC01009706
:100AE00029F0D183C0831382128211C08091E60362
:100AF00081110BC01092E3031092E2031092E50300
:100B00001092E40381E08093E60382EE93E0DF91AC
:100B1000CF910895DF92EF92FF920F931F93CF939F
:100B2000DF9300D0CDB7DEB78C010E94330CD82EF6
:100B3000811102C0D12C8DC0F801938D923061F0EB
:100B4000933069F08EEE890F8430A0F727E130E012
:100B50007901E91AF10806C0E12CF12C03C0EE245A
:100B6000E394F12C40E861E0C8010E946D0F6AE057
:100B700070E080E090E00E945A1361E0C8010E949A
:100B8000FE0F8038B9F660E0F801838D0E94DA121A
:100B9000F801848D8F3F49F48091EE03843050F644
:100BA00091E0980F9093EE03848FF801948DE92FD4
:100BB000F0E0EE0FFF1FE151FC4F11830083911114
:100BC00003C062E67DE00AC0913019F469E57DE07A
:100BD00005C0923009F0AECF60E57DE08E2D0E9419
:100BE0000D1240E06EE0C8010E946D0F40E06FE022
:100BF000C8010E946D0FC8010E942B1043E050E015
:100C000062E572E0CE0101960E94381649816DE1DD
:100C1000C8010E946D0F4A816EE1C8010E946D0FEC
:100C20004B8166E2C8010E946D0F40E060E2C8019E
:100C30000E946D0F48E061E2C8010E946D0F40E024
:100C400050E069ED73E4C8010E94C610C8010E941B
:100C5000DF118D2D0F900F900F90DF91CF911F918D
:100C60000F91FF90EF90DF900895DF92EF92FF9247
:100C70000F931F93CF93DF93EC0162E10E94FE0F6D
:100C80002A813B812430310521F4982F907A09F094
:100C900068C02A813B812430310509F073C086FF8A
:100CA00071C063E1CE010E94FE0FF82E60E1CE011B
:100CB0000E94FE0F482F6DE0CE010E946D0FDFB63F
:100CC000F89460E08A8D0E945D12888D998DDC0118
:100CD000ED91FC910190F081E02D60E019958E017D
:100CE000025E1F4FEF2CE00EE01671F0888D998D9B
:100CF000DC01ED91FC910190F081E02D60E019950F
:100D0000F80181938F01F0CF61E08A8D0E945D121E
:100D1000DFBEFD8E4FEF62E1CE010E946D0F6AE1F2
:100D2000CE010E94FE0F89588E878D8DFE01E35EF5
:100D3000FE4F843090F08E8D8E838F8D8F8388A1AF
:100D4000888789A189878D81811129C09E818C81A5
:100D5000981729F18E818F3F11F18081882331F01E
:100D60002FC08F8598890196988B8F874FEF62E10E
:100D7000CE01DF91CF911F910F91FF90EF90DF9007
:100D80000C946D0F2A813B812330310581F483FF60
:100D90000EC08B899C8901969C8B8B8B11C0898995
:100DA0009A8901969A8B898B81E08083D6CF2A819C
:100DB0003B8125303105D1F682FFD8CF81708D8BF4
:100DC000CE010E942B10D2CFCF93DF93EC0168812C
:100DD00079818AE090E00E945705009729F0FC0194
:100DE0001182108215821482EA81FB81309751F0C2
:100DF000208131812115310511F0F901F9CF91835D
:100E0000808302C09B838A83DF91CF9108950F93E3
:100E10001F93CF93DF938B01FC01C281D381209775
:100E200059F06A817B81C8010E941E19892B21F02B
:100E30000990D881C02DF3CFCE01DF91CF911F91C2
:100E40000F910895CF92DF92EF92FF920F931F932D
:100E5000CF93DF93FC01208131812115310581F48D
:100E60008091E603811130C01092E3031092E203F7
:100E70001092E5031092E40381E08093E60324C01E
:100E80007B018C01C9010E946605EC01B701C80114
:100E90000E940707FC01892B41F4C8010E94E40667
:100EA000FC01892BA1F0F382E28288819981892B50
:100EB00019F480E090E003C06E0187E090E0958334
:100EC0008483C682D78203C082EE93E001C0CE0144
:100ED000DF91CF911F910F91FF90EF90DF90CF9016
:100EE00008954F925F926F927F928F929F92AF92EE
:100EF000BF92CF92DF92EF92FF920F931F93CF9307
:100F0000DF93CDB7DEB7C95AD3400FB6F894DEBF32
:100F10000FBECDBF0E94A0138823A1F18091A10430
:100F20008B3041F178F18551823060F560919B04FE
:100F300070E080E090E00E94B71720E030E040E8E9
:100F400053E40E946E184B015C0180919C04682F51
:100F500070E080E090E00E94B9179B01AC01C501F0
:100F6000B4010E94A5162DEC3CEC4CEC5DE30E9414
:100F70006E180CC060919B0470E080E090E00E94CD
:100F8000B71704C060E070E080EC9FE7CD55DC4F00
:100F9000688379838A839B83C35AD3400E94A013BA
:100FA0008823D1F18091A1048B3029F0A8F18551DB
:100FB000823048F031C060919D0470E080E090E0A4
:100FC0000E94B7172DC010919D04612F6F7770E0BC
:100FD00080E090E00E94B91720E030E040E853E460
:100FE0000E946E184B015C0180919E04682F70E096
:100FF00080E090E00E94B9179B01AC01C501B401EB
:101000000E94A5162DEC3CEC4CEC5DE30E946E18A2
:1010100017FF06C0905804C060E070E080EC9FE7C6
:10102000C156DC4F688379838A839B83CF59D34031
:1010300086E30E941613BC01990F880B990B0E943E
:10104000B9172B013C018BE30E941613BC01990FC9
:10105000880B990B0E94B9172AE038E240EA5BE35B
:101060000E946E1820E030E04AE754E40E946E18B7
:101070004B015C019B01AC0160E070E48CE995E4FC
:101080000E94A4169B01AC01C501B4010E94161771
:1010900020E030E44CE156E40E946E189B01AC0164
:1010A00060E074E284E799E40E94A4162DEC3CEC25
:1010B00049EF54E40E941617C556DC4F68837983C4
:1010C0008A839B83CB59D3408BEFC755DC4F8883F2
:1010D000C95AD3407E0189E3E81A8DEFF80AC701A7
:1010E0000896D70113969C938E93129788EC90E004
:1010F00015969C938E93149717961C921E92169792
:1011000081E292E08D939C93B70184E090E00E948D
:101110005705009739F0FC01F182E08213821282B8
:101120008C0111C08091DA0381110BC01092D7039A
:101130001092D6031092D9031092D80381E08093C5
:10114000DA0306ED13E0D8018D919C91009781F4AC
:101150008091E603811148C01092E3031092E203EC
:101160001092E5031092E40381E08093E6033CC013
:101170000E9466057C01F8016081718188E090E041
:101180000E945705FC01892B21F0118210821382E5
:101190001282D80112962D913C9113972115310599
:1011A00059F0D9018D919C911197009711F09C01F4
:1011B000F8CFED93FC9305C0D8011396FC93EE9302
:1011C00012973097A1F0D7018D919C91892B19F43A
:1011D00080E090E004C0DE2CCF2C87E090E0938389
:1011E0008283D482C58203C082EE93E001C0C7012E
:1011F00064EF72E00E9422074C0169EF72E00E94E6
:1012000022078C0162E073E00E9422076C016EE00D
:1012100073E0C8010E9422077C0167E173E0C80106
:101220000E9422075C016DE173E0C8010E94220761
:101230008C010E943513C955DC4F79836883C75AE6
:10124000D340BE0169557C4FC6010E94A511C1560D
:10125000DC4F688179818A819B81CF59D3409B0182
:10126000AC010E94DB18882321F0C6010E94831183
:1012700006C0BE0161567C4FC6010E945711BE01D7
:1012800069557C4FC7010E94A511CD55DC4F68817F
:1012900079818A819B81C35AD3409B01AC010E9412
:1012A000DB18882321F0C7010E94831106C0BE010C
:1012B0006D557C4FC7010E945711BE0169557C4F87
:1012C000C5010E94A511BE0165567C4FC5010E9453
:1012D0005711BE0169557C4FC8010E94A51120E03D
:1012E00030E040EA50E4C301B2010E946E1820E0F1
:1012F00030E240E854E40E94161769837A838B83B6
:101300009C83BE016F5F7F4FC8010E94571187EF1A
:1013100091E08C0F9D1F0896C750DE4F99838883FC
:10132000C95FD14088EC90E0C550DE4F9983888337
:10133000CB5FD140C350DE4F19821882CD5FD140C0
:1013400081E292E0C950DE4F99838883C75FD14024
:10135000FE01E956FC4F8E0104501F4FCE018A500A
:101360009E4F9183808313830283D8011C92FA835A
:10137000E9831C821B82BE016F5F7F4FC4010E9404
:10138000E90283E293E00E94ED11C8010E94FF117F
:101390004BEFB8018DEA94E00E943F108DEA94E093
:1013A0000E94C70B68EB7BE08DEA94E00E94820C00
:1013B000882309F448C0AE0147555C4FBE016F5FFA
:1013C0007F4F8DEA94E00E940B0D8823C9F18DE3D5
:1013D00093E00E94FF11CE0101960E94FF1160E090
:1013E00072E0CE0101960E941E19892B31F188E42A
:1013F00093E00E94FF1168EB7BE08DEA94E00E948D
:10140000820C882379F0AE0147555C4FBE016F5FB7
:101410007F4F8DEA94E00E940B0D811107C083E598
:1014200093E002C08FE593E00E94FF1164EF71E04A
:1014300080E090E00E945A13D2CF87E693E005C087
:1014400083E593E002C089E893E00E94FF1168E819
:1014500073E180E090E00E945A13C755DC4F0FB64D
:10146000F894DEBF0FBECDBFDF91CF911F910F91DA
:10147000FF90EF90DF90CF90BF90AF909F908F90B4
:101480007F906F905F904F9008950895CF92DF9274
:10149000EF92FF920F931F93CF93DF936C017A012A
:1014A0008B01C0E0D0E0CE15DF0589F0D8016D9149
:1014B0008D01D601ED91FC910190F081E02DC601E6
:1014C0001995892B11F47E0102C02196ECCFC7013A
:1014D000DF91CF911F910F91FF90EF90DF90CF9010
:1014E0000895089580E090E00895FC01538D448DA7
:1014F000252F30E0842F90E0821B930B541710F0BF
:10150000CF96089501970895FC01918D828D9817CB
:1015100061F0828DDF01A80FB11D5D968C91928DD7
:101520009F5F9F73928F90E008958FEF9FEF0895D4
:10153000FC01918D828D981731F0828DE80FF11D9D
:10154000858D90E008958FEF9FEF0895FC01918DB8
:10155000228D892F90E0805C9F4F821B91098F73B1
:10156000992708958EEF93E00E94A60A21E0892B27
:1015700009F420E0822F0895FC01848DDF01A80F7B
:10158000B11DA35ABF4F2C91848D90E001968F73AB
:101590009927848FA689B7892C93A089B1898C91CA
:1015A00080648C93938D848D981306C00288F38990
:1015B000E02D80818F7D80830895EF92FF920F93BD
:1015C0001F93CF93DF93EC0181E0888F9B8D8C8DEF
:1015D000981305C0E889F989808185FD24C0F62E1D
:1015E0000B8D10E00F5F1F4F0F731127E02E8C8DB6
:1015F000E8120CC00FB607FCFACFE889F9898081A0
:1016000085FFF5CFCE010E94BC0AF1CF8B8DFE0184
:10161000E80FF11DE35AFF4FF0820B8FEA89FB8937
:101620008081806207C0EE89FF896083E889F9893B
:1016300080818064808381E090E0DF91CF911F9171
:101640000F91FF90EF900895CF93DF93EC01888D79
:101650008823C9F0EA89FB89808185FD05C0A889B6
:10166000B9898C9186FD0FC00FB607FCF5CF80813C
:1016700085FFF2CFA889B9898C9185FFEDCFCE0186
:101680000E94BC0AE7CFDF91CF91089580E090E0FF
:10169000892B21F00E94B20A811125C080E090E0E0
:1016A000892B41F080E090E0892B21F00E9400001E
:1016B00081111CC080E090E0892B41F080E090E037
:1016C000892B21F00E940000811113C080E090E07E
:1016D000892BA1F080E090E0892B81F00E9400002E
:1016E00081110AC008950E940000D8CF0E94000016
:1016F000E1CF0E940000EACF0C94000008958CB561
:101700008F7B8CBD08958CB58F778CBD08958CB57B
:1017100080688CBD08956EBD00000DB407FEFDCF3E
:101720008EB508959CB5282F23709C7F922B9CBD6D
:101730002DB582FB992790F9822F8E7F892B8DBD45
:10174000089580E00895FC0181850895FC0180855D
:101750000895FC0187810895FC0186810895FC01AC
:10176000409595854923642B65870895FC0164871E
:101770000895FC0163870895FC0162870895FC01C8
:1017800064830895FC016583089580E00895FC0159
:101790002281338123303105D1F381E00895CF9345
:1017A000DF93EC01E881F9810280F381E02DCE0125
:1017B00019958823B9F3DF91CF91089581E00895B9
:1017C0008BEF08950E941019CF93FC012681378179
:1017D0002115310549F02130310541F02230310524
:1017E00039F02330310531F020E005C024E003C09A
:1017F00028E001C02CE09CB5937F922B9CBD848196
:101800009581019761F58CB580628CBD8281938151
:1018100001978430910528F4FC01E559FD4FC08102
:1018200001C0C1E08C2F0E94920B61E085E30E9411
:101830005D1261E085E30E94DA128CB580618CBD97
:101840008CB580648CBD61E084E30E94DA1261E0B3
:1018500083E30E94DA128C2FCF910C94920B9CB5EB
:101860009F7D9CBDD3CFCF93DF93EC01888D998D65
:10187000DC01ED91FC910680F781E02D199561E086
:101880008A8D0E94DA1261E08A8D0E945D1264E600
:1018900070E080E090E00E945A1381E0DF91CF91E8
:1018A00008958F929F92AF92BF92CF92DF92EF9264
:1018B000FF92CF93DF93EC016B010E9494134B01D5
:1018C0005C01E12CF12C0E949413DC01CB018819FE
:1018D0009909AA09BB098C159D05AE05BF0530F411
:1018E0008A819B81039779F381E001C080E0DF91D9
:1018F000CF91FF90EF90DF90CF90BF90AF909F90EF
:101900008F9008958F929F92AF92BF92CF92DF9265
:10191000EF92FF92CF93DF93EC016B010E9494133F
:101920004B015C01E12CF12C0E949413DC01CB01F2
:1019300088199909AA09BB098C159D05AE05BF0533
:1019400050F4E881F9810280F381E02DCE011995F0
:10195000882351F301C080E0DF91CF91FF90EF9099
:10196000DF90CF90BF90AF909F908F9008958F920F
:101970009F92AF92BF92CF92DF92EF92FF92CF935E
:10198000DF93FC0126893789232B11F481E038C0CD
:10199000EC010E9494136B017C0189E0882E912C4C
:1019A000A12CB12CE881F9810488F589E02DCE01C4
:1019B0001995882359F30E949413AB01BC014C196B
:1019C0005D096E097F098E899F89A0E0B0E08417C8
:1019D0009507A607B70798F00E942B16A50194015A
:1019E0000E9441169B01AC012F5F3F4F4F4F5F4F4D
:1019F000A4E6B0E00E9460160E945A13D3CF80E0A4
:101A0000DF91CF91FF90EF90DF90CF90BF90AF909C
:101A10009F908F900895CF92DF92EF92FF920F9355
:101A20001F93CF93DF93EC017B018A01E881F98159
:101A30000280F381E02D1995D82E882339F1E11425
:101A4000F104E1F001151105C9F0CFB6F8942D8D20
:101A500030E023503109F801808190E0821793072C
:101A60001CF09D8D94509083F801408150E0BE01A0
:101A70006E5D7F4FC7010E941519CFBE8FB7F894D6
:101A8000FE01E35EFE4F10821D8E8FBF8D2DDF9114
:101A9000CF911F910F91FF90EF90DF90CF9008951D
:101AA0008091F3039091F403009711F00C943506A4
:101AB00008958091F1039091F203009711F00C9436
:101AC000350608958091EF039091F003009711F08F
:101AD0000C94350608951F920F920FB60F921124A1
:101AE0002F933F938F939F93AF93BF938091F60370
:101AF0009091F703A091F803B091F9033091F503A9
:101B000023E0230F2D3720F40196A11DB11D05C040
:101B100026E8230F0296A11DB11D2093F5038093A3
:101B2000F6039093F703A093F803B093F903809121
:101B3000FA039091FB03A091FC03B091FD03019681
:101B4000A11DB11D8093FA039093FB03A093FC03A6
:101B5000B093FD03BF91AF919F918F913F912F91D2
:101B60000F900FBE0F901F9018951F920F920FB6F7
:101B70000F9211240BB60F922F933F934F935F93C5
:101B80006F937F938F939F93AF93BF93EF93FF9345
:101B9000E0911702F09118021995FF91EF91BF9112
:101BA000AF919F918F917F916F915F914F913F91F5
:101BB0002F910F900BBE0F900FBE0F901F90189596
:101BC0001F920F920FB60F9211240BB60F922F9304
:101BD0003F934F935F936F937F938F939F93AF93B5
:101BE000BF93EF93FF93E0911502F09116021995C0
:101BF000FF91EF91BF91AF919F918F917F916F91E5
:101C00005F914F913F912F910F900BBE0F900FBEA0
:101C10000F901F9018951F920F920FB60F921124DC
:101C20000BB60F922F933F934F935F936F937F93D6
:101C30008F939F93AF93BF93EF93FF93E0910B022A
:101C4000F0910C021995FF91EF91BF91AF919F9187
:101C50008F917F916F915F914F913F912F910F9055
:101C60000BBE0F900FBE0F901F9018951F920F92F2
:101C70000FB60F9211240BB60F922F933F934F93F1
:101C80005F936F937F938F939F93AF93BF93EF93E4
:101C9000FF93E0910902F0910A021995FF91EF91EB
:101CA000BF91AF919F918F917F916F915F914F9174
:101CB0003F912F910F900BBE0F900FBE0F901F9072
:101CC00018951F920F920FB60F9211240BB60F9218
:101CD0002F933F934F935F936F937F938F939F9334
:101CE000AF93BF93EF93FF93E0911302F09114022F
:101CF0001995FF91EF91BF91AF919F918F917F9136
:101D00006F915F914F913F912F910F900BBE0F906C
:101D10000FBE0F901F9018951F920F920FB60F9243
:101D200011240BB60F922F933F934F935F936F93B2
:101D30007F938F939F93AF93BF93EF93FF93E09124
:101D40001102F09112021995FF91EF91BF91AF919D
:101D50009F918F917F916F915F914F913F912F91C3
:101D60000F900BBE0F900FBE0F901F9018951F92F3
:101D70000F920FB60F9211240BB60F922F933F9331
:101D80004F935F936F937F938F939F93AF93BF9383
:101D9000EF93FF93E0910F02F09110021995FF91DC
:101DA000EF91BF91AF919F918F917F916F915F91D3
:101DB0004F913F912F910F900BBE0F900FBE0F9040
:101DC0001F9018951F920F920FB60F9211240BB609
:101DD0000F922F933F934F935F936F937F938F93C4
:101DE0009F93AF93BF93EF93FF93E0910D02F09118
:101DF0000E021995FF91EF91BF91AF919F918F9135
:101E00007F916F915F914F913F912F910F900BBEFA
:101E10000F900FBE0F901F9018951F920F920FB644
:101E20000F9211240BB60F922F933F934F935F9312
:101E30006F937F938F939F93AF93BF93EF93FF9392
:101E40008EEF93E00E94BC0AFF91EF91BF91AF919A
:101E50009F918F917F916F915F914F913F912F91C2
:101E60000F900BBE0F900FBE0F901F9018951F92F2
:101E70000F920FB60F9211240BB60F922F938F93E0
:101E80009F93EF93FF93E0910E04F0910F048081F4
:101E9000E0911404F091150482FD12C090818091AC
:101EA00017048F5F8F7320911804821751F0E0910F
:101EB0001704F0E0E250FC4F958F8093170401C0A7
:101EC0008081FF91EF919F918F912F910F900BBE89
:101ED0000F900FBE0F901F901895EF92FF920F93E7
:101EE0001F93CF93DF931F92CDB7DEB77C01162FE0
:101EF0000FB7F89460E0DC015A968C9149830E94F8
:101F00005D12F701808D918DDC01ED91FC91612FC7
:101F100060680190F081E02D1995182FF701808DF0
:101F2000918DDC01ED91FC910190F081E02D4981D2
:101F3000642F199561E0F701828D0E945D120FBF39
:101F4000812F0F90DF91CF911F910F91FF90EF9014
:101F50000895CF93DF93EC018A819B81059771F0FF
:101F600047E061E0CE010E946D0F40E860E4CE01E1
:101F70000E946D0F85E090E09B838A838A819B811C
:101F80000597E1F38D89DF91CF910895CF93DF938A
:101F9000FC01228133812130310549F0EC0140E020
:101FA00061E00E946D0F81E090E09B838A8381E075
:101FB000DF91CF910895CF93DF93FC01228133818C
:101FC00023303105B9F0EC0182819381049771F0DF
:101FD00045E061E0CF010E946D0F40E060E4CE017A
:101FE0000E946D0F84E090E09B838A83C35EDE4F86
:101FF000888101C080E0DF91CF9108950F931F93F6
:10200000CF93DF93EC01162F0FB7F89460E08A8D21
:102010000E945D12888D998DDC01ED91FC91612FFC
:102020006F770190F081E02D1995888D998DDC01F5
:10203000ED91FC910190F081E02D60E01995182F51
:1020400061E08A8D0E945D120FBF812FDF91CF91D9
:102050001F910F910895CF93DF93FC01228133816B
:102060002230310549F0EC0141E061E00E946D0F42
:1020700082E090E09B838A83DF91CF910895BF92A5
:10208000CF92DF92EF92FF920F931F93CF93DF9344
:102090004C3F10F0E12C6FC0142F072FF62EEC01EF
:1020A000E881F9810484F585E02D1995CE010E941F
:1020B0002B10E881F9810288F389E02DCE01199572
:1020C000E82E882339F340E06DE0CE010E946D0FC9
:1020D0004A8560E0CE010E946D0F4B8560E0CE0125
:1020E0000E946D0F4C8560E0CE010E946D0F4D8502
:1020F00060E0CE010E946D0FBFB6F89460E08A8D5B
:102100000E945D12888D998DDC01ED91FC9101900A
:10211000F081E02D60E81995CF2CD02E012F0150D1
:1021200068F0888D998DF60161916F01DC01ED9168
:10213000FC910190F081E02D1995F1CF61E08A8D3D
:102140000E945D12BFBE44E0410F62E2CE010E94D8
:102150006D0F8A819B81039771F043E061E0CE01AE
:102160000E946D0F40E460E4CE010E946D0F83E099
:1021700090E09B838A838E2DDF91CF911F910F91E9
:10218000FF90EF90DF90CF90BF900895CF92DF92B5
:10219000EF92FF92CF93DF93EC01CB01BA0120E0E5
:1021A00034E244E759E40E946E1820E034E244E748
:1021B00052E40E9416170E9488176B017C01A70148
:1021C0006627772766E0CE010E946D0F77276F2D77
:1021D0005E2D4D2D67E0CE010E946D0F4C2D68E005
:1021E000CE010E946D0F81E0DF91CF91FF90EF90C3
:1021F000DF90CF9008958F929F92AF92BF92CF922F
:10220000DF92EF92FF92CF93DF93A091A2048823F5
:1022100011F03A2F01C030E08091A30490E0880FC4
:10222000991F88529D4FC090A804D090A904E090B7
:10223000AA04F090AB0440E050E0BA01FC01C59163
:10224000D49128812A2323130FC04A015B012FEF69
:10225000821A920AA20AB20A4C155D056E057F0524
:1022600038F4B501A401EACF342F252FCB0104C0E7
:1022700030E020E080E090E0632F722FDF91CF917B
:10228000FF90EF90DF90CF90BF90AF909F908F9096
:102290000895FC01738362830895FC01778366834C
:1022A0000895FC01758364830895089508950F933C
:1022B0001F93CF93DF93EC018B0169EC73E00E94D5
:1022C0000707FC01892B51F4CE010E94E406FC01B2
:1022D000892B99F089EC93E093838283E8018881CC
:1022E0009981AA81BB8128E030E0358324838683ED
:1022F0009783A087B18781E001C080E0DF91CF9113
:102300001F910F910895CF93DF93EC0169EC73E077
:102310000E940707FC01892B51F4CE010E94E406BC
:10232000FC01892B71F089EC93E09383828382E036
:1023300090E09583848384EE92E09783868381E0A6
:1023400001C080E0DF91CF9108950F931F93CF9349
:10235000DF93EC018B016EEC73E00E940707FC0138
:10236000892B51F4CE010E94E406FC01892B09F16E
:102370008EEC93E093838283D8014D915C9157FD5D
:1023800007C0052E000C660B770B84E090E009C0B7
:10239000519541955109052E000C660B770B85E090
:1023A00090E095838483468357836087718781E0BB
:1023B00001C080E0DF91CF911F910F910895CF93DD
:1023C000DF93EC0144E06DE40E946D0F48E869E0A2
:1023D000CE01DF91CF910C946D0F009769F0FC0155
:1023E00001900020E9F73197AF01481B590BBC0160
:1023F0008EEF93E00C94460A80E090E00895CF932E
:10240000DF930E94ED11EC0183ED93E00E94ED114A
:102410008C0F9D1FDF91CF910895883008F04CC03C
:10242000A82FB0E0AA0FBB1FA75FBD4F11967C93EA
:102430006E9390E0FC013197E730F10510F58827A5
:10244000E658FF4F8F4F0C94F41880916900836019
:1024500080936900E89A0895809169008C60809368
:102460006900E99A0895809169008063809369000A
:10247000EA9A089580916900806C80936900EB9AD4
:10248000089580916A00836080936A00EC9A0895B1
:1024900080916A008C6080936A00ED9A0895809123
:1024A0006A00806380936A00EE9A089580916A00C2
:1024B000806C80936A00EF9A0895362F90E0FC01BB
:1024C000EE56FD4F4491FC01E85CFC4F2491FC0169
:1024D000EE50FD4F9491992309F46BC0442309F405
:1024E00055C050E0FA013197E231F10508F04EC0D5
:1024F0008827EF57FF4F8F4F0C94F418809180007E
:102500008F7707C0809180008F7D03C0809180000D
:10251000877F809380003AC084B58F7702C084B5EE
:102520008F7D84BD33C08091B0008F7703C08091D0
:10253000B0008F7D8093B00029C0809190008F778C
:1025400007C0809190008F7D03C080919000877FAD
:10255000809390001BC08091A0008F7707C080916E
:10256000A0008F7D03C08091A000877F8093A00092
:102570000DC0809120018F7707C0809120018F7D51
:1025800003C080912001877F80932001E92FF0E034
:10259000EE0FFF1FE858FD4FA591B4918FB7F89447
:1025A000EC91311103C020952E2301C02E2B2C93CA
:1025B0008FBF0895CF93DF9390E0FC01E85CFC4F60
:1025C0002491FC01EE50FD4F8491882361F190E04D
:1025D000880F991FFC01E25AFD4FC591D491FC016F
:1025E000E858FD4FA591B491611109C09FB7F894C7
:1025F0008881209582238883EC912E230BC0623042
:1026000061F49FB7F8943881822F80958323888363
:10261000EC912E2B2C939FBF06C08FB7F894E881C6
:102620002E2B28838FBFDF91CF910895863308F03A
:10263000865390917B00282F2870977F922B909340
:102640007B008770806480937C0080917A00806436
:1026500080937A0080917A0086FDFCCF809178008B
:102660002091790090E0922B08953FB7F8948091E3
:10267000FA039091FB03A091FC03B091FD0326B5F2
:10268000A89B05C02F3F19F00196A11DB11D3FBFAA
:10269000BA2FA92F982F8827820F911DA11DB11D38
:1026A000BC01CD0142E0660F771F881F991F4A9534
:1026B000D1F708958F929F92AF92BF92CF92DF92FF
:1026C000EF92FF926B017C010E9435134B015C017C
:1026D000C114D104E104F104F1F00E943513DC01CE
:1026E000CB0188199909AA09BB09883E9340A10525
:1026F000B10570F321E0C21AD108E108F10888EEB3
:10270000880E83E0981EA11CB11CC114D104E10401
:10271000F10419F7DDCFFF90EF90DF90CF90BF90DD
:10272000AF909F908F9008952FB7F8946091F60323
:102730007091F7038091F8039091F9032FBF0895EA
:10274000CF92DF92EF92FF920F931F93CF93DF937D
:10275000CDB7DEB7C054D1400FB6F894DEBF0FBE80
:10276000CDBF0E9494130091A4041091A504209160
:10277000A6043091A7046B017C01C01AD10AE20AB9
:10278000F30A40EDC41647E0D406E104F10418F45E
:102790008091AC04BCC06093A4047093A5048093A2
:1027A000A6049093A70410929F0410929E04109286
:1027B0009D0410929C0410929B0461E08091A004FF
:1027C0000E945D126AEF70E080E090E00E945A1370
:1027D00061E08091A0040E94DA1260E08091A00480
:1027E0000E945D1264E170E080E090E00E945A1364
:1027F000F89461E08091A0040E945D128BE990E062
:102800000197F1F762E08091A0040E94DA1283E25E
:1028100090E00197F1F780E00E94FB10672B682B96
:10282000692B21F41092AC0478943EC081E00E94A0
:10283000FB10672B682B692BA9F38E010F5F1F4FCD
:102840006E018FEBC81A8EEFD80A780180E00E94E3
:10285000FB10F701608371838283938381E00E9480
:10286000FB10F7016483758386839783F8E0EF0E8E
:10287000F11CEC14FD0451F7789420E030E0F801ED
:102880004081518162817381C480D580E680F78068
:10289000411551056105710529F0C114D104E10408
:1028A000F10421F41092AC0480E031C0F90183E01E
:1028B000F595E7958A95E1F7E556FB4F8081880FFE
:1028C0004C155D056E057F0508F4816080832F5FE0
:1028D0003F4F085F1F4F2832310589F620919F0432
:1028E00030E040919B0480919C0490E0840F911D06
:1028F00040919D04840F911D40919E04840F911D71
:1029000099272817390771F681E08093AC04C05CE1
:10291000DE4F0FB6F894DEBF0FBECDBFDF91CF9173
:102920001F910F91FF90EF90DF90CF9008957894D2
:1029300084B5826084BD84B5816084BD85B58260C4
:1029400085BD85B5816085BD80916E008160809375
:102950006E001092810080918100826080938100DE
:1029600080918100816080938100809180008160EE
:10297000809380008091B10084608093B100809149
:10298000B00081608093B00080919100826080935C
:1029900091008091910081608093910080919000DE
:1029A0008160809390008091A10082608093A1005B
:1029B0008091A10081608093A1008091A00081603E
:1029C0008093A000809121018260809321018091F9
:1029D0002101816080932101809120018160809399
:1029E000200180917A00846080937A0080917A003F
:1029F000826080937A0080917A00816080937A006F
:102A000080917A00806880937A001092C100E091F2
:102A10000E04F0910F0482E08083E0910A04F091AB
:102A20000B041082E0910C04F0910D048FEC808374
:102A300010921604E0911204F091130486E0808352
:102A4000E0911004F0911104808180618083E09115
:102A50001004F0911104808188608083E09110045B
:102A6000F0911104808180688083E0911004F091DE
:102A7000110480818F7D80838BEA93E00E94FF1197
:102A80008DEA94E00E948A05811104C08DEB93E0E9
:102A90000E94FF1140E050E868ED73E48DEA94E095
:102AA0000E94C6108DEA94E00E94DF1161E087E089
:102AB0000E94DA120E9471070E94460BFBCFEEEFD4
:102AC000F3E01382128288EE93E0A0E0B0E084830A
:102AD0009583A683B78383E792E09183808385EC17
:102AE00090E09587848784EC90E09787868780ECD8
:102AF00090E0918B808B81EC90E0938B828B82ECC9
:102B000090E0958B848B86EC90E0978B868B118E72
:102B1000128E138E148EABECB5E013961C921E929F
:102B2000129715961C921E92149717961C921E923D
:102B3000169785E892E011969C938E93EDEAF4E067
:102B4000138212828FEF848382878387148615868F
:102B5000108A1786128A118A148A138A178A168A8B
:102B6000B18FA08F9AE0928F29E932E031832083E0
:102B70001092CA0592E0938F848FABE9B4E087E3AB
:102B800015968C9315978BE016968C931697EFE617
:102B9000F3E0E4911796EC931797E9E2F3E0E49100
:102BA0001896EC93189740E85EE360E070E01D969D
:102BB0004D935D936D937C93509708958F929F9260
:102BC000AF92BF92CF92DF92EF92FF92CF93DF93BB
:102BD000EC01688179818A819B816115710581058C
:102BE000910521F464E279ED8BE597E02DE133EF77
:102BF00041E050E00E94411649015A019B01AC019D
:102C0000A7EAB1E40E9460166B017C01ACEEB4EF60
:102C1000A50194010E946E16DC01CB018C0D9D1D57
:102C2000AE1DBF1DB7FF03C00197A109B04888833F
:102C30009983AA83BB83BC01CD019F77DF91CF919C
:102C4000FF90EF90DF90CF90BF90AF909F908F90CC
:102C500008950C94DE1589E192E00C94DE156093E2
:102C6000190270931A0280931B0290931C0208951C
:102C7000FB01DC0102C005900D9241505040D8F795
:102C80000895052E97FB1EF400940E94581657FDD8
:102C900007D00E94731607FC03D04EF40C9458160C
:102CA00050954095309521953F4F4F4F5F4F089578
:102CB00090958095709561957F4F8F4F9F4F0895A8
:102CC0000E949516A59F900DB49F900DA49F800D16
:102CD000911D11240895B7FF0C9460160E94601690
:102CE000821B930B0895A1E21A2EAA1BBB1BFD01A8
:102CF0000DC0AA1FBB1FEE1FFF1FA217B307E407DB
:102D0000F50720F0A21BB30BE40BF50B661F771F32
:102D1000881F991F1A9469F7609570958095909512
:102D20009B01AC01BD01CF010895A29FB001B39FEB
:102D3000C001A39F700D811D1124911DB29F700DC4
:102D4000811D1124911D08955058BB27AA270E9468
:102D5000BC160C942F180E94211838F00E942818D5
:102D600020F039F49F3F19F426F40C941E180EF449
:102D7000E095E7FB0C941818E92F0E94401858F3CF
:102D8000BA17620773078407950720F079F4A6F550
:102D90000C9462180EF4E0950B2EBA2FA02D0B01A7
:102DA000B90190010C01CA01A0011124FF27591B90
:102DB00099F0593F50F4503E68F11A16F040A22F96
:102DC000232F342F4427585FF3CF46953795279507
:102DD000A795F0405395C9F77EF41F16BA0B620B06
:102DE000730B840BBAF09150A1F0FF0FBB1F661F4D
:102DF000771F881FC2F70EC0BA0F621F731F841F90
:102E000048F4879577956795B795F7959E3F08F0B5
:102E1000B0CF9395880F08F09927EE0F9795879577
:102E200008950E94F41708F481E008950E942A177B
:102E30000C942F180E94281858F00E94211840F076
:102E400029F45F3F29F00C94181851110C94631861
:102E50000C941E180E94401868F39923B1F355236F
:102E600091F3951B550BBB27AA276217730784079D
:102E700038F09F5F5F4F220F331F441FAA1FA9F333
:102E800035D00E2E3AF0E0E832D091505040E69521
:102E9000001CCAF72BD0FE2F29D0660F771F881F82
:102EA000BB1F261737074807AB07B0E809F0BB0B75
:102EB000802DBF01FF2793585F4F3AF09E3F510589
:102EC00078F00C9418180C9463185F3FE4F3983E64
:102ED000D4F3869577956795B795F7959F5FC9F772
:102EE000880F911D9695879597F90895E1E0660FF3
:102EF000771F881FBB1F621773078407BA0720F06C
:102F0000621B730B840BBA0BEE1F88F7E0950895D4
:102F10000E94481888F09F5798F0B92F9927B75109
:102F2000B0F0E1F0660F771F881F991F1AF0BA956D
:102F3000C9F714C0B13091F00E946218B1E0089551
:102F40000C946218672F782F8827B85F39F0B93F43
:102F5000CCF3869577956795B395D9F73EF4909520
:102F60008095709561957F4F8F4F9F4F0895E8949E
:102F700009C097FB3EF490958095709561957F4FC1
:102F80008F4F9F4F9923A9F0F92F96E9BB2793956F
:102F9000F695879577956795B795F111F8CFFAF47F
:102FA000BB0F11F460FF1BC06F5F7F4F8F4F9F4FB0
:102FB00016C0882311F096E911C0772321F09EE80E
:102FC000872F762F05C0662371F096E8862F70E074
:102FD00060E02AF09A95660F771F881FDAF7880F4E
:102FE0009695879597F90895990F0008550FAA0BA4
:102FF000E0E8FEEF16161706E807F907C0F012160C
:103000001306E407F50798F0621B730B840B950B0E
:1030100039F40A2661F0232B242B252B21F4089563
:103020000A2609F4A140A6958FEF811D811D089500
:1030300097F99F6780E870E060E008959FEF80EC6B
:10304000089500240A94161617061806090608950E
:1030500000240A9412161306140605060895092E74
:103060000394000C11F4882352F0BB0F40F4BF2BE3
:1030700011F460FF04C06F5F7F4F8F4F9F4F089523
:1030800057FD9058440F551F59F05F3F71F0479519
:10309000880F97FB991F61F09F3F79F087950895FE
:1030A000121613061406551FF2CF4695F1DF08C01D
:1030B000161617061806991FF1CF8695710561053A
:1030C00008940895E894BB2766277727CB0197F9E2
:1030D00008950E94F41708F48FEF08950E94811854
:1030E0000C942F180E94211838F00E94281820F004
:1030F000952311F00C9418180C941E1811240C949C
:1031000063180E94401870F3959FC1F3950F50E02B
:10311000551F629FF001729FBB27F00DB11D639F89
:10312000AA27F00DB11DAA1F649F6627B00DA11D2F
:10313000661F829F2227B00DA11D621F739FB00DD5
:10314000A11D621F839FA00D611D221F749F332745
:10315000A00D611D231F849F600D211D822F762FDE
:103160006A2F11249F5750409AF0F1F088234AF0BB
:10317000EE0FFF1FBB1F661F771F881F9150504027
:10318000A9F79E3F510580F00C9418180C94631811
:103190005F3FE4F3983ED4F3869577956795B795AE
:1031A000F795E7959F5FC1F7FE2B880F911D9695C8
:1031B000879597F908950E94F417880B990B089545
:1031C00097FB072E16F4009407D077FD09D00E94D4
:1031D000FC1807FC05D03EF4909581959F4F08950B
:1031E000709561957F4F0895EE0FFF1F881F8BBF6D
:1031F0000790F691E02D1994AA1BBB1B51E107C063
:10320000AA1FBB1FA617B70710F0A61BB70B881F76
:10321000991F5A95A9F780959095BC01CD01089505
:1032200081E090E0F8940C942719FB01DC0102C0C6
:1032300001900D9241505040D8F70895FB01DC01F8
:103240008D91019080190110D9F3990B0895F8948C
:02325000FFCFAE
:1032520061726475696E6F3200450A450A450A4516
:103262000A450A450A450A450A0100000000000015
:103272000043050000803FCDCCCC3D6F12833A95D0
:10328200BFD6337D1D9026B3CE010CCDCCCC3D0AEA
:10329200D7233C17B7D13877CC2B329595E6241F2C
:1032A200B14F0A000020410000C84200401C4620E5
:1032B200BCBE4CCA1B0E5AAEC59D74050004040068
:1032C200000000DD0A460A750A240BA60A840A9841
:1032D2000A000000008B0B870B830BE40B7F0B5162
:1032E200114D114911000000008A05DB0F0B0D3F43
:1032F20010E00BCF0BC70B510C820CB70CA90FBF00
:103302000BBC0BB90BB60BAF0BC20BAC0BA90BA6CC
:103312000BA30BC60F22225C5C6208660C6E0A725B
:103322000D7409006E756C6C0074727565006661CF
:103332006C7365004E614E00652D00496E66696EC4
:103342006974790073656E640061726475696E6F89
:10335200320054656D7065726174757265004875EE
:103362006D6964697479004C6967687400536F759C
:103372006E640053656E64696E6720746F204C6FD3
:10338200526120536572766572203A20007265633D
:103392006569766564203A0057616974696E672EC3
:1033A2002E2E0072656376206661696C6564005436
:1033B200696D656F7574004F4B2072656365697640
:1033C20065642061636B2021204C65742773206340
:1033D20061727279206F6E2E004E6F207265706C72
:1033E200792C206973204C6F526120736572766567
:1033F200722072756E6E696E673F005374617274EB
:10340200204C6F526120436C69656E7400696E696D
:1034120074206661696C656400646174610074693A
:063422006D65000D0A00BB
:00000001FF
