:100000000C9470000C94190E0C94F20D0C94980042
:100010000C9498000C9498000C9498000C94980000
:100020000C9498000C9498000C9498000C949800F0
:100030000C9498000C9498000C9498000C949800E0
:100040000C94A80D0C9498000C94660E0C94400E21
:100050000C9498000C9498000C9498000C949800C0
:100060000C9498000C949800570250026A026102A6
:100070005D0224024802EA017274009274004894FE
:100080000078C40000000000240027002A000000BF
:100090000000250028002B000000000800020100DD
:1000A0000003040700000000000000000000000042
:1000B00023002600290004040404040404040202AA
:1000C00002020202030303030303010204081020D7
:1000D0004080010204081020010204081020C81406
:1000E00011241FBECFEFD8E0DEBFCDBF12E0A0E0ED
:1000F000B1E0E0E4F1E302C005900D92AA3BB10744
:10010000D9F724E0AAEBB2E001C01D92A73BB207E9
:10011000E1F710E0C0E7D0E004C02197FE010E94A3
:100120006618CF36D107C9F70E942D140C949E187B
:100130000C940000CF93DF93DC01ED91FC914281A0
:100140005381DB01C281D38120813181C217D30762
:1001500078F0188222813381241B350BFC01428107
:100160005381240F351F33832283DF91CF9108956C
:100170002C91222371F39E012F5F3F4F3383228303
:100180002D912883DFCF0F931F93CF93DF93CDB7AC
:10019000DEB766970FB6F894DEBF0FBECDBF8C01F9
:1001A000CB011E8AFE0176962AE030E0B9010E945A
:1001B000521890E3980F9293CB010097B9F7BF01C3
:1001C000C8010E949A0066960FB6F894DEBF0FBE73
:1001D000CDBFDF91CF911F910F9108958F929F9284
:1001E000AF92BF92EF92FF920F931F93CF93DF9343
:1001F000CDB7DEB766970FB6F894DEBF0FBECDBFA2
:100200007C011E8A8E010A5E1F4F8AE0882E912C87
:10021000A12CB12CCB01BA01A50194010E94DE15DD
:10022000942F852F605DF80162938F01A901692FDA
:10023000782F411551056105710561F7BF01C701AF
:100240000E949A0066960FB6F894DEBF0FBECDBF2F
:10025000DF91CF911F910F91FF90EF90BF90AF90E2
:100260009F908F900895CF93DF93DC01ED91FC91E7
:100270001197C281D38180819181C817D90760F419
:10028000CE0101969383828368830280F381E02DFF
:10029000108221E030E002C020E030E012968D9123
:1002A0009C911397280F391F13963C932E93129706
:1002B000DF91CF910895FF920F931F93CF93DF9318
:1002C0006115710549F468EC71E0DF91CF911F91E0
:1002D0000F91FF900C949A008B01EC0162E2CE0129
:1002E0000E943301F80161918F01662351F0E9EB1F
:1002F000F1E0F080FF2099F39181961759F0329642
:10030000F8CF62E2CE01DF91CF911F910F91FF9064
:100310000C9433016CE5CE010E9433016F2DDFCFC9
:100320000F931F93CF93DF938C01EB016BE7CE010B
:100330000E943301F8010281138101151105A9F012
:10034000F80162817381CE010E945B016AE3CE01F4
:100350000E943301BE01C80104960E94C201F80147
:10036000008111810115110541F46DE7CE01DF9186
:10037000CF911F910F910C9433016CE2CE010E943A
:100380003301DBCF2F923F924F925F926F927F9219
:100390008F929F92AF92BF92CF92DF92EF92FF9295
:1003A0000F931F93CF93DF93CDB7DEB762970FB64E
:1003B000F894DEBF0FBECDBFDC01ED91FC9131970B
:1003C000E830F10508F0ECC18B017C01EC5CFF4FDB
:1003D0000C946618FC01C280D380E480F580A701EC
:1003E0009601C701B6010E947C16882319F068EDBA
:1003F00071E07EC020E030E0A901C701B6010E9493
:100400007C1687FF08C06DE2C8010E943301F7FA2D
:10041000F094F7F8F09420E030E0A901C701B601AC
:100420000E947C16882309F467C0A7019601C701C2
:10043000B6010E941016A70196010E947C16811138
:100440005BC06FED71E054C0FC01E280F3806BE5AE
:10045000C8010E943301D7011296ED90FC901397CA
:10046000E114F10459F0B801C70102960E94C201DB
:10047000F701E080F180E114F10429F46DE5C80191
:100480000E9433018DC16CE2C8010E943301E8CFA4
:10049000DC0112968D919C9113970E94900180C16E
:1004A000FC0162817381C8010E945B0179C1DC019A
:1004B00012966D917C9113971BC06DE2C8010E944A
:1004C0003301F7014281538164817581C8010E9423
:1004D000EE0066C1FC0182819381A481B581892BE4
:1004E0008A2B8B2B19F462ED71E002C06DEC71E088
:1004F000C8010E949A0054C120E836E948E15BE453
:10050000C701B6010E94DB1787FD42C1A12CB12CA7
:1005100070E2872E912C212C312CF501E95BFE4FE6
:100520002489358946895789C701B6010E94DB179E
:1005300087FD0FC0F501E15DFE4F248935894689AD
:100540005789C701B6010E94E0176B017C01280C96
:10055000391C95948794F4E0AF1AB10888EEA81678
:100560008FEFB806D1F677247A9420E030E0A90125
:10057000C701B6010E94DB17181694F52CEA35EC7A
:1005800047E257E3C701B6010E947C16181644F1F2
:10059000BFEF7B1629F1972DA4E09A025001112498
:1005A000F501E95EFE4F2081318142815381C7010F
:1005B000B6010E947C1687FF0FC0F501E95BFE4F74
:1005C0002081318142815381C701B6010E94E01729
:1005D0006B017C0128183908959487947A94D8CFB8
:1005E000C701B6010E94FA164B015C010E9429174F
:1005F0009B01AC01C701B6010E940F1620E034E256
:1006000044E759E40E94E0172B013C010E94FA16CE
:100610006B017C010E9429179B01AC01C301B2014F
:100620000E940F169B01AC010E9410160E94FA1640
:10063000C60ED71EE81EF91EE0E4CE16E2E4DE0682
:10064000EFE0EE06F104E0F0FFEF8F1A9F0AAF0A29
:10065000BF0A2114310489F08AE088169104A104AC
:10066000B10458F09FEF291A390AC12CD12C760118
:10067000812C912C5401839403C0C12CD12C760180
:1006800024013501A6E0AA8BBA89B98BB150BA8B87
:10069000EAE04E16510461047104A8F0C701B601E6
:1006A0002AE030E040E050E00E94DE1569017A0166
:1006B000C301B2012AE030E040E050E00E94DE15C4
:1006C00029013A01E1CF3AE0432E512C612C712CE3
:1006D000C701B601A30192010E94DE15672B682BAA
:1006E000692BB1F089898A8BB501A401C8010E94E8
:1006F000EE0099899923A1F1188A5E01B0E1AB0E51
:10070000B11C45012AE0422E512C612C712C0BC0EA
:10071000A9891A1634F469017A01F989F150F98B23
:10072000D7CFAA8BE1CFFA89F150FA8BFF3F69F05E
:10073000C701B601A30192010E94DE15605DF501BB
:1007400062935F0169017A01EECFB4018989681B68
:1007500071098EE2DB018E93BD01C8010E949A00EF
:1007600037FE0AC06CED71E0C8010E949A0066274E
:1007700077276219730908C02114310489F065E6EE
:10078000C8010E943301B101C8010E94C30008C022
:1007900080E2882E912C95E0792E212C312CE5CE0B
:1007A00062960FB6F894DEBF0FBECDBFDF91CF913A
:1007B0001F910F91FF90EF90DF90CF90BF90AF907F
:1007C0009F908F907F906F905F904F903F902F9071
:1007D0000895FC0126813781620F731F8481958102
:1007E0008617970738F08281938177836683820F1B
:1007F000931F089580E090E008958091BE028111DA
:100800000BC01092BB021092BA021092BD0210925D
:10081000BC0281E08093BE028AEB92E00895DB0186
:10082000109749F0ED91FC9111970190F081E02D26
:10083000BC01CD01099480E090E00895CF93DF934F
:10084000EC01BC0184E090E00E940F04009741F0AD
:10085000FC01D183C08313821282DF91CF9108956E
:10086000DF91CF910C94FD03EF92FF920F931F93B2
:10087000CF93DF9300D01F92CDB7DEB78C010E94DB
:10088000700CE82E811102C0E12C81C0F801838D2B
:10089000823029F08330C1F7FF24F39401C0F12C9A
:1008A00040E861E0C8010E94980E6AE070E080E0D4
:1008B00090E00E94F01261E0C8010E94290F803888
:1008C00019F760E0F801838D0E947812F801848D99
:1008D0008F3F49F48091C6028430B0F691E0980FC2
:1008E0009093C602848FF801948DE92FF0E0EE0F0B
:1008F000FF1FE953FD4F11830083911103C06FE97E
:100900007DE00AC0913019F466E97DE005C09230BF
:1009100009F0BACF6DE87DE08F2D0E94121240E001
:100920006EE0C8010E94980E40E06FE0C8010E948E
:10093000980EC8010E94560F43E050E068E770E04F
:10094000CE0101960E94A31549816DE1C8010E9464
:10095000980E4A816EE1C8010E94980E4B8166E2B2
:10096000C8010E94980E40E060E2C8010E94980E03
:1009700048E061E2C8010E94980E40E050E069ED55
:1009800073E4C8010E94F10FC8010E94E4118E2D8A
:100990000F900F900F90DF91CF911F910F91FF90CB
:1009A000EF900895DF92EF92FF920F931F93CF93F2
:1009B000DF93EC0162E10E94290F2A813B81243000
:1009C000310521F4982F907A09F068C02A813B8183
:1009D0002430310509F073C086FF71C063E1CE0198
:1009E0000E94290FF82E60E1CE010E94290F482FA6
:1009F0006DE0CE010E94980EDFB6F89460E08A8D1B
:100A00000E942C12888D998DDC01ED91FC91019052
:100A1000F081E02D60E009958E01025E1F4FEF2C02
:100A2000E00EE01671F0888D998DDC01ED91FC915E
:100A30000190F081E02D60E00995F80181938F012C
:100A4000F0CF61E08A8D0E942C12DFBEFD8E4FEF49
:100A500062E1CE010E94980E6AE1CE010E94290F48
:100A600089588E878D8DFE01E35EFE4F843090F0B5
:100A70008E8D8E838F8D8F8388A1888789A18987AA
:100A80008D81811129C09E818C81981729F18E81D9
:100A90008F3F11F18081882331F02FC08F85988995
:100AA0000196988B8F874FEF62E1CE01DF91CF9156
:100AB0001F910F91FF90EF90DF900C94980E2A8178
:100AC0003B812330310581F483FF0EC08B899C89E3
:100AD00001969C8B8B8B11C089899A8901969A8B80
:100AE000898B81E08083D6CF2A813B8125303105F7
:100AF000D1F682FFD8CF81708D8BCE010E94560F28
:100B0000D2CFFC01A081B1818C918D3051F024F4C1
:100B100089508230B8F505C0803219F08F3219F053
:100B2000089511962CC011968C9111978A3219F064
:100B30008F32D1F008951196B183A083A081B18145
:100B4000CD0101969183808311968C911197882312
:100B5000C9F08A3299F712968C9112978F3271F7F9
:100B600013960DC08A3071F2A081B181CD0101963A
:100B70009183808311968C918111F4CF03C0B1834E
:100B8000A083C0CF08950F931F93CF93DF931F923D
:100B9000CDB7DEB78C0169830E948105D801ED9144
:100BA000FC91119780816981861305C03196ED9380
:100BB000FC9381E001C080E00F90DF91CF911F9105
:100BC0000F910895CF93DF93EC01688179818AE0DA
:100BD00090E00E940F04009729F0FC01118210821E
:100BE00015821482EA81FB81309751F02081318196
:100BF0002115310511F0F901F9CF9183808302C0ED
:100C00009B838A83DF91CF9108950F931F93CF9396
:100C1000DF938B01FC01C281D381209759F06A8157
:100C20007B81C8010E948E18892B21F00990D88100
:100C3000C02DF3CFCE01DF91CF911F910F91089579
:100C40000F931F93CF93DF930E940506EC01892B2E
:100C5000C1F00C811D810130110559F46E817F8135
:100C60006115710531F088EC91E00E948E18892B96
:100C700041F0015011090230110518F48E819F8155
:100C800002C080E090E0DF91CF911F910F91089515
:100C9000CF92DF92EF92FF920F931F93CF93DF9348
:100CA000DC012D913C912115310551F4DF91CF915B
:100CB0001F910F91FF90EF90DF90CF900C94FD0368
:100CC0007B01EC01C9010E941E048C01B701CE0119
:100CD0000E940506FC01892B41F4CE010E94E20529
:100CE000FC01892B89F0F382E282D8018D919C91DD
:100CF000892B19F480E090E003C0680187E090E060
:100D000095838483C682D782C801DF91CF911F91DA
:100D10000F91FF90EF90DF90CF9008950F931F9366
:100D2000CF93DF93EC010C811D8102960E94810517
:100D3000EA81FB819081973219F1923209F180EDBD
:100D4000890F8A3058F0892F8F7D81548A3130F095
:100D50009B3221F083ED890F8230F0F52A813B81AF
:100D60002F5F3F4F3B832A83EC81FD819F012F5FE3
:100D70003F4F3D832C839083EA81FB819081DFCFBD
:100D80003196FB83EA83EA81FB812081222321F1D2
:100D9000AF014F5F5F4F5B834A832917E9F02C3522
:100DA00091F42181ADEBB1E08C91882339F082136D
:100DB00003C011962C9102C01296F6CF222361F047
:100DC0003296FB83EA83EC81FD81AF014F5F5F4F79
:100DD0005D834C832083D7CFEC81FD81CF010196C9
:100DE0009D838C831082C801DF91CF911F910F9159
:100DF0000895CF93DF93EC016881798188E090E0DA
:100E00000E940F04009729F0FC01118210821382C6
:100E10001282EA81FB81309751F0208131812115C6
:100E2000310511F0F901F9CF9183808302C09B83D2
:100E30008A83DF91CF9108959F92AF92BF92CF9214
:100E4000DF92EF92FF920F931F93CF93DF9300D027
:100E500000D000D0CDB7DEB7D82EC92E082F192F5D
:100E6000F801819191918F010E941E047C016BE732
:100E7000C8010E94C305882309F443C06DE7C80177
:100E80000E94C305811140C086E0982E8D2D9C2DB7
:100E90000E948E065C01892BA1F16AE3C8010E94C1
:100EA000C305882371F11A821982BE016F5F7F4FDB
:100EB0008D2D9C2D0E940A11882319F1B501C701BF
:100EC0000E940506009741F4C7010E94E2050097C1
:100ED000C1F0FC01B382A282FE013196DC011496BE
:100EE000892D01900D928A95E1F76DE7C8010E9466
:100EF000C305811109C06CE2C8010E94C3058111BC
:100F0000C5CF0E94FD0301C0C70126960FB6F89415
:100F1000DEBF0FBECDBFDF91CF911F910F91FF902C
:100F2000EF90DF90CF90BF90AF909F900895CF93B8
:100F3000DF93EC01BC0184E090E00E940F04FC010F
:100F4000009729F0D183C0831382128211C080914F
:100F5000DA0281110BC01092D7021092D6021092C1
:100F6000D9021092D80281E08093DA0286ED92E0F5
:100F7000DF91CF9108954F925F926F927F928F92FF
:100F80009F92AF92BF92CF92DF92EF92FF920F9318
:100F90001F93CF93DF93CDB7DEB7C75DD3400FB6B6
:100FA000F894DEBF0FBECDBF0E9436138823A1F197
:100FB000809185038B3041F178F18551823060F565
:100FC00060917F0370E080E090E00E94291720E0AC
:100FD00030E040E853E40E94E0174B015C0180914F
:100FE0008003682F70E080E090E00E942B179B0147
:100FF000AC01C501B4010E9410162DEC3CEC4CEC88
:101000005DE30E94E0170CC060917F0370E080E018
:1010100090E00E94291704C060E070E080EC9FE738
:10102000CF52DC4F688379838A839B83C15DD34031
:101030000E9436138823D1F1809185038B3029F0EB
:10104000A8F18551823048F031C06091810370E091
:1010500080E090E00E9429172DC010918103612F3C
:101060006F7770E080E090E00E942B1720E030E086
:1010700040E853E40E94E0174B015C018091820339
:10108000682F70E080E090E00E942B179B01AC017C
:10109000C501B4010E9410162DEC3CEC4CEC5DE354
:1010A0000E94E01717FF06C0905804C060E070E08F
:1010B00080EC9FE7C353DC4F688379838A839B83EB
:1010C000CD5CD3408EE00E94B412BC01990F880B16
:1010D000990B0E942B172B013C0183E10E94B41253
:1010E000BC01990F880B990B0E942B172AE038E25C
:1010F00040EA5BE30E94E01720E030E04AE754E476
:101100000E94E0174B015C019B01AC0160E070E4C0
:101110008CE995E40E940F169B01AC01C501B40156
:101120000E94811620E030E44CE156E40E94E01772
:101130009B01AC0160E074E284E799E40E940F1621
:101140002DEC3CEC49EF54E40E948116C753DC4F70
:10115000688379838A839B83C95CD3400E94CB12C6
:10116000CB52DC4F79836883C55DD3408BEFC95286
:10117000DC4F8883C75DD34087EC92E08C0F9D1FC6
:101180000896C753DD4F99838883C95CD24088ECA9
:1011900090E0C553DD4F99838883CB5CD240C35325
:1011A000DD4F19821882CD5CD24085E191E0C953B0
:1011B000DD4F99838883C75CD240CE0189539D4F10
:1011C0000E9497076C01DC018D919C91009719F4A6
:1011D0000E94FD0319C00E941E048C01C6010E94DA
:1011E000F906FC01892B79F0D8018D919C91892B0E
:1011F00019F480E090E003C0780187E090E09383E9
:101200008283E482F582C80168EE71E00E9448069C
:101210004C016DEE71E00E9448068C0166EF71E0B2
:101220000E9448066C0162E072E0C8010E94480614
:101230007C016BE072E0C8010E9448065C0161E13C
:1012400072E0C8010E9448068C01BE016B527C4FBF
:10125000C6010E94D010C353DC4F688179818A8116
:101260009B81CD5CD3409B01AC010E944D1888232B
:1012700021F0C6010E94AE1006C0BE0163537C4F30
:10128000C6010E948210BE016B527C4FC7010E94B2
:10129000D010CF52DC4F688179818A819B81C15DFA
:1012A000D3409B01AC010E944D18882321F0C70157
:1012B0000E94AE1006C0BE016F527C4FC7010E9453
:1012C0008210BE016B527C4FC5010E94D010BE013E
:1012D00067537C4FC5010E948210BE016B527C4F48
:1012E000C8010E94D01020E030E040EA50E4C30181
:1012F000B2010E94E01720E030E240E854E40E948E
:10130000811669837A838B839C83FE0131967F01EA
:10131000BF01C8010E9482106E01F9E0CF1AFEEFF2
:10132000DF0AC6010896D60113969C938E931297F6
:1013300088EC90E015969C938E93149717961C92C8
:101340001E92169785E191E08D939C938E0109562C
:101350001C4F5E01BCEFAB0EB11CCE018A509E4FFC
:10136000F80191838083B382A282D5011C921A83F3
:1013700009831C821B82B701C4010E94900187E18E
:1013800092E00E94F211C5010E9404124BEFB501D8
:1013900081E993E00E946A0F81E993E00E94040CC6
:1013A00064E971E181E993E00E94BF0C882309F4AC
:1013B000B6C0AE0149525C4FB70181E993E00E948B
:1013C000480D882309F4A8C081E392E00E9404122A
:1013D000C7010E940412F801D182C082F382E28226
:1013E000F582E4828AE08683C8010E941C077C01A2
:1013F0006CE372E00E942006BC01C8010E949718AD
:10140000D7018D919C91892B19F48FE392E089C0CB
:1014100060E071E0C8010E948E18892B09F079C044
:1014200064E672E0C7010E94200668E472E00E9450
:101430008E188C01892B09F069C06CE472E0C70139
:101440000E940506FC01892B09F450C08481958116
:10145000833091053CF4813091057CF4892B09F4AB
:1014600045C039C0853091052CF00597A1F56681FE
:1014700077812CC00681178139C00680F781E02D65
:101480003097A1F18081843769F18B3229F08D3258
:1014900021F4319681E002C0319680E060E070E096
:1014A0002AE0019190ED900F9A3070F4269FA001F0
:1014B000279F500D1124002E000C110B0053110911
:1014C000BA01600F711FEDCF882379F00027112733
:1014D000061B170B0BC066817781808591850E9462
:1014E000F31603C001E010E001C08B0101151105E6
:1014F00029F00130110539F461E001C060E087E0B6
:101500000E942C1210C082E592E00BC08EE592E0A2
:1015100008C08DE692E005C088E792E002C084E84A
:1015200092E00E94041268E873E180E090E00E947B
:10153000F012C952DC4F0FB6F894DEBF0FBECDBF1C
:10154000DF91CF911F910F91FF90EF90DF90CF909F
:10155000BF90AF909F908F907F906F905F904F90D3
:1015600008950895CF92DF92EF92FF920F931F9309
:10157000CF93DF936C017A018B01C0E0D0E0CE15F0
:10158000DF0589F0D8016D918D01D601ED91FC91B7
:101590000190F081E02DC6010995892B11F47E019F
:1015A00002C02196ECCFC701DF91CF911F910F911F
:1015B000FF90EF90DF90CF900895089580E090E045
:1015C0000895FC01538D448D252F30E0842F90E049
:1015D000821B930B541710F0CF960895019708952E
:1015E000FC01918D828D981761F0828DDF01A80F2B
:1015F000B11D5D968C91928D9F5F9F73928F90E04D
:1016000008958FEF9FEF0895FC01918D828D9817BB
:1016100031F0828DE80FF11D858D90E008958FEFF8
:101620009FEF0895FC01918D228D892F90E0805CC1
:101630009F4F821B91098F739927089582EE92E044
:101640000E94120B21E0892B09F420E0822F0895DB
:10165000FC01848DDF01A80FB11DA35ABF4F2C914F
:10166000848D90E001968F739927848FA689B7891E
:101670002C93A089B1898C9180648C93938D848DF7
:10168000981306C00288F389E02D80818F7D8083C6
:101690000895EF92FF920F931F93CF93DF93EC0186
:1016A00081E0888F9B8D8C8D981305C0E889F9891E
:1016B000808185FD24C0F62E0B8D10E00F5F1F4F3B
:1016C0000F731127E02E8C8DE8120CC00FB607FCAB
:1016D000FACFE889F989808185FFF5CFCE010E9494
:1016E000280BF1CF8B8DFE01E80FF11DE35AFF4F60
:1016F000F0820B8FEA89FB898081806207C0EE89C6
:10170000FF896083E889F98980818064808381E032
:1017100090E0DF91CF911F910F91FF90EF9008958E
:10172000CF93DF93EC01888D8823C9F0EA89FB8988
:10173000808185FD05C0A889B9898C9186FD0FC07F
:101740000FB607FCF5CF808185FFF2CFA889B98954
:101750008C9185FFEDCFCE010E94280BE7CFDF9162
:10176000CF91089580E090E0892B29F00E941E0B14
:1017700081110C94000008958CB58F7B8CBD089569
:101780008CB58F778CBD08958CB580688CBD08951D
:101790006EBD00000DB407FEFDCF8EB508959CB55B
:1017A000282F23709C7F922B9CBD2DB582FB9927FF
:1017B00090F9822F8E7F892B8DBD089580E008954A
:1017C000FC0181850895FC0180850895FC018781D5
:1017D0000895FC0186810895FC0140959585492373
:1017E000642B65870895FC0164870895FC01638775
:1017F0000895FC0162870895FC0164830895FC014B
:101800006583089580E00895FC01228133812330AF
:101810003105D1F381E00895CF93DF93EC01E881A6
:10182000F9810280F381E02DCE0109958823B9F377
:10183000DF91CF91089581E008958BEF08950E9484
:101840008018CF93FC01268137812115310549F09D
:101850002130310541F02230310539F02330310596
:1018600031F020E005C024E003C028E001C02CE0F6
:101870009CB5937F922B9CBD84819581019761F5E6
:101880008CB580628CBD82819381019784309105F3
:1018900028F4FC01E15AFE4FC08101C0C1E08C2F49
:1018A0000E94CF0B61E08AE00E942C1261E08AE086
:1018B0000E9478128CB580618CBD8CB580648CBD23
:1018C00061E08DE00E94781261E08BE00E94781266
:1018D0008C2FCF910C94CF0B9CB59F7D9CBDD3CF0B
:1018E000CF93DF93EC01888D998DDC01ED91FC9114
:1018F0000680F781E02D099561E08A8D0E947812BB
:1019000061E08A8D0E942C1264E670E080E090E035
:101910000E94F01281E0DF91CF9108958F929F9203
:10192000AF92BF92CF92DF92EF92FF92CF93DF936D
:10193000EC016B010E942A134B015C01E12CF12C9C
:101940000E942A13DC01CB0188199909AA09BB0955
:101950008C159D05AE05BF0530F48A819B810397E8
:1019600079F381E001C080E0DF91CF91FF90EF90AB
:10197000DF90CF90BF90AF909F908F9008958F92FF
:101980009F92AF92BF92CF92DF92EF92FF92CF934E
:10199000DF93EC016B010E942A134B015C01E12CE7
:1019A000F12C0E942A13DC01CB0188199909AA099C
:1019B000BB098C159D05AE05BF0550F4E881F98182
:1019C0000280F381E02DCE010995882351F301C0F7
:1019D00080E0DF91CF91FF90EF90DF90CF90BF90AC
:1019E000AF909F908F9008958F929F92AF92BF92E9
:1019F000CF92DF92EF92FF92CF93DF93FC01268983
:101A00003789232B11F481E038C0EC010E942A139E
:101A10006B017C0189E0882E912CA12CB12CE881EE
:101A2000F9810488F589E02DCE010995882359F3C1
:101A30000E942A13AB01BC014C195D096E097F0994
:101A40008E899F89A0E0B0E084179507A607B707A5
:101A500098F00E949515A50194010E94AC159B0178
:101A6000AC012F5F3F4F4F4F5F4FA4E6B0E00E94A5
:101A7000CB150E94F012D3CF80E0DF91CF91FF9081
:101A8000EF90DF90CF90BF90AF909F908F90089590
:101A9000CF92DF92EF92FF920F931F93CF93DF933A
:101AA000EC017B018A01E881F9810280F381E02D5C
:101AB0000995D82E882339F1E114F104E1F00115DC
:101AC0001105C9F0CFB6F8942D8D30E023503109BF
:101AD000F801808190E0821793071CF09D8D94504F
:101AE0009083F801408150E0BE016E5D7F4FC701D9
:101AF0000E948518CFBE8FB7F894FE01E35EFE4FBB
:101B000010821D8E8FBF8D2DDF91CF911F910F9170
:101B1000FF90EF90DF90CF9008958091CB0290914D
:101B2000CC02009711F00C94D20408958091C90260
:101B30009091CA02009711F00C94D20408958091FC
:101B4000C7029091C802009711F00C94D204089536
:101B50001F920F920FB60F9211242F933F938F93E2
:101B60009F93AF93BF938091CE029091CF02A091AB
:101B7000D002B091D1023091CD0223E0230F2D3756
:101B800020F40196A11DB11D05C026E8230F029681
:101B9000A11DB11D2093CD028093CE029093CF0260
:101BA000A093D002B093D1028091D2029091D3023F
:101BB000A091D402B091D5020196A11DB11D8093D0
:101BC000D2029093D302A093D402B093D502BF91D6
:101BD000AF919F918F913F912F910F900FBE0F90DA
:101BE0001F9018951F920F920FB60F9211242F93EA
:101BF0003F934F935F936F937F938F939F93AF9395
:101C0000BF93EF93FF93E0910B01F0910C010995C5
:101C1000FF91EF91BF91AF919F918F917F916F91C4
:101C20005F914F913F912F910F900FBE0F901F909A
:101C300018951F920F920FB60F9211242F933F9376
:101C40004F935F936F937F938F939F93AF93BF93C4
:101C5000EF93FF93E0910901F0910A010995FF913B
:101C6000EF91BF91AF919F918F917F916F915F9114
:101C70004F913F912F910F900FBE0F901F9018958D
:101C80001F920F920FB60F9211242F933F934F93F1
:101C90005F936F937F938F939F93AF93BF93EF93D4
:101CA000FF9382EE92E00E94280BFF91EF91BF918B
:101CB000AF919F918F917F916F915F914F913F91E4
:101CC0002F910F900FBE0F901F9018951F920F929B
:101CD0000FB60F9211242F938F939F93EF93FF933F
:101CE000E091F202F091F3028081E091F802F0912C
:101CF000F90282FD12C090818091FB028F5F8F7389
:101D00002091FC02821751F0E091FB02F0E0EE51CD
:101D1000FD4F958F8093FB0201C08081FF91EF9171
:101D20009F918F912F910F900FBE0F901F9018953C
:101D3000EF92FF920F931F93CF93DF931F92CDB734
:101D4000DEB77C01162F0FB7F89460E0DC015A96DD
:101D50008C9149830E942C12F701808D918DDC01BA
:101D6000ED91FC91612F60680190F081E02D099563
:101D7000182FF701808D918DDC01ED91FC91019080
:101D8000F081E02D4981642F099561E0F701828D92
:101D90000E942C120FBF812F0F90DF91CF911F91C6
:101DA0000F91FF90EF900895CF93DF93EC018A811C
:101DB0009B81059771F047E061E0CE010E94980E8B
:101DC00040E860E4CE010E94980E85E090E09B839D
:101DD0008A838A819B810597E1F38D89DF91CF9179
:101DE0000895CF93DF93FC012281338121303105A7
:101DF00049F0EC0140E061E00E94980E81E090E043
:101E00009B838A8381E0DF91CF910895CF93DF9305
:101E1000FC012281338123303105B9F0EC0182814C
:101E20009381049771F045E061E0CF010E94980E24
:101E300040E060E4CE010E94980E84E090E09B8335
:101E40008A83C35EDE4F888101C080E0DF91CF913D
:101E500008950F931F93CF93DF93EC01162F0FB7C5
:101E6000F89460E08A8D0E942C12888D998DDC0197
:101E7000ED91FC91612F6F770190F081E02D099534
:101E8000888D998DDC01ED91FC910190F081E02D20
:101E900060E00995182F61E08A8D0E942C120FBF17
:101EA000812FDF91CF911F910F910895CF93DF93F1
:101EB000FC01228133812230310549F0EC0141E0FF
:101EC00061E00E94980E82E090E09B838A83DF911C
:101ED000CF910895BF92CF92DF92EF92FF920F932E
:101EE0001F93CF93DF934C3F10F0E12C6FC0142F62
:101EF000072FF62EEC01E881F9810484F585E02DA9
:101F00000995CE010E94560FE881F9810288F38974
:101F1000E02DCE010995E82E882339F340E06DE0ED
:101F2000CE010E94980E4A8560E0CE010E94980E74
:101F30004B8560E0CE010E94980E4C8560E0CE019A
:101F40000E94980E4D8560E0CE010E94980EBFB6AB
:101F5000F89460E08A8D0E942C12888D998DDC01A6
:101F6000ED91FC910190F081E02D60E80995CF2C76
:101F7000D02E012F015068F0888D998DF601619166
:101F80006F01DC01ED91FC910190F081E02D09954C
:101F9000F1CF61E08A8D0E942C12BFBE44E0410F58
:101FA00062E2CE010E94980E8A819B81039771F0B4
:101FB00043E061E0CE010E94980E40E460E4CE016F
:101FC0000E94980E83E090E09B838A838E2DDF91A0
:101FD000CF911F910F91FF90EF90DF90CF90BF9026
:101FE0000895CF92DF92EF92FF92CF93DF93EC01AF
:101FF000CB01BA0120E034E244E759E40E94E01743
:1020000020E034E244E752E40E9481160E94FA166E
:102010006B017C01A7016627772766E0CE010E944D
:10202000980E77276F2D5E2D4D2D67E0CE010E9413
:10203000980E4C2D68E0CE010E94980E81E0DF9151
:10204000CF91FF90EF90DF90CF9008958F929F9265
:10205000AF92BF92CF92DF92EF92FF92CF93DF9336
:10206000A0918603882311F03A2F01C030E08091BF
:10207000870390E0880F991F84559F4FC0908C0371
:10208000D0908D03E0908E03F0908F0340E050E0FD
:10209000BA01FC01C591D49128812A2323130FC0D2
:1020A0004A015B012FEF821A920AA20AB20A4C156A
:1020B0005D056E057F0538F4B501A401EACF342F24
:1020C000252FCB0104C030E020E080E090E0632FBA
:1020D000722FDF91CF91FF90EF90DF90CF90BF9064
:1020E000AF909F908F900895FC0173836283089551
:1020F000FC01778366830895FC01758364830895EA
:10210000089508950F931F93CF93DF93EC018B01F4
:102110006CEA72E00E940506FC01892B51F4CE01A5
:102120000E94E205FC01892B99F08CEA92E09383EE
:102130008283E80188819981AA81BB8128E030E00F
:102140003583248386839783A087B18781E001C08C
:1021500080E0DF91CF911F910F910895CF93DF938E
:10216000EC016CEA72E00E940506FC01892B51F437
:10217000CE010E94E205FC01892B71F08CEA92E00D
:102180009383828382E090E09583848388ED91E05D
:102190009783868381E001C080E0DF91CF9108952D
:1021A0000F931F93CF93DF93EC018B0161EB72E0F0
:1021B0000E940506FC01892B51F4CE010E94E20524
:1021C000FC01892B09F181EB92E093838283D80192
:1021D0004D915C9157FD07C0052E000C660B770BE7
:1021E00084E090E009C0519541955109052E000CFD
:1021F000660B770B85E090E0958384834683578355
:102200006087718781E001C080E0DF91CF911F91ED
:102210000F9108959F92AF92BF92CF92DF92EF926B
:10222000FF920F931F93CF93DF93CDB7DEB727971E
:102230000FB6F894DEBF0FBECDBFFC019681992387
:1022400009F4AEC07B018F01915096836F0182E04B
:10225000C80ED11CC6010E948105D8011296ED91CD
:10226000FC91139780818B3521F08B3709F45EC088
:1022700071C0F801808191810E9497075C016BE534
:10228000C6010E94C305882361F16DE5C6010E9465
:10229000C305811136C086E0982E1A821982BE01CC
:1022A0006F5F7F4FC8010E940A118823D1F0C501DA
:1022B0000E94F9060097A9F0FE013196DC01129602
:1022C000892D01900D928A95E1F76DE5C6010E9476
:1022D000C305811116C06CE2C6010E94C3058111BD
:1022E000DCCF8091DA0281110EC01092D7021092D9
:1022F000D6021092D9021092D80281E08093DA02BD
:1023000002C0F50102C0E6EDF2E080819181892BE7
:1023100011F420E040C086E090E0D70111969C9334
:102320008E931396FC93EE93129712C0C8010E94ED
:102330001C07FC0120813181232B59F327E030E079
:10234000D70111963C932E9313969C938E931297DC
:1023500021E021C021E0873219F0823209F020E02B
:10236000C8012F830E948E062F81009791F22223AD
:1023700041F042E050E0F701518340839383828330
:102380000AC021E030E0D70111963C932E931396BA
:102390009C938E931297F80186818F5F868301C08C
:1023A00020E0822F27960FB6F894DEBF0FBECDBF78
:1023B000DF91CF911F910F91FF90EF90DF90CF9021
:1023C000BF90AF909F900895CF93DF93EC0144E0CE
:1023D0006DE40E94980E48E869E0CE01DF91CF914C
:1023E0000C94980E009769F0FC0101900020E9F729
:1023F0003197AF01481B590BBC0182EE92E00C945F
:10240000B20A80E090E00895CF93DF930E94F2112A
:10241000EC0186EB92E00E94F2118C0F9D1FDF9180
:10242000CF9108958230B8F4E82FF0E0EE0FFF1F4F
:10243000E75FFE4F71836083813039F080916900DE
:10244000836080936900E89A0895809169008C60A8
:1024500080936900E99A089590E0FC01E856FF4FE7
:102460003491FC01E653FF4F2491FC01EA54FF4FE5
:10247000E491EE2309F43BC0332339F1333091F07A
:1024800038F43130A9F0323001F584B58F7D12C0B7
:10249000373091F03830A1F03430B9F480918000B9
:1024A0008F7D03C0809180008F77809380000DC066
:1024B00084B58F7784BD09C08091B0008F7703C049
:1024C0008091B0008F7D8093B000F0E0EE0FFF1F91
:1024D000E257FF4FA591B4918FB7F894EC91611139
:1024E00003C020952E2301C02E2B2C938FBF08955F
:1024F000CF93DF9390E0FC01E653FF4F2491FC0162
:10250000EA54FF4F8491882361F190E0880F991F6E
:10251000FC01EC57FF4FC591D491FC01E257FF4FEE
:10252000A591B491611109C09FB7F8948881209555
:1025300082238883EC912E230BC0623061F49FB715
:10254000F8943881822F809583238883EC912E2BF9
:102550002C939FBF06C08FB7F894E8812E2B288359
:102560008FBFDF91CF9108958E3008F08E50877025
:10257000806480937C0080917A00806480937A00EC
:1025800080917A0086FDFCCF8091780020917900BF
:1025900090E0922B08953FB7F8948091D2029091E9
:1025A000D302A091D402B091D50226B5A89B05C054
:1025B0002F3F19F00196A11DB11D3FBFBA2FA92FC2
:1025C000982F8827820F911DA11DB11DBC01CD013F
:1025D00042E0660F771F881F991F4A95D1F708952B
:1025E0008F929F92AF92BF92CF92DF92EF92FF9223
:1025F0006B017C010E94CB124B015C01C114D10420
:10260000E104F104F1F00E94CB12DC01CB01881946
:102610009909AA09BB09883E9340A105B10570F349
:1026200021E0C21AD108E108F10888EE880E83E0A3
:10263000981EA11CB11CC114D104E104F10419F7C6
:10264000DDCFFF90EF90DF90CF90BF90AF909F9045
:102650008F9008952FB7F8946091CE027091CF02B9
:102660008091D0029091D1022FBF0895CF92DF9236
:10267000EF92FF920F931F93CF93DF93CDB7DEB707
:10268000C054D1400FB6F894DEBF0FBECDBF0E943C
:102690002A13009188031091890320918A033091B5
:1026A0008B036B017C01C01AD10AE20AF30A40EDE8
:1026B000C41647E0D406E104F10418F480919003B5
:1026C000BCC0609388037093890380938A039093BE
:1026D0008B03109283031092820310928103109255
:1026E000800310927F0361E0809184030E942C128A
:1026F0006AEF70E080E090E00E94F01261E080916B
:1027000084030E94781260E0809184030E942C125E
:1027100064E170E080E090E00E94F012F89461E0E3
:10272000809184030E942C128BE990E00197F1F7CD
:1027300062E0809184030E94781283E290E0019726
:10274000F1F780E00E942610672B682B692B21F49B
:102750001092900378943EC081E00E942610672B6F
:10276000682B692BA9F38E010F5F1F4F6E018FEB52
:10277000C81A8EEFD80A780180E00E942610F7016F
:10278000608371838283938381E00E942610F70126
:102790006483758386839783F8E0EF0EF11CEC1455
:1027A000FD0451F7789420E030E0F8014081518138
:1027B00062817381C480D580E680F7804115510520
:1027C0006105710529F0C114D104E104F10421F47B
:1027D0001092900380E031C0F90183E0F595E79510
:1027E0008A95E1F7E158FC4F8081880F4C155D0513
:1027F0006E057F0508F4816080832F5F3F4F085F7F
:102800001F4F2832310589F62091830330E0409133
:102810007F038091800390E0840F911D409181039C
:10282000840F911D40918203840F911D99272817D1
:10283000390771F681E080939003C05CDE4F0FB6DC
:10284000F894DEBF0FBECDBFDF91CF911F910F91E6
:10285000FF90EF90DF90CF900895789484B58260D8
:1028600084BD84B5816084BD85B5826085BD85B534
:10287000816085BD80916E00816080936E001092B2
:10288000810080918100826080938100809181002D
:1028900081608093810080918000816080938000BE
:1028A0008091B10084608093B1008091B00081601C
:1028B0008093B00080917A00846080937A00809148
:1028C0007A00826080937A0080917A0081608093A0
:1028D0007A0080917A00806880937A001092C1001B
:1028E000E091F202F091F30282E08083E091EE0247
:1028F000F091EF021082E091F002F091F1028FEC82
:1029000080831092FA02E091F602F091F70286E0DD
:102910008083E091F402F091F502808180618083F0
:10292000E091F402F091F502808188608083E0916B
:10293000F402F091F502808180688083E091F402D6
:10294000F091F50280818F7D80838EE892E00E9475
:10295000041281E993E00E943404811104C080EAEA
:1029600092E00E94041240E050E868ED73E481E9CF
:1029700093E00E94F10F81E993E00E94E41161E08D
:1029800087E00E9478120E94BB070E94B20BFBCF27
:10299000E2EEF2E01382128288EE93E0A0E0B0E073
:1029A00084839583A683B78387E691E091838083B0
:1029B00085EC90E09587848784EC90E09787868704
:1029C00080EC90E0918B808B81EC90E0938B828BFC
:1029D00082EC90E0958B848B86EC90E0978B868BD5
:1029E000118E128E138E148EAFEAB4E013961C92E1
:1029F0001E92129715961C921E92149717961C926F
:102A00001E92169789E791E011969C938E93E1E9C7
:102A1000F3E0138212828FEF848382878387148688
:102A20001586108A1786128A118A148A138A178AC1
:102A3000168AB18FA08F9AE0928F2DE831E0318312
:102A400020831092AE0492E0938F848FAFE7B3E0BF
:102A50008FE015968C9315978BE016968C931697AE
:102A6000E9EDF0E0E4911796EC931797E5ECF0E0D0
:102A7000E4911896EC93189740E85EE360E070E00C
:102A80001D964D935D936D937C93509708958F920F
:102A90009F92AF92BF92CF92DF92EF92FF92CF932D
:102AA000DF93EC01688179818A819B8161157105D1
:102AB0008105910521F464E279ED8BE597E02DE144
:102AC00033EF41E050E00E94AC1549015A019B01EF
:102AD000AC01A7EAB1E40E94CB156B017C01ACEE1E
:102AE000B4EFA50194010E94D915DC01CB018C0D36
:102AF0009D1DAE1DBF1DB7FF03C00197A109B048C2
:102B000088839983AA83BB83BC01CD019F77DF9122
:102B1000CF91FF90EF90DF90CF90BF90AF909F90BC
:102B20008F9008950E94471508958DE091E00E94CE
:102B30004715089560930D0170930E0180930F0166
:102B4000909310010895FB01DC0102C005900D92E5
:102B500041505040D8F70895052E97FB1EF400947D
:102B60000E94C31557FD07D00E94DE1507FC03D055
:102B70004EF40C94C31550954095309521953F4FD8
:102B80004F4F5F4F089590958095709561957F4F59
:102B90008F4F9F4F08950E940016A59F900DB49FE0
:102BA000900DA49F800D911D11240895B7FF0C94E2
:102BB000CB150E94CB15821B930B0895A1E21A2E10
:102BC000AA1BBB1BFD010DC0AA1FBB1FEE1FFF1FD1
:102BD000A217B307E407F50720F0A21BB30BE40B21
:102BE000F50B661F771F881F991F1A9469F7609568
:102BF0007095809590959B01AC01BD01CF01089522
:102C0000A29FB001B39FC001A39F700D811D11242D
:102C1000911DB29F700D811D1124911D0895505872
:102C2000BB27AA270E9427160C94A1170E9493176E
:102C300038F00E949A1720F039F49F3F19F426F4D7
:102C40000C9490170EF4E095E7FB0C948A17E92F8B
:102C50000E94B21758F3BA176207730784079507E3
:102C600020F079F4A6F50C94D4170EF4E0950B2E11
:102C7000BA2FA02D0B01B90190010C01CA01A001CE
:102C80001124FF27591B99F0593F50F4503E68F129
:102C90001A16F040A22F232F342F4427585FF3CF6A
:102CA000469537952795A795F0405395C9F77EF43B
:102CB0001F16BA0B620B730B840BBAF09150A1F084
:102CC000FF0FBB1F661F771F881FC2F70EC0BA0F0A
:102CD000621F731F841F48F4879577956795B79592
:102CE000F7959E3F08F0B0CF9395880F08F099278D
:102CF000EE0F9795879508950E94661708F481E076
:102D000008950E9495160C94A1170E949A1758F0E6
:102D10000E94931740F029F45F3F29F00C948A1722
:102D200051110C94D5170C9490170E94B21768F3A8
:102D30009923B1F3552391F3951B550BBB27AA2774
:102D400062177307840738F09F5F5F4F220F331FAE
:102D5000441FAA1FA9F335D00E2E3AF0E0E832D076
:102D600091505040E695001CCAF72BD0FE2F29D079
:102D7000660F771F881FBB1F261737074807AB074B
:102D8000B0E809F0BB0B802DBF01FF2793585F4FC0
:102D90003AF09E3F510578F00C948A170C94D517A1
:102DA0005F3FE4F3983ED4F3869577956795B795A2
:102DB000F7959F5FC9F7880F911D9695879597F9AD
:102DC0000895E1E0660F771F881FBB1F6217730726
:102DD0008407BA0720F0621B730B840BBA0BEE1F3B
:102DE00088F7E09508950E94FA166894B1110C9442
:102DF000D51708950E94BA1788F09F5798F0B92FF9
:102E00009927B751B0F0E1F0660F771F881F991F1F
:102E10001AF0BA95C9F714C0B13091F00E94D417D6
:102E2000B1E008950C94D417672F782F8827B85FE6
:102E300039F0B93FCCF3869577956795B395D9F777
:102E40003EF490958095709561957F4F8F4F9F4F81
:102E50000895E89409C097FB3EF49095809570958D
:102E600061957F4F8F4F9F4F9923A9F0F92F96E9D6
:102E7000BB279395F695879577956795B795F1114B
:102E8000F8CFFAF4BB0F11F460FF1BC06F5F7F4FE8
:102E90008F4F9F4F16C0882311F096E911C07723FA
:102EA00021F09EE8872F762F05C0662371F096E803
:102EB000862F70E060E02AF09A95660F771F881FD2
:102EC000DAF7880F9695879597F90895990F000876
:102ED000550FAA0BE0E8FEEF16161706E807F907EC
:102EE000C0F012161306E407F50798F0621B730B87
:102EF000840B950B39F40A2661F0232B242B252B08
:102F000021F408950A2609F4A140A6958FEF811DAA
:102F1000811D089597F99F6780E870E060E008954B
:102F20009FEF80EC089500240A94161617061806E1
:102F30000906089500240A941216130614060506BD
:102F40000895092E0394000C11F4882352F0BB0F4E
:102F500040F4BF2B11F460FF04C06F5F7F4F8F4FB1
:102F60009F4F089557FD9058440F551F59F05F3FEC
:102F700071F04795880F97FB991F61F09F3F79F09B
:102F800087950895121613061406551FF2CF46951D
:102F9000F1DF08C0161617061806991FF1CF86959F
:102FA0007105610508940895E894BB276627772783
:102FB000CB0197F908950E94661708F48FEF0895E2
:102FC0000E94F3170C94A1170E94931738F00E94E7
:102FD0009A1720F0952311F00C948A170C949017EF
:102FE00011240C94D5170E94B21770F3959FC1F36A
:102FF000950F50E0551F629FF001729FBB27F00DA7
:10300000B11D639FAA27F00DB11DAA1F649F6627FB
:10301000B00DA11D661F829F2227B00DA11D621F4A
:10302000739FB00DA11D621F839FA00D611D221F04
:10303000749F3327A00D611D231F849F600D211DE8
:10304000822F762F6A2F11249F5750409AF0F1F06B
:1030500088234AF0EE0FFF1FBB1F661F771F881FD4
:1030600091505040A9F79E3F510580F00C948A176B
:103070000C94D5175F3FE4F3983ED4F3869577958B
:103080006795B795F795E7959F5FC1F7FE2B880F7A
:10309000911D9695879597F908950E946617880B5C
:1030A000990B089597FB072E16F4009407D077FD2F
:1030B00009D00E946C1807FC05D03EF490958195CC
:1030C0009F4F0895709561957F4F0895EE0FFF1FF4
:1030D0000590F491E02D0994AA1BBB1B51E107C098
:1030E000AA1FBB1FA617B70710F0A61BB70B881F98
:1030F000991F5A95A9F780959095BC01CD01089527
:1031000081E090E0F8940C949E18FB01DC0102C071
:1031100001900D9241505040D8F70895FB01DC0119
:103120008D91019080190110D9F3990B0895FB013D
:10313000DC0101900D920020E1F70895F894FFCF93
:1031400061726475696E6F3100B10AB10A010000E5
:103150000000000000E9030000803FCDCCCC3D6FB3
:1031600012833A95BFD6337D1D9026B3CE010CCD88
:10317000CCCC3D0AD7233C17B7D13877CC2B32952E
:1031800095E6241FB14F0A000020410000C842000C
:10319000401C4620BCBE4CCA1B0E5AAEC59D7405D1
:1031A00000040400000000490BB20AE10A900B126F
:1031B0000BF00A040B00000000C80BC40BC00B216D
:1031C0000CBC0B7C10781074100000000034040656
:1031D0000F480D6A0F1D0C0C0C040C8E0CBF0CF468
:1031E0000CD40EFC0BF90BF60BF30BEC0BFF0BE9FD
:1031F0000BE60BE30BE00BF10E22225C5C6208662F
:103200000C6E0A720D7409006E756C6C0074727528
:10321000650066616C7365004E614E00652D004966
:103220006E66696E6974790073656E6400617264BC
:1032300075696E6F310054656D7065726174757279
:10324000650048756D6964697479004C69676874D4
:1032500000536F756E640053656E64696E67207409
:103260006F204C6F526120536572766572203A2050
:10327000007265636569766564203A004944004ED2
:103280006F74204A736F6E004C4544007374617410
:10329000650057726F6E6720656E74727900777281
:1032A0006F6E67206163747561746F72004E6F7426
:1032B00020666F72206D65007265637620666169B5
:1032C0006C6564004E6F207265706C792E005374CB
:1032D000617274204C6F526120436C69656E74009A
:1032E000696E6974206661696C656400646174610B
:0A32F0000074696D65000D0A00000E
:00000001FF
