:100000000C94C0010C94B4100C9489100C945E10E4
:100010000C9433100C9408100C94DD0F0C94B20F58
:100020000C94870F0C94F1010C94F1010C94F101E4
:100030000C94F1010C94F1010C94F1010C94F10178
:100040000C94F1010C94F1010C94F1010C94F10168
:100050000C94F1010C94F1010C94F1010C943D0FFE
:100060000C94F1010C9409110C94DF100C94F10123
:100070000C94F1010C94F1010C94F1010C94F10138
:100080000C94F1010C94F1010C94F1010C94F10128
:100090000C94F1010C94F1010C94F1010C94F10118
:1000A0000C94F1010C94F1010C94F1010C94F10108
:1000B0000C94F1010C94F1010C94F1010C94F101F8
:1000C0000C94F1010C94F1010C94F1010C94F101E8
:1000D0000C94F1010C94F1010C94F1010C94F101D8
:1000E0000C94F101B203AB03C403BB03B703800359
:1000F000A4034603F414D114D814DF14E614FB143B
:10010000021538153B152A152E15321572153F1597
:10011000431549154D15511557155B155F1572158A
:10012000651569156D150C948E050C942B0F0C94A8
:10013000DF140C9451150C94FB140C946A0C0C9461
:10014000550D0C9411120C94A4030C940B180C94E0
:100150008B0D0C94B60D0C94940D0C94AD110C9465
:1001600046030C94DD0E0C94B7030C947B110C9495
:1001700043150C94D1140C945F150C94780D0C94C9
:10018000180C0C943B150C94B20D0C945B150C944C
:100190008E0D0C947B0D0C94880D0C94F60C0C9425
:1001A000C4030C941B130C9438150C94170C0C946A
:1001B00049150C94340F0C94E6140C94540E0C94C2
:1001C000AF0C0C94780C0C945D0D0C94750D0C9484
:1001D000B2030C94220F0C94D8140C9432150C9486
:1001E0001F130C9498110C94590D0C94810D0C94C0
:1001F00057150C9472150C942A150C94A10D0C949F
:10020000560C0C94910D0C947E0D0C9423130C94AD
:10021000F4140C94510D0C946D150C944D150C9414
:100220002E150C9402150C94890E0C9480030C94DA
:1002300043050C94230E0C9465150C9469150C94CD
:10024000990D0C94AB030C943F150C94470C0C9433
:10025000BB0372740092740048940078C4000000DC
:100260002100240027002A002D0030003300010166
:100270000000040107010A010000220025002800F7
:100280002B002E003100340002010000050108019E
:100290000B0100000A0B02090C0D0E0807030401F4
:1002A000000000000000000000000000000000004E
:1002B000000000000000000000000000000012111B
:1002C000100000000000000000000000000000001E
:1002D00000000000000000000000200023002600B5
:1002E00029002C002F00320000010000030106014C
:1002F00009010505050507050808080802020202AC
:100300000A0A0808040404040101010101010101B1
:100310000303030303030303040707070C0C0C0C7C
:100320000C0C0C0C02020202060606060606060665
:100330000B0B0B0B0B0B0B0B0102102020080810F2
:100340002040102040800201020108040201010245
:10035000040810204080804020100804020180041E
:100360000201804020100804020108040201010279
:1003700004081020408001020408102040800B185F
:1003800011241FBECFEFD1E2DEBFCDBF00E00CBF16
:1003900013E0A0E0B2E0E6ECF7E300E00BBF02C040
:1003A00007900D92A63CB107D9F725E0A6ECB3E083
:1003B00001C01D92A33CB207E1F711E0C0ECD1E00F
:1003C00000E006C021970109802FFE010E94A71BB3
:1003D000CF3BD10780E00807A9F70E9443170C9490
:1003E000E11B0C940000CF93DF93DC01ED91FC91B5
:1003F00042815381DB01C281D38120813181C217C7
:10040000D30778F0188222813381241B350BFC013D
:1004100042815381240F351F33832283DF91CF9193
:1004200008952C91222371F39E012F5F3F4F338358
:1004300022832D912883DFCF0F931F93CF93DF93D8
:10044000CDB7DEB766970FB6F894DEBF0FBECDBF4F
:100450008C01CB011E8AFE0176962AE030E0B901BC
:100460000E94931B90E3980F9293CB010097B9F7EA
:10047000BF01C8010E94F30166960FB6F894DEBF73
:100480000FBECDBFDF91CF911F910F9108958F9235
:100490009F92AF92BF92EF92FF920F931F93CF93D1
:1004A000DF93CDB7DEB766970FB6F894DEBF0FBE09
:1004B000CDBF7C011E8A8E010A5E1F4F8AE0882E06
:1004C000912CA12CB12CCB01BA01A50194010E9461
:1004D0001F19942F852F605DF80162938F01A90188
:1004E000692F782F411551056105710561F7BF012D
:1004F000C7010E94F30166960FB6F894DEBF0FBEE7
:10050000CDBFDF91CF911F910F91FF90EF90BF90E2
:10051000AF909F908F900895CF93DF93DC01ED9182
:10052000FC911197C281D38180819181C817D9072D
:1005300060F4CE0101969383828368830280F38105
:10054000E02D108221E030E002C020E030E0129681
:100550008D919C911397280F391F13963C932E93DE
:100560001297DF91CF910895FF920F931F93CF932E
:10057000DF936115710549F464ED72E0DF91CF916D
:100580001F910F91FF900C94F3018B01EC0162E23B
:10059000CE010E948C02F80161918F01662351F017
:1005A000E5ECF2E0F080FF2099F39181961759F085
:1005B0003296F8CF62E2CE01DF91CF911F910F9179
:1005C000FF900C948C026CE5CE010E948C026F2D82
:1005D000DFCF0F931F93CF93DF938C01EB016BE77A
:1005E000CE010E948C02F8010281138101151105D0
:1005F000A9F0F80162817381CE010E94B4026AE31E
:10060000CE010E948C02BE01C80104960E941B0309
:10061000F801008111810115110541F46DE7CE014A
:10062000DF91CF911F910F910C948C026CE2CE015F
:100630000E948C02DBCF2F923F924F925F926F927B
:100640007F928F929F92AF92BF92CF92DF92EF9262
:10065000FF920F931F93CF93DF93CDB7DEB76297CF
:100660000FB6F894DEBF0FBECDBFDC01ED91FC915B
:1006700011973197E830F10508F0ECC18B017C014E
:100680008827EE58FF4F8F4F0C94A71BFD01C280A7
:10069000D380E480F580A7019601C701B6010E94CE
:1006A000BD19882319F064EE72E07CC020E030E0D0
:1006B000A901C701B6010E94BD1987FF08C06DE2FC
:1006C000C8010E948C02F7FAF094F7F8F09420E049
:1006D00030E0A901C701B6010E94BD19882309F4C1
:1006E00065C0A7019601C701B6010E945119A70173
:1006F00096010E94BD19811159C06BEE72E052C083
:10070000FD01E280F3806BE5C8010E948C02D701F5
:100710001296ED90FC901397E114F10459F0B80192
:10072000C70102960E941B03F701E080F180E114EB
:10073000F10429F46DE5C8010E948C028BC16CE2C2
:10074000C8010E948C02E8CF12968D919C9113975C
:100750000E94E9027FC1FD0162817381C8010E948C
:10076000B40278C112966D917C9113971BC06DE213
:10077000C8010E948C02F701428153816481758116
:10078000C8010E94470266C1FD0182819381A48154
:10079000B581892B8A2B8B2B19F46EED72E002C088
:1007A00069ED72E0C8010E94F30154C120E836E906
:1007B00048E15BE4C701B6010E941C1B87FD42C1F2
:1007C000A12CB12C70E2872E912C212C312CF5011B
:1007D000ED5AFD4F2489358946895789C701B601ED
:1007E0000E941C1B87FD0FC0F501E55CFD4F2489AD
:1007F000358946895789C701B6010E94211B6B01C3
:100800007C01280C391C95948794F4E0AF1AB10848
:1008100088EEA8168FEFB806D1F677247A9420E0F8
:1008200030E0A901C701B6010E941C1B181694F5FF
:100830002CEA35EC47E257E3C701B6010E94BD1927
:10084000181644F1BFEF7B1629F1972DA4E09A0208
:1008500050011124F501ED5DFD4F20813181428170
:100860005381C701B6010E94BD1987FF0FC0F50172
:10087000ED5AFD4F2081318142815381C701B6017C
:100880000E94211B6B017C012818390895948794DC
:100890007A94D8CFC701B6010E943B1A4B015C0184
:1008A0000E946A1A9B01AC01C701B6010E9450194F
:1008B00020E034E244E759E40E94211B2B013C0173
:1008C0000E943B1A6B017C010E946A1A9B01AC01D9
:1008D000C301B2010E9450199B01AC010E94511941
:1008E0000E943B1AC60ED71EE81EF91EE0E4CE1683
:1008F000E2E4DE06EFE0EE06F104E0F0FFEF8F1A2F
:100900009F0AAF0ABF0A2114310489F08AE08816D1
:100910009104A104B10458F09FEF291A390AC12C9F
:10092000D12C7601812C912C5401839403C0C12CCD
:10093000D12C760124013501A6E0AA8BBA89B98BA6
:10094000B150BA8BEAE04E16510461047104A8F06C
:10095000C701B6012AE030E040E050E00E941F19D4
:1009600069017A01C301B2012AE030E040E050E0C1
:100970000E941F1929013A01E1CF3AE0432E512C80
:10098000612C712CC701B601A30192010E941F19AD
:10099000672B682B692BB1F089898A8BB501A4017B
:1009A000C8010E94470299899923A1F1188A5E0122
:1009B000B0E1AB0EB11C45012AE0422E512C612C56
:1009C000712C0BC0A9891A1634F469017A01F989CE
:1009D000F150F98BD7CFAA8BE1CFFA89F150FA8B7E
:1009E000FF3F69F0C701B601A30192010E941F19E0
:1009F000605DF50162935F0169017A01EECFB40198
:100A00008989681B71098EE2DB018E93BD01C801E3
:100A10000E94F30137FE0AC068EE72E0C8010E942E
:100A2000F301662777276219730908C0211431047E
:100A300089F065E6C8010E948C02B101C8010E94DC
:100A40001C0208C080E2882E912C95E0792E212C82
:100A5000312CE5CE62960FB6F894DEBF0FBECDBF47
:100A6000DF91CF911F910F91FF90EF90DF90CF908A
:100A7000BF90AF909F908F907F906F905F904F90BE
:100A80003F902F900895FC0126813781620F731FDC
:100A9000848195818617970738F0828193817783C7
:100AA0006683820F931F089580E090E008958091FF
:100AB000CA0381110BC01092C7031092C603109293
:100AC000C9031092C80381E08093CA0386EC93E0C7
:100AD0000895DB01109749F0ED91FC911197019079
:100AE000F081E02DBC01CD01199480E090E00895E3
:100AF000CF93DF93EC01BC0184E090E00E94690594
:100B0000009741F0FC01D183C08313821282DF91F0
:100B1000CF910895DF91CF910C945705DF92EF921A
:100B2000FF920F931F93CF93DF9300D0CDB7DEB723
:100B30008C010E94050ED82E811102C0D12C8DC0CF
:100B4000F801938D923061F0933069F08EEE890F49
:100B50008430A0F727E130E07901E91AF10806C0F6
:100B6000E12CF12C03C0EE24E394F12C40E861E089
:100B7000C8010E943F116AE070E080E090E00E94AE
:100B8000061661E0C8010E94D0118038B9F660E015
:100B9000F801838D0E948615F801848D8F3F49F4FA
:100BA0008091D203843050F691E0980F9093D20355
:100BB000848FF801948DE92FF0E0EE0FFF1FED52C6
:100BC000FC4F11830083911103C064E37FE00AC0EE
:100BD000913019F46BE27FE005C0923009F0AECF9E
:100BE00062E27FE08E2D0E94B91440E06EE0C80101
:100BF0000E943F1140E06FE0C8010E943F11C80110
:100C00000E94FD1143E050E062E572E0CE010196E2
:100C10000E94E41849816DE1C8010E943F114A8198
:100C20006EE1C8010E943F114B8166E2C8010E943B
:100C30003F1140E060E2C8010E943F1148E061E2DC
:100C4000C8010E943F1140E050E069ED73E4C80123
:100C50000E949812C8010E948B148D2D0F900F9046
:100C60000F90DF91CF911F910F91FF90EF90DF9048
:100C70000895DF92EF92FF920F931F93CF93DF932C
:100C8000EC0162E10E94D0112A813B8124303105C0
:100C900021F4982F907A09F068C02A813B81243092
:100CA000310509F073C086FF71C063E1CE010E9477
:100CB000D011F82E60E1CE010E94D011482F6DE0D6
:100CC000CE010E943F11DFB6F89460E08A8D0E9449
:100CD0000915888D998DDC01ED91FC910190F081D1
:100CE000E02D60E019958E01025E1F4FEF2CE00EA3
:100CF000E01671F0888D998DDC01ED91FC910190E9
:100D0000F081E02D60E01995F80181938F01F0CF1B
:100D100061E08A8D0E940915DFBEFD8E4FEF62E112
:100D2000CE010E943F116AE1CE010E94D011895884
:100D30008E878D8DFE01E35EFE4F843090F08E8DA8
:100D40008E838F8D8F8388A1888789A189878D81E4
:100D5000811129C09E818C81981729F18E818F3F46
:100D600011F18081882331F02FC08F8598890196F9
:100D7000988B8F874FEF62E1CE01DF91CF911F916A
:100D80000F91FF90EF90DF900C943F112A813B81EF
:100D90002330310581F483FF0EC08B899C89019635
:100DA0009C8B8B8B11C089899A8901969A8B898B30
:100DB00081E08083D6CF2A813B8125303105D1F671
:100DC00082FFD8CF81708D8BCE010E94FD11D2CFD2
:100DD000FC01A081B1818C918D3051F024F48950B7
:100DE0008230B8F505C0803219F08F3219F00895BD
:100DF00011962CC011968C9111978A3219F08F326E
:100E0000D1F008951196B183A083A081B181CD0165
:100E100001969183808311968C9111978823C9F054
:100E20008A3299F712968C9112978F3271F7139636
:100E30000DC08A3071F2A081B181CD0101969183FC
:100E4000808311968C918111F4CF03C0B183A0836C
:100E5000C0CF08950F931F93CF93DF931F92CDB709
:100E6000DEB78C0169830E94E806D801ED91FC9100
:100E7000119780816981861305C03196ED93FC93AB
:100E800081E001C080E00F90DF91CF911F910F9121
:100E90000895CF93DF93EC01688179818AE090E037
:100EA0000E946905009729F0FC01118210821582C9
:100EB0001482EA81FB81309751F020813181211524
:100EC000310511F0F901F9CF9183808302C09B8332
:100ED0008A83DF91CF9108950F931F93CF93DF9370
:100EE0008B01FC01C281D381209759F06A817B81FB
:100EF000C8010E94D11B892B21F00990D881C02DF7
:100F0000F3CFCE01DF91CF911F910F9108950F93F1
:100F10001F93CF93DF930E946C07EC01892BC1F0E4
:100F20000C811D810130110559F46E817F8161159D
:100F3000710531F084ED92E00E94D11B892B41F0C4
:100F4000015011090230110518F48E819F8102C0F1
:100F500080E090E0DF91CF911F910F910895CF92A3
:100F6000DF92EF92FF920F931F93CF93DF93DC01F9
:100F70002D913C912115310551F4DF91CF911F91B5
:100F80000F91FF90EF90DF90CF900C9457057B016D
:100F9000EC01C9010E9478058C01B701CE010E94C5
:100FA0006C07FC01892B41F4CE010E944907FC012A
:100FB000892B89F0F382E282D8018D919C91892B53
:100FC00019F480E090E003C0680187E090E0958329
:100FD0008483C682D782C801DF91CF911F910F9180
:100FE000FF90EF90DF90CF9008950F931F93CF93D2
:100FF000DF93EC010C811D8102960E94E806EA81D4
:10100000FB819081973219F1923209F180ED890FBD
:101010008A3058F0892F8F7D81548A3130F09B328D
:1010200021F083ED890F8230F0F52A813B812F5F1B
:101030003F4F3B832A83EC81FD819F012F5F3F4F10
:101040003D832C839083EA81FB819081DFCF3196B1
:10105000FB83EA83EA81FB812081222321F1AF0116
:101060004F5F5F4F5B834A832917E9F02C3591F47A
:101070002181A9ECB2E08C91882339F0821303C05E
:1010800011962C9102C01296F6CF222361F032966F
:10109000FB83EA83EC81FD81AF014F5F5F4F5D838E
:1010A0004C832083D7CFEC81FD81CF0101969D83B6
:1010B0008C831082C801DF91CF911F910F91089509
:1010C000CF93DF93EC016881798188E090E00E9402
:1010D0006905009729F0FC011182108213821282A7
:1010E000EA81FB81309751F0208131812115310552
:1010F00011F0F901F9CF9183808302C09B838A8329
:10110000DF91CF9108959F92AF92BF92CF92DF92DD
:10111000EF92FF920F931F93CF93DF9300D000D0F5
:10112000CDB7DEB7D82EC92E082F192FF80181911F
:1011300091918F010E9478057C016BE7C8010E94A4
:101140002A07882309F443C06DE7C8010E942A07D3
:10115000811140C086E0982E8D2D9C2D0E94F507B0
:101160005C01892BA1F16AE3C8010E942A07882348
:1011700071F11A821982BE016F5F7F4F8D2D9C2DF8
:101180000E94B113882319F1B501C7010E946C07B1
:10119000009741F4C7010E9449070097C1F0FC0184
:1011A000B382A282FE013196DC011496892D019052
:1011B0000D928A95E1F76DE7C8010E942A07811117
:1011C00009C06CE2C8010E942A078111C5CF0E94A4
:1011D000570501C0C70126960FB6F894DEBF0FBEB3
:1011E000CDBFDF91CF911F910F91FF90EF90DF90D6
:1011F000CF90BF90AF909F900895CF93DF93EC0175
:10120000BC0184E090E00E946905FC01009729F090
:10121000D183C0831382128211C08091E6038111B1
:101220000BC01092E3031092E2031092E5031092B8
:10123000E40381E08093E60382EE93E0DF91CF91B7
:1012400008954F925F926F927F928F929F92AF928A
:10125000BF92CF92DF92EF92FF920F931F93CF93A3
:10126000DF93CDB7DEB7C75DD3400FB6F894DEBFCE
:101270000FBECDBF0E944C168823A1F1809191042E
:101280008B3041F178F18551823060F560918B04AB
:1012900070E080E090E00E946A1A20E030E040E8D0
:1012A00053E40E94211B4B015C0180918C04682F48
:1012B00070E080E090E00E946C1A9B01AC01C501D7
:1012C000B4010E9451192DEC3CEC4CEC5DE30E9402
:1012D000211B0CC060918B0470E080E090E00E94C4
:1012E0006A1A04C060E070E080EC9FE7CF52DC4FE8
:1012F000688379838A839B83C15DD3400E944C16A7
:101300008823D1F1809191048B3029F0A8F1855187
:10131000823048F031C060918D0470E080E090E050
:101320000E946A1A2DC010918D04612F6F7770E0B2
:1013300080E090E00E946C1A20E030E040E853E446
:101340000E94211B4B015C0180918E04682F70E08C
:1013500080E090E00E946C1A9B01AC01C501B401D1
:101360000E9451192DEC3CEC4CEC5DE30E94211BDA
:1013700017FF06C0905804C060E070E080EC9FE763
:10138000C353DC4F688379838A839B83CD5CD340CE
:1013900086E30E94C215BC01990F880B990B0E942D
:1013A0006C1A2B013C018BE30E94C215BC01990F02
:1013B000880B990B0E946C1A2AE038E240EA5BE342
:1013C0000E94211B20E030E04AE754E40E94211BE8
:1013D0004B015C019B01AC0160E070E48CE995E499
:1013E0000E9450199B01AC01C501B4010E94C219B1
:1013F00020E030E44CE156E40E94211B9B01AC014B
:1014000060E074E284E799E40E9450192DEC3CEC12
:1014100049EF54E40E94C219C753DC4F68837983B3
:101420008A839B83C95CD3400E94E115CB52DC4F79
:1014300079836883C55DD3408BEFC952DC4F8883C5
:10144000C75DD34087EC92E08C0F9D1F0896C75371
:10145000DD4F99838883C95CD24088EC90E0C55306
:10146000DD4F99838883CB5CD240C353DD4F198213
:101470001882CD5CD24081E292E0C953DD4F99835E
:101480008883C75CD240CE0189539D4F0E94FD08DE
:101490006C01DC018D919C91009719F40E94570515
:1014A00019C00E9478058C01C6010E946008FC01E9
:1014B000892B79F0D8018D919C91892B19F480E0CA
:1014C00090E003C0780187E090E093838283E48218
:1014D000F582C80164EF72E00E94AF074C0169EF2A
:1014E00072E00E94AF078C0162E073E00E94AF07D8
:1014F0006C016EE073E0C8010E94AF077C0167E1F8
:1015000073E0C8010E94AF075C016DE173E0C801A0
:101510000E94AF078C01BE016B527C4FC6010E9436
:101520007713C353DC4F688179818A819B81CD5CBD
:10153000D3409B01AC010E948E1B882321F0C60181
:101540000E94551306C0BE0163537C4FC6010E9422
:101550002913BE016B527C4FC7010E947713CF52F3
:10156000DC4F688179818A819B81C15DD3409B0179
:10157000AC010E948E1B882321F0C7010E945513E5
:1015800006C0BE016F527C4FC7010E942913BE01E5
:101590006B527C4FC5010E947713BE0167537C4F8D
:1015A000C5010E942913BE016B527C4FC8010E94E5
:1015B000771320E030E040EA50E4C301B2010E941A
:1015C000211B20E030E240E854E40E94C219698304
:1015D0007A838B839C83FE0131967F01BF01C80112
:1015E0000E9429136E01F9E0CF1AFEEFDF0AC6014F
:1015F0000896D60113969C938E93129788EC90E0F0
:1016000015969C938E93149717961C921E9216977C
:1016100081E292E08D939C938E0109561C4F5E01EE
:10162000BCEFAB0EB11CCE018A509E4FF8019183E6
:101630008083B382A282D5011C921A8309831C8203
:101640001B82B701C4010E94E90283E293E00E9479
:101650009914C5010E94AB144BEFB5018DE994E0DC
:101660000E9411128DE994E00E94990D64E971E1E4
:101670008DE994E00E94540E882309F4B6C0AE01AF
:1016800049525C4FB7018DE994E00E94DD0E88233A
:1016900009F4A8C08DE393E00E94AB14C7010E9437
:1016A000AB14F801D182C082F382E282F582E48237
:1016B0008AE08683C8010E9483087C0168E473E0A5
:1016C0000E948707BC01C8010E94DA1BD7018D91D7
:1016D0009C91892B19F48BE493E089C060E072E05F
:1016E000C8010E94D11B892B09F079C060E773E023
:1016F000C7010E94870764E573E00E94D11B8C013B
:10170000892B09F069C068E573E0C7010E946C0786
:10171000FC01892B09F450C08481958183309105A7
:101720003CF4813091057CF4892B09F445C039C023
:10173000853091052CF00597A1F5668177812CC045
:101740000681178139C00680F781E02D3097A1F11D
:101750008081843769F18B3229F08D3221F4319602
:1017600081E002C0319680E060E070E02AE0019103
:1017700090ED900F9A3070F4269FA001279F500D96
:101780001124002E000C110B00531109BA01600F37
:10179000711FEDCF882379F000271127061B170B47
:1017A0000BC066817781808591850E94341A03C0C1
:1017B00001E010E001C08B010115110529F0013095
:1017C000110539F461E001C060E087E00E9409156D
:1017D00010C08EE593E00BC08AE693E008C089E76D
:1017E00093E005C084E893E002C080E993E00E94A2
:1017F000AB1468E873E180E090E00E940616C952DD
:10180000DC4F0FB6F894DEBF0FBECDBFDF91CF9196
:101810001F910F91FF90EF90DF90CF90BF90AF900E
:101820009F908F907F906F905F904F900895089554
:10183000CF92DF92EF92FF920F931F93CF93DF939C
:101840006C017A018B01C0E0D0E0CE15DF0589F094
:10185000D8016D918D01D601ED91FC910190F0813F
:10186000E02DC6011995892B11F47E0102C0219645
:10187000ECCFC701DF91CF911F910F91FF90EF90B7
:10188000DF90CF900895089580E090E00895FC01E6
:10189000538D448D252F30E0842F90E0821B930BD5
:1018A000541710F0CF96089501970895FC01918D7B
:1018B000828D981761F0828DDF01A80FB11D5D96B2
:1018C0008C91928D9F5F9F73928F90E008958FEF20
:1018D0009FEF0895FC01918D828D981731F0828DD4
:1018E000E80FF11D858D90E008958FEF9FEF08952B
:1018F000FC01918D228D892F90E0805C9F4F821B8F
:1019000091098F73992708958EEE93E00E94780CC9
:1019100021E0892B09F420E0822F0895FC01848DB9
:10192000DF01A80FB11DA35ABF4F2C91848D90E009
:1019300001968F739927848FA689B7892C93A089E4
:10194000B1898C9180648C93938D848D981306C09B
:101950000288F389E02D80818F7D80830895EF9246
:10196000FF920F931F93CF93DF93EC0181E0888F59
:101970009B8D8C8D981305C0E889F989808185FD40
:1019800024C0F62E0B8D10E00F5F1F4F0F73112731
:10199000E02E8C8DE8120CC00FB607FCFACFE88958
:1019A000F989808185FFF5CFCE010E948E0CF1CFA1
:1019B0008B8DFE01E80FF11DE35AFF4FF0820B8F74
:1019C000EA89FB898081806207C0EE89FF89608394
:1019D000E889F98980818064808381E090E0DF91EB
:1019E000CF911F910F91FF90EF900895CF93DF93C8
:1019F000EC01888D8823C9F0EA89FB89808185FD07
:101A000005C0A889B9898C9186FD0FC00FB607FC67
:101A1000F5CF808185FFF2CFA889B9898C9185FFA8
:101A2000EDCFCE010E948E0CE7CFDF91CF910895CC
:101A300080E090E0892B21F00E94840C811125C068
:101A400080E090E0892B41F080E090E0892B21F04C
:101A50000E94000081111CC080E090E0892B41F0C1
:101A600080E090E0892B21F00E940000811113C0DA
:101A700080E090E0892BA1F080E090E0892B81F05C
:101A80000E94000081110AC008950E940000D8CF72
:101A90000E940000E1CF0E940000EACF0C940000F9
:101AA00008958CB58F7B8CBD08958CB58F778CBDD8
:101AB00008958CB580688CBD08956EBD00000DB48E
:101AC00007FEFDCF8EB508959CB5282F23709C7F0F
:101AD000922B9CBD2DB582FB992790F9822F8E7F8A
:101AE000892B8DBD089580E00895FC0181850895BE
:101AF000FC0180850895FC0187810895FC018681A1
:101B00000895FC01409595854923642B65870895C8
:101B1000FC0164870895FC0163870895FC016287D6
:101B20000895FC0164830895FC016583089580E0B5
:101B30000895FC012281338123303105D1F381E006
:101B40000895CF93DF93EC01E881F9810280F3815E
:101B5000E02DCE0119958823B9F3DF91CF91089537
:101B600081E008958BEF08950E94C31BCF93FC0181
:101B7000268137812115310549F02130310541F0A9
:101B80002230310539F02330310531F020E005C035
:101B900024E003C028E001C02CE09CB5937F922B89
:101BA0009CBD84819581019761F58CB580628CBD67
:101BB0008281938101978430910528F4FC01E559D5
:101BC000FD4FC08101C0C1E08C2F0E94640D61E017
:101BD00085E30E94091561E085E30E9486158CB5B6
:101BE00080618CBD8CB580648CBD61E084E30E9413
:101BF000861561E083E30E9486158C2FCF910C94AB
:101C0000640D9CB59F7D9CBDD3CFCF93DF93EC013A
:101C1000888D998DDC01ED91FC910680F781E02D96
:101C2000199561E08A8D0E94861561E08A8D0E9477
:101C3000091564E670E080E090E00E94061681E0FD
:101C4000DF91CF9108958F929F92AF92BF92CF92E2
:101C5000DF92EF92FF92CF93DF93EC016B010E9432
:101C600040164B015C01E12CF12C0E944016DC0176
:101C7000CB0188199909AA09BB098C159D05AE05E8
:101C8000BF0530F48A819B81039779F381E001C01D
:101C900080E0DF91CF91FF90EF90DF90CF90BF90E9
:101CA000AF909F908F9008958F929F92AF92BF9226
:101CB000CF92DF92EF92FF92CF93DF93EC016B0113
:101CC0000E9440164B015C01E12CF12C0E94401651
:101CD000DC01CB0188199909AA09BB098C159D055E
:101CE000AE05BF0550F4E881F9810280F381E02D53
:101CF000CE011995882351F301C080E0DF91CF9187
:101D0000FF90EF90DF90CF90BF90AF909F908F901B
:101D100008958F929F92AF92BF92CF92DF92EF92EF
:101D2000FF92CF93DF93FC0126893789232B11F48F
:101D300081E038C0EC010E9440166B017C0189E013
:101D4000882E912CA12CB12CE881F9810488F58989
:101D5000E02DCE011995882359F30E944016AB015E
:101D6000BC014C195D096E097F098E899F89A0E02D
:101D7000B0E084179507A607B70798F00E94D71818
:101D8000A50194010E94ED189B01AC012F5F3F4F0C
:101D90004F4F5F4FA4E6B0E00E940C190E94061658
:101DA000D3CF80E0DF91CF91FF90EF90DF90CF9085
:101DB000BF90AF909F908F900895CF92DF92EF9257
:101DC000FF920F931F93CF93DF93EC017B018A0166
:101DD000E881F9810280F381E02D1995D82E8823BE
:101DE00039F1E114F104E1F001151105C9F0CFB6A4
:101DF000F8942D8D30E023503109F801808190E076
:101E0000821793071CF09D8D94509083F8014081B8
:101E100050E0BE016E5D7F4FC7010E94C81BCFBE60
:101E20008FB7F894FE01E35EFE4F10821D8E8FBFC8
:101E30008D2DDF91CF911F910F91FF90EF90DF904B
:101E4000CF9008958091D7039091D803009711F017
:101E50000C94390608958091D5039091D60300978C
:101E600011F00C94390608958091D3039091D40316
:101E7000009711F00C94390608951F920F920FB637
:101E80000F9211242F933F938F939F93AF93BF9300
:101E90008091DA039091DB03A091DC03B091DD0324
:101EA0003091D90323E0230F2D3720F40196A11D93
:101EB000B11D05C026E8230F0296A11DB11D209378
:101EC000D9038093DA039093DB03A093DC03B093F0
:101ED000DD038091DE039091DF03A091E003B091D8
:101EE000E1030196A11DB11D8093DE039093DF03F2
:101EF000A093E003B093E103BF91AF919F918F91C5
:101F00003F912F910F900FBE0F901F9018951F9229
:101F10000F920FB60F9211240BB60F922F933F938F
:101F20004F935F936F937F938F939F93AF93BF93E1
:101F3000EF93FF93E0911702F09118021995FF912A
:101F4000EF91BF91AF919F918F917F916F915F9131
:101F50004F913F912F910F900BBE0F900FBE0F909E
:101F60001F9018951F920F920FB60F9211240BB667
:101F70000F922F933F934F935F936F937F938F9322
:101F80009F93AF93BF93EF93FF93E0911502F0916E
:101F900016021995FF91EF91BF91AF919F918F918B
:101FA0007F916F915F914F913F912F910F900BBE59
:101FB0000F900FBE0F901F9018951F920F920FB6A3
:101FC0000F9211240BB60F922F933F934F935F9371
:101FD0006F937F938F939F93AF93BF93EF93FF93F1
:101FE000E0910B02F0910C021995FF91EF91BF91D6
:101FF000AF919F918F917F916F915F914F913F91A1
:102000002F910F900BBE0F900FBE0F901F90189541
:102010001F920F920FB60F9211240BB60F922F93AF
:102020003F934F935F936F937F938F939F93AF9360
:10203000BF93EF93FF93E0910902F0910A02199583
:10204000FF91EF91BF91AF919F918F917F916F9190
:102050005F914F913F912F910F900BBE0F900FBE4C
:102060000F901F9018951F920F920FB60F92112488
:102070000BB60F922F933F934F935F936F937F9382
:102080008F939F93AF93BF93EF93FF93E0911302CE
:10209000F09114021995FF91EF91BF91AF919F912B
:1020A0008F917F916F915F914F913F912F910F9001
:1020B0000BBE0F900FBE0F901F9018951F920F929E
:1020C0000FB60F9211240BB60F922F933F934F939D
:1020D0005F936F937F938F939F93AF93BF93EF9390
:1020E000FF93E0911102F09112021995FF91EF9187
:1020F000BF91AF919F918F917F916F915F914F9120
:102100003F912F910F900BBE0F900FBE0F901F901D
:1021100018951F920F920FB60F9211240BB60F92C3
:102120002F933F934F935F936F937F938F939F93DF
:10213000AF93BF93EF93FF93E0910F02F0911002E2
:102140001995FF91EF91BF91AF919F918F917F91E1
:102150006F915F914F913F912F910F900BBE0F9018
:102160000FBE0F901F9018951F920F920FB60F92EF
:1021700011240BB60F922F933F934F935F936F935E
:102180007F938F939F93AF93BF93EF93FF93E091D0
:102190000D02F0910E021995FF91EF91BF91AF9151
:1021A0009F918F917F916F915F914F913F912F916F
:1021B0000F900BBE0F900FBE0F901F9018951F929F
:1021C0000F920FB60F9211240BB60F922F933F93DD
:1021D0004F935F936F937F938F939F93AF93BF932F
:1021E000EF93FF938EEE93E00E948E0CFF91EF91A0
:1021F000BF91AF919F918F917F916F915F914F911F
:102200003F912F910F900BBE0F900FBE0F901F901C
:1022100018951F920F920FB60F9211240BB60F92C2
:102220002F938F939F93EF93FF93E091FE03F09191
:10223000FF038081E0910404F091050482FD12C047
:102240009081809107048F5F8F732091080482171B
:1022500051F0E0910704F0E0E251FC4F958F80933C
:10226000070401C08081FF91EF919F918F912F9181
:102270000F900BBE0F900FBE0F901F901895EF920E
:10228000FF920F931F93CF93DF931F92CDB7DEB7CB
:102290007C01162F0FB7F89460E0DC015A968C9100
:1022A00049830E940915F701808D918DDC01ED9124
:1022B000FC91612F60680190F081E02D1995182F35
:1022C000F701808D918DDC01ED91FC910190F08101
:1022D000E02D4981642F199561E0F701828D0E94FC
:1022E00009150FBF812F0F90DF91CF911F910F9193
:1022F000FF90EF900895CF93DF93EC018A819B814B
:10230000059771F047E061E0CE010E943F1140E87F
:1023100060E4CE010E943F1185E090E09B838A83B8
:102320008A819B810597E1F38D89DF91CF91089593
:10233000CF93DF93FC01228133812130310549F0B5
:10234000EC0140E061E00E943F1181E090E09B835E
:102350008A8381E0DF91CF910895CF93DF93FC01D1
:102360002281338123303105B9F0EC0182819381E0
:10237000049771F045E061E0CF010E943F1140E019
:1023800060E4CE010E943F1184E090E09B838A8349
:10239000C35EDE4F888101C080E0DF91CF91089558
:1023A0000F931F93CF93DF93EC01162F0FB7F89481
:1023B00060E08A8D0E940915888D998DDC01ED9170
:1023C000FC91612F6F770190F081E02D1995888D38
:1023D000998DDC01ED91FC910190F081E02D60E0A0
:1023E0001995182F61E08A8D0E9409150FBF812F62
:1023F000DF91CF911F910F910895CF93DF93FC014F
:10240000228133812230310549F0EC0141E061E065
:102410000E943F1182E090E09B838A83DF91CF91FD
:102420000895BF92CF92DF92EF92FF920F931F9386
:10243000CF93DF934C3F10F0E12C6FC0142F072F88
:10244000F62EEC01E881F9810484F585E02D1995DB
:10245000CE010E94FD11E881F9810288F389E02D07
:10246000CE011995E82E882339F340E06DE0CE01C6
:102470000E943F114A8560E0CE010E943F114B85CA
:1024800060E0CE010E943F114C8560E0CE010E94C9
:102490003F114D8560E0CE010E943F11BFB6F89418
:1024A00060E08A8D0E940915888D998DDC01ED917F
:1024B000FC910190F081E02D60E81995CF2CD02E91
:1024C000012F015068F0888D998DF60161916F019F
:1024D000DC01ED91FC910190F081E02D1995F1CF97
:1024E00061E08A8D0E940915BFBE44E0410F62E29F
:1024F000CE010E943F118A819B81039771F043E0D6
:1025000061E0CE010E943F1140E460E4CE010E94F0
:102510003F1183E090E09B838A838E2DDF91CF91E2
:102520001F910F91FF90EF90DF90CF90BF90089593
:10253000CF92DF92EF92FF92CF93DF93EC01CB012A
:10254000BA0120E034E244E759E40E94211B20E074
:1025500034E244E752E40E94C2190E943B1A6B0124
:102560007C01A7016627772766E0CE010E943F1114
:1025700077276F2D5E2D4D2D67E0CE010E943F1114
:102580004C2D68E0CE010E943F1181E0DF91CF9198
:10259000FF90EF90DF90CF9008958F929F92AF922F
:1025A000BF92CF92DF92EF92FF92CF93DF93A091F1
:1025B0009204882311F03A2F01C030E080919304F7
:1025C00090E0880F991F88529D4FC0909804D0903A
:1025D0009904E0909A04F0909B0440E050E0BA0126
:1025E000FC01C591D49128812A2323130FC04A01ED
:1025F0005B012FEF821A920AA20AB20A4C155D05FE
:102600006E057F0538F4B501A401EACF342F252FDC
:10261000CB0104C030E020E080E090E0632F722F17
:10262000DF91CF91FF90EF90DF90CF90BF90AF9070
:102630009F908F900895FC01738362830895FC013D
:10264000778366830895FC017583648308950895F4
:1026500008950F931F93CF93DF93EC018B0168EBE9
:1026600073E00E946C07FC01892B51F4CE010E949B
:102670004907FC01892B99F088EB93E093838283CF
:10268000E80188819981AA81BB8128E030E0358307
:10269000248386839783A087B18781E001C080E08F
:1026A000DF91CF911F910F910895CF93DF93EC01AC
:1026B00068EB73E00E946C07FC01892B51F4CE019A
:1026C0000E944907FC01892B71F088EB93E093830A
:1026D000828382E090E09583848384EE92E0978306
:1026E000868381E001C080E0DF91CF9108950F9350
:1026F0001F93CF93DF93EC018B016DEB73E00E948E
:102700006C07FC01892B51F4CE010E944907FC01A2
:10271000892B09F18DEB93E093838283D8014D914E
:102720005C9157FD07C0052E000C660B770B84E00B
:1027300090E009C0519541955109052E000C660B9A
:10274000770B85E090E09583848346835783608789
:10275000718781E001C080E0DF91CF911F910F91DF
:1027600008959F92AF92BF92CF92DF92EF92FF9225
:102770000F931F93CF93DF93CDB7DEB727970FB695
:10278000F894DEBF0FBECDBFFC019681992309F4FA
:10279000AEC07B018F01915096836F0182E0C80E1D
:1027A000D11CC6010E94E806D8011296ED91FC9159
:1027B000139780818B3521F08B3709F45EC071C08F
:1027C000F801808191810E94FD085C016BE5C601E2
:1027D0000E942A07882361F16DE5C6010E942A073D
:1027E000811136C086E0982E1A821982BE016F5F71
:1027F0007F4FC8010E94B1138823D1F0C5010E9408
:1028000060080097A9F0FE013196DC011296892D2F
:1028100001900D928A95E1F76DE5C6010E942A07A5
:10282000811116C06CE2C6010E942A078111DCCF1B
:102830008091E60381110EC01092E3031092E2032F
:102840001092E5031092E40381E08093E60302C056
:10285000F50102C0E2EEF3E080819181892B11F451
:1028600020E040C086E090E0D70111969C938E93C3
:102870001396FC93EE93129712C0C8010E9483082E
:10288000FC0120813181232B59F327E030E0D7016F
:1028900011963C932E9313969C938E93129721E05E
:1028A00021C021E0873219F0823209F020E0C8010E
:1028B0002F830E94F5072F81009791F2222341F088
:1028C00042E050E0F70151834083938382830AC042
:1028D00021E030E0D70111963C932E9313969C9300
:1028E0008E931297F80186818F5F868301C020E066
:1028F000822F27960FB6F894DEBF0FBECDBFDF91B3
:10290000CF911F910F91FF90EF90DF90CF90BF90EC
:10291000AF909F900895CF93DF93EC0144E06DE476
:102920000E943F1148E869E0CE01DF91CF910C94FD
:102930003F11009769F0FC0101900020E9F7319701
:10294000AF01481B590BBC018EEE93E00C94180CA0
:1029500080E090E00895CF93DF930E949914EC01FA
:1029600082EC93E00E9499148C0F9D1FDF91CF9110
:102970000895883008F04CC0A82FB0E0AA0FBB1F04
:10298000A75FBD4F11967C936E9390E0FC01319749
:10299000E730F10510F58827E658FF4F8F4F0C946C
:1029A000A71B80916900836080936900E89A08956D
:1029B000809169008C6080936900E99A0895809104
:1029C0006900806380936900EA9A089580916900A4
:1029D000806C80936900EB9A089580916A0083600F
:1029E00080936A00EC9A089580916A008C608093CD
:1029F0006A00ED9A089580916A00806380936A006E
:102A0000EE9A089580916A00806C80936A00EF9A34
:102A10000895362F90E0FC01EE56FD4F4491FC01E5
:102A2000E85CFC4F2491FC01EE50FD4F94919923FA
:102A300009F46BC0442309F455C050E0FA01319702
:102A4000E231F10508F04EC08827EF57FF4F8F4F56
:102A50000C94A71B809180008F7707C08091800025
:102A60008F7D03C080918000877F809380003AC073
:102A700084B58F7702C084B58F7D84BD33C08091CB
:102A8000B0008F7703C08091B0008F7D8093B0003D
:102A900029C0809190008F7707C0809190008F7D32
:102AA00003C080919000877F809390001BC080912D
:102AB000A0008F7707C08091A0008F7D03C0809118
:102AC000A000877F8093A0000DC0809120018F77A8
:102AD00007C0809120018F7D03C080912001877FF6
:102AE00080932001E92FF0E0EE0FFF1FE858FD4F23
:102AF000A591B4918FB7F894EC91311103C0209552
:102B00002E2301C02E2B2C938FBF0895CF93DF93DC
:102B100090E0FC01E85CFC4F2491FC01EE50FD4F7D
:102B20008491882361F190E0880F991FFC01E25A9B
:102B3000FD4FC591D491FC01E858FD4FA591B4918A
:102B4000611109C09FB7F8948881209582238883FA
:102B5000EC912E230BC0623061F49FB7F89438815A
:102B6000822F809583238883EC912E2B2C939FBFFB
:102B700006C08FB7F894E8812E2B28838FBFDF9192
:102B8000CF910895863308F0865390917B00282FCB
:102B90002870977F922B90937B008770806480933E
:102BA0007C0080917A00806480937A0080917A0022
:102BB00086FDFCCF809178002091790090E0922BE7
:102BC00008953FB7F8948091DE039091DF03A091C0
:102BD000E003B091E10326B5A89B05C02F3F19F093
:102BE0000196A11DB11D3FBFBA2FA92F982F88278D
:102BF000820F911DA11DB11DBC01CD0142E0660FE8
:102C0000771F881F991F4A95D1F708958F929F9239
:102C1000AF92BF92CF92DF92EF92FF926B017C0155
:102C20000E94E1154B015C01C114D104E104F104DF
:102C3000F1F00E94E115DC01CB0188199909AA097C
:102C4000BB09883E9340A105B10570F321E0C21A8B
:102C5000D108E108F10888EE880E83E0981EA11CD7
:102C6000B11CC114D104E104F10419F7DDCFFF90C8
:102C7000EF90DF90CF90BF90AF909F908F9008958E
:102C80002FB7F8946091DA037091DB038091DC0335
:102C90009091DD032FBF0895CF92DF92EF92FF92C4
:102CA0000F931F93CF93DF93CDB7DEB7C054D140BE
:102CB0000FB6F894DEBF0FBECDBF0E944016009144
:102CC00094041091950420919604309197046B011F
:102CD0007C01C01AD10AE20AF30A40EDC41647E0AB
:102CE000D406E104F10418F480919C04BCC0609304
:102CF0009404709395048093960490939704109293
:102D00008F0410928E0410928D0410928C041092F5
:102D10008B0461E0809190040E9409156AEF70E0D5
:102D200080E090E00E94061661E0809190040E948D
:102D3000861560E0809190040E94091564E170E0BE
:102D400080E090E00E940616F89461E08091900483
:102D50000E9409158BE990E00197F1F762E08091FC
:102D600090040E94861583E290E00197F1F780E0DD
:102D70000E94CD12672B682B692B21F410929C04C2
:102D800078943EC081E00E94CD12672B682B692B9E
:102D9000A9F38E010F5F1F4F6E018FEBC81A8EEFE4
:102DA000D80A780180E00E94CD12F7016083718318
:102DB0008283938381E00E94CD12F701648375833F
:102DC00086839783F8E0EF0EF11CEC14FD0451F7B5
:102DD000789420E030E0F801408151816281738174
:102DE000C480D580E680F7804115510561057105E5
:102DF00029F0C114D104E104F10421F410929C04DF
:102E000080E031C0F90183E0F595E7958A95E1F717
:102E1000E557FB4F8081880F4C155D056E057F05DA
:102E200008F4816080832F5F3F4F085F1F4F283277
:102E3000310589F620918F0430E040918B04809118
:102E40008C0490E0840F911D40918D04840F911D9E
:102E500040918E04840F911D99272817390771F628
:102E600081E080939C04C05CDE4F0FB6F894DEBF17
:102E70000FBECDBFDF91CF911F910F91FF90EF90CB
:102E8000DF90CF900895789484B5826084BD84B536
:102E9000816084BD85B5826085BD85B5816085BD55
:102EA00080916E00816080936E001092810080910D
:102EB0008100826080938100809181008160809395
:102EC0008100809180008160809380008091B100BA
:102ED00084608093B1008091B00081608093B000E5
:102EE0008091910082608093910080919100816037
:102EF00080939100809190008160809390008091F8
:102F0000A10082608093A1008091A10081608093E4
:102F1000A1008091A00081608093A0008091210198
:102F20008260809321018091210181608093210141
:102F30008091200181608093200180917A008460DB
:102F400080937A0080917A00826080937A008091E9
:102F50007A00816080937A0080917A008068809303
:102F60007A001092C100E091FE03F091FF0382E02D
:102F70008083E091FA03F091FB031082E091FC035F
:102F8000F091FD038FEC808310920604E09102041F
:102F9000F091030486E08083E0910004F091010445
:102FA000808180618083E0910004F0910104808140
:102FB00088608083E0910004F09101048081806842
:102FC0008083E0910004F091010480818F7D8083F3
:102FD0008AE993E00E94AB148DE994E00E948E058B
:102FE000811104C08CEA93E00E94AB1440E050E8E9
:102FF00068ED73E48DE994E00E9498128DE994E005
:103000000E948B1461E087E00E9486150E942109CE
:103010000E94180DFBCFEEEEF3E01382128288EED1
:1030200093E0A0E0B0E084839583A683B78383E731
:1030300092E09183808385EC90E09587848784EC8F
:1030400090E09787868780EC90E0918B808B81EC75
:1030500090E0938B828B82EC90E0958B848B86EC56
:1030600090E0978B868B118E128E138E148EABEBA5
:10307000B5E013961C921E92129715961C921E9202
:10308000149717961C921E92169785E892E0119657
:103090009C938E93EDE9F4E0138212828FEF848388
:1030A0008287838714861586108A1786128A118A6A
:1030B000148A138A178A168AB18FA08F9AE0928F8A
:1030C00029E932E0318320831092BA0592E0938F90
:1030D000848FABE8B4E087E315968C9315978BE06B
:1030E00016968C931697EFE6F3E0E4911796EC931F
:1030F0001797E9E2F3E0E4911896EC93189740E80B
:103100005EE360E070E01D964D935D936D937C935C
:10311000509708958F929F92AF92BF92CF92DF9275
:10312000EF92FF92CF93DF93EC01688179818A81DE
:103130009B81611571058105910521F464E279EDAA
:103140008BE597E02DE133EF41E050E00E94ED1870
:1031500049015A019B01AC01A7EAB1E40E940C1994
:103160006B017C01ACEEB4EFA50194010E941A1929
:10317000DC01CB018C0D9D1DAE1DBF1DB7FF03C033
:103180000197A109B04888839983AA83BB83BC01B6
:10319000CD019F77DF91CF91FF90EF90DF90CF909F
:1031A000BF90AF909F908F9008950C948A1889E1FA
:1031B00092E00C948A186093190270931A0280931B
:1031C0001B0290931C020895FB01DC0102C00590D4
:1031D0000D9241505040D8F70895052E97FB1EF4EC
:1031E00000940E94041957FD07D00E941F1907FC84
:1031F00003D04EF40C9404195095409530952195C8
:103200003F4F4F4F5F4F0895909580957095619512
:103210007F4F8F4F9F4F08950E944119A59F900D9A
:10322000B49F900DA49F800D911D11240895B7FFA8
:103230000C940C190E940C19821B930B0895A1E2A7
:103240001A2EAA1BBB1BFD010DC0AA1FBB1FEE1F20
:10325000FF1FA217B307E407F50720F0A21BB30B6B
:10326000E40BF50B661F771F881F991F1A9469F7E7
:1032700060957095809590959B01AC01BD01CF0143
:103280000895A29FB001B39FC001A39F700D811D3F
:103290001124911DB29F700D811D1124911D08955F
:1032A0005058BB27AA270E9468190C94E21A0E9462
:1032B000D41A38F00E94DB1A20F039F49F3F19F439
:1032C00026F40C94D11A0EF4E095E7FB0C94CB1A7B
:1032D000E92F0E94F31A58F3BA176207730784079D
:1032E000950720F079F4A6F50C94151B0EF4E095E3
:1032F0000B2EBA2FA02D0B01B90190010C01CA01B0
:10330000A0011124FF27591B99F0593F50F4503E5A
:1033100068F11A16F040A22F232F342F4427585F4C
:10332000F3CF469537952795A795F0405395C9F764
:103330007EF41F16BA0B620B730B840BBAF091501C
:10334000A1F0FF0FBB1F661F771F881FC2F70EC0BB
:10335000BA0F621F731F841F48F48795779567958E
:10336000B795F7959E3F08F0B0CF9395880F08F07A
:103370009927EE0F9795879508950E94A71A08F44C
:1033800081E008950E94D6190C94E21A0E94DB1A7B
:1033900058F00E94D41A40F029F45F3F29F00C94B1
:1033A000CB1A51110C94161B0C94D11A0E94F31ACB
:1033B00068F39923B1F3552391F3951B550BBB2764
:1033C000AA2762177307840738F09F5F5F4F220FA9
:1033D000331F441FAA1FA9F335D00E2E3AF0E0E8A0
:1033E00032D091505040E695001CCAF72BD0FE2FEA
:1033F00029D0660F771F881FBB1F2617370748077E
:10340000AB07B0E809F0BB0B802DBF01FF27935835
:103410005F4F3AF09E3F510578F00C94CB1A0C9414
:10342000161B5F3FE4F3983ED4F386957795679536
:10343000B795F7959F5FC9F7880F911D969587956A
:1034400097F90895E1E0660F771F881FBB1F621789
:1034500073078407BA0720F0621B730B840BBA0B47
:10346000EE1F88F7E09508950E943B1A6894B11109
:103470000C94161B08950E94FB1A88F09F5798F031
:10348000B92F9927B751B0F0E1F0660F771F881F69
:10349000991F1AF0BA95C9F714C0B13091F00E9483
:1034A000151BB1E008950C94151B672F782F882702
:1034B000B85F39F0B93FCCF3869577956795B395AA
:1034C000D9F73EF490958095709561957F4F8F4F19
:1034D0009F4F0895E89409C097FB3EF4909580951E
:1034E000709561957F4F8F4F9F4F9923A9F0F92FCA
:1034F00096E9BB279395F695879577956795B79548
:10350000F111F8CFFAF4BB0F11F460FF1BC06F5F2D
:103510007F4F8F4F9F4F16C0882311F096E911C03F
:10352000772321F09EE8872F762F05C0662371F060
:1035300096E8862F70E060E02AF09A95660F771F74
:10354000881FDAF7880F9695879597F90895990F50
:103550000008550FAA0BE0E8FEEF16161706E8075D
:10356000F907C0F012161306E407F50798F0621B7E
:10357000730B840B950B39F40A2661F0232B242B53
:10358000252B21F408950A2609F4A140A6958FEF72
:10359000811D811D089597F99F6780E870E060E0C4
:1035A00008959FEF80EC089500240A9416161706DC
:1035B00018060906089500240A9412161306140624
:1035C00005060895092E0394000C11F4882352F087
:1035D000BB0F40F4BF2B11F460FF04C06F5F7F4F3F
:1035E0008F4F9F4F089557FD9058440F551F59F026
:1035F0005F3F71F04795880F97FB991F61F09F3FE0
:1036000079F087950895121613061406551FF2CF08
:103610004695F1DF08C0161617061806991FF1CF58
:1036200086957105610508940895E894BB2766277F
:103630007727CB0197F908950E94A71A08F48FEF16
:1036400008950E94341B0C94E21A0E94D41A38F098
:103650000E94DB1A20F0952311F00C94CB1A0C94E5
:10366000D11A11240C94161B0E94F31A70F3959F23
:10367000C1F3950F50E0551F629FF001729FBB2769
:10368000F00DB11D639FAA27F00DB11DAA1F649F05
:103690006627B00DA11D661F829F2227B00DA11DB8
:1036A000621F739FB00DA11D621F839FA00D611D3E
:1036B000221F749F3327A00D611D231F849F600D5F
:1036C000211D822F762F6A2F11249F5750409AF088
:1036D000F1F088234AF0EE0FFF1FBB1F661F771F14
:1036E000881F91505040A9F79E3F510580F00C94DF
:1036F000CB1A0C94161B5F3FE4F3983ED4F38695E7
:1037000077956795B795F795E7959F5FC1F7FE2B7E
:10371000880F911D9695879597F908950E94A71A8D
:10372000880B990B089597FB072E16F4009407D089
:1037300077FD09D00E94AF1B07FC05D03EF49095A1
:1037400081959F4F0895709561957F4F0895EE0F75
:10375000FF1F881F8BBF0790F691E02D1994AA1BBD
:10376000BB1B51E107C0AA1FBB1FA617B70710F06C
:10377000A61BB70B881F991F5A95A9F7809590959E
:10378000BC01CD01089581E090E0F8940C94E11B18
:10379000FB01DC0102C001900D9241505040D8F76E
:1037A0000895FB01DC018D91019080190110D9F37E
:1037B000990B0895FB01DC0101900D920020E1F7C7
:0637C0000895F894FFCF0C
:1037C60061726475696E6F3100170C170C170C1750
:1037D6000C170C170C170C170C010000000000004A
:1037E6000043050000803FCDCCCC3D6F12833A9557
:1037F600BFD6337D1D9026B3CE010CCDCCCC3D0A71
:10380600D7233C17B7D13877CC2B329595E6241FB2
:10381600B14F0A000020410000C84200401C46206B
:10382600BCBE4CCA1B0E5AAEC59D740500040400EE
:10383600000000AF0C180C470CF60C780C560C6AFE
:103846000C000000005D0D590D550DB60D510D23F0
:10385600131F131B13000000008E05AD11DD0E11A2
:1038660012B20DA10D990D230E540E890E7B1191E6
:103876000D8E0D8B0D880D810D940D7E0D7B0D78B3
:103886000D750D981122225C5C6208660C6E0A7238
:103896000D7409006E756C6C007472756500666156
:1038A6006C7365004E614E00652D00496E66696E4B
:1038B6006974790073656E640061726475696E6F10
:1038C600310054656D706572617475726500487576
:1038D6006D6964697479004C6967687400536F7523
:1038E6006E640053656E64696E6720746F204C6F5A
:1038F600526120536572766572203A2000726563C4
:103906006569766564203A004944004E6F74204A22
:10391600736F6E004C454400737461746500577292
:103926006F6E6720656E7472790077726F6E6720AE
:103936006163747561746F72004E6F7420666F7286
:10394600206D650072656376206661696C6564004A
:103956004E6F207265706C792E00537461727420FC
:103966004C6F526120436C69656E7400696E6974B0
:10397600206661696C656400646174610074696DD8
:0639860065000D0A0000BF
:00000001FF
