:100000000C9470000C9433050C940C050C9498001F
:100010000C9498000C9498000C9498000C94980000
:100020000C9498000C9498000C9498000C949800F0
:100030000C9498000C9498000C9498000C949800E0
:100040000C94C2040C9498000C9480050C945A05EE
:100050000C9498000C9498000C9498000C949800C0
:100060000C9498000C9498003A0733074D07440706
:10007000400707072B07CD060000000024002700DB
:100080002A0000000000250028002B0000000008C6
:10009000000201000003040700000000000000004F
:1000A00000000000230026002900040404040404C6
:1000B0000404020202020202030303030303010217
:1000C00004081020408001020408102001020408E6
:1000D000102072740092740048940078C400A41038
:1000E00011241FBECFEFD8E0DEBFCDBF12E0A0E0ED
:1000F000B1E0E8E0FAE202C005900D92AA3CB10737
:10010000D9F724E0AAECB2E001C01D92A73CB207E7
:10011000E1F710E0C0E7D0E004C02197FE010E94A3
:10012000D114CF36D107C9F70E9423110C940215C0
:100130000C9400008F929F92AF92BF92CF92DF9269
:10014000EF92FF92CF93DF93A0916E03882311F07B
:100150003A2F01C030E080916F0390E0880F991F23
:1001600080569F4FC0907403D0907503E090760343
:10017000F090770340E050E0BA01FC01C591D491C2
:1001800028812A2323130FC04A015B012FEF821A13
:10019000920AA20AB20A4C155D056E057F0538F475
:1001A000B501A401EACF342F252FCB0104C030E0E4
:1001B00020E080E090E0632F722FDF91CF91FF90DD
:1001C000EF90DF90CF90BF90AF909F908F90089569
:1001D000FC01738362830895FC017783668308952D
:1001E000FC01758364830895089508950895CF925E
:1001F000DF92EF92FF920F931F93CF93DF936C01E7
:100200007A018B01C0E0D0E0CE15DF0589F0D8017E
:100210006D918D01D601ED91FC910190F081E02D61
:10022000C6010995892B11F47E0102C02196ECCFFD
:10023000C701DF91CF911F910F91FF90EF90DF9059
:10024000CF900895089580E090E00895FC01538DCB
:10025000448D252F30E0842F90E0821B930B5417A0
:1002600010F0CF96089501970895FC01918D828D2D
:10027000981761F0828DDF01A80FB11D5D968C91FA
:10028000928D9F5F9F73928F90E008958FEF9FEF05
:100290000895FC01918D828D981731F0828DE80FC1
:1002A000F11D858D90E008958FEF9FEF0895FC017B
:1002B000918D228D892F90E0805C9F4F821B910948
:1002C0008F73992708958AEC92E00E94570121E0EC
:1002D000892B09F420E0822F0895FC01848DDF0131
:1002E000A80FB11DA35ABF4F2C91848D90E00196A9
:1002F0008F739927848FA689B7892C93A089B18998
:100300008C9180648C93938D848D981306C00288A1
:10031000F389E02D80818F7D80830895EF92FF9295
:100320000F931F93CF93DF93EC0181E0888F9B8D18
:100330008C8D981305C0E889F989808185FD24C0DA
:10034000F62E0B8D10E00F5F1F4F0F731127E02E5D
:100350008C8DE8120CC00FB607FCFACFE889F9893A
:10036000808185FFF5CFCE010E946D01F1CF8B8D8D
:10037000FE01E80FF11DE35AFF4FF0820B8FEA896F
:10038000FB898081806207C0EE89FF896083E889EC
:10039000F98980818064808381E090E0DF91CF9152
:1003A0001F910F91FF90EF900895CF93DF93EC0191
:1003B000888D8823C9F0EA89FB89808185FD05C085
:1003C000A889B9898C9186FD0FC00FB607FCF5CFBF
:1003D000808185FFF2CFA889B9898C9185FFEDCF07
:1003E000CE010E946D01E7CFDF91CF91089580E0AB
:1003F00090E0892B29F00E94630181110C94000088
:1004000008950E94EB140F931F93CF93DF93EC0199
:100410008B0169EB71E00E942109FC01892B51F4E9
:10042000CE010E94FE08FC01892B99F089EB91E036
:1004300093838283E80188819981AA81BB8128E026
:1004400030E03583248386839783A087B18781E05A
:1004500001C080E0DF91CF911F910F9108950F931C
:100460001F93CF93DF93EC018B016EEB71E00E9441
:100470002109FC01892B51F4CE010E94FE08FC01E8
:10048000892B09F18EEB91E093838283D8014D9102
:100490005C9157FD07C0052E000C660B770B84E0BE
:1004A00090E009C0519541955109052E000C660B4D
:1004B000770B85E090E0958384834683578360873C
:1004C000718781E001C080E0DF91CF911F910F9192
:1004D0000895009769F0FC0101900020E9F7319739
:1004E000AF01481B590BBC018AEC92E00C94F70059
:1004F00080E090E00895CF93DF930E946902EC01C1
:1005000083EC91E00E9469028C0F9D1FDF91CF91D7
:1005100008958230B8F4E82FF0E0EE0FFF1FE050AE
:10052000FF4F71836083813039F08091690083606F
:1005300080936900E89A0895809169008C608093A7
:100540006900E99A089590E0FC01E457FF4F349167
:10055000FC01E254FF4F2491FC01E655FF4FE4916A
:10056000EE2309F43BC0332339F1333091F038F4F2
:100570003130A9F0323001F584B58F7D12C03730AB
:1005800091F03830A1F03430B9F4809180008F7D43
:1005900003C0809180008F77809380000DC084B568
:1005A0008F7784BD09C08091B0008F7703C08091A0
:1005B000B0008F7D8093B000F0E0EE0FFF1FEE578C
:1005C000FF4FA591B4918FB7F894EC91611103C0DE
:1005D00020952E2301C02E2B2C938FBF0895CF93EF
:1005E000DF9390E0FC01E254FF4F2491FC01E655BB
:1005F000FF4F8491882361F190E0880F991FFC01DF
:10060000E858FF4FC591D491FC01EE57FF4FA591DB
:10061000B491611109C09FB7F89488812095822315
:100620008883EC912E230BC0623061F49FB7F8945D
:100630003881822F809583238883EC912E2B2C93F5
:100640009FBF06C08FB7F894E8812E2B28838FBFF9
:10065000DF91CF9108958E3008F08E5087708064BE
:1006600080937C0080917A00806480937A008091EE
:100670007A0086FDFCCF809178002091790090E08F
:10068000922B08953FB7F89480919C0490919D041B
:10069000A0919E04B0919F0426B5A89B05C02F3F52
:1006A00019F00196A11DB11D3FBFBA2FA92F982F98
:1006B0008827820F911DA11DB11DBC01CD0142E013
:1006C000660F771F881F991F4A95D1F708958F925B
:1006D0009F92AF92BF92CF92DF92EF92FF926B0107
:1006E0007C010E9442034B015C01C114D104E1046E
:1006F000F104F1F00E944203DC01CB018819990951
:10070000AA09BB09883E9340A105B10570F321E019
:10071000C21AD108E108F10888EE880E83E0981E1D
:10072000A11CB11CC114D104E104F10419F7DDCFFF
:10073000FF90EF90DF90CF90BF90AF909F908F9001
:100740000895CF93DF93EC01888D998DDC01ED91B5
:10075000FC910680F781E02D099561E08A8D0E9469
:10076000EF0261E08A8D0E94A30264E670E080E0FF
:1007700090E00E94670381E0DF91CF9108952FB749
:10078000F894609198047091990480919A049091E2
:100790009B042FBF0895CF92DF92EF92FF920F93A9
:1007A0001F93CF93DF93CDB7DEB7C054D1400FB6C0
:1007B000F894DEBF0FBECDBF0E94BF03009170034F
:1007C0001091710320917203309173036B017C01CE
:1007D000C01AD10AE20AF30A40EDC41647E0D40673
:1007E000E104F10418F480917803BCC060937003B5
:1007F00070937103809372039093730310926B0351
:1008000010926A03109269031092680310926703B2
:1008100061E080916C030E94A3026AEF70E080E0C7
:1008200090E00E94670361E080916C030E94EF02F8
:1008300060E080916C030E94A30264E170E080E0BC
:1008400090E00E946703F89461E080916C030E943D
:10085000A3028BE990E00197F1F762E080916C03CD
:100860000E94EF0283E290E00197F1F780E00E949E
:100870009A00672B682B692B21F4109278037894E7
:100880003EC081E00E949A00672B682B692BA9F378
:100890008E010F5F1F4F6E018FEBC81A8EEFD80AC3
:1008A000780180E00E949A00F7016083718382835F
:1008B000938381E00E949A00F701648375838683A5
:1008C0009783F8E0EF0EF11CEC14FD0451F77894D7
:1008D00020E030E0F8014081518162817381C48061
:1008E000D580E680F780411551056105710529F035
:1008F000C114D104E104F10421F41092780380E0E2
:1009000031C0F90183E0F595E7958A95E1F7E9595A
:10091000FC4F8081880F4C155D056E057F0508F43E
:10092000816080832F5F3F4F085F1F4F2832310562
:1009300089F620916B0330E0409167038091680352
:1009400090E0840F911D40916903840F911D4091A7
:100950006A03840F911D99272817390771F681E0E2
:1009600080937803C05CDE4F0FB6F894DEBF0FBEF5
:10097000CDBFDF91CF911F910F91FF90EF90DF904E
:10098000CF9008951F920F920FB60F9211242F93BC
:100990003F938F939F93AF93BF93809198049091CF
:1009A0009904A0919A04B0919B043091970423E09C
:1009B000230F2D3720F40196A11DB11D05C026E897
:1009C000230F0296A11DB11D2093970480939804D4
:1009D00090939904A0939A04B0939B0480919C04F3
:1009E00090919D04A0919E04B0919F040196A11D39
:1009F000B11D80939C0490939D04A0939E04B0939A
:100A00009F04BF91AF919F918F913F912F910F9034
:100A10000FBE0F901F9018951F920F920FB60F9256
:100A200011242F933F934F935F936F937F938F93F3
:100A30009F93AF93BF93EF93FF93E0910201F091E7
:100A400003010995FF91EF91BF91AF919F918F9114
:100A50007F916F915F914F913F912F910F900FBEBA
:100A60000F901F9018951F920F920FB60F9211249E
:100A70002F933F934F935F936F937F938F939F93A6
:100A8000AF93BF93EF93FF93E0910001F0910101C9
:100A90000995FF91EF91BF91AF919F918F917F91B8
:100AA0006F915F914F913F912F910F900FBE0F90DB
:100AB0001F9018951F920F920FB60F9211242F932B
:100AC0003F934F935F936F937F938F939F93AF93D6
:100AD000BF93EF93FF938AEC92E00E946D01FF9128
:100AE000EF91BF91AF919F918F917F916F915F91A6
:100AF0004F913F912F910F900FBE0F901F9018951F
:100B00001F920F920FB60F9211242F938F939F93E2
:100B1000EF93FF93E091DA02F091DB028081E091A4
:100B2000E002F091E10282FD12C090818091E30227
:100B30008F5F8F732091E402821751F0E091E302FE
:100B4000F0E0E653FD4F958F8093E30201C0808172
:100B5000FF91EF919F918F912F910F900FBE0F906A
:100B60001F901895EF92FF920F931F93CF93DF93EF
:100B70001F92CDB7DEB77C01162F0FB7F89460E057
:100B8000DC015A968C9149830E94A302F701808D63
:100B9000918DDC01ED91FC91612F60680190F081F5
:100BA000E02D0995182FF701808D918DDC01ED91D5
:100BB000FC910190F081E02D4981642F099561E05D
:100BC000F701828D0E94A3020FBF812F0F90DF914A
:100BD000CF911F910F91FF90EF900895CF93DF93E6
:100BE000EC0144E06DE40E94B20548E869E0CE0102
:100BF000DF91CF910C94B2050F931F93CF93DF93A6
:100C0000EC01162F0FB7F89460E08A8D0E94A302C2
:100C1000888D998DDC01ED91FC91612F6F770190AA
:100C2000F081E02D0995888D998DDC01ED91FC9185
:100C30000190F081E02D60E00995182F61E08A8D28
:100C40000E94A3020FBF812FDF91CF911F910F91BF
:100C50000895FC0126813781620F731F848195817D
:100C60008617970738F08281938177836683820F96
:100C7000931F089580E090E00895DB01109749F0FC
:100C8000ED91FC9111970190F081E02DBC01CD0117
:100C9000099480E090E00895CF93DF93EC01BC01CC
:100CA00084E090E00E943D06FC01009729F0D1838A
:100CB000C0831382128211C08091B80481110BC0CD
:100CC0001092B5041092B4041092B7041092B604B6
:100CD00081E08093B80484EB94E0DF91CF91089594
:100CE000FF920F931F93CF93DF936115710549F422
:100CF00063EF71E0DF91CF911F910F91FF900C9402
:100D0000E30F8B01EC0162E2CE010E947C10F8013E
:100D100061918F01662351F0E4EEF1E0F080FF2055
:100D200099F39181961759F03296F8CF62E2CE018D
:100D3000DF91CF911F910F91FF900C947C106CE587
:100D4000CE010E947C106F2DDFCF2F923F924F92E9
:100D50005F926F927F928F929F92AF92BF92CF924B
:100D6000DF92EF92FF920F931F93CF93DF93CDB754
:100D7000DEB762970FB6F894DEBF0FBECDBFDC01C1
:100D8000ED91FC913197E830F10508F0ECC18B0151
:100D90007C01EC5CFF4F0C94D114FC01C280D38029
:100DA000E480F580A7019601C701B6010E94F31205
:100DB000882319F063E072E07EC020E030E0A901F2
:100DC000C701B6010E94F31287FF08C06DE2C80197
:100DD0000E947C10F7FAF094F7F8F09420E030E0ED
:100DE000A901C701B6010E94F312882309F467C064
:100DF000A7019601C701B6010E948712A7019601BB
:100E00000E94F31281115BC06AE072E054C0FC01E1
:100E1000E280F3806BE5C8010E947C10D701129636
:100E2000ED90FC901397E114F10459F0B801C7015B
:100E300002960E94A506F701E080F180E114F1041A
:100E400029F46DE5C8010E947C108DC16CE2C801D7
:100E50000E947C10E8CFDC0112968D919C91139733
:100E60000E94CC0880C1FC0162817381C8010E948C
:100E7000700679C1DC0112966D917C9113971BC0AD
:100E80006DE2C8010E947C10F701428153816481A8
:100E90007581C8010E94371066C1FC01828193816F
:100EA000A481B581892B8A2B8B2B19F46DEF71E00E
:100EB00002C068EF71E0C8010E94E30F54C120E84E
:100EC00036E948E15BE4C701B6010E944B1487FD97
:100ED00042C1A12CB12C70E2872E912C212C312CF7
:100EE000F501E356FE4F2489358946895789C701A4
:100EF000B6010E944B1487FD0FC0F501EB57FE4F62
:100F00002489358946895789C701B6010E94501442
:100F10006B017C01280C391C95948794F4E0AF1A7E
:100F2000B10888EEA8168FEFB806D1F677247A9428
:100F300020E030E0A901C701B6010E944B14181649
:100F400094F52CEA35EC47E257E3C701B6010E945D
:100F5000F312181644F1BFEF7B1629F1972DA4E088
:100F60009A0250011124F501E359FE4F208131818D
:100F700042815381C701B6010E94F31287FF0FC05F
:100F8000F501E356FE4F2081318142815381C70133
:100F9000B6010E9450146B017C0128183908959401
:100FA00087947A94D8CFC701B6010E946A134B0187
:100FB0005C010E9499139B01AC01C701B6010E941C
:100FC000861220E034E244E759E40E9450142B01D9
:100FD0003C010E946A136B017C010E9499139B01E2
:100FE000AC01C301B2010E9486129B01AC010E94B8
:100FF00087120E946A13C60ED71EE81EF91EE0E48F
:10100000CE16E2E4DE06EFE0EE06F104E0F0FFEFDC
:101010008F1A9F0AAF0ABF0A2114310489F08AE0AF
:1010200088169104A104B10458F09FEF291A390AD7
:10103000C12CD12C7601812C912C5401839403C0B6
:10104000C12CD12C760124013501A6E0AA8BBA89E6
:10105000B98BB150BA8BEAE04E16510461047104A9
:10106000A8F0C701B6012AE030E040E050E00E945D
:10107000551269017A01C301B2012AE030E040E073
:1010800050E00E94551229013A01E1CF3AE0432E87
:10109000512C612C712CC701B601A30192010E9451
:1010A0005512672B682B692BB1F089898A8BB501A2
:1010B000A401C8010E94371099899923A1F1188AC7
:1010C0005E01B0E1AB0EB11C45012AE0422E512C6D
:1010D000612C712C0BC0A9891A1634F469017A01AC
:1010E000F989F150F98BD7CFAA8BE1CFFA89F1506A
:1010F000FA8BFF3F69F0C701B601A30192010E947C
:101100005512605DF50162935F0169017A01EECFCE
:10111000B4018989681B71098EE2DB018E93BD01E0
:10112000C8010E94E30F37FE0AC067E072E0C80101
:101130000E94E30F662777276219730908C02114FC
:10114000310489F065E6C8010E947C10B101C80134
:101150000E940C1008C080E2882E912C95E0792E18
:10116000212C312CE5CE62960FB6F894DEBF0FBE6F
:10117000CDBFDF91CF911F910F91FF90EF90DF9046
:10118000CF90BF90AF909F908F907F906F905F9027
:101190004F903F902F9008950F931F93CF93DF931D
:1011A0008C01EB016BE7CE010E947C10F8010281FB
:1011B000138101151105A9F0F80162817381CE0137
:1011C0000E9470066AE3CE010E947C10BE01C80135
:1011D00004960E94A506F8010081118101151105F0
:1011E00041F46DE7CE01DF91CF911F910F910C94E7
:1011F0007C106CE2CE010E947C10DBCFCF93DF939A
:10120000EC01688179818AE090E00E943D060097B8
:1012100029F0FC011182108215821482EA81FB817F
:10122000309751F0208131812115310511F0F901FC
:10123000F9CF9183808302C09B838A83DF91CF9112
:1012400008950F931F93CF93DF938B01FC01C2810D
:10125000D381209759F06A817B81C8010E94F914DB
:10126000892B21F00990D881C02DF3CFCE01DF91D9
:10127000CF911F910F910895CF92DF92EF92FF923D
:101280000F931F93CF93DF93FC01208131812115B0
:10129000310581F48091B804811130C01092B504F9
:1012A0001092B4041092B7041092B60481E08093B7
:1012B000B80424C07B018C01C9010E944C06EC01DA
:1012C000B701C8010E942109FC01892B41F4C80122
:1012D0000E94FE08FC01892BA1F0F382E282888142
:1012E0009981892B19F480E090E003C06E0187E0BA
:1012F00090E095838483C682D78203C084EB94E018
:1013000001C0CE01DF91CF911F910F91FF90EF901F
:10131000DF90CF9008954F925F926F927F928F925D
:101320009F92AF92BF92CF92DF92EF92FF920F9374
:101330001F93CF93DF93CDB7DEB7C15AD3400FB61B
:10134000F894DEBF0FBECDBF0E94CB030E94CB033B
:101350008EE00E942B03BC01990F880B990B0E9411
:101360009B132B013C0183E10E942B03BC01990FCD
:10137000880B990B0E949B132AE038E240EA5BE35A
:101380000E94501420E030E04AE754E40E945014D8
:101390004B015C019B01AC0160E070E48CE995E4D9
:1013A0000E9486129B01AC01C501B4010E94F81293
:1013B00020E030E44CE156E40E9450149B01AC0163
:1013C00060E074E284E799E40E9486122DEC3CEC24
:1013D00049EF54E40E94F812C556DC4F68837983C4
:1013E0008A839B83CB59D3400E944203C156DC4F72
:1013F00079836883CF59D3408BEFCF55DC4F8883F7
:10140000C15AD3407E0189E3E81A8DEFF80AC7017B
:101410000896D70113969C938E93129788EC90E0D0
:1014200015969C938E93149717961C921E9216975E
:101430008BE691E08D939C93B70184E090E00E944D
:101440003D06009739F0FC01F182E082138212829E
:101450008C0111C08091AC0481110BC01092A904C1
:101460001092A8041092AB041092AA0481E0809319
:10147000AC0408EA14E0D8018D919C91009781F4A6
:101480008091B804811148C01092B5041092B40440
:101490001092B7041092B60481E08093B8043CC067
:1014A0000E944C067C01F8016081718188E090E027
:1014B0000E943D06FC01892B21F0118210821382CB
:1014C0001282D80112962D913C9113972115310566
:1014D00059F0D9018D919C911197009711F09C01C1
:1014E000F8CFED93FC9305C0D8011396FC93EE93CF
:1014F00012973097A1F0D7018D919C91892B19F407
:1015000080E090E004C0DE2CCF2C87E090E0938355
:101510008283D482C58203C084EB94E001C0C701FA
:1015200063E172E00E943C097C0168E172E00E9484
:101530003C098C0161E272E00E943C095C016DE2B1
:1015400072E0C8010E943C094C0166E372E0C801E8
:101550000E943C096C016CE372E0C8010E943C09E6
:101560008C01BE0161567C4FC5010E942F02BE0155
:1015700061567C4FC4010E942F02BE0161567C4F10
:10158000C6010E942F02BE0165567C4FC6010E9413
:101590000302BE0161567C4FC8010E942F0220E069
:1015A00030E040EA50E4C301B2010E94501420E050
:1015B00030E240E854E40E94F81269837A838B8316
:1015C0009C83BE016F5F7F4FC8010E94030287EFBB
:1015D00091E08C0F9D1F0896C750DE4F998388833A
:1015E000C95FD14088EC90E0C550DE4F9983888375
:1015F000CB5FD140C350DE4F19821882CD5FD140FE
:101600008BE691E0C950DE4F99838883C75FD14054
:10161000FE01E956FC4F8E0104501F4FCE018A5047
:101620009E4F9183808313830283D8011C92FA8397
:10163000E9831C821B82BE016F5F7F4FC7010E943E
:10164000CC0882E492E00E946902C8010E947B02F9
:101650004BEFB80189E793E00E94570D89E793E0CB
:101660000E94ED0B68EB7BE089E793E00E94880C19
:10167000882309F448C0AE014F555C4FBE016F5F2F
:101680007F4F89E793E00E94010E8823C9F18CE522
:1016900092E00E947B02CE0101960E947B0264E0F0
:1016A00071E0CE0101960E94F914892B31F187E691
:1016B00092E00E947B0268EB7BE089E793E00E9466
:1016C000880C882379F0AE014F555C4FBE016F5FE7
:1016D0007F4F89E793E00E94010E811107C082E7E6
:1016E00092E002C08EE792E00E947B0264EF71E01C
:1016F00080E090E00E946703D2CF86E892E005C0C8
:1017000082E792E002C088EA92E00E947B0268E8E9
:1017100073E180E090E00E946703CF55DC4F0FB685
:10172000F894DEBF0FBECDBFDF91CF911F910F9117
:10173000FF90EF90DF90CF90BF90AF909F908F90F1
:101740007F906F905F904F9008958CB58F7B8CBD8C
:1017500008958CB58F778CBD08958CB580688CBD4D
:1017600008956EBD00000DB407FEFDCF8EB508953F
:101770009CB5282F23709C7F922B9CBD2DB582FB9E
:10178000992790F9822F8E7F892B8DBD089580E057
:101790000895FC0181850895FC0180850895FC0170
:1017A00087810895FC0186810895FC014095958507
:1017B0004923642B65870895FC0164870895FC0123
:1017C00063870895FC0162870895FC01648308958E
:1017D000FC016583089580E00895FC012281338136
:1017E00023303105D1F381E00895CF93DF93EC01ED
:1017F000E881F9810280F381E02DCE0109958823EB
:10180000B9F3DF91CF91089581E008958BEF0895AA
:10181000CF93FC01268137812115310549F0213014
:10182000310541F02230310539F02330310531F0F6
:1018300020E005C024E003C028E001C02CE09CB5F6
:10184000937F922B9CBD84819581019761F58CB526
:1018500080628CBD8281938101978430910528F448
:10186000FC01EB54FE4FC08101C0C1E08C2F0E94EF
:10187000B80B61E08AE00E94A30261E08AE00E9466
:10188000EF028CB580618CBD8CB580648CBD61E04D
:101890008DE00E94EF0261E08BE00E94EF028C2F4E
:1018A000CF910C94B80B9CB59F7D9CBDD3CF8F92EC
:1018B0009F92AF92BF92CF92DF92EF92FF92CF931F
:1018C000DF93EC016B010E94BF034B015C01E12C33
:1018D000F12C0E94BF03DC01CB0188199909AA09E8
:1018E000BB098C159D05AE05BF0530F48A819B812F
:1018F000039779F381E001C080E0DF91CF91FF9001
:10190000EF90DF90CF90BF90AF909F908F90089511
:101910008F929F92AF92BF92CF92DF92EF92FF92FF
:10192000CF93DF93EC016B010E94BF034B015C017D
:10193000E12CF12C0E94BF03DC01CB01881999092D
:10194000AA09BB098C159D05AE05BF0550F4E881B9
:10195000F9810280F381E02DCE010995882351F3AE
:1019600001C080E0DF91CF91FF90EF90DF90CF90AA
:10197000BF90AF909F908F9008958F929F92AF925B
:10198000BF92CF92DF92EF92FF92CF93DF93FC0151
:1019900026893789232B11F481E038C0EC010E949D
:1019A000BF036B017C0189E0882E912CA12CB12C06
:1019B000E881F9810488F589E02DCE010995882315
:1019C00059F30E94BF03AB01BC014C195D096E09BC
:1019D0007F098E899F89A0E0B0E084179507A6074C
:1019E000B70798F00E940C12A50194010E942312DF
:1019F0009B01AC012F5F3F4F4F4F5F4FA4E6B0E01C
:101A00000E9442120E946703D3CF80E0DF91CF9102
:101A1000FF90EF90DF90CF90BF90AF909F908F900E
:101A20000895CF93DF93EC018A819B81059771F034
:101A300047E061E0CE010E94B20540E860E4CE01DB
:101A40000E94B20585E090E09B838A838A819B8116
:101A50000597E1F38D89DF91CF910895CF93DF93BF
:101A6000FC01228133812130310549F0EC0140E055
:101A700061E00E94B20581E090E09B838A8381E06F
:101A8000DF91CF910895CF93DF93FC0122813381C1
:101A90002230310549F0EC0141E061E00E94B205DD
:101AA00082E090E09B838A83DF91CF910895BF927B
:101AB000CF92DF92EF92FF920F931F93CF93DF931A
:101AC0004C3F10F0E12C6FC0142F072FF62EEC01C5
:101AD000E881F9810484F585E02D0995CE010E9405
:101AE000430DE881F9810288F389E02DCE01099543
:101AF000E82E882339F340E06DE0CE010E94B20564
:101B00004A8560E0CE010E94B2054B8560E0CE01BF
:101B10000E94B2054C8560E0CE010E94B2054D8561
:101B200060E0CE010E94B205BFB6F89460E08A8DF5
:101B30000E94A302888D998DDC01ED91FC910190AA
:101B4000F081E02D60E80995CF2CD02E012F0150B7
:101B500068F0888D998DF60161916F01DC01ED913E
:101B6000FC910190F081E02D0995F1CF61E08A8D23
:101B70000E94A302BFBE44E0410F62E2CE010E9478
:101B8000B2058A819B81039771F043E061E0CE0149
:101B90000E94B20540E460E4CE010E94B20583E0F9
:101BA00090E09B838A838E2DDF91CF911F910F91BF
:101BB000FF90EF90DF90CF90BF900895CF93DF9389
:101BC000FC012281338123303105B9F0EC0182819F
:101BD0009381049771F045E061E0CF010E94B20566
:101BE00040E060E4CE010E94B20584E090E09B8377
:101BF0008A83C35EDE4F888101C080E0DF91CF9190
:101C00000895CF92DF92EF92FF920F931F93CF939D
:101C1000DF93EC017B018A01E881F9810280F38185
:101C2000E02D0995D82E882339F1E114F104E1F073
:101C300001151105C9F0CFB6F8942D8D30E0235071
:101C40003109F801808190E0821793071CF09D8D87
:101C500094509083F801408150E0BE016E5D7F4F4B
:101C6000C7010E94F014CFBE8FB7F894FE01E35E67
:101C7000FE4F10821D8E8FBF8D2DDF91CF911F9152
:101C80000F91FF90EF90DF90CF900895DF92EF9249
:101C9000FF920F931F93CF93DF93EC0162E10E94B9
:101CA000FC052A813B812430310521F4982F907A5C
:101CB00009F068C02A813B812430310509F073C0E6
:101CC00086FF71C063E1CE010E94FC05F82E60E141
:101CD000CE010E94FC05482F6DE0CE010E94B205A6
:101CE000DFB6F89460E08A8D0E94A302888D998DFA
:101CF000DC01ED91FC910190F081E02D60E009950F
:101D00008E01025E1F4FEF2CE00EE01671F0888D01
:101D1000998DDC01ED91FC910190F081E02D60E066
:101D20000995F80181938F01F0CF61E08A8D0E94BF
:101D3000A302DFBEFD8E4FEF62E1CE010E94B2052D
:101D40006AE1CE010E94FC0589588E878D8DFE01C7
:101D5000E35EFE4F843090F08E8D8E838F8D8F8367
:101D600088A1888789A189878D81811129C09E8159
:101D70008C81981729F18E818F3F11F18081882302
:101D800031F02FC08F8598890196988B8F874FEF00
:101D900062E1CE01DF91CF911F910F91FF90EF9003
:101DA000DF900C94B2052A813B812330310581F408
:101DB00083FF0EC08B899C8901969C8B8B8B11C0F5
:101DC00089899A8901969A8B898B81E08083D6CF05
:101DD0002A813B8125303105D1F682FFD8CF817031
:101DE0008D8BCE010E94430DD2CF8091C50490917E
:101DF000C604009711F00C94460E08958091C30418
:101E00009091C404009711F00C94460E08958091AF
:101E1000C1049091C204009711F00C94460E0895ED
:101E2000CF92DF92EF92FF92CF93DF93EC01CB0141
:101E3000BA0120E034E244E759E40E94501420E063
:101E400034E244E752E40E94F8120E946A136B01E4
:101E50007C01A7016627772766E0CE010E94B205C4
:101E600077276F2D5E2D4D2D67E0CE010E94B205C4
:101E70004C2D68E0CE010E94B20581E0DF91CF9148
:101E8000FF90EF90DF90CF900895EF92FF920F9325
:101E90001F93CF93DF9300D01F92CDB7DEB78C0195
:101EA0000E94A103E82E811102C0E12C81C0F8013B
:101EB000838D823029F08330C1F7FF24F39401C071
:101EC000F12C40E861E0C8010E94B2056AE070E0D0
:101ED00080E090E00E94670361E0C8010E94FC0579
:101EE000803819F760E0F801838D0E94EF02F80155
:101EF000848D8F3F49F48091C0048430B0F691E026
:101F0000980F9093C004848FF801948DE92FF0E02E
:101F1000EE0FFF1FEF53FB4F11830083911103C09E
:101F200067E07FE00AC0913019F46EEF7EE005C0F3
:101F3000923009F0BACF65EF7EE08F2D0E948902C2
:101F400040E06EE0C8010E94B20540E06FE0C801C9
:101F50000E94B205C8010E94430D43E050E062EDCB
:101F600070E0CE0101960E941A1249816DE1C8010C
:101F70000E94B2054A816EE1C8010E94B2054B8100
:101F800066E2C8010E94B20540E060E2C8010E941A
:101F9000B20548E061E2C8010E94B20540E050E0AD
:101FA00069ED73E4C8010E94100FC8010E94EE059C
:101FB0008E2D0F900F900F90DF91CF911F910F9169
:101FC000FF90EF900895CF93DF93DC01ED91FC91AA
:101FD00042815381DB01C281D38120813181C217CB
:101FE000D30778F0188222813381241B350BFC0142
:101FF00042815381240F351F33832283DF91CF9198
:1020000008952C91222371F39E012F5F3F4F33835C
:1020100022832D912883DFCF0F931F93CF93DF93DC
:10202000CDB7DEB766970FB6F894DEBF0FBECDBF53
:102030008C01CB011E8AFE0176962AE030E0B901C0
:102040000E94BD1490E3980F9293CB010097B9F7CB
:10205000BF01C8010E94E30F66960FB6F894DEBF79
:102060000FBECDBFDF91CF911F910F9108958F9239
:102070009F92AF92BF92EF92FF920F931F93CF93D5
:10208000DF93CDB7DEB766970FB6F894DEBF0FBE0D
:10209000CDBF7C011E8A8E010A5E1F4F8AE0882E0A
:1020A000912CA12CB12CCB01BA01A50194010E9465
:1020B0005512942F852F605DF80162938F01A9015D
:1020C000692F782F411551056105710561F7BF0131
:1020D000C7010E94E30F66960FB6F894DEBF0FBEED
:1020E000CDBFDF91CF911F910F91FF90EF90BF90E7
:1020F000AF909F908F900895CF93DF93DC01ED9187
:10210000FC911197C281D38180819181C817D90731
:1021100060F4CE0101969383828368830280F38109
:10212000E02D108221E030E002C020E030E0129685
:102130008D919C911397280F391F13963C932E93E2
:102140001297DF91CF910895EAECF2E013821282A8
:1021500088EE93E0A0E0B0E084839583A683B78304
:1021600085E191E09183808385EC90E09587848779
:1021700084EC90E09787868780EC90E0918B808B51
:1021800081EC90E0938B828B82EC90E0958B848B3A
:1021900086EC90E0978B868B118E128E138E148EA8
:1021A000A0EAB4E013961C921E92129715961C9208
:1021B0001E92149717961C921E92169787E291E032
:1021C00011969C938E93E9E7F3E0138212828FEFCE
:1021D00084838287838714861586108A1786128ADD
:1021E000118A148A138A178A168AB18FA08F9AE0EF
:1021F000928F2BE331E0318320831092960492E09A
:10220000938F848FA7E6B3E080E115968C931597A2
:102210008BE016968C931697EEECF0E0E49117960F
:10222000EC931797EAEBF0E0E4911896EC9318978B
:1022300040E85EE360E070E01D964D935D936D9322
:102240007C9350970895789484B5826084BD84B55A
:10225000816084BD85B5826085BD85B5816085BDA1
:1022600080916E00816080936E0010928100809159
:1022700081008260809381008091810081608093E1
:102280008100809180008160809380008091B10006
:1022900084608093B1008091B00081608093B00031
:1022A00080917A00846080937A0080917A008260C5
:1022B00080937A0080917A00816080937A00809187
:1022C0007A00806880937A001092C100E091DA026F
:1022D000F091DB0282E08083E091D602F091D70298
:1022E0001082E091D802F091D9028FEC8083109295
:1022F000E202E091DE02F091DF0286E08083E0916D
:10230000DC02F091DD02808180618083E091DC025B
:10231000F091DD02808188608083E091DC02F091A1
:10232000DD02808180688083E091DC02F091DD0233
:1023300080818F7D808386EC91E00E947B0289E71B
:1023400093E00E94450F811104C088ED91E00E9446
:102350007B0240E050E868ED73E489E793E00E9477
:10236000100F89E793E00E94EE0561E087E00E948C
:10237000EF020E948B090E94F701FBCF8F929F9280
:10238000AF92BF92CF92DF92EF92FF92CF93DF9303
:10239000EC01688179818A819B81611571058105D4
:1023A000910521F464E279ED8BE597E02DE133EFBF
:1023B00041E050E00E94231249015A019B01AC0107
:1023C000A7EAB1E40E9442126B017C01ACEEB4EFCB
:1023D000A50194010E945012DC01CB018C0D9D1DC2
:1023E000AE1DBF1DB7FF03C00197A109B048888388
:1023F0009983AA83BB83BC01CD019F77DF91CF91E5
:10240000FF90EF90DF90CF90BF90AF909F908F9014
:1024100008950E94BE1108958DE091E00E94BE11C2
:10242000089560930D0170930E0180930F019093B6
:1024300010010895FB01DC0102C005900D9241508E
:102440005040D8F70895052E97FB1EF400940E9483
:102450003A1257FD07D00E94551207FC03D04EF4E4
:102460000C943A1250954095309521953F4F4F4F1F
:102470005F4F089590958095709561957F4F8F4F30
:102480009F4F08950E947712A59F900DB49F900DC5
:10249000A49F800D911D11240895B7FF0C94421242
:1024A0000E944212821B930B0895A1E21A2EAA1BCE
:1024B000BB1BFD010DC0AA1FBB1FEE1FFF1FA217F4
:1024C000B307E407F50720F0A21BB30BE40BF50BF1
:1024D000661F771F881F991F1A9469F7609570957A
:1024E000809590959B01AC01BD01CF010895A29FFD
:1024F000B001B39FC001A39F700D811D1124911DD8
:10250000B29F700D811D1124911D08955058BB2755
:10251000AA270E949E120C9411140E94031438F0F2
:102520000E940A1420F039F49F3F19F426F40C9409
:1025300000140EF4E095E7FB0C94FA13E92F0E94C7
:10254000221458F3BA17620773078407950720F01F
:1025500079F4A6F50C9444140EF4E0950B2EBA2FE2
:10256000A02D0B01B90190010C01CA01A001112499
:10257000FF27591B99F0593F50F4503E68F11A1645
:10258000F040A22F232F342F4427585FF3CF4695D6
:1025900037952795A795F0405395C9F77EF41F16F8
:1025A000BA0B620B730B840BBAF09150A1F0FF0FC2
:1025B000BB1F661F771F881FC2F70EC0BA0F621FAE
:1025C000731F841F48F4879577956795B795F7959E
:1025D0009E3F08F0B0CF9395880F08F09927EE0F33
:1025E0009795879508950E94D61308F481E0089581
:1025F0000E940C130C9411140E940A1458F00E94AB
:10260000031440F029F45F3F29F00C94FA135111A0
:102610000C9445140C9400140E94221468F399231E
:10262000B1F3552391F3951B550BBB27AA276217CE
:102630007307840738F09F5F5F4F220F331F441FDB
:10264000AA1FA9F335D00E2E3AF0E0E832D091500F
:102650005040E695001CCAF72BD0FE2F29D0660FFC
:10266000771F881FBB1F261737074807AB07B0E83F
:1026700009F0BB0B802DBF01FF2793585F4F3AF045
:102680009E3F510578F00C94FA130C9445145F3F6B
:10269000E4F3983ED4F3869577956795B795F795CB
:1026A0009F5FC9F7880F911D9695879597F90895B3
:1026B000E1E0660F771F881FBB1F6217730784074F
:1026C000BA0720F0621B730B840BBA0BEE1F88F75E
:1026D000E09508950E942A1488F09F5798F0B92F2A
:1026E0009927B751B0F0E1F0660F771F881F991F47
:1026F0001AF0BA95C9F714C0B13091F00E94441491
:10270000B1E008950C944414672F782F8827B85FA0
:1027100039F0B93FCCF3869577956795B395D9F79E
:102720003EF490958095709561957F4F8F4F9F4FA8
:102730000895E89409C097FB3EF4909580957095B4
:1027400061957F4F8F4F9F4F9923A9F0F92F96E9FD
:10275000BB279395F695879577956795B795F11172
:10276000F8CFFAF4BB0F11F460FF1BC06F5F7F4F0F
:102770008F4F9F4F16C0882311F096E911C0772321
:1027800021F09EE8872F762F05C0662371F096E82A
:10279000862F70E060E02AF09A95660F771F881FF9
:1027A000DAF7880F9695879597F90895990F00089D
:1027B000550FAA0BE0E8FEEF16161706E807F90713
:1027C000C0F012161306E407F50798F0621B730BAE
:1027D000840B950B39F40A2661F0232B242B252B2F
:1027E00021F408950A2609F4A140A6958FEF811DD2
:1027F000811D089597F99F6780E870E060E0089573
:102800009FEF80EC089500240A9416161706180608
:102810000906089500240A941216130614060506E4
:102820000895092E0394000C11F4882352F0BB0F75
:1028300040F4BF2B11F460FF04C06F5F7F4F8F4FD8
:102840009F4F089557FD9058440F551F59F05F3F13
:1028500071F04795880F97FB991F61F09F3F79F0C2
:1028600087950895121613061406551FF2CF469544
:10287000F1DF08C0161617061806991FF1CF8695C6
:102880007105610508940895E894BB2766277727AA
:10289000CB0197F908950E94D61308F48FEF08959D
:1028A0000E9463140C9411140E94031438F00E94C7
:1028B0000A1420F0952311F00C94FA130C940014D0
:1028C00011240C9445140E94221470F3959FC1F3B7
:1028D000950F50E0551F629FF001729FBB27F00DCE
:1028E000B11D639FAA27F00DB11DAA1F649F662723
:1028F000B00DA11D661F829F2227B00DA11D621F72
:10290000739FB00DA11D621F839FA00D611D221F2B
:10291000749F3327A00D611D231F849F600D211D0F
:10292000822F762F6A2F11249F5750409AF0F1F092
:1029300088234AF0EE0FFF1FBB1F661F771F881FFB
:1029400091505040A9F79E3F510580F00C94FA1326
:102950000C9445145F3FE4F3983ED4F38695779545
:102960006795B795F795E7959F5FC1F7FE2B880FA1
:10297000911D9695879597F9089597FB072E16F464
:10298000009407D077FD09D00E94D71407FC05D02A
:102990003EF4909581959F4F0895709561957F4F76
:1029A0000895EE0FFF1F0590F491E02D0994AA1BE6
:1029B000BB1B51E107C0AA1FBB1FA617B70710F02A
:1029C000A61BB70B881F991F5A95A9F7809590955C
:1029D000BC01CD01089581E090E0F8940C940215BB
:1029E000FB01DC0102C001900D9241505040D8F72C
:1029F0000895FB01DC018D91019080190110D9F33C
:082A0000990B0895F894FFCF33
:102A0800F600F60061726475696E6F3200010000AD
:102A180000000000008E01F7002601D5015701359E
:102A280001490100000000B10BAD0BA90B080CA572
:102A38000BF000EC00E80000000000450FDE0D017F
:102A48000E570D060CF50BED0B570C880CBD0C1131
:102A58000DE50BE20BDF0BDC0BD50BE80BD20BCF34
:102A68000BCC0BC90B2E0D000000002906000080BE
:102A78003FCDCCCC3D6F12833A95BFD6337D1D90A8
:102A880026B3CE010CCDCCCC3D0AD7233C17B7D109
:102A98003877CC2B329595E6241FB14F0A000020D9
:102AA800410000C84200401C4620BCBE4CCA1B0E58
:102AB8005AAEC59D740500040464617461007469AC
:102AC8006D65000D0A005374617274204C6F526179
:102AD80020436C69656E7400696E6974206661696B
:102AE8006C65640022225C5C6208660C6E0A720DDA
:102AF8007409006E756C6C00747275650066616CA3
:102B08007365004E614E00652D00496E66696E69F9
:102B180074790073656E640061726475696E6F32F2
:102B28000054656D70657261747572650048756DE5
:102B38006964697479004C6967687400536F756ECD
:102B4800640053656E64696E6720746F204C6F5221
:102B58006120536572766572203A2000726563655C
:102B680069766564203A0057616974696E672E2E2C
:102B78002E0072656376206661696C65640054692D
:102B88006D656F7574004F4B207265636569766576
:102B9800642061636B2021204C6574277320636176
:102BA800727279206F6E2E004E6F207265706C798C
:102BB8002C206973204C6F526120736572766572A0
:0A2BC8002072756E6E696E673F00A3
:00000001FF
