:100000000C9462000C948A000C948A000C948A0070
:100010000C948A000C948A000C948A000C948A0038
:100020000C948A000C948A000C948A000C948A0028
:100030000C948A000C948A000C948A000C948A0018
:100040000C94A3070C948A000C9413080C94ED07ED
:100050000C948A000C948A000C948A000C948A00F8
:100060000C948A000C948A000000000024002700F1
:100070002A0000000000250028002B0000000008D6
:10008000000201000003040700000000000000005F
:1000900000000000230026002900040404040404D6
:1000A0000404020202020202030303030303010227
:1000B00004081020408001020408102001020408F6
:1000C0001020450811241FBECFEFD8E0DEBFCDBF02
:1000D00011E0A0E0B1E0ECE6FAE102C005900D927B
:1000E000A83EB107D9F722E0A8EEB1E001C01D9209
:1000F000A03AB207E1F710E0C2E6D0E004C02197D1
:10010000FE010E94290DC136D107C9F70E9492084D
:100110000C94340D0C9400008F929F92AF92BF927A
:10012000CF92DF92EF92FF92CF93DF93A09195024F
:10013000882311F03A2F01C030E08091960290E0C0
:10014000880F991F80579F4FC0909B02D0909C02B0
:10015000E0909D02F0909E0240E050E0BA01FC0168
:10016000C591D49128812A2323130FC04A015B0132
:100170002FEF821A920AA20AB20A4C155D056E058B
:100180007F0538F4B501A401EACF342F252FCB0128
:1001900004C030E020E080E090E0632F722FDF9118
:1001A000CF91FF90EF90DF90CF90BF90AF909F9056
:1001B0008F90089590E0FC01E458FF4F3491FC01CA
:1001C000E255FF4F2491FC01E656FF4FE491EE23E8
:1001D00009F43BC0332339F1333091F038F4313036
:1001E000A9F0323001F584B58F7D12C0373091F01F
:1001F0003830A1F03430B9F4809180008F7D03C095
:10020000809180008F77809380000DC084B58F77B8
:1002100084BD09C08091B0008F7703C08091B00089
:100220008F7D8093B000F0E0EE0FFF1FEE58FF4F80
:10023000A591B4918FB7F894EC91611103C020950A
:100240002E2301C02E2B2C938FBF0895CF93DF93C5
:1002500090E0FC01E255FF4F2491FC01E656FF4F70
:100260008491882361F190E0880F991FFC01E8597F
:10027000FF4FC591D491FC01EE58FF4FA591B49169
:10028000611109C09FB7F8948881209582238883E3
:10029000EC912E230BC0623061F49FB7F894388143
:1002A000822F809583238883EC912E2B2C939FBFE4
:1002B00006C08FB7F894E8812E2B28838FBFDF917B
:1002C000CF9108958E3008F08E50877080648093AF
:1002D0007C0080917A00806480937A0080917A001B
:1002E00086FDFCCF809178002091790090E0922BE0
:1002F00008953FB7F8948091E9019091EA01A091A7
:10030000EB01B091EC0126B5A89B05C02F3F19F079
:100310000196A11DB11D3FBFBA2FA92F982F882785
:10032000820F911DA11DB11DBC01CD0142E0660FE0
:10033000771F881F991F4A95D1F708958F929F9232
:10034000AF92BF92CF92DF92EF92FF926B017C014E
:100350000E9479014B015C01C114D104E104F10454
:10036000F1F00E947901DC01CB0188199909AA09F1
:10037000BB09883E9340A105B10570F321E0C21A84
:10038000D108E108F10888EE880E83E0981EA11CD0
:10039000B11CC114D104E104F10419F7DDCFFF90C1
:1003A000EF90DF90CF90BF90AF909F908F90089587
:1003B000CF92DF92EF92FF920F931F93CF93DF9331
:1003C000CDB7DEB7C054D1400FB6F894DEBF0FBE34
:1003D000CDBF2FB7F8948091ED019091EE01A091DF
:1003E000EF01B091F0012FBF409197025091980218
:1003F0006091990270919A028C019D01041B150B6A
:10040000260B370BB901A801403D57406105710526
:1004100018F480919F02BCC0809397029093980239
:10042000A0939902B0939A021092920210929102B4
:100430001092900210928F0210928E0261E08091D1
:1004400093020E94DA006AEF70E080E090E00E9480
:100450009E0161E0809193020E94260160E08091FC
:1004600093020E94DA0064E170E080E090E00E9474
:100470009E01F89461E0809193020E94DA008BE97A
:1004800090E00197F1F762E0809193020E942601CB
:1004900083E290E00197F1F780E00E948C00672BE7
:1004A000682B692B21F410929F0278943EC081E062
:1004B0000E948C00672B682B692BA9F38E010F5FBC
:1004C0001F4F6E012FEBC21A2EEFD20A780180E087
:1004D0000E948C00F701608371838283938381E0A3
:1004E0000E948C00F7016483758386839783F8E00C
:1004F000EF0EF11CEC14FD0451F7789420E030E08D
:10050000F8014081518162817381C480D580E68089
:10051000F780411551056105710529F0C114D10419
:10052000E104F10421F410929F0280E031C0F9014E
:1005300083E0F595E7958A95E1F7E257FD4F8081D5
:10054000880F4C155D056E057F0508F4816080837A
:100550002F5F3F4F085F1F4F2832310589F62091EA
:10056000920230E040918E0280918F0290E0840FE1
:10057000911D40919002840F911D40919102840F32
:10058000911D99272817390771F681E080939F0202
:10059000C05CDE4F0FB6F894DEBF0FBECDBFDF915B
:1005A000CF911F910F91FF90EF90DF90CF90089522
:1005B000CF92DF92EF92FF92CF93DF93C82F0E94EA
:1005C000D801882309F448C0909194029B3031F0FF
:1005D00008F442C09551923048F03EC060919002BC
:1005E00070E080E090E00E94830B27C0D0919002E1
:1005F0006D2F6F7770E080E090E00E94850B20E027
:1006000030E040E853E40E943A0C6B017C014091D9
:100610009102642F70E080E090E00E94850B9B01C6
:10062000AC01C701B6010E94710A2DEC3CEC4CEC08
:100630005DE30E943A0CD7FD9058CC2389F026E662
:1006400036E646EE5FE30E943A0C20E030E040E000
:1006500052E40E94710A04C060E070E080EC9FE701
:10066000DF91CF91FF90EF90DF90CF900895CF92E0
:10067000DF92EF92FF920F931F93CF93DF936C0162
:100680007A018B01C0E0D0E0CE15DF0589F0D801FA
:100690006D918D01D601ED91FC910190F081E02DDD
:1006A000C6010995892B11F47E0102C02196ECCF79
:1006B000C701DF91CF911F910F91FF90EF90DF90D5
:1006C000CF900895089580E090E00895FC01538D47
:1006D000448D252F30E0842F90E0821B930B54171C
:1006E00010F0CF96089501970895FC01918D828DA9
:1006F000981761F0828DDF01A80FB11D5D968C9176
:10070000928D9F5F9F73928F90E008958FEF9FEF80
:100710000895FC01918D828D981731F0828DE80F3C
:10072000F11D858D90E008958FEF9FEF0895FC01F6
:10073000918D228D892F90E0805C9F4F821B9109C3
:100740008F739927089581EF91E00E94970321E02C
:10075000892B09F420E0822F0895FC01848DDF01AC
:10076000A80FB11DA35ABF4F2C91848D90E0019624
:100770008F739927848FA689B7892C93A089B18913
:100780008C9180648C93938D848D981306C002881D
:10079000F389E02D80818F7D80830895EF92FF9211
:1007A0000F931F93CF93DF93EC0181E0888F9B8D94
:1007B0008C8D981305C0E889F989808185FD24C056
:1007C000F62E0B8D10E00F5F1F4F0F731127E02ED9
:1007D0008C8DE8120CC00FB607FCFACFE889F989B6
:1007E000808185FFF5CFCE010E94AD03F1CF8B8DC7
:1007F000FE01E80FF11DE35AFF4FF0820B8FEA89EB
:10080000FB898081806207C0EE89FF896083E88967
:10081000F98980818064808381E090E0DF91CF91CD
:100820001F910F91FF90EF900895CF93DF93EC010C
:10083000888D8823C9F0EA89FB89808185FD05C000
:10084000A889B9898C9186FD0FC00FB607FCF5CF3A
:10085000808185FFF2CFA889B9898C9185FFEDCF82
:10086000CE010E94AD03E7CFDF91CF91089580E0E4
:1008700090E0892B29F00E94A30381110C940000C1
:100880000895009769F0FC0101900020E9F7319785
:10089000AF01481B590BBC0181EF91E00C94370369
:1008A00080E090E00895CF93DF930E944104EC0133
:1008B00082E191E00E9441048C0F9D1FDF91CF9156
:1008C00008958F929F92AF92BF920F931F93CF93F1
:1008D000DF93CDB7DEB7A1970FB6F894DEBF0FBE9A
:1008E000CDBF19A2423008F44AE08E010F5D1F4FC0
:1008F000842E912CA12CB12CA50194010E94070DEE
:10090000E62FB901CA0101501109EA3014F4E05D83
:1009100001C0E95CD801EC93232B242B252B61F734
:10092000C8010E944104A1960FB6F894DEBF0FBE25
:10093000CDBFDF91CF911F910F91BF90AF909F904E
:100940008F9008950C9441044F925F926F927F9222
:100950008F929F92AF92BF92CF92DF92EF92FF92CF
:100960006B017C01B42E9B01AC010E94ED0C88232D
:1009700019F085E191E027C026013701E89477F866
:100980002FEF3FEF4FE75FE7C301B2010E94ED0C8D
:1009900081110DC02FEF3FEF4FE75FE7C301B201B9
:1009A0000E94DD0A18161CF489E191E00CC02FEFBB
:1009B0003FEF4FE75FE4C701B6010E94350C181600
:1009C00084F48DE191E0FF90EF90DF90CF90BF90A5
:1009D000AF909F908F907F906F905F904F900C940E
:1009E00041042FEF3FEF4FE75FECC701B6010E94D4
:1009F000DD0A87FDE6CF20E030E0A901C701B6019E
:100A00000E94DD0A87FF11C0E091F101F091F2012F
:100A10000190F081E02D6DE281EF91E009954C01AC
:100A2000F7FAF094F7F8F09402C0812C912CA12CE5
:100A300060E070E080E09FE3AB1441F020E030E044
:100A400040E251E40E94E20AA394F6CF9B01AC017C
:100A5000C701B6010E94710A2B013C010E94540B90
:100A60006B017C010E94830B9B01AC01C301B201AD
:100A70000E94700A2B013C014AE0C701B6010E94A6
:100A800061047C01E80CF91CBB2069F0E091F101E4
:100A9000F091F2010190F081E02D6EE281EF91E0A2
:100AA0000995E80EF91EDB2CDD2021F120E030E075
:100AB00040E251E4C301B2010E943A0C2B013C0117
:100AC0000E94540B4B01A12CB12C4AE0C501B4018A
:100AD0000E946104E80EF91EC501B4010E94830B57
:100AE0009B01AC01C301B2010E94700A2B013C01C1
:100AF000DA94DACFC701FF90EF90DF90CF90BF90EC
:100B0000AF909F908F907F906F905F904F900895DF
:100B10004F925F926F927F928F929F92AF92BF920D
:100B2000CF92DF92EF92FF920F93CF93DF93CDB7E7
:100B3000DEB728970FB6F894DEBF0FBECDBF6B01AE
:100B40007C0149015A0101110EC026E636E646EE47
:100B50005FE30E943A0C20E030E040E052E40E9463
:100B6000710A6B017C0120E030E044E752E4C701E8
:100B7000B6010E94710A2B013C0120E030E048E8F8
:100B800052E4C701B6010E94700A2AE939E949E92D
:100B90005FE30E943A0C9B01AC01C301B2010E94C9
:100BA000710A2B013C0122E133E840EC5DE3C50111
:100BB000B4010E943A0C9B01AC01C301B2010E9436
:100BC000710A20E030E040E05FE30E943A0C2B0124
:100BD0003C0120E030E04EE952E40E94350C18164A
:100BE0000CF075C1A7019601C701B6010E943A0C2D
:100BF0002B013C01A5019401C501B4010E943A0CEE
:100C00006D837E838F83988721E133E243E050E454
:100C1000C701B6010E943A0C29E134E849E252E4E6
:100C20000E94700A69837A838B839C8326E13BE46C
:100C300042E251E4C501B4010E943A0C9B01AC01AF
:100C400069817A818B819C810E94710A69837A8390
:100C50008B839C8328E436E246E65EEBC701B6014F
:100C60000E943A0CA50194010E943A0C9B01AC0130
:100C700069817A818B819C810E94710A69837A8360
:100C80008B839C8320EE3FE040EE5BEBC301B2011F
:100C90000E943A0C9B01AC0169817A818B819C8115
:100CA0000E94710A69837A838B839C8328EF37E8DB
:100CB00040E65DEB6D817E818F8198850E943A0CC4
:100CC0009B01AC0169817A818B819C810E94710AB0
:100CD00069837A838B839C832CEA3DE041EA5AE363
:100CE000C301B2010E943A0CA50194010E943A0C82
:100CF0009B01AC0169817A818B819C810E94710A80
:100D000069837A838B839C8328EC3FE84FE55AE321
:100D1000C701B6010E943A0C2D813E814F81588552
:100D20000E943A0C9B01AC0169817A818B819C8184
:100D30000E94710A69837A838B839C8321EF3BE84D
:100D400045E056EBC301B2010E943A0C2D813E8171
:100D50004F8158850E943A0C9B01AC0169817A81D0
:100D60008B819C810E94710A2B013C0120E030E0C4
:100D700040E551E4C501B4010E94DD0A87FF5CC073
:100D800020E030E040EA52E4C701B6010E94350C91
:100D900087FD52C020E030E040EE52E4C701B601CA
:100DA0000E94DD0A18160CF4A6C0A501940160E0AB
:100DB00070E080E591E40E94700A20E030E040E8B5
:100DC0005EE30E943A0C4B015C0120E030E04EEB08
:100DD00052E4C701B6010E94700A6B017C0120E059
:100DE00030E0A9010E94350C18164CF4A7019601B9
:100DF00060E070E088E891E40E94700A08C020E09A
:100E000030E048E851E4C701B6010E94710A2EE3C0
:100E10003DEE40E75DE30E943A0C0E94AD0C9B0161
:100E2000AC01C501B4010E943A0C9B01AC01B201B6
:100E3000C3010E94700A49C020E030E04AEA52E44F
:100E4000C501B4010E94350C18160CF040C020E01A
:100E500030E040EA52E4C701B6010E94350C87FD3C
:100E600036C020E030E04EEA52E4C701B6010E94ED
:100E7000DD0A181664F120E030E04AEA52E4C501C8
:100E8000B4010E94700A2DEC3CEC4CEC5DE30E9436
:100E90003A0C4B015C01A701960160E070E08EEA1C
:100EA00092E40E94700A2DEC3CEC4CE45EE30E945C
:100EB0003A0C9B01AC01C501B4010E943A0C9B01A4
:100EC000AC01B201C3010E94710A2B013C01011166
:100ED0000FC020E030E040E052E4B201C3010E94C4
:100EE000700A26E838E34EE05FE30E943A0C0FC038
:100EF000B201C3010CC020E030E04AEA52E4C5016F
:100F0000B4010E94350C18160CF4ABCFE0CF6B0186
:100F10007C01C701B60128960FB6F894DEBF0FBE5C
:100F2000CDBFDF91CF910F91FF90EF90DF90CF90E9
:100F3000BF90AF909F908F907F906F905F904F90F9
:100F400008950E942F0D1F920F920FB60F92112439
:100F50002F933F938F939F93AF93BF938091ED0116
:100F60009091EE01A091EF01B091F0013091E80174
:100F700023E0230F2D3720F40196A11DB11D05C0DC
:100F800026E8230F0296A11DB11D2093E80180934E
:100F9000ED019093EE01A093EF01B093F0018091E9
:100FA000E9019091EA01A091EB01B091EC01019669
:100FB000A11DB11D8093E9019093EA01A093EB017B
:100FC000B093EC01BF91AF919F918F913F912F9181
:100FD0000F900FBE0F901F9018951F920F920FB693
:100FE0000F9211242F933F934F935F936F937F93AF
:100FF0008F939F93AF93BF93EF93FF9381EF91E014
:101000000E94AD03FF91EF91BF91AF919F918F919E
:101010007F916F915F914F913F912F910F900FBEF4
:101020000F901F9018951F920F920FB60F921124D8
:101030002F938F939F93EF93FF93E0910102F09191
:1010400002028081E0910702F091080282FD12C045
:10105000908180910A028F5F8F7320910B0282171B
:1010600051F0E0910A02F0E0EF50FE4F958F80932F
:101070000A0201C08081FF91EF919F918F912F9182
:101080000F900FBE0F901F901895E1EFF1E01382C3
:10109000128288EE93E0A0E0B0E084839583A6837B
:1010A000B78384E091E09183808385EC90E095871D
:1010B000848784EC90E09787868780EC90E0918B22
:1010C000808B81EC90E0938B828B82EC90E0958B0F
:1010D000848B86EC90E0978B868B118E128E138E0C
:1010E000148EAEE8B2E08FE015968C9315978BE0E6
:1010F00016968C931697EDEBF0E0E4911796EC932F
:101100001797E9EAF0E0E4911896EC93189740E815
:101110005EE360E070E01D964D935D936D937C936C
:1011200050970895CF93DF93CDB7DEB728970FB6CA
:10113000F894DEBF0FBECDBF789484B5826084BDC5
:1011400084B5816084BD85B5826085BD85B58160CB
:1011500085BD80916E00816080936E001092810049
:101160008091810082608093810080918100816004
:1011700080938100809180008160809380008091C5
:10118000B10084608093B1008091B0008160809351
:10119000B00080917A00846080937A0080917A0018
:1011A000826080937A0080917A00816080937A00D7
:1011B00080917A00806880937A001092C100E0915B
:1011C0000102F091020282E08083E091FD01F09142
:1011D000FE011082E091FF01F09100028FEC80830C
:1011E00010920902E0910502F091060286E08083E8
:1011F000E0910302F0910402808180618083E0919C
:101200000302F0910402808188608083E0910302F0
:10121000F0910402808180688083E0910302F09164
:10122000040280818F7D808362E0809193020E941E
:10123000260180E398EFAFEFBFEF80939702909382
:101240009802A0939902B0939A0260ED77E080E053
:1012500090E00E949E010E94D8018823B1F1809104
:1012600094028B3041F188F18551823070F56091A4
:101270008E0270E080E090E00E94830B20E030E07E
:1012800040E853E40E943A0C6B017C0180918F028C
:10129000682F70E080E090E00E94850B9B01AC011C
:1012A000C701B6010E94710A2DEC3CEC4CEC5DE3E9
:1012B0000E943A0C07C060918E0270E080E090E0DE
:1012C0000E94830B6B017C0106C0C12CD12C80ECE9
:1012D000E82E8FE7F82E80E00E94D8022B013C0117
:1012E00081E00E94D8024B015C01A7019601C70171
:1012F000B6010E94ED0C8111ECC0A3019201C30163
:10130000B2010E94ED0C8111E4C0A5019401C50158
:10131000B4010E94ED0C8111DCC001E0A70196012F
:10132000C501B4010E94880569837A838B839C83FD
:1013300000E0A7019601C301B2010E9488056D83F8
:101340007E838F83988781E291E00E94A20442E02D
:10135000C701B6010E94A4048CE291E00E94A2049D
:1013600080E391E00E94A20442E0C301B2010E9426
:10137000A4048EE391E00E94A20442E0C501B401FE
:101380000E94A40483E491E00E94A20488E491E016
:101390000E94A20442E06D817E818F8198850E9427
:1013A000A4048EE391E00E94A20442E069817A8164
:1013B0008B819C810E94A40485E591E00E945304E6
:1013C00064EF71E080E090E00E949E0183E10E9462
:1013D0006201BC01990F880B990B0E94850B2AE0D2
:1013E00038E240EA5BE30E943A0C20E030E04AE752
:1013F00054E40E943A0C6B017C019B01AC0160E05B
:1014000070E48CE995E40E94700A9B01AC01C7016D
:10141000B6010E94E20A20E030E44CE156E40E946A
:101420003A0C4B015C0189E591E00E94A20442E084
:10143000C701B6010E94A40484E691E00E94A204C0
:1014400087E691E00E94A20442E0C501B4010E9437
:10145000A40487E791E00E9453048BE791E00E9487
:10146000A204A501940160E074E284E799E40E947B
:10147000700A2DEC3CEC49EF54E40E94E20A42E091
:101480000E94A40489E891E00E9453048DE891E051
:101490000E94A2048EE00E946201BC01990F880B99
:1014A000990B0E94850B20E030E040EA50E40E9456
:1014B0003A0C20E030EC4FE754E40E94E20A42E0AC
:1014C0000E94A40482E191E00E94410480EA91E03C
:1014D00002C088EC91E00E9453040E943704B5CE0C
:1014E0005058BB27AA270E94880A0C94FB0B0E9425
:1014F000ED0B38F00E94F40B20F039F49F3F19F403
:1015000026F40C94EA0B0EF4E095E7FB0C94E40B44
:10151000E92F0E940C0C58F3BA176207730784076F
:10152000950720F079F4A6F50C942E0C0EF4E095B6
:101530000B2EBA2FA02D0B01B90190010C01CA018D
:10154000A0011124FF27591B99F0593F50F4503E38
:1015500068F11A16F040A22F232F342F4427585F2A
:10156000F3CF469537952795A795F0405395C9F742
:101570007EF41F16BA0B620B730B840BBAF09150FA
:10158000A1F0FF0FBB1F661F771F881FC2F70EC099
:10159000BA0F621F731F841F48F48795779567956C
:1015A000B795F7959E3F08F0B0CF9395880F08F058
:1015B0009927EE0F9795879508950E94C00B08F420
:1015C00081E008950E94F60A0C94FB0B0E94F40B34
:1015D00058F00E94ED0B40F029F45F3F29F00C9485
:1015E000E40B51110C942F0C0C94EA0B0E940C0C80
:1015F00068F39923B1F3552391F3951B550BBB2742
:10160000AA2762177307840738F09F5F5F4F220F86
:10161000331F441FAA1FA9F335D00E2E3AF0E0E87D
:1016200032D091505040E695001CCAF72BD0FE2FC7
:1016300029D0660F771F881FBB1F2617370748075B
:10164000AB07B0E809F0BB0B802DBF01FF27935813
:101650005F4F3AF09E3F510578F00C94E40B0C94E8
:101660002F0C5F3FE4F3983ED4F38695779567950A
:10167000B795F7959F5FC9F7880F911D9695879548
:1016800097F90895E1E0660F771F881FBB1F621767
:1016900073078407BA0720F0621B730B840BBA0B25
:1016A000EE1F88F7E09508950E94140C88F09F576C
:1016B00098F0B92F9927B751B0F0E1F0660F771F76
:1016C000881F991F1AF0BA95C9F714C0B13091F06C
:1016D0000E942E0CB1E008950C942E0C672F782FE9
:1016E0008827B85F39F0B93FCCF386957795679531
:1016F000B395D9F73EF490958095709561957F4F9D
:101700008F4F9F4F0895E89409C097FB3EF4909542
:101710008095709561957F4F8F4F9F4F9923A9F0CA
:10172000F92F96E9BB279395F69587957795679559
:10173000B795F111F8CFFAF4BB0F11F460FF1BC09D
:101740006F5F7F4F8F4F9F4F16C0882311F096E930
:1017500011C0772321F09EE8872F762F05C06623DE
:1017600071F096E8862F70E060E02AF09A95660F97
:10177000771F881FDAF7880F9695879597F9089550
:10178000990F0008550FAA0BE0E8FEEF1616170692
:10179000E807F907C0F012161306E407F50798F0FA
:1017A000621B730B840B950B39F40A2661F0232B13
:1017B000242B252B21F408950A2609F4A140A6958F
:1017C0008FEF811D811D089597F99F6780E870E074
:1017D00060E008959FEF80EC089500240A941616A7
:1017E000170618060906089500240A94121613060F
:1017F000140605060895092E0394000C11F488239D
:1018000052F0BB0F40F4BF2B11F460FF04C06F5FB8
:101810007F4F8F4F9F4F089557FD9058440F551F8E
:1018200059F05F3F71F04795880F97FB991F61F062
:101830009F3F79F087950895121613061406551FD9
:10184000F2CF4695F1DF08C0161617061806991F45
:10185000F1CF86957105610508940895E894BB273A
:1018600066277727CB0197F908950E94C00B08F4EB
:101870008FEF08950E944D0C0C94FB0B0E94ED0B12
:1018800038F00E94F40B20F0952311F00C94E40B37
:101890000C94EA0B11240C942F0C0E940C0C70F386
:1018A000959FC1F3950F50E0551F629FF001729F05
:1018B000BB27F00DB11D639FAA27F00DB11DAA1F14
:1018C000649F6627B00DA11D661F829F2227B00D61
:1018D000A11D621F739FB00DA11D621F839FA00DEC
:1018E000611D221F749F3327A00D611D231F849F3C
:1018F000600D211D822F762F6A2F11249F57504093
:101900009AF0F1F088234AF0EE0FFF1FBB1F661F0D
:10191000771F881F91505040A9F79E3F510580F0D6
:101920000C94E40B0C942F0C5F3FE4F3983ED4F33B
:10193000869577956795B795F795E7959F5FC1F77A
:10194000FE2B880F911D9695879597F9089519F4A8
:1019500016F40C94EA0B0C94F20C0E94140CB8F3DD
:101960009923C9F3B6F39F57550B87FF0E94000DCB
:101970000024A0E640EA900180585695979528F4F7
:10198000805C660F771F881F20F0261737074807EF
:1019900030F4621B730B840B202931294A2BA69546
:1019A00017940794202531254A2758F7660F771F8B
:1019B000881F20F026173707480730F4620B730B97
:1019C000840B200D311D411DA09581F7B901842F95
:1019D0009158880F9695879508950E94C00B880BA3
:1019E000990B08959F3F31F0915020F4879577959A
:1019F0006795B795880F911D9695879597F90895E6
:101A000091505040660F771F881FD2F70895A1E2CA
:101A10001A2EAA1BBB1BFD010DC0AA1FBB1FEE1F68
:101A2000FF1FA217B307E407F50720F0A21BB30BB3
:101A3000E40BF50B661F771F881F991F1A9469F72F
:101A400060957095809590959B01AC01BD01CF018B
:101A50000895EE0FFF1F0590F491E02D099481E0A9
:0C1A600090E0F8940C94340DF894FFCF43
:101A6C0000000000CE0337036603150497037503CB
:101A7C0089030D0A006E616E00696E66006F7666F2
:101A8C000048756D69646974793A20002025090055
:101A9C0054656D70657261747572653A2000202A08
:101AAC00432000202A4609004865617420696E6451
:101ABC0065783A2000202A460054656E73696F6E73
:101ACC00203A20006D56002C2052657369737461A6
:101ADC006E6365203A20004F686D004C756D696E21
:101AEC006F73697465203A20004C75780053656EED
:101AFC00736F7220536F6E2056616C75653A2000BF
:101B0C002D2D2D2D2D2D2D2D2D2D2D2D2D2D2D2DF9
:101B1C002D2D2D2D2D2D2D2D2D2D2D2D2D2D2D2DE9
:101B2C002D2D2D2D2D2D2D004661696C6564207495
:101B3C006F20726561642066726F6D20444854207A
:081B4C0073656E736F722100D6
:00000001FF
