:100000000C9447010C9478010C9478010C947801BD
:100010000C9478010C9478010C9478010C9478017C
:100020000C9478010C9478010C9478010C9478016C
:100030000C9478010C9478010C9478010C9478015C
:100040000C9478010C9478010C9478010C9478014C
:100050000C9478010C9478010C9478010C94F908B4
:100060000C9478010C946D090C9443090C9478015C
:100070000C9478010C9478010C9478010C9478011C
:100080000C9478010C9478010C9478010C9478010C
:100090000C9478010C9478010C9478010C947801FC
:1000A0000C9478010C9478010C9478010C947801EC
:1000B0000C9478010C9478010C9478010C947801DC
:1000C0000C9478010C9478010C9478010C947801CC
:1000D0000C9478010C9478010C9478010C947801BC
:1000E0000C947801F701FA01E901ED01F101310207
:1000F000FE01020208020C02100216021A021E027F
:100100003102240228022C020C94ED010C94E90126
:100110000C94FE010C941A020C94F5040C94FA0150
:100120000C9416020C94F1010C941E020C94B00471
:100130000C949C040C9410020C945E040C94F70133
:100140000C943C050C94BE040C9428020C943102CF
:100150000C9424020C942C020C940C020C940802B3
:100160000C9402020C948D040C94A309000021004D
:10017000240027002A002D00300033000101000078
:10018000040107010A0100002200250028002B00BD
:100190002E003100340002010000050108010B01AE
:1001A00000000A0B02090C0D0E08070304010000F1
:1001B000000000000000000000000000000000003F
:1001C00000000000000000000000000012111000FC
:1001D000000000000000000000000000000000001F
:1001E000000000000000000020002300260029007D
:1001F0002C002F003200000100000301060109015C
:1002000005050505070508080808020202020A0A92
:1002100008080404040401010101010101010303B0
:10022000030303030303040707070C0C0C0C0C0C5B
:100230000C0C0202020206060606060606060B0B58
:100240000B0B0B0B0B0B0102102020080810204099
:10025000102040800201020108040201010204088A
:100260001020408080402010080402018004020118
:100270008040201008040201080402010102040861
:10028000102040800102040810204080A30911249E
:100290001FBECFEFD1E2DEBFCDBF00E00CBF12E04A
:1002A000A0E0B2E0E6E8FDE100E00BBF02C007908D
:1002B0000D92A83EB107D9F723E0A8EEB2E001C045
:1002C0001D92A03AB207E1F711E0C7E4D1E000E0E7
:1002D00006C021970109802FFE010E94B40EC6348A
:1002E000D10780E00807A9F70E94F0090C94C10E1D
:1002F0000C9400008F929F92AF92BF92CF92DF92A8
:10030000EF92FF92CF93DF93A0919503882311F092
:100310003A2F01C030E08091960390E0880F991F3A
:100320008A519E4FC0909B03D0909C03E0909D0308
:10033000F0909E0340E050E0BA01FC01C591D491D9
:1003400028812A2323130FC04A015B012FEF821A51
:10035000920AA20AB20A4C155D056E057F0538F4B3
:10036000B501A401EACF342F252FCB0104C030E022
:1003700020E080E090E0632F722FDF91CF91FF901B
:10038000EF90DF90CF90BF90AF909F908F900895A7
:10039000362F90E0FC01E056FE4F4491FC01EA5BF1
:1003A000FD4F2491FC01E050FE4F9491992309F4F4
:1003B0006BC0442309F455C050E0FA013197E23193
:1003C000F10508F04EC08827EE58FF4F8F4F0C9470
:1003D000B40E809180008F7707C0809180008F7D60
:1003E00003C080918000877F809380003AC084B5ED
:1003F0008F7702C084B58F7D84BD33C08091B000FB
:100400008F7703C08091B0008F7D8093B00029C0AA
:10041000809190008F7707C0809190008F7D03C0FE
:1004200080919000877F809390001BC08091A000F6
:100430008F7707C08091A0008F7D03C08091A000BE
:10044000877F8093A0000DC0809120018F7707C027
:10045000809120018F7D03C080912001877F809350
:100460002001E92FF0E0EE0FFF1FEA57FE4FA591A4
:10047000B4918FB7F894EC91311103C020952E23DD
:1004800001C02E2B2C938FBF0895CF93DF9390E064
:10049000FC01EA5BFD4F2491FC01E050FE4F84918A
:1004A000882361F190E0880F991FFC01E459FE4F09
:1004B000C591D491FC01EA57FE4FA591B491611109
:1004C00009C09FB7F8948881209582238883EC9196
:1004D0002E230BC0623061F49FB7F8943881822FCD
:1004E000809583238883EC912E2B2C939FBF06C08D
:1004F0008FB7F894E8812E2B28838FBFDF91CF919F
:100500000895863308F0865390917B00282F287039
:10051000977F922B90937B008770806480937C0000
:1005200080917A00806480937A0080917A0086FDC1
:10053000FCCF809178002091790090E0922B089573
:100540003FB7F8948091E9029091EA02A091EB0202
:10055000B091EC0226B5A89B05C02F3F19F001967B
:10056000A11DB11D3FBFBA2FA92F982F8827820F39
:10057000911DA11DB11DBC01CD0142E0660F771F89
:10058000881F991F4A95D1F708958F929F92AF9235
:10059000BF92CF92DF92EF92FF926B017C010E949B
:1005A000A0024B015C01C114D104E104F104F1F09B
:1005B0000E94A002DC01CB0188199909AA09BB0994
:1005C000883E9340A105B10570F321E0C21AD1081D
:1005D000E108F10888EE880E83E0981EA11CB11C8A
:1005E000C114D104E104F10419F7DDCFFF90EF90BD
:1005F000DF90CF90BF90AF909F908F900895CF9253
:10060000DF92EF92FF920F931F93CF93DF93CDB7BB
:10061000DEB7C054D1400FB6F894DEBF0FBECDBFD9
:100620002FB7F8948091ED029091EE02A091EF0225
:10063000B091F0022FBF40919703509198036091C1
:10064000990370919A038C019D01041B150B260BD5
:10065000370BB901A801403D57406105710518F4F9
:1006600080919F03BCC08093970390939803A093BD
:100670009903B0939A0310929203109291031092EF
:10068000900310928F0310928E0361E08091930388
:100690000E94C8016AEF70E080E090E00E94C5020D
:1006A00061E0809193030E94450260E08091930392
:1006B0000E94C80164E170E080E090E00E94C50201
:1006C000F89461E0809193030E94C8018BE990E067
:1006D0000197F1F762E0809193030E94450283E263
:1006E00090E00197F1F780E00E947A01672B682B78
:1006F000692B21F410929F0378943EC081E00E9400
:100700007A01672B682B692BA9F38E010F5F1F4FAE
:100710006E012FEBC21A2EEFD20A780180E00E9400
:100720007A01F701608371838283938381E00E9461
:100730007A01F7016483758386839783F8E0EF0E6F
:10074000F11CEC14FD0451F7789420E030E0F8013E
:100750004081518162817381C480D580E680F780B9
:10076000411551056105710529F0C114D104E10459
:10077000F10421F410929F0380E031C0F90183E07D
:10078000F595E7958A95E1F7E257FC4F8081880F50
:100790004C155D056E057F0508F4816080832F5F31
:1007A0003F4F085F1F4F2832310589F62091920391
:1007B00030E040918E0380918F0390E0840F911D73
:1007C00040919003840F911D40919103840F911DDE
:1007D00099272817390771F681E080939F03C05C41
:1007E000DE4F0FB6F894DEBF0FBECDBFDF91CF91C5
:1007F0001F910F91FF90EF90DF90CF900895CF92CF
:10080000DF92EF92FF92CF93DF93C82F0E94FF02F7
:10081000882309F448C0909194039B3031F008F488
:1008200042C09551923048F03EC06091900370E014
:1008300080E090E00E940E0D27C0D09190036D2FB4
:100840006F7770E080E090E00E94100D20E030E0D3
:1008500040E853E40E94C50D6B017C014091910377
:10086000642F70E080E090E00E94100D9B01AC01CD
:10087000C701B6010E94FC0B2DEC3CEC4CEC5DE397
:100880000E94C50DD7FD9058CC2389F026E636E6A8
:1008900046EE5FE30E94C50D20E030E040E052E408
:1008A0000E94FC0B04C060E070E080EC9FE7DF91E9
:1008B000CF91FF90EF90DF90CF900895CF92DF928D
:1008C000EF92FF920F931F93CF93DF936C017A0106
:1008D0008B01C0E0D0E0CE15DF0589F0D8016D9125
:1008E0008D01D601ED91FC910190F081E02DC601C2
:1008F0001995892B11F47E0102C02196ECCFC70116
:10090000DF91CF911F910F91FF90EF90DF90CF90EB
:100910000895089580E090E00895FC01538D448D82
:10092000252F30E0842F90E0821B930B541710F09A
:10093000CF96089501970895FC01918D828D9817A7
:1009400061F0828DDF01A80FB11D5D968C91928DB3
:100950009F5F9F73928F90E008958FEF9FEF0895B0
:10096000FC01918D828D981731F0828DE80FF11D79
:10097000858D90E008958FEF9FEF0895FC01918D94
:10098000228D892F90E0805C9F4F821B91098F738D
:100990009927089581EF92E00E94BE0421E0892BFF
:1009A00009F420E0822F0895FC01848DDF01A80F57
:1009B000B11DA35ABF4F2C91848D90E001968F7387
:1009C0009927848FA689B7892C93A089B1898C91A6
:1009D00080648C93938D848D981306C00288F3896C
:1009E000E02D80818F7D80830895EF92FF920F9399
:1009F0001F93CF93DF93EC0181E0888F9B8D8C8DCB
:100A0000981305C0E889F989808185FD24C0F62EF8
:100A10000B8D10E00F5F1F4F0F731127E02E8C8D91
:100A2000E8120CC00FB607FCFACFE889F98980817B
:100A300085FFF5CFCE010E94D404F1CF8B8DFE014E
:100A4000E80FF11DE35AFF4FF0820B8FEA89FB8913
:100A50008081806207C0EE89FF896083E889F98917
:100A600080818064808381E090E0DF91CF911F914D
:100A70000F91FF90EF900895CF93DF93EC01888D55
:100A80008823C9F0EA89FB89808185FD05C0A88992
:100A9000B9898C9186FD0FC00FB607FCF5CF808118
:100AA00085FFF2CFA889B9898C9185FFEDCFCE0162
:100AB0000E94D404E7CFDF91CF91089580E090E0C9
:100AC000892B21F00E94CA04811125C080E090E0AA
:100AD000892B41F080E090E0892B21F00E940000FA
:100AE00081111CC080E090E0892B41F080E090E013
:100AF000892B21F00E940000811113C080E090E05A
:100B0000892BA1F080E090E0892B81F00E94000009
:100B100081110AC008950E940000D8CF0E940000F1
:100B2000E1CF0E940000EACF0C94000008950097E6
:100B300069F0FC0101900020E9F73197AF01481BF3
:100B4000590BBC0181EF92E00C945E0480E090E0D0
:100B50000895CF93DF930E949705EC0182E192E024
:100B60000E9497058C0F9D1FDF91CF9108958F9262
:100B70009F92AF92BF920F931F93CF93DF93CDB706
:100B8000DEB7A1970FB6F894DEBF0FBECDBF19A296
:100B9000423008F44AE08E010F5D1F4F842E912CE5
:100BA000A12CB12CA50194010E94920EE62FB9014F
:100BB000CA0101501109EA3014F4E05D01C0E95C9A
:100BC000D801EC93232B242B252B61F7C8010E941D
:100BD0009705A1960FB6F894DEBF0FBECDBFDF918B
:100BE000CF911F910F91BF90AF909F908F900895DC
:100BF0000C9497054F925F926F927F928F929F9283
:100C0000AF92BF92CF92DF92EF92FF926B017C0185
:100C1000B42E9B01AC010E94780E882319F085E167
:100C200092E027C026013701E89477F82FEF3FEFD5
:100C30004FE75FE7C301B2010E94780E81110DC03A
:100C40002FEF3FEF4FE75FE7C301B2010E94680C4F
:100C500018161CF489E192E00CC02FEF3FEF4FE72C
:100C60005FE4C701B6010E94C00D181684F48DE13F
:100C700092E0FF90EF90DF90CF90BF90AF909F9069
:100C80008F907F906F905F904F900C9497052FEF0F
:100C90003FEF4FE75FECC701B6010E94680C87FD8C
:100CA000E6CF20E030E0A901C701B6010E94680C40
:100CB00087FF11C0E091F102F091F2020190F08102
:100CC000E02D6DE281EF92E019954C01F7FAF09476
:100CD000F7F8F09402C0812C912CA12C60E070E018
:100CE00080E09FE3AB1441F020E030E040E251E4CB
:100CF0000E946D0CA394F6CF9B01AC01C701B60115
:100D00000E94FC0B2B013C010E94DF0C6B017C015B
:100D10000E940E0D9B01AC01C301B2010E94FB0BAE
:100D20002B013C014AE0C701B6010E94B7057C01D6
:100D3000E80CF91CBB2069F0E091F102F091F2029D
:100D40000190F081E02D6EE281EF92E01995E80EBE
:100D5000F91EDB2CDD2021F120E030E040E251E4FF
:100D6000C301B2010E94C50D2B013C010E94DF0CA2
:100D70004B01A12CB12C4AE0C501B4010E94B7057A
:100D8000E80EF91EC501B4010E940E0D9B01AC01D5
:100D9000C301B2010E94FB0B2B013C01DA94DACFB4
:100DA000C701FF90EF90DF90CF90BF90AF909F90E2
:100DB0008F907F906F905F904F9008954F925F92C9
:100DC0006F927F928F929F92AF92BF92CF92DF925B
:100DD000EF92FF920F93CF93DF93CDB7DEB72897B3
:100DE0000FB6F894DEBF0FBECDBF6B017C01490189
:100DF0005A0101110EC026E636E646EE5FE30E9478
:100E0000C50D20E030E040E052E40E94FC0B6B0195
:100E10007C0120E030E044E752E4C701B6010E94C3
:100E2000FC0B2B013C0120E030E048E852E4C70114
:100E3000B6010E94FB0B2AE939E949E95FE30E9408
:100E4000C50D9B01AC01C301B2010E94FC0B2B013B
:100E50003C0122E133E840EC5DE3C501B4010E94AE
:100E6000C50D9B01AC01C301B2010E94FC0B20E047
:100E700030E040E05FE30E94C50D2B013C0120E023
:100E800030E04EE952E40E94C00D18160CF075C116
:100E9000A7019601C701B6010E94C50D2B013C01B7
:100EA000A5019401C501B4010E94C50D6D837E8327
:100EB0008F83988721E133E243E050E4C701B60114
:100EC0000E94C50D29E134E849E252E40E94FB0B7F
:100ED00069837A838B839C8326E13BE442E251E47D
:100EE000C501B4010E94C50D9B01AC0169817A81E5
:100EF0008B819C810E94FC0B69837A838B839C830A
:100F000028E436E246E65EEBC701B6010E94C50D55
:100F1000A50194010E94C50D9B01AC0169817A81F4
:100F20008B819C810E94FC0B69837A838B839C83D9
:100F300020EE3FE040EE5BEBC301B2010E94C50D25
:100F40009B01AC0169817A818B819C810E94FC0BA1
:100F500069837A838B839C8328EF37E840E65DEBD7
:100F60006D817E818F8198850E94C50D9B01AC01AA
:100F700069817A818B819C810E94FC0B69837A83D1
:100F80008B839C832CEA3DE041EA5AE3C301B20122
:100F90000E94C50DA50194010E94C50D9B01AC01E5
:100FA00069817A818B819C810E94FC0B69837A83A1
:100FB0008B839C8328EC3FE84FE55AE3C701B601D9
:100FC0000E94C50D2D813E814F8158850E94C50D1F
:100FD0009B01AC0169817A818B819C810E94FC0B11
:100FE00069837A838B839C8321EF3BE845E056EB52
:100FF000C301B2010E94C50D2D813E814F815885EC
:101000000E94C50D9B01AC0169817A818B819C8115
:101010000E94FC0B2B013C0120E030E040E551E454
:10102000C501B4010E94680C87FF5CC020E030E07D
:1010300040EA52E4C701B6010E94C00D87FD52C0CC
:1010400020E030E040EE52E4C701B6010E94680C97
:1010500018160CF4A6C0A501940160E070E080E5CC
:1010600091E40E94FB0B20E030E040E85EE30E9448
:10107000C50D4B015C0120E030E04EEB52E4C701AE
:10108000B6010E94FB0B6B017C0120E030E0A9015E
:101090000E94C00D18164CF4A701960160E070E0A4
:1010A00088E891E40E94FB0B08C020E030E048E8AB
:1010B00051E4C701B6010E94FC0B2EE33DEE40E770
:1010C0005DE30E94C50D0E94380E9B01AC01C50175
:1010D000B4010E94C50D9B01AC01B201C3010E9485
:1010E000FB0B49C020E030E04AEA52E4C501B401FC
:1010F0000E94C00D18160CF040C020E030E040EA1D
:1011000052E4C701B6010E94C00D87FD36C020E041
:1011100030E04EEA52E4C701B6010E94680C18168E
:1011200064F120E030E04AEA52E4C501B4010E94D3
:10113000FB0B2DEC3CEC4CEC5DE30E94C50D4B0130
:101140005C01A701960160E070E08EEA92E40E94E3
:10115000FB0B2DEC3CEC4CE45EE30E94C50D9B01C7
:10116000AC01C501B4010E94C50D9B01AC01B201E7
:10117000C3010E94FC0B2B013C0101110FC020E0B8
:1011800030E040E052E4B201C3010E94FB0B26E8CC
:1011900038E34EE05FE30E94C50D0FC0B201C3010A
:1011A0000CC020E030E04AEA52E4C501B4010E94DC
:1011B000C00D18160CF4ABCFE0CF6B017C01C7015A
:1011C000B60128960FB6F894DEBF0FBECDBFDF91F3
:1011D000CF910F91FF90EF90DF90CF90BF90AF90A5
:1011E0009F908F907F906F905F904F9008950E9496
:1011F000BC0E1F920F920FB60F9211242F933F93A4
:101200008F939F93AF93BF938091ED029091EE02E5
:10121000A091EF02B091F0023091E80223E0230F99
:101220002D3720F40196A11DB11D05C026E8230F1E
:101230000296A11DB11D2093E8028093ED029093C8
:10124000EE02A093EF02B093F0028091E902909138
:10125000EA02A091EB02B091EC020196A11DB11D32
:101260008093E9029093EA02A093EB02B093EC0220
:10127000BF91AF919F918F913F912F910F900FBE92
:101280000F901F9018951F920F920FB60F92112476
:101290000BB60F922F933F934F935F936F937F9370
:1012A0008F939F93AF93BF93EF93FF9381EF92E060
:1012B0000E94D404FF91EF91BF91AF919F918F91C4
:1012C0007F916F915F914F913F912F910F900BBE46
:1012D0000F900FBE0F901F9018951F920F920FB690
:1012E0000F9211240BB60F922F938F939F93EF932E
:1012F000FF93E0910103F09102038081E0910703E5
:10130000F091080382FD12C0908180910A038F5FE3
:101310008F7320910B03821751F0E0910A03F0E0E4
:10132000EF50FD4F958F80930A0301C08081FF919C
:10133000EF919F918F912F910F900BBE0F900FBE49
:101340000F901F901895E1EFF2E01382128288EE61
:1013500093E0A0E0B0E084839583A683B78384E024
:1013600092E09183808385EC90E09587848784EC7C
:1013700090E09787868780EC90E0918B808B81EC62
:1013800090E0938B828B82EC90E0958B848B86EC43
:1013900090E0978B868B118E128E138E148EAEE892
:1013A000B3E087E315968C9315978BE016968C9394
:1013B0001697EDE7F2E0E4911796EC931797E7E3C1
:1013C000F2E0E4911896EC93189740E85EE360E051
:1013D00070E01D964D935D936D937C9350970895A7
:1013E000CF93DF93CDB7DEB728970FB6F894DEBF63
:1013F0000FBECDBF789484B5826084BD84B5816012
:1014000084BD85B5826085BD85B5816085BD8091CF
:101410006E00816080936E00109281008091810047
:10142000826080938100809181008160809381003F
:10143000809180008160809380008091B100846001
:101440008093B1008091B00081608093B000809162
:1014500091008260809391008091910081608093DF
:101460009100809190008160809390008091A10014
:1014700082608093A1008091A10081608093A1008F
:101480008091A00081608093A00080912101826002
:1014900080932101809121018160809321018091BD
:1014A000200181608093200180917A008460809384
:1014B0007A0080917A00826080937A0080917A002D
:1014C000816080937A0080917A00806880937A00AE
:1014D0001092C100E0910103F091020382E0808349
:1014E000E091FD02F091FE021082E091FF02F09186
:1014F00000038FEC808310920903E0910503F091C3
:10150000060386E08083E0910303F0910403808169
:1015100080618083E0910303F091040380818860FF
:101520008083E0910303F0910403808180688083CD
:10153000E0910303F091040380818F7D808362E05A
:10154000809193030E94450280E398EFAFEFBFEFD5
:101550008093970390939803A0939903B0939A0371
:1015600060ED77E080E090E00E94C5020E94FF02FB
:101570008823B1F1809194038B3041F188F185513A
:10158000823070F560918E0370E080E090E00E9400
:101590000E0D20E030E040E853E40E94C50D6B01E1
:1015A0007C0180918F03682F70E080E090E00E94C2
:1015B000100D9B01AC01C701B6010E94FC0B2DEC84
:1015C0003CEC4CEC5DE30E94C50D07C060918E03BE
:1015D00070E080E090E00E940E0D6B017C0106C07F
:1015E000C12CD12C80ECE82E8FE7F82E80E00E94F1
:1015F000FF032B013C0181E00E94FF034B015C01D2
:10160000A7019601C701B6010E94780E8111ECC0B6
:10161000A3019201C301B2010E94780E8111E4C0BE
:10162000A5019401C501B4010E94780E8111DCC0AE
:1016300001E0A7019601C501B4010E94DE0669839D
:101640007A838B839C8300E0A7019601C301B201DA
:101650000E94DE066D837E838F83988781E292E00D
:101660000E94F80542E0C701B6010E94FA058CE22B
:1016700092E00E94F80580E392E00E94F80542E0C3
:10168000C301B2010E94FA058EE392E00E94F805C0
:1016900042E0C501B4010E94FA0583E492E00E9491
:1016A000F80588E492E00E94F80542E06D817E81B1
:1016B0008F8198850E94FA058EE392E00E94F805DA
:1016C00042E069817A818B819C810E94FA0585E5DF
:1016D00092E00E94A90564EF71E080E090E00E9432
:1016E000C5028BE30E948102BC01990F880B990B04
:1016F0000E94100D2AE038E240EA5BE30E94C50D2B
:1017000020E030E04AE754E40E94C50D6B017C0103
:101710009B01AC0160E070E48CE995E40E94FB0B56
:101720009B01AC01C701B6010E946D0C20E030E4C2
:101730004CE156E40E94C50D4B015C0189E592E045
:101740000E94F80542E0C701B6010E94FA0584E64E
:1017500092E00E94F80587E692E00E94F80542E0D8
:10176000C501B4010E94FA0587E792E00E94A9052D
:101770008BE792E00E94F805A501940160E074E215
:1017800084E799E40E94FB0B2DEC3CEC49EF54E418
:101790000E946D0C42E00E94FA0589E892E00E94E6
:1017A000A9058DE892E00E94F80586E30E94810277
:1017B000BC01990F880B990B0E94100D20E030E0BE
:1017C00040EA50E40E94C50D20E030EC4FE754E4BD
:1017D0000E946D0C42E00E94FA0582E192E00E94B4
:1017E000970580EA92E002C088EC92E00E94A90589
:1017F0000E945E05B5CE5058BB27AA270E94130C45
:101800000C94860D0E94780D38F00E947F0D20F018
:1018100039F49F3F19F426F40C94750D0EF4E095FD
:10182000E7FB0C946F0DE92F0E94970D58F3BA1740
:10183000620773078407950720F079F4A6F50C94E6
:10184000B90D0EF4E0950B2EBA2FA02D0B01B901A6
:1018500090010C01CA01A0011124FF27591B99F026
:10186000593F50F4503E68F11A16F040A22F232F32
:10187000342F4427585FF3CF469537952795A79582
:10188000F0405395C9F77EF41F16BA0B620B730B29
:10189000840BBAF09150A1F0FF0FBB1F661F771F9A
:1018A000881FC2F70EC0BA0F621F731F841F48F44F
:1018B000879577956795B795F7959E3F08F0B0CFD8
:1018C0009395880F08F09927EE0F979587950895BF
:1018D0000E944B0D08F481E008950E94810C0C9445
:1018E000860D0E947F0D58F00E94780D40F029F47B
:1018F0005F3F29F00C946F0D51110C94BA0D0C94AC
:10190000750D0E94970D68F39923B1F3552391F358
:10191000951B550BBB27AA2762177307840738F05E
:101920009F5F5F4F220F331F441FAA1FA9F335D0BB
:101930000E2E3AF0E0E832D091505040E695001C6F
:10194000CAF72BD0FE2F29D0660F771F881FBB1F29
:10195000261737074807AB07B0E809F0BB0B802D07
:10196000BF01FF2793585F4F3AF09E3F510578F033
:101970000C946F0D0C94BA0D5F3FE4F3983ED4F3D2
:10198000869577956795B795F7959F5FC9F7880F07
:10199000911D9695879597F90895E1E0660F771F59
:1019A000881FBB1F621773078407BA0720F0621BEA
:1019B000730B840BBA0BEE1F88F7E09508950E9415
:1019C0009F0D88F09F5798F0B92F9927B751B0F025
:1019D000E1F0660F771F881F991F1AF0BA95C9F7B3
:1019E00014C0B13091F00E94B90DB1E008950C948B
:1019F000B90D672F782F8827B85F39F0B93FCCF33E
:101A0000869577956795B395D9F73EF4909580952F
:101A1000709561957F4F8F4F9F4F0895E89409C04F
:101A200097FB3EF490958095709561957F4F8F4F11
:101A30009F4F9923A9F0F92F96E9BB279395F69527
:101A4000879577956795B795F111F8CFFAF4BB0FA5
:101A500011F460FF1BC06F5F7F4F8F4F9F4F16C009
:101A6000882311F096E911C0772321F09EE8872F93
:101A7000762F05C0662371F096E8862F70E060E04F
:101A80002AF09A95660F771F881FDAF7880F9695C8
:101A9000879597F90895990F0008550FAA0BE0E86C
:101AA000FEEF16161706E807F907C0F01216130620
:101AB000E407F50798F0621B730B840B950B39F460
:101AC0000A2661F0232B242B252B21F408950A26C6
:101AD00009F4A140A6958FEF811D811D089597F906
:101AE0009F6780E870E060E008959FEF80EC0895C4
:101AF00000240A94161617061806090608950024ED
:101B00000A9412161306140605060895092E039466
:101B1000000C11F4882352F0BB0F40F4BF2B11F4DA
:101B200060FF04C06F5F7F4F8F4F9F4F089557FD39
:101B30009058440F551F59F05F3F71F04795880F3B
:101B400097FB991F61F09F3F79F0879508951216D2
:101B500013061406551FF2CF4695F1DF08C016167E
:101B600017061806991FF1CF86957105610508942F
:101B70000895E894BB2766277727CB0197F9089546
:101B80000E944B0D08F48FEF08950E94D80D0C941D
:101B9000860D0E94780D38F00E947F0D20F095236D
:101BA00011F00C946F0D0C94750D11240C94BA0D5A
:101BB0000E94970D70F3959FC1F3950F50E0551F4C
:101BC000629FF001729FBB27F00DB11D639FAA2792
:101BD000F00DB11DAA1F649F6627B00DA11D661FE1
:101BE000829F2227B00DA11D621F739FB00DA11D02
:101BF000621F839FA00D611D221F749F3327A00DBC
:101C0000611D231F849F600D211D822F762F6A2F57
:101C100011249F5750409AF0F1F088234AF0EE0FBC
:101C2000FF1FBB1F661F771F881F91505040A9F7E9
:101C30009E3F510580F00C946F0D0C94BA0D5F3FE0
:101C4000E4F3983ED4F3869577956795B795F79525
:101C5000E7959F5FC1F7FE2B880F911D969587959D
:101C600097F9089519F416F40C94750D0C947D0EE3
:101C70000E949F0DB8F39923C9F3B6F39F57550BF4
:101C800087FF0E948B0E0024A0E640EA9001805856
:101C90005695979528F4805C660F771F881F20F073
:101CA00026173707480730F4621B730B840B202973
:101CB00031294A2BA69517940794202531254A27C8
:101CC00058F7660F771F881F20F026173707480739
:101CD00030F4620B730B840B200D311D411DA09558
:101CE00081F7B901842F9158880F969587950895AB
:101CF0000E944B0D880B990B08959F3F31F0915036
:101D000020F4879577956795B795880F911D9695DF
:101D1000879597F9089591505040660F771F881F57
:101D2000D2F70895A1E21A2EAA1BBB1BFD010DC01C
:101D3000AA1FBB1FEE1FFF1FA217B307E407F5077B
:101D400020F0A21BB30BE40BF50B661F771F881F57
:101D5000991F1A9469F760957095809590959B01ED
:101D6000AC01BD01CF010895EE0FFF1F881F8BBF8F
:101D70000790F691E02D199481E090E0F8940C948E
:061D8000C10EF894FFCF34
:101D860000000000F5045E048D043C05BE049C04BE
:101D9600B0040D0A006E616E00696E66006F7666AD
:101DA6000048756D69646974793A20002025090038
:101DB60054656D70657261747572653A2000202AEB
:101DC600432000202A4609004865617420696E6434
:101DD60065783A2000202A460054656E73696F6E56
:101DE600203A20006D56002C205265736973746189
:101DF6006E6365203A20004F686D004C756D696E04
:101E06006F73697465203A20004C75780053656ECF
:101E1600736F7220536F6E2056616C75653A2000A1
:101E26002D2D2D2D2D2D2D2D2D2D2D2D2D2D2D2DDC
:101E36002D2D2D2D2D2D2D2D2D2D2D2D2D2D2D2DCC
:101E46002D2D2D2D2D2D2D004661696C6564207478
:101E56006F20726561642066726F6D20444854205D
:081E660073656E736F722100B9
:00000001FF
